{
  "_format": "hh-sol-artifact-1",
  "contractName": "D_Pool_SingleReward",
  "sourceName": "contracts/D_Pool_SingleReward.sol",
  "abi": [
    {
      "anonymous": false,
      "inputs": [
        {
          "indexed": false,
          "internalType": "address",
          "name": "previousAdmin",
          "type": "address"
        },
        {
          "indexed": false,
          "internalType": "address",
          "name": "newAdmin",
          "type": "address"
        }
      ],
      "name": "AdminChanged",
      "type": "event"
    },
    {
      "anonymous": false,
      "inputs": [
        {
          "indexed": true,
          "internalType": "address",
          "name": "beacon",
          "type": "address"
        }
      ],
      "name": "BeaconUpgraded",
      "type": "event"
    },
    {
      "anonymous": false,
      "inputs": [
        {
          "indexed": false,
          "internalType": "uint8",
          "name": "version",
          "type": "uint8"
        }
      ],
      "name": "Initialized",
      "type": "event"
    },
    {
      "anonymous": false,
      "inputs": [
        {
          "indexed": false,
          "internalType": "address",
          "name": "account",
          "type": "address"
        }
      ],
      "name": "Paused",
      "type": "event"
    },
    {
      "anonymous": false,
      "inputs": [
        {
          "indexed": true,
          "internalType": "bytes32",
          "name": "role",
          "type": "bytes32"
        },
        {
          "indexed": true,
          "internalType": "bytes32",
          "name": "previousAdminRole",
          "type": "bytes32"
        },
        {
          "indexed": true,
          "internalType": "bytes32",
          "name": "newAdminRole",
          "type": "bytes32"
        }
      ],
      "name": "RoleAdminChanged",
      "type": "event"
    },
    {
      "anonymous": false,
      "inputs": [
        {
          "indexed": true,
          "internalType": "bytes32",
          "name": "role",
          "type": "bytes32"
        },
        {
          "indexed": true,
          "internalType": "address",
          "name": "account",
          "type": "address"
        },
        {
          "indexed": true,
          "internalType": "address",
          "name": "sender",
          "type": "address"
        }
      ],
      "name": "RoleGranted",
      "type": "event"
    },
    {
      "anonymous": false,
      "inputs": [
        {
          "indexed": true,
          "internalType": "bytes32",
          "name": "role",
          "type": "bytes32"
        },
        {
          "indexed": true,
          "internalType": "address",
          "name": "account",
          "type": "address"
        },
        {
          "indexed": true,
          "internalType": "address",
          "name": "sender",
          "type": "address"
        }
      ],
      "name": "RoleRevoked",
      "type": "event"
    },
    {
      "anonymous": false,
      "inputs": [
        {
          "indexed": false,
          "internalType": "address",
          "name": "account",
          "type": "address"
        }
      ],
      "name": "Unpaused",
      "type": "event"
    },
    {
      "anonymous": false,
      "inputs": [
        {
          "indexed": true,
          "internalType": "address",
          "name": "implementation",
          "type": "address"
        }
      ],
      "name": "Upgraded",
      "type": "event"
    },
    {
      "inputs": [],
      "name": "DEFAULT_ADMIN_ROLE",
      "outputs": [
        {
          "internalType": "bytes32",
          "name": "",
          "type": "bytes32"
        }
      ],
      "stateMutability": "view",
      "type": "function"
    },
    {
      "inputs": [],
      "name": "MINTER_ROLE",
      "outputs": [
        {
          "internalType": "bytes32",
          "name": "",
          "type": "bytes32"
        }
      ],
      "stateMutability": "view",
      "type": "function"
    },
    {
      "inputs": [],
      "name": "PAUSER_ROLE",
      "outputs": [
        {
          "internalType": "bytes32",
          "name": "",
          "type": "bytes32"
        }
      ],
      "stateMutability": "view",
      "type": "function"
    },
    {
      "inputs": [],
      "name": "UPGRADER_ROLE",
      "outputs": [
        {
          "internalType": "bytes32",
          "name": "",
          "type": "bytes32"
        }
      ],
      "stateMutability": "view",
      "type": "function"
    },
    {
      "inputs": [
        {
          "internalType": "address",
          "name": "",
          "type": "address"
        }
      ],
      "name": "balanceOf",
      "outputs": [
        {
          "internalType": "uint256",
          "name": "",
          "type": "uint256"
        }
      ],
      "stateMutability": "view",
      "type": "function"
    },
    {
      "inputs": [
        {
          "internalType": "bool",
          "name": "_status",
          "type": "bool"
        }
      ],
      "name": "changeUpgradeStatus",
      "outputs": [],
      "stateMutability": "nonpayable",
      "type": "function"
    },
    {
      "inputs": [],
      "name": "claimReward",
      "outputs": [],
      "stateMutability": "nonpayable",
      "type": "function"
    },
    {
      "inputs": [
        {
          "internalType": "uint256",
          "name": "_amount",
          "type": "uint256"
        }
      ],
      "name": "deposit",
      "outputs": [],
      "stateMutability": "nonpayable",
      "type": "function"
    },
    {
      "inputs": [],
      "name": "duration",
      "outputs": [
        {
          "internalType": "uint256",
          "name": "",
          "type": "uint256"
        }
      ],
      "stateMutability": "view",
      "type": "function"
    },
    {
      "inputs": [
        {
          "internalType": "address",
          "name": "",
          "type": "address"
        }
      ],
      "name": "earned",
      "outputs": [
        {
          "internalType": "uint256",
          "name": "",
          "type": "uint256"
        }
      ],
      "stateMutability": "view",
      "type": "function"
    },
    {
      "inputs": [],
      "name": "finishAt",
      "outputs": [
        {
          "internalType": "uint256",
          "name": "",
          "type": "uint256"
        }
      ],
      "stateMutability": "view",
      "type": "function"
    },
    {
      "inputs": [
        {
          "internalType": "address",
          "name": "_account",
          "type": "address"
        }
      ],
      "name": "getRewardBalance",
      "outputs": [
        {
          "internalType": "uint256",
          "name": "",
          "type": "uint256"
        }
      ],
      "stateMutability": "view",
      "type": "function"
    },
    {
      "inputs": [],
      "name": "getRewardToken",
      "outputs": [
        {
          "internalType": "address",
          "name": "",
          "type": "address"
        }
      ],
      "stateMutability": "view",
      "type": "function"
    },
    {
      "inputs": [
        {
          "internalType": "bytes32",
          "name": "role",
          "type": "bytes32"
        }
      ],
      "name": "getRoleAdmin",
      "outputs": [
        {
          "internalType": "bytes32",
          "name": "",
          "type": "bytes32"
        }
      ],
      "stateMutability": "view",
      "type": "function"
    },
    {
      "inputs": [
        {
          "internalType": "address",
          "name": "_account",
          "type": "address"
        }
      ],
      "name": "getStakeBalance",
      "outputs": [
        {
          "internalType": "uint256",
          "name": "",
          "type": "uint256"
        }
      ],
      "stateMutability": "view",
      "type": "function"
    },
    {
      "inputs": [],
      "name": "getStakeToken",
      "outputs": [
        {
          "internalType": "address",
          "name": "",
          "type": "address"
        }
      ],
      "stateMutability": "view",
      "type": "function"
    },
    {
      "inputs": [
        {
          "internalType": "address",
          "name": "_account",
          "type": "address"
        }
      ],
      "name": "getTotalUserEarned",
      "outputs": [
        {
          "internalType": "uint256",
          "name": "",
          "type": "uint256"
        }
      ],
      "stateMutability": "view",
      "type": "function"
    },
    {
      "inputs": [
        {
          "internalType": "bytes32",
          "name": "role",
          "type": "bytes32"
        },
        {
          "internalType": "address",
          "name": "account",
          "type": "address"
        }
      ],
      "name": "grantRole",
      "outputs": [],
      "stateMutability": "nonpayable",
      "type": "function"
    },
    {
      "inputs": [
        {
          "internalType": "bytes32",
          "name": "role",
          "type": "bytes32"
        },
        {
          "internalType": "address",
          "name": "account",
          "type": "address"
        }
      ],
      "name": "hasRole",
      "outputs": [
        {
          "internalType": "bool",
          "name": "",
          "type": "bool"
        }
      ],
      "stateMutability": "view",
      "type": "function"
    },
    {
      "inputs": [
        {
          "internalType": "address",
          "name": "_stakingToken",
          "type": "address"
        },
        {
          "internalType": "address",
          "name": "_rewardsToken",
          "type": "address"
        },
        {
          "internalType": "address",
          "name": "_multiSigWallet",
          "type": "address"
        },
        {
          "internalType": "address",
          "name": "_handler",
          "type": "address"
        },
        {
          "internalType": "address",
          "name": "_trustedForwarder",
          "type": "address"
        }
      ],
      "name": "initialize",
      "outputs": [],
      "stateMutability": "nonpayable",
      "type": "function"
    },
    {
      "inputs": [
        {
          "internalType": "address",
          "name": "forwarder",
          "type": "address"
        }
      ],
      "name": "isTrustedForwarder",
      "outputs": [
        {
          "internalType": "bool",
          "name": "",
          "type": "bool"
        }
      ],
      "stateMutability": "view",
      "type": "function"
    },
    {
      "inputs": [],
      "name": "lastTimeRewardApplicable",
      "outputs": [
        {
          "internalType": "uint256",
          "name": "",
          "type": "uint256"
        }
      ],
      "stateMutability": "view",
      "type": "function"
    },
    {
      "inputs": [],
      "name": "liquidityHandler",
      "outputs": [
        {
          "internalType": "address",
          "name": "",
          "type": "address"
        }
      ],
      "stateMutability": "view",
      "type": "function"
    },
    {
      "inputs": [
        {
          "internalType": "uint256",
          "name": "_amount",
          "type": "uint256"
        }
      ],
      "name": "notifyRewardAmount",
      "outputs": [],
      "stateMutability": "nonpayable",
      "type": "function"
    },
    {
      "inputs": [],
      "name": "pause",
      "outputs": [],
      "stateMutability": "nonpayable",
      "type": "function"
    },
    {
      "inputs": [],
      "name": "paused",
      "outputs": [
        {
          "internalType": "bool",
          "name": "",
          "type": "bool"
        }
      ],
      "stateMutability": "view",
      "type": "function"
    },
    {
      "inputs": [],
      "name": "proxiableUUID",
      "outputs": [
        {
          "internalType": "bytes32",
          "name": "",
          "type": "bytes32"
        }
      ],
      "stateMutability": "view",
      "type": "function"
    },
    {
      "inputs": [
        {
          "internalType": "bytes32",
          "name": "role",
          "type": "bytes32"
        },
        {
          "internalType": "address",
          "name": "account",
          "type": "address"
        }
      ],
      "name": "renounceRole",
      "outputs": [],
      "stateMutability": "nonpayable",
      "type": "function"
    },
    {
      "inputs": [
        {
          "internalType": "bytes32",
          "name": "role",
          "type": "bytes32"
        },
        {
          "internalType": "address",
          "name": "account",
          "type": "address"
        }
      ],
      "name": "revokeRole",
      "outputs": [],
      "stateMutability": "nonpayable",
      "type": "function"
    },
    {
      "inputs": [],
      "name": "rewardPerToken",
      "outputs": [
        {
          "internalType": "uint256",
          "name": "",
          "type": "uint256"
        }
      ],
      "stateMutability": "view",
      "type": "function"
    },
    {
      "inputs": [],
      "name": "rewardPerTokenStored",
      "outputs": [
        {
          "internalType": "uint256",
          "name": "",
          "type": "uint256"
        }
      ],
      "stateMutability": "view",
      "type": "function"
    },
    {
      "inputs": [],
      "name": "rewardRate",
      "outputs": [
        {
          "internalType": "uint256",
          "name": "",
          "type": "uint256"
        }
      ],
      "stateMutability": "view",
      "type": "function"
    },
    {
      "inputs": [
        {
          "internalType": "address",
          "name": "",
          "type": "address"
        }
      ],
      "name": "rewards",
      "outputs": [
        {
          "internalType": "uint256",
          "name": "",
          "type": "uint256"
        }
      ],
      "stateMutability": "view",
      "type": "function"
    },
    {
      "inputs": [],
      "name": "rewardsToken",
      "outputs": [
        {
          "internalType": "contract IERC20Upgradeable",
          "name": "",
          "type": "address"
        }
      ],
      "stateMutability": "view",
      "type": "function"
    },
    {
      "inputs": [
        {
          "internalType": "address",
          "name": "newHandler",
          "type": "address"
        }
      ],
      "name": "setLiquidityHandler",
      "outputs": [],
      "stateMutability": "nonpayable",
      "type": "function"
    },
    {
      "inputs": [
        {
          "internalType": "uint256",
          "name": "_duration",
          "type": "uint256"
        }
      ],
      "name": "setRewardsDuration",
      "outputs": [],
      "stateMutability": "nonpayable",
      "type": "function"
    },
    {
      "inputs": [
        {
          "internalType": "address",
          "name": "newTrustedForwarder",
          "type": "address"
        }
      ],
      "name": "setTrustedForwarder",
      "outputs": [],
      "stateMutability": "nonpayable",
      "type": "function"
    },
    {
      "inputs": [],
      "name": "stakingToken",
      "outputs": [
        {
          "internalType": "contract IERC20Upgradeable",
          "name": "",
          "type": "address"
        }
      ],
      "stateMutability": "view",
      "type": "function"
    },
    {
      "inputs": [
        {
          "internalType": "bytes4",
          "name": "interfaceId",
          "type": "bytes4"
        }
      ],
      "name": "supportsInterface",
      "outputs": [
        {
          "internalType": "bool",
          "name": "",
          "type": "bool"
        }
      ],
      "stateMutability": "view",
      "type": "function"
    },
    {
      "inputs": [],
      "name": "totalSupply",
      "outputs": [
        {
          "internalType": "uint256",
          "name": "",
          "type": "uint256"
        }
      ],
      "stateMutability": "view",
      "type": "function"
    },
    {
      "inputs": [],
      "name": "trustedForwarder",
      "outputs": [
        {
          "internalType": "address",
          "name": "",
          "type": "address"
        }
      ],
      "stateMutability": "view",
      "type": "function"
    },
    {
      "inputs": [],
      "name": "unpause",
      "outputs": [],
      "stateMutability": "nonpayable",
      "type": "function"
    },
    {
      "inputs": [],
      "name": "updatedAt",
      "outputs": [
        {
          "internalType": "uint256",
          "name": "",
          "type": "uint256"
        }
      ],
      "stateMutability": "view",
      "type": "function"
    },
    {
      "inputs": [],
      "name": "upgradeStatus",
      "outputs": [
        {
          "internalType": "bool",
          "name": "",
          "type": "bool"
        }
      ],
      "stateMutability": "view",
      "type": "function"
    },
    {
      "inputs": [
        {
          "internalType": "address",
          "name": "newImplementation",
          "type": "address"
        }
      ],
      "name": "upgradeTo",
      "outputs": [],
      "stateMutability": "nonpayable",
      "type": "function"
    },
    {
      "inputs": [
        {
          "internalType": "address",
          "name": "newImplementation",
          "type": "address"
        },
        {
          "internalType": "bytes",
          "name": "data",
          "type": "bytes"
        }
      ],
      "name": "upgradeToAndCall",
      "outputs": [],
      "stateMutability": "payable",
      "type": "function"
    },
    {
      "inputs": [
        {
          "internalType": "address",
          "name": "",
          "type": "address"
        }
      ],
      "name": "userRewardPerTokenPaid",
      "outputs": [
        {
          "internalType": "uint256",
          "name": "",
          "type": "uint256"
        }
      ],
      "stateMutability": "view",
      "type": "function"
    },
    {
      "inputs": [
        {
          "internalType": "uint256",
          "name": "_amount",
          "type": "uint256"
        }
      ],
      "name": "withdraw",
      "outputs": [],
      "stateMutability": "nonpayable",
      "type": "function"
    }
  ],
  "bytecode": "0x60a06040523060805234801561001457600080fd5b5060805161278761004c60003960008181610d0d01528181610d4d01528181610fe301528181611023015261109b01526127876000f3fe6080604052600436106102225760003560e01c80628cc2621461022757806301ffc9a7146102685780630700037d146102985780630fb5a6b4146102c65780631459457a146102dd57806318160ddd146102ff5780631ddbddd614610316578063248a9ca3146103365780632e1a7d4d146103565780632f2ff15d1461037657806336568abe146103965780633659cfe6146103b65780633c6b16ab146103d65780633f4ba83a146103f6578063441f510b1461040b5780634f1ef28614610442578063500a15641461045557806352d1902d1461047d578063572b6c05146104925780635c975abb146104c257806367d3b488146104da57806369940d79146104f157806370a082311461051057806372f702f31461053e5780637519ab501461055f5780637b0a47ee146105765780637da0a8771461058d57806380faa57d146105ae5780638456cb59146105c35780638b876347146105d857806391d1485414610606578063a217fddf14610626578063b6b55f251461063b578063b88a802f1461065b578063cc1a378f14610670578063cd3daf9d14610690578063d1af0c7d146106a5578063d4d543c5146106c6578063d5391393146106e8578063d547741f1461071c578063d5a849e91461073c578063d701f5231461075c578063d9e088111461077c578063da7422281461079d578063df136d65146107bd578063e63ab1e9146107d4578063ef869773146107f6578063f72c0d8b1461082d575b600080fd5b34801561023357600080fd5b506102556102423660046121a7565b6101396020526000908152604090205481565b6040519081526020015b60405180910390f35b34801561027457600080fd5b506102886102833660046121c2565b61084f565b604051901515815260200161025f565b3480156102a457600080fd5b506102556102b33660046121a7565b6101386020526000908152604090205481565b3480156102d257600080fd5b506102556101325481565b3480156102e957600080fd5b506102fd6102f83660046121ec565b610886565b005b34801561030b57600080fd5b506102556101315481565b34801561032257600080fd5b506102fd6103313660046121a7565b610a41565b34801561034257600080fd5b50610255610351366004612251565b610a9e565b34801561036257600080fd5b506102fd610371366004612251565b610ab3565b34801561038257600080fd5b506102fd61039136600461226a565b610c30565b3480156103a257600080fd5b506102fd6103b136600461226a565b610c84565b3480156103c257600080fd5b506102fd6103d13660046121a7565b610d02565b3480156103e257600080fd5b506102fd6103f1366004612251565b610dcb565b34801561040257600080fd5b506102fd610fc5565b34801561041757600080fd5b506102556104263660046121a7565b6001600160a01b03166000908152610139602052604090205490565b6102fd6104503660046122ac565b610fd8565b34801561046157600080fd5b5061012f546001600160a01b03165b60405161025f919061236d565b34801561048957600080fd5b5061025561108e565b34801561049e57600080fd5b506102886104ad3660046121a7565b61012e546001600160a01b0391821691161490565b3480156104ce57600080fd5b5060335460ff16610288565b3480156104e657600080fd5b506102556101335481565b3480156104fd57600080fd5b50610130546001600160a01b0316610470565b34801561051c57600080fd5b5061025561052b3660046121a7565b61013a6020526000908152604090205481565b34801561054a57600080fd5b5061012f54610470906001600160a01b031681565b34801561056b57600080fd5b506102556101345481565b34801561058257600080fd5b506102556101355481565b34801561059957600080fd5b5061012e54610470906001600160a01b031681565b3480156105ba57600080fd5b5061025561113c565b3480156105cf57600080fd5b506102fd611150565b3480156105e457600080fd5b506102556105f33660046121a7565b6101376020526000908152604090205481565b34801561061257600080fd5b5061028861062136600461226a565b611163565b34801561063257600080fd5b50610255600081565b34801561064757600080fd5b506102fd610656366004612251565b61118e565b34801561066757600080fd5b506102fd61130a565b34801561067c57600080fd5b506102fd61068b366004612251565b611434565b34801561069c57600080fd5b50610255611497565b3480156106b157600080fd5b5061013054610470906001600160a01b031681565b3480156106d257600080fd5b5061012d5461028890600160a01b900460ff1681565b3480156106f457600080fd5b506102557f9f2df0fed2c77648de5860a4cc508cd0818c85b8b8a1ab4ceeef8d981c8956a681565b34801561072857600080fd5b506102fd61073736600461226a565b6114ff565b34801561074857600080fd5b506102556107573660046121a7565b61151b565b34801561076857600080fd5b506102fd61077736600461238f565b611595565b34801561078857600080fd5b5061012d54610470906001600160a01b031681565b3480156107a957600080fd5b506102fd6107b83660046121a7565b6115c0565b3480156107c957600080fd5b506102556101365481565b3480156107e057600080fd5b5061025560008051602061270b83398151915281565b34801561080257600080fd5b506102556108113660046121a7565b6001600160a01b0316600090815261013a602052604090205490565b34801561083957600080fd5b506102556000805160206126cb83398151915281565b60006001600160e01b03198216637965db0b60e01b148061088057506301ffc9a760e01b6001600160e01b03198316145b92915050565b600054610100900460ff16158080156108a65750600054600160ff909116105b806108c757506108b5306115ef565b1580156108c7575060005460ff166001145b61092f5760405162461bcd60e51b815260206004820152602e60248201527f496e697469616c697a61626c653a20636f6e747261637420697320616c72656160448201526d191e481a5b9a5d1a585b1a5e995960921b60648201526084015b60405180910390fd5b6000805460ff191660011790558015610952576000805461ff0019166101001790555b61095a6115fe565b61096261162f565b61096a61162f565b610975600085611656565b61098d6000805160206126cb83398151915285611656565b6109a560008051602061270b83398151915285611656565b61012f80546001600160a01b038089166001600160a01b031992831617909255610130805488841690831617905561012d805486841690831617905561012e8054928516929091169190911790558015610a39576000805461ff0019169055604051600181527f7f26b83ff96e1f2b6a682f133852f6798a09c465da95921460cefb38474024989060200160405180910390a15b505050505050565b6000610a4c816116dc565b610a5e826001600160a01b03166115ef565b610a7a5760405162461bcd60e51b8152600401610926906123ac565b5061012d80546001600160a01b0319166001600160a01b0392909216919091179055565b60009081526097602052604090206001015490565b33610abc611497565b61013655610ac861113c565b610134556001600160a01b03811615610b1357610ae48161151b565b6001600160a01b0382166000908152610138602090815260408083209390935561013654610137909152919020555b33600090815261013a6020526040902054821115610b7e5760405162461bcd60e51b815260206004820152602260248201527f616d6f756e7420746f6f206869676874202f2062616c616e636520746f6f206c6044820152616f7760f01b6064820152608401610926565b61012d5461012f54604051636ce5768960e11b81526001600160a01b0392831692839263d9caed1292610bb9923392169088906004016123db565b600060405180830381600087803b158015610bd357600080fd5b505af1158015610be7573d6000803e3d6000fd5b505033600090815261013a602052604081208054879450909250610c0c908490612415565b92505081905550826101316000828254610c269190612415565b9091555050505050565b610c3982610a9e565b610c42816116dc565b82610c7557610c59826001600160a01b03166115ef565b610c755760405162461bcd60e51b8152600401610926906123ac565b610c7f8383611656565b505050565b6001600160a01b0381163314610cf45760405162461bcd60e51b815260206004820152602f60248201527f416363657373436f6e74726f6c3a2063616e206f6e6c792072656e6f756e636560448201526e103937b632b9903337b91039b2b63360891b6064820152608401610926565b610cfe82826116e6565b5050565b306001600160a01b037f0000000000000000000000000000000000000000000000000000000000000000161415610d4b5760405162461bcd60e51b81526004016109269061242c565b7f00000000000000000000000000000000000000000000000000000000000000006001600160a01b0316610d7d61174d565b6001600160a01b031614610da35760405162461bcd60e51b815260040161092690612466565b610dac81611769565b60408051600080825260208201909252610dc8918391906117ec565b50565b6000610dd6816116dc565b6000610de0611497565b61013655610dec61113c565b610134556001600160a01b03811615610e3757610e088161151b565b6001600160a01b0382166000908152610138602090815260408083209390935561013654610137909152919020555b610133544210610e585761013254610e4f90846124a0565b61013555610e98565b6000610135544261013354610e6d9190612415565b610e7791906124c2565b61013254909150610e8882866124e1565b610e9291906124a0565b61013555505b60006101355411610edd5760405162461bcd60e51b815260206004820152600f60248201526e07265776172642072617465203d203608c1b6044820152606401610926565b610130546040516370a0823160e01b81526001600160a01b03909116906370a0823190610f0e90309060040161236d565b602060405180830381865afa158015610f2b573d6000803e3d6000fd5b505050506040513d601f19601f82011682018060405250810190610f4f91906124f9565b6101325461013554610f6191906124c2565b1115610fa95760405162461bcd60e51b815260206004820152601760248201527672657761726420616d6f756e74203e2062616c616e636560481b6044820152606401610926565b61013254610fb790426124e1565b610133555050426101345550565b6000610fd0816116dc565b610dc8611957565b306001600160a01b037f00000000000000000000000000000000000000000000000000000000000000001614156110215760405162461bcd60e51b81526004016109269061242c565b7f00000000000000000000000000000000000000000000000000000000000000006001600160a01b031661105361174d565b6001600160a01b0316146110795760405162461bcd60e51b815260040161092690612466565b61108282611769565b610cfe828260016117ec565b6000306001600160a01b037f000000000000000000000000000000000000000000000000000000000000000016146111295760405162461bcd60e51b815260206004820152603860248201527f555550535570677261646561626c653a206d757374206e6f742062652063616c6044820152771b1959081d1a1c9bdd59da0819195b1959d85d1958d85b1b60421b6064820152608401610926565b506000805160206126eb83398151915290565b600061114b61013354426119a3565b905090565b600061115b816116dc565b610dc86119bc565b60009182526097602090815260408084206001600160a01b0393909316845291905290205460ff1690565b6111966119f9565b3361119f611497565b610136556111ab61113c565b610134556001600160a01b038116156111f6576111c78161151b565b6001600160a01b0382166000908152610138602090815260408083209390935561013654610137909152919020555b600082116112415760405162461bcd60e51b81526020600482015260186024820152771250951bdad95b880e88125b9d985b1a5908185b5bdd5b9d60421b6044820152606401610926565b61012d5461012f54611262916001600160a01b039182169133911685611a3f565b61012d5461012f546040516311f9fbc960e21b81526001600160a01b039283169283926347e7ef249261129d92909116908790600401612512565b600060405180830381600087803b1580156112b757600080fd5b505af11580156112cb573d6000803e3d6000fd5b505033600090815261013a6020526040812080548794509092506112f09084906124e1565b92505081905550826101316000828254610c2691906124e1565b33611313611497565b6101365561131f61113c565b610134556001600160a01b0381161561136a5761133b8161151b565b6001600160a01b0382166000908152610138602090815260408083209390935561013654610137909152919020555b33600090815261013860205260409020548015610cfe5733600081815261013860205260408082209190915561013054905163a9059cbb60e01b81526001600160a01b039091169163a9059cbb916113c791908590600401612512565b6020604051808303816000875af11580156113e6573d6000803e3d6000fd5b505050506040513d601f19601f8201168201806040525081019061140a919061252b565b5033600090815261013960205260408120805483929061142b9084906124e1565b90915550505050565b600061143f816116dc565b4261013354106114905760405162461bcd60e51b815260206004820152601c60248201527b1c995dd85c9908191d5c985d1a5bdb881b9bdd08199a5b9a5cda195960221b6044820152606401610926565b5061013255565b600061013154600014156114ad57506101365490565b61013154610134546114bd61113c565b6114c79190612415565b610135546114d591906124c2565b6114e790670de0b6b3a76400006124c2565b6114f191906124a0565b6101365461114b91906124e1565b61150882610a9e565b611511816116dc565b610c7f83836116e6565b6001600160a01b03811660009081526101386020908152604080832054610137909252822054670de0b6b3a764000090611553611497565b61155d9190612415565b61156791906124a0565b6001600160a01b038416600090815261013a602052604090205461158b91906124c2565b61088091906124e1565b60006115a0816116dc565b5061012d8054911515600160a01b0260ff60a01b19909216919091179055565b60006115cb816116dc565b5061012e80546001600160a01b0319166001600160a01b0392909216919091179055565b6001600160a01b03163b151590565b600054610100900460ff166116255760405162461bcd60e51b815260040161092690612548565b61162d611a9d565b565b600054610100900460ff1661162d5760405162461bcd60e51b815260040161092690612548565b6116608282611163565b610cfe5760008281526097602090815260408083206001600160a01b03851684529091529020805460ff191660011790556116983390565b6001600160a01b0316816001600160a01b0316837f2f8788117e7eff1d82e926ec794901d17c78024a50270940304540a733656f0d60405160405180910390a45050565b610dc88133611ad0565b6116f08282611163565b15610cfe5760008281526097602090815260408083206001600160a01b0385168085529252808320805460ff1916905551339285917ff6391f5c32d9c69d2a47ea670b442974b53935d1edc7fd64eb21e047a839171b9190a45050565b6000805160206126eb833981519152546001600160a01b031690565b6000805160206126cb833981519152611781816116dc565b61012d54600160a01b900460ff166117da5760405162461bcd60e51b815260206004820152601c60248201527b1250951bdad95b8e88155c19dc985919481b9bdd08185b1b1bddd95960221b6044820152606401610926565b505061012d805460ff60a01b19169055565b7f4910fdfa16fed3260ed0e7147f7cc6da11a60208b5b9406d12a635614ffd91435460ff161561181f57610c7f83611b29565b826001600160a01b03166352d1902d6040518163ffffffff1660e01b8152600401602060405180830381865afa925050508015611879575060408051601f3d908101601f19168201909252611876918101906124f9565b60015b6118dc5760405162461bcd60e51b815260206004820152602e60248201527f45524331393637557067726164653a206e657720696d706c656d656e7461746960448201526d6f6e206973206e6f74205555505360901b6064820152608401610926565b6000805160206126eb833981519152811461194b5760405162461bcd60e51b815260206004820152602960248201527f45524331393637557067726164653a20756e737570706f727465642070726f786044820152681a58589b195555525160ba1b6064820152608401610926565b50610c7f838383611bc3565b61195f611be8565b6033805460ff191690557f5db9ee0a495bf2e6ff9c91a7834c1ba4fdd244a5e8aa4e537bd38aeae4b073aa335b604051611999919061236d565b60405180910390a1565b6000818311156119b357816119b5565b825b9392505050565b6119c46119f9565b6033805460ff191660011790557f62e78cea01bee320cd4e420270b5ea74000d11b0c9f74754ebdbfc544b05a25861198c3390565b60335460ff161561162d5760405162461bcd60e51b815260206004820152601060248201526f14185d5cd8589b194e881c185d5cd95960821b6044820152606401610926565b611a97846323b872dd60e01b858585604051602401611a60939291906123db565b60408051601f198184030181529190526020810180516001600160e01b03166001600160e01b031990931692909217909152611c31565b50505050565b600054610100900460ff16611ac45760405162461bcd60e51b815260040161092690612548565b6033805460ff19169055565b611ada8282611163565b610cfe57611ae781611d03565b611af2836020611d15565b604051602001611b039291906125bf565b60408051601f198184030181529082905262461bcd60e51b82526109269160040161262e565b611b32816115ef565b611b945760405162461bcd60e51b815260206004820152602d60248201527f455243313936373a206e657720696d706c656d656e746174696f6e206973206e60448201526c1bdd08184818dbdb9d1c9858dd609a1b6064820152608401610926565b6000805160206126eb83398151915280546001600160a01b0319166001600160a01b0392909216919091179055565b611bcc83611eb0565b600082511180611bd95750805b15610c7f57611a978383611ef0565b60335460ff1661162d5760405162461bcd60e51b815260206004820152601460248201527314185d5cd8589b194e881b9bdd081c185d5cd95960621b6044820152606401610926565b6000611c86826040518060400160405280602081526020017f5361666545524332303a206c6f772d6c6576656c2063616c6c206661696c6564815250856001600160a01b0316611fe29092919063ffffffff16565b805190915015610c7f5780806020019051810190611ca4919061252b565b610c7f5760405162461bcd60e51b815260206004820152602a60248201527f5361666545524332303a204552433230206f7065726174696f6e20646964206e6044820152691bdd081cdd58d8d9595960b21b6064820152608401610926565b60606108806001600160a01b03831660145b60606000611d248360026124c2565b611d2f9060026124e1565b6001600160401b03811115611d4657611d46612296565b6040519080825280601f01601f191660200182016040528015611d70576020820181803683370190505b509050600360fc1b81600081518110611d8b57611d8b612661565b60200101906001600160f81b031916908160001a905350600f60fb1b81600181518110611dba57611dba612661565b60200101906001600160f81b031916908160001a9053506000611dde8460026124c2565b611de99060016124e1565b90505b6001811115611e61576f181899199a1a9b1b9c1cb0b131b232b360811b85600f1660108110611e1d57611e1d612661565b1a60f81b828281518110611e3357611e33612661565b60200101906001600160f81b031916908160001a90535060049490941c93611e5a81612677565b9050611dec565b5083156119b55760405162461bcd60e51b815260206004820181905260248201527f537472696e67733a20686578206c656e67746820696e73756666696369656e746044820152606401610926565b611eb981611b29565b6040516001600160a01b038216907fbc7cd75a20ee27fd9adebab32041f755214dbc6bffa90cc0225b39da2e5c2d3b90600090a250565b6060611efb836115ef565b611f565760405162461bcd60e51b815260206004820152602660248201527f416464726573733a2064656c65676174652063616c6c20746f206e6f6e2d636f6044820152651b9d1c9858dd60d21b6064820152608401610926565b600080846001600160a01b031684604051611f71919061268e565b600060405180830381855af49150503d8060008114611fac576040519150601f19603f3d011682016040523d82523d6000602084013e611fb1565b606091505b5091509150611fd9828260405180606001604052806027815260200161272b60279139611ff9565b95945050505050565b6060611ff18484600085612012565b949350505050565b606083156120085750816119b5565b6119b583836120ed565b6060824710156120735760405162461bcd60e51b815260206004820152602660248201527f416464726573733a20696e73756666696369656e742062616c616e636520666f6044820152651c8818d85b1b60d21b6064820152608401610926565b600080866001600160a01b0316858760405161208f919061268e565b60006040518083038185875af1925050503d80600081146120cc576040519150601f19603f3d011682016040523d82523d6000602084013e6120d1565b606091505b50915091506120e287838387612117565b979650505050505050565b8151156120fd5781518083602001fd5b8060405162461bcd60e51b8152600401610926919061262e565b6060831561218157825161217a5761212e856115ef565b61217a5760405162461bcd60e51b815260206004820152601d60248201527f416464726573733a2063616c6c20746f206e6f6e2d636f6e74726163740000006044820152606401610926565b5081611ff1565b611ff183836120ed565b80356001600160a01b03811681146121a257600080fd5b919050565b6000602082840312156121b957600080fd5b6119b58261218b565b6000602082840312156121d457600080fd5b81356001600160e01b0319811681146119b557600080fd5b600080600080600060a0868803121561220457600080fd5b61220d8661218b565b945061221b6020870161218b565b93506122296040870161218b565b92506122376060870161218b565b91506122456080870161218b565b90509295509295909350565b60006020828403121561226357600080fd5b5035919050565b6000806040838503121561227d57600080fd5b8235915061228d6020840161218b565b90509250929050565b634e487b7160e01b600052604160045260246000fd5b600080604083850312156122bf57600080fd5b6122c88361218b565b915060208301356001600160401b03808211156122e457600080fd5b818501915085601f8301126122f857600080fd5b81358181111561230a5761230a612296565b604051601f8201601f19908116603f0116810190838211818310171561233257612332612296565b8160405282815288602084870101111561234b57600080fd5b8260208601602083013760006020848301015280955050505050509250929050565b6001600160a01b0391909116815260200190565b8015158114610dc857600080fd5b6000602082840312156123a157600080fd5b81356119b581612381565b6020808252601590820152741250951bdad95b8e88139bdd0818dbdb9d1c9858dd605a1b604082015260600190565b6001600160a01b039384168152919092166020820152604081019190915260600190565b634e487b7160e01b600052601160045260246000fd5b600082821015612427576124276123ff565b500390565b6020808252602c908201526000805160206126ab83398151915260408201526b19195b1959d85d1958d85b1b60a21b606082015260800190565b6020808252602c908201526000805160206126ab83398151915260408201526b6163746976652070726f787960a01b606082015260800190565b6000826124bd57634e487b7160e01b600052601260045260246000fd5b500490565b60008160001904831182151516156124dc576124dc6123ff565b500290565b600082198211156124f4576124f46123ff565b500190565b60006020828403121561250b57600080fd5b5051919050565b6001600160a01b03929092168252602082015260400190565b60006020828403121561253d57600080fd5b81516119b581612381565b6020808252602b908201527f496e697469616c697a61626c653a20636f6e7472616374206973206e6f74206960408201526a6e697469616c697a696e6760a81b606082015260800190565b60005b838110156125ae578181015183820152602001612596565b83811115611a975750506000910152565b76020b1b1b2b9b9a1b7b73a3937b61d1030b1b1b7bab73a1604d1b8152600083516125f1816017850160208801612593565b7001034b99036b4b9b9b4b733903937b6329607d1b6017918401918201528351612622816028840160208801612593565b01602801949350505050565b602081526000825180602084015261264d816040850160208701612593565b601f01601f19169190910160400192915050565b634e487b7160e01b600052603260045260246000fd5b600081612686576126866123ff565b506000190190565b600082516126a0818460208701612593565b919091019291505056fe46756e6374696f6e206d7573742062652063616c6c6564207468726f75676820189ab7a9244df0848122154315af71fe140f3db0fe014031783b0946b8c9d2e3360894a13ba1a3210667c828492db98dca3e2076cc3735a920a3ca505d382bbc65d7a28e3265b37a6474929f336521b332c1681b933f6cb9f3376673440d862a416464726573733a206c6f772d6c6576656c2064656c65676174652063616c6c206661696c6564a26469706673582212209d2c636ee3f33846dc90e1195a83963f551bf8f223d0448dc9e7b9da7184149564736f6c634300080b0033",
  "linkReferences": {},
  "deployedLinkReferences": {}
}