{
  "_format": "hh-sol-artifact-1",
  "contractName": "D_Vault_MultiRewards",
  "sourceName": "contracts/D_Vault_MultiRewards.sol",
  "abi": [
    {
      "anonymous": false,
      "inputs": [
        {
          "indexed": false,
          "internalType": "address",
          "name": "previousAdmin",
          "type": "address"
        },
        {
          "indexed": false,
          "internalType": "address",
          "name": "newAdmin",
          "type": "address"
        }
      ],
      "name": "AdminChanged",
      "type": "event"
    },
    {
      "anonymous": false,
      "inputs": [
        {
          "indexed": true,
          "internalType": "address",
          "name": "beacon",
          "type": "address"
        }
      ],
      "name": "BeaconUpgraded",
      "type": "event"
    },
    {
      "anonymous": false,
      "inputs": [
        {
          "indexed": true,
          "internalType": "address",
          "name": "user",
          "type": "address"
        },
        {
          "indexed": false,
          "internalType": "uint256",
          "name": "amount",
          "type": "uint256"
        }
      ],
      "name": "Claim",
      "type": "event"
    },
    {
      "anonymous": false,
      "inputs": [
        {
          "indexed": true,
          "internalType": "address",
          "name": "user",
          "type": "address"
        },
        {
          "indexed": false,
          "internalType": "address",
          "name": "token",
          "type": "address"
        },
        {
          "indexed": false,
          "internalType": "uint256",
          "name": "amount",
          "type": "uint256"
        }
      ],
      "name": "Deposited",
      "type": "event"
    },
    {
      "anonymous": false,
      "inputs": [
        {
          "indexed": false,
          "internalType": "uint8",
          "name": "version",
          "type": "uint8"
        }
      ],
      "name": "Initialized",
      "type": "event"
    },
    {
      "anonymous": false,
      "inputs": [
        {
          "indexed": false,
          "internalType": "address",
          "name": "oldHandler",
          "type": "address"
        },
        {
          "indexed": false,
          "internalType": "address",
          "name": "newHandler",
          "type": "address"
        }
      ],
      "name": "NewHandlerSet",
      "type": "event"
    },
    {
      "anonymous": false,
      "inputs": [
        {
          "indexed": false,
          "internalType": "address",
          "name": "account",
          "type": "address"
        }
      ],
      "name": "Paused",
      "type": "event"
    },
    {
      "anonymous": false,
      "inputs": [
        {
          "indexed": true,
          "internalType": "bytes32",
          "name": "role",
          "type": "bytes32"
        },
        {
          "indexed": true,
          "internalType": "bytes32",
          "name": "previousAdminRole",
          "type": "bytes32"
        },
        {
          "indexed": true,
          "internalType": "bytes32",
          "name": "newAdminRole",
          "type": "bytes32"
        }
      ],
      "name": "RoleAdminChanged",
      "type": "event"
    },
    {
      "anonymous": false,
      "inputs": [
        {
          "indexed": true,
          "internalType": "bytes32",
          "name": "role",
          "type": "bytes32"
        },
        {
          "indexed": true,
          "internalType": "address",
          "name": "account",
          "type": "address"
        },
        {
          "indexed": true,
          "internalType": "address",
          "name": "sender",
          "type": "address"
        }
      ],
      "name": "RoleGranted",
      "type": "event"
    },
    {
      "anonymous": false,
      "inputs": [
        {
          "indexed": true,
          "internalType": "bytes32",
          "name": "role",
          "type": "bytes32"
        },
        {
          "indexed": true,
          "internalType": "address",
          "name": "account",
          "type": "address"
        },
        {
          "indexed": true,
          "internalType": "address",
          "name": "sender",
          "type": "address"
        }
      ],
      "name": "RoleRevoked",
      "type": "event"
    },
    {
      "anonymous": false,
      "inputs": [
        {
          "indexed": false,
          "internalType": "address",
          "name": "account",
          "type": "address"
        }
      ],
      "name": "Unpaused",
      "type": "event"
    },
    {
      "anonymous": false,
      "inputs": [
        {
          "indexed": false,
          "internalType": "address",
          "name": "rewardToken",
          "type": "address"
        },
        {
          "indexed": false,
          "internalType": "uint256",
          "name": "amount",
          "type": "uint256"
        }
      ],
      "name": "UpdateRewardAmount",
      "type": "event"
    },
    {
      "anonymous": false,
      "inputs": [
        {
          "indexed": false,
          "internalType": "address",
          "name": "rewardToken",
          "type": "address"
        },
        {
          "indexed": false,
          "internalType": "uint256",
          "name": "oldValue",
          "type": "uint256"
        },
        {
          "indexed": false,
          "internalType": "uint256",
          "name": "newValue",
          "type": "uint256"
        }
      ],
      "name": "UpdateRewardDuration",
      "type": "event"
    },
    {
      "anonymous": false,
      "inputs": [
        {
          "indexed": true,
          "internalType": "address",
          "name": "implementation",
          "type": "address"
        }
      ],
      "name": "Upgraded",
      "type": "event"
    },
    {
      "anonymous": false,
      "inputs": [
        {
          "indexed": true,
          "internalType": "address",
          "name": "user",
          "type": "address"
        },
        {
          "indexed": false,
          "internalType": "uint256",
          "name": "amount",
          "type": "uint256"
        }
      ],
      "name": "Withdraw",
      "type": "event"
    },
    {
      "anonymous": false,
      "inputs": [
        {
          "indexed": true,
          "internalType": "address",
          "name": "user",
          "type": "address"
        },
        {
          "indexed": true,
          "internalType": "address",
          "name": "token",
          "type": "address"
        },
        {
          "indexed": false,
          "internalType": "uint256",
          "name": "amount",
          "type": "uint256"
        }
      ],
      "name": "removeToken",
      "type": "event"
    },
    {
      "inputs": [],
      "name": "DEFAULT_ADMIN_ROLE",
      "outputs": [
        {
          "internalType": "bytes32",
          "name": "",
          "type": "bytes32"
        }
      ],
      "stateMutability": "view",
      "type": "function"
    },
    {
      "inputs": [],
      "name": "MINTER_ROLE",
      "outputs": [
        {
          "internalType": "bytes32",
          "name": "",
          "type": "bytes32"
        }
      ],
      "stateMutability": "view",
      "type": "function"
    },
    {
      "inputs": [],
      "name": "PAUSER_ROLE",
      "outputs": [
        {
          "internalType": "bytes32",
          "name": "",
          "type": "bytes32"
        }
      ],
      "stateMutability": "view",
      "type": "function"
    },
    {
      "inputs": [],
      "name": "UPGRADER_ROLE",
      "outputs": [
        {
          "internalType": "bytes32",
          "name": "",
          "type": "bytes32"
        }
      ],
      "stateMutability": "view",
      "type": "function"
    },
    {
      "inputs": [
        {
          "internalType": "address",
          "name": "_rewardToken",
          "type": "address"
        }
      ],
      "name": "addRewardToken",
      "outputs": [],
      "stateMutability": "nonpayable",
      "type": "function"
    },
    {
      "inputs": [
        {
          "internalType": "address",
          "name": "",
          "type": "address"
        }
      ],
      "name": "balanceOf",
      "outputs": [
        {
          "internalType": "uint256",
          "name": "",
          "type": "uint256"
        }
      ],
      "stateMutability": "view",
      "type": "function"
    },
    {
      "inputs": [
        {
          "internalType": "bool",
          "name": "_status",
          "type": "bool"
        }
      ],
      "name": "changeUpgradeStatus",
      "outputs": [],
      "stateMutability": "nonpayable",
      "type": "function"
    },
    {
      "inputs": [],
      "name": "claimReward",
      "outputs": [],
      "stateMutability": "nonpayable",
      "type": "function"
    },
    {
      "inputs": [
        {
          "internalType": "uint256",
          "name": "_amount",
          "type": "uint256"
        }
      ],
      "name": "deposit",
      "outputs": [],
      "stateMutability": "nonpayable",
      "type": "function"
    },
    {
      "inputs": [
        {
          "internalType": "bytes32",
          "name": "role",
          "type": "bytes32"
        }
      ],
      "name": "getRoleAdmin",
      "outputs": [
        {
          "internalType": "bytes32",
          "name": "",
          "type": "bytes32"
        }
      ],
      "stateMutability": "view",
      "type": "function"
    },
    {
      "inputs": [
        {
          "internalType": "address",
          "name": "_account",
          "type": "address"
        }
      ],
      "name": "getStakeBalance",
      "outputs": [
        {
          "internalType": "uint256",
          "name": "",
          "type": "uint256"
        }
      ],
      "stateMutability": "view",
      "type": "function"
    },
    {
      "inputs": [
        {
          "internalType": "address",
          "name": "_account",
          "type": "address"
        }
      ],
      "name": "getUserAllClaimableRewards",
      "outputs": [
        {
          "internalType": "uint256[]",
          "name": "",
          "type": "uint256[]"
        }
      ],
      "stateMutability": "view",
      "type": "function"
    },
    {
      "inputs": [
        {
          "internalType": "address",
          "name": "_account",
          "type": "address"
        }
      ],
      "name": "getUserAllEarnedRewards",
      "outputs": [
        {
          "internalType": "uint256[]",
          "name": "",
          "type": "uint256[]"
        }
      ],
      "stateMutability": "view",
      "type": "function"
    },
    {
      "inputs": [
        {
          "internalType": "address",
          "name": "_account",
          "type": "address"
        }
      ],
      "name": "getUserBals",
      "outputs": [
        {
          "components": [
            {
              "internalType": "uint256",
              "name": "userDeposit",
              "type": "uint256"
            },
            {
              "internalType": "uint256[]",
              "name": "userClaimable",
              "type": "uint256[]"
            },
            {
              "internalType": "uint256[]",
              "name": "userTotalEarned",
              "type": "uint256[]"
            }
          ],
          "internalType": "struct D_Vault_MultiRewards.UserBals",
          "name": "bals_",
          "type": "tuple"
        }
      ],
      "stateMutability": "view",
      "type": "function"
    },
    {
      "inputs": [],
      "name": "getVaultInfos",
      "outputs": [
        {
          "components": [
            {
              "internalType": "string",
              "name": "name",
              "type": "string"
            },
            {
              "internalType": "uint256",
              "name": "totalSupply",
              "type": "uint256"
            },
            {
              "internalType": "uint256",
              "name": "duration",
              "type": "uint256"
            },
            {
              "internalType": "uint256",
              "name": "finishAt",
              "type": "uint256"
            },
            {
              "internalType": "uint256",
              "name": "updatedAt",
              "type": "uint256"
            },
            {
              "internalType": "uint256",
              "name": "rewardRate",
              "type": "uint256"
            },
            {
              "internalType": "uint256",
              "name": "rewardPerTokenStored",
              "type": "uint256"
            },
            {
              "internalType": "address",
              "name": "stakingToken",
              "type": "address"
            },
            {
              "internalType": "address[]",
              "name": "rewardsToken",
              "type": "address[]"
            }
          ],
          "internalType": "struct D_Vault_MultiRewards.VaultInfo",
          "name": "info_",
          "type": "tuple"
        }
      ],
      "stateMutability": "view",
      "type": "function"
    },
    {
      "inputs": [
        {
          "internalType": "bytes32",
          "name": "role",
          "type": "bytes32"
        },
        {
          "internalType": "address",
          "name": "account",
          "type": "address"
        }
      ],
      "name": "grantRole",
      "outputs": [],
      "stateMutability": "nonpayable",
      "type": "function"
    },
    {
      "inputs": [
        {
          "internalType": "bytes32",
          "name": "role",
          "type": "bytes32"
        },
        {
          "internalType": "address",
          "name": "account",
          "type": "address"
        }
      ],
      "name": "hasRole",
      "outputs": [
        {
          "internalType": "bool",
          "name": "",
          "type": "bool"
        }
      ],
      "stateMutability": "view",
      "type": "function"
    },
    {
      "inputs": [
        {
          "internalType": "string",
          "name": "_vaultName",
          "type": "string"
        },
        {
          "internalType": "address",
          "name": "_stakingToken",
          "type": "address"
        },
        {
          "internalType": "address[]",
          "name": "_rewardTokens",
          "type": "address[]"
        },
        {
          "internalType": "address",
          "name": "_multiSigWallet",
          "type": "address"
        },
        {
          "internalType": "address",
          "name": "_handler",
          "type": "address"
        }
      ],
      "name": "initialize",
      "outputs": [],
      "stateMutability": "nonpayable",
      "type": "function"
    },
    {
      "inputs": [
        {
          "internalType": "address",
          "name": "",
          "type": "address"
        }
      ],
      "name": "isReward",
      "outputs": [
        {
          "internalType": "bool",
          "name": "",
          "type": "bool"
        }
      ],
      "stateMutability": "view",
      "type": "function"
    },
    {
      "inputs": [],
      "name": "liquidityHandler",
      "outputs": [
        {
          "internalType": "address",
          "name": "",
          "type": "address"
        }
      ],
      "stateMutability": "view",
      "type": "function"
    },
    {
      "inputs": [
        {
          "internalType": "uint256",
          "name": "",
          "type": "uint256"
        }
      ],
      "name": "listedRewardTokens",
      "outputs": [
        {
          "internalType": "address",
          "name": "",
          "type": "address"
        }
      ],
      "stateMutability": "view",
      "type": "function"
    },
    {
      "inputs": [
        {
          "internalType": "uint256",
          "name": "_amount",
          "type": "uint256"
        },
        {
          "internalType": "address",
          "name": "_rewardToken",
          "type": "address"
        }
      ],
      "name": "notifyRewardAmount",
      "outputs": [],
      "stateMutability": "nonpayable",
      "type": "function"
    },
    {
      "inputs": [],
      "name": "pause",
      "outputs": [],
      "stateMutability": "nonpayable",
      "type": "function"
    },
    {
      "inputs": [],
      "name": "paused",
      "outputs": [
        {
          "internalType": "bool",
          "name": "",
          "type": "bool"
        }
      ],
      "stateMutability": "view",
      "type": "function"
    },
    {
      "inputs": [],
      "name": "proxiableUUID",
      "outputs": [
        {
          "internalType": "bytes32",
          "name": "",
          "type": "bytes32"
        }
      ],
      "stateMutability": "view",
      "type": "function"
    },
    {
      "inputs": [
        {
          "internalType": "address",
          "name": "_address",
          "type": "address"
        },
        {
          "internalType": "address",
          "name": "_to",
          "type": "address"
        },
        {
          "internalType": "uint256",
          "name": "_amount",
          "type": "uint256"
        }
      ],
      "name": "removeTokenByAddress",
      "outputs": [],
      "stateMutability": "nonpayable",
      "type": "function"
    },
    {
      "inputs": [
        {
          "internalType": "bytes32",
          "name": "role",
          "type": "bytes32"
        },
        {
          "internalType": "address",
          "name": "account",
          "type": "address"
        }
      ],
      "name": "renounceRole",
      "outputs": [],
      "stateMutability": "nonpayable",
      "type": "function"
    },
    {
      "inputs": [
        {
          "internalType": "bytes32",
          "name": "role",
          "type": "bytes32"
        },
        {
          "internalType": "address",
          "name": "account",
          "type": "address"
        }
      ],
      "name": "revokeRole",
      "outputs": [],
      "stateMutability": "nonpayable",
      "type": "function"
    },
    {
      "inputs": [
        {
          "internalType": "address",
          "name": "_rewardToken",
          "type": "address"
        }
      ],
      "name": "rewardPerToken",
      "outputs": [
        {
          "internalType": "uint256",
          "name": "",
          "type": "uint256"
        }
      ],
      "stateMutability": "view",
      "type": "function"
    },
    {
      "inputs": [
        {
          "internalType": "address",
          "name": "",
          "type": "address"
        }
      ],
      "name": "rewardTokens",
      "outputs": [
        {
          "internalType": "uint256",
          "name": "rewardDuration",
          "type": "uint256"
        },
        {
          "internalType": "uint256",
          "name": "periodFinish",
          "type": "uint256"
        },
        {
          "internalType": "uint256",
          "name": "rewardRate",
          "type": "uint256"
        },
        {
          "internalType": "uint256",
          "name": "lastUpdateTime",
          "type": "uint256"
        },
        {
          "internalType": "uint256",
          "name": "rewardPerTokenStored",
          "type": "uint256"
        }
      ],
      "stateMutability": "view",
      "type": "function"
    },
    {
      "inputs": [
        {
          "internalType": "address",
          "name": "",
          "type": "address"
        },
        {
          "internalType": "address",
          "name": "",
          "type": "address"
        }
      ],
      "name": "rewards",
      "outputs": [
        {
          "internalType": "uint256",
          "name": "",
          "type": "uint256"
        }
      ],
      "stateMutability": "view",
      "type": "function"
    },
    {
      "inputs": [
        {
          "internalType": "address",
          "name": "_newHandler",
          "type": "address"
        }
      ],
      "name": "setLiquidityHandler",
      "outputs": [],
      "stateMutability": "nonpayable",
      "type": "function"
    },
    {
      "inputs": [
        {
          "internalType": "uint256",
          "name": "_duration",
          "type": "uint256"
        },
        {
          "internalType": "address",
          "name": "_rewardToken",
          "type": "address"
        }
      ],
      "name": "setRewardsDuration",
      "outputs": [],
      "stateMutability": "nonpayable",
      "type": "function"
    },
    {
      "inputs": [],
      "name": "stakingToken",
      "outputs": [
        {
          "internalType": "contract IERC20Upgradeable",
          "name": "",
          "type": "address"
        }
      ],
      "stateMutability": "view",
      "type": "function"
    },
    {
      "inputs": [
        {
          "internalType": "bytes4",
          "name": "interfaceId",
          "type": "bytes4"
        }
      ],
      "name": "supportsInterface",
      "outputs": [
        {
          "internalType": "bool",
          "name": "",
          "type": "bool"
        }
      ],
      "stateMutability": "view",
      "type": "function"
    },
    {
      "inputs": [
        {
          "internalType": "address",
          "name": "",
          "type": "address"
        },
        {
          "internalType": "address",
          "name": "",
          "type": "address"
        }
      ],
      "name": "totalClaimed",
      "outputs": [
        {
          "internalType": "uint256",
          "name": "",
          "type": "uint256"
        }
      ],
      "stateMutability": "view",
      "type": "function"
    },
    {
      "inputs": [],
      "name": "totalSupply",
      "outputs": [
        {
          "internalType": "uint256",
          "name": "",
          "type": "uint256"
        }
      ],
      "stateMutability": "view",
      "type": "function"
    },
    {
      "inputs": [],
      "name": "unpause",
      "outputs": [],
      "stateMutability": "nonpayable",
      "type": "function"
    },
    {
      "inputs": [],
      "name": "upgradeStatus",
      "outputs": [
        {
          "internalType": "bool",
          "name": "",
          "type": "bool"
        }
      ],
      "stateMutability": "view",
      "type": "function"
    },
    {
      "inputs": [
        {
          "internalType": "address",
          "name": "newImplementation",
          "type": "address"
        }
      ],
      "name": "upgradeTo",
      "outputs": [],
      "stateMutability": "nonpayable",
      "type": "function"
    },
    {
      "inputs": [
        {
          "internalType": "address",
          "name": "newImplementation",
          "type": "address"
        },
        {
          "internalType": "bytes",
          "name": "data",
          "type": "bytes"
        }
      ],
      "name": "upgradeToAndCall",
      "outputs": [],
      "stateMutability": "payable",
      "type": "function"
    },
    {
      "inputs": [
        {
          "internalType": "address",
          "name": "",
          "type": "address"
        },
        {
          "internalType": "address",
          "name": "",
          "type": "address"
        }
      ],
      "name": "userRewardPerTokenPaid",
      "outputs": [
        {
          "internalType": "uint256",
          "name": "",
          "type": "uint256"
        }
      ],
      "stateMutability": "view",
      "type": "function"
    },
    {
      "inputs": [],
      "name": "vaultName",
      "outputs": [
        {
          "internalType": "string",
          "name": "",
          "type": "string"
        }
      ],
      "stateMutability": "view",
      "type": "function"
    },
    {
      "inputs": [
        {
          "internalType": "uint256",
          "name": "_amount",
          "type": "uint256"
        }
      ],
      "name": "withdraw",
      "outputs": [],
      "stateMutability": "nonpayable",
      "type": "function"
    }
  ],
  "bytecode": "0x60a06040523060805234801561001457600080fd5b506080516139f661004c60003960008181610f9301528181610fd3015281816111da0152818161121a015261129201526139f66000f3fe6080604052600436106101f75760003560e01c806301ffc9a7146101fc5780630ace9ca01461023157806311c099651461025357806318160ddd146102805780631c03e6cc146102a55780631ddbddd6146102c7578063248a9ca3146102e75780632e1a7d4d146103075780632f2ff15d1461032757806336568abe146103475780633659cfe6146103675780633b0e9e36146103875780633f4ba83a146103a95780634d5ce038146103be5780634f1ef286146103ef57806352d1902d14610402578063594065d0146104175780635c975abb146104505780636465f04a1461046857806368d53c43146104885780637035ab98146104a857806370a08231146104e157806372f702f31461050f57806374d4c8791461053d5780638456cb591461055d578063876af7381461057257806391d1485414610592578063a217fddf146105b2578063b6b55f25146105c7578063b88a802f146105e7578063bea9379e146105fc578063d4d543c514610629578063d539139314610644578063d547741f14610678578063d701f52314610698578063d9e08811146106b8578063ddcfdf93146106d9578063e45cbf10146106f9578063e63ab1e914610719578063e70b9e271461073b578063ef86977314610774578063f1229777146107ab578063f5ab16cc146107cb578063f72c0d8b1461083e575b600080fd5b34801561020857600080fd5b5061021c610217366004613110565b610860565b60405190151581526020015b60405180910390f35b34801561023d57600080fd5b50610246610897565b6040516102289190613192565b34801561025f57600080fd5b5061027361026e3660046131c1565b610926565b6040516102289190613217565b34801561028c57600080fd5b506102976101375481565b604051908152602001610228565b3480156102b157600080fd5b506102c56102c03660046131c1565b610993565b005b3480156102d357600080fd5b506102c56102e23660046131c1565b610b1e565b3480156102f357600080fd5b5061029761030236600461325a565b610be0565b34801561031357600080fd5b506102c561032236600461325a565b610bf5565b34801561033357600080fd5b506102c5610342366004613273565b610ee9565b34801561035357600080fd5b506102c5610362366004613273565b610f0a565b34801561037357600080fd5b506102c56103823660046131c1565b610f88565b34801561039357600080fd5b5061039c611051565b60405161022891906132d8565b3480156103b557600080fd5b506102c56111bc565b3480156103ca57600080fd5b5061021c6103d93660046131c1565b6101326020526000908152604090205460ff1681565b6102c56103fd366004613412565b6111cf565b34801561040e57600080fd5b50610297611285565b34801561042357600080fd5b50610297610432366004613473565b61013560209081526000928352604080842090915290825290205481565b34801561045c57600080fd5b5060335460ff1661021c565b34801561047457600080fd5b506102c561048336600461349d565b611333565b34801561049457600080fd5b506102c56104a3366004613273565b6113a5565b3480156104b457600080fd5b506102976104c3366004613473565b61013360209081526000928352604080842090915290825290205481565b3480156104ed57600080fd5b506102976104fc3660046131c1565b6101366020526000908152604090205481565b34801561051b57600080fd5b5061012f54610530906001600160a01b031681565b60405161022891906134d9565b34801561054957600080fd5b506102c56105583660046134ed565b61180f565b34801561056957600080fd5b506102c5611b06565b34801561057e57600080fd5b5061053061058d36600461325a565b611b19565b34801561059e57600080fd5b5061021c6105ad366004613273565b611b44565b3480156105be57600080fd5b50610297600081565b3480156105d357600080fd5b506102c56105e236600461325a565b611b6f565b3480156105f357600080fd5b506102c5611ddc565b34801561060857600080fd5b5061061c6106173660046131c1565b612056565b6040516102289190613608565b34801561063557600080fd5b506101385461021c9060ff1681565b34801561065057600080fd5b506102977f9f2df0fed2c77648de5860a4cc508cd0818c85b8b8a1ab4ceeef8d981c8956a681565b34801561068457600080fd5b506102c5610693366004613273565b612119565b3480156106a457600080fd5b506102c56106b336600461365a565b612135565b3480156106c457600080fd5b5061012e54610530906001600160a01b031681565b3480156106e557600080fd5b506102c56106f4366004613273565b612155565b34801561070557600080fd5b5061061c6107143660046131c1565b612236565b34801561072557600080fd5b5061029760008051602061397a83398151915281565b34801561074757600080fd5b50610297610756366004613473565b61013460209081526000928352604080842090915290825290205481565b34801561078057600080fd5b5061029761078f3660046131c1565b6001600160a01b03166000908152610136602052604090205490565b3480156107b757600080fd5b506102976107c63660046131c1565b612318565b3480156107d757600080fd5b506108166107e63660046131c1565b61013060205260009081526040902080546001820154600283015460038401546004909401549293919290919085565b604080519586526020860194909452928401919091526060830152608082015260a001610228565b34801561084a57600080fd5b5061029760008051602061393a83398151915281565b60006001600160e01b03198216637965db0b60e01b148061089157506301ffc9a760e01b6001600160e01b03198316145b92915050565b61012d80546108a590613677565b80601f01602080910402602001604051908101604052809291908181526020018280546108d190613677565b801561091e5780601f106108f35761010080835404028352916020019161091e565b820191906000526020600020905b81548152906001019060200180831161090157829003601f168201915b505050505081565b61094a60405180606001604052806000815260200160608152602001606081525090565b600061095583612056565b9050600061096284612236565b6001600160a01b03909416600090815261013660209081526040918290205485528401929092525081019190915290565b600061099e816123f5565b6001600160a01b0382166000908152610132602052604090205460ff161580156109df57506001600160a01b03821660009081526101306020526040902054155b610a2f5760405162461bcd60e51b815260206004820152601c60248201527b15985d5b1d080e88151bdad95b88185b1c9958591e481b1a5cdd195960221b60448201526064015b60405180910390fd5b61012f546001600160a01b0383811691161415610aa35760405162461bcd60e51b815260206004820152602c60248201527f5661756c74203a2043616e6e6f7420757365207374616b696e6720746f6b656e60448201526b08185cc818481c995dd85c9960a21b6064820152608401610a26565b50610131805460018181019092557fbd987ad6ccdb7c7567f7335ea839f95dc944431abcf935b6924f70215963db730180546001600160a01b039093166001600160a01b03199093168317905560009182526101306020908152604080842062093a809055610132909152909120805460ff19169091179055565b6000610b29816123f5565b610b3b826001600160a01b03166123ff565b610b7d5760405162461bcd60e51b815260206004820152601360248201527215985d5b1d0e88139bdd0818dbdb9d1c9858dd606a1b6044820152606401610a26565b61012e80546001600160a01b038481166001600160a01b031983168117909355604080519190921680825260208201939093527fe832f25a0551fc06b41113a831257a8e66a758bafc7b253af66abb65543e2efd910160405180910390a1505050565b60009081526097602052604090206001015490565b610bfd61240e565b3360005b61013154811015610cfd5760006101318281548110610c2257610c226136b2565b6000918252602090912001546001600160a01b03169050610c4281612318565b6001600160a01b03821660009081526101306020526040902060040155610c6881612456565b6001600160a01b0380831660009081526101306020526040902060030191909155831615610cea57610c9a838261247d565b6001600160a01b0380851660008181526101346020908152604080832094871680845294825280832095909555610130815284822060040154928252610133815284822093825292909252919020555b5080610cf5816136de565b915050610c01565b5060008211610d5c5760405162461bcd60e51b815260206004820152602560248201527f5661756c74203a20616d6f756e74206d75737420626520677265617465722074604482015264068616e20360dc1b6064820152608401610a26565b3360009081526101366020526040902054821115610dcf5760405162461bcd60e51b815260206004820152602a60248201527f5661756c74203a20616d6f756e7420746f6f206869676874202f2062616c616e604482015269636520746f6f206c6f7760b01b6064820152608401610a26565b6000610ddd6103e8846136f9565b90506000610deb828561371b565b61012e5461012f54604051637623475960e01b81523360048201526001600160a01b0391821660248201526044810188905260648101849052608481018690529293501690819063762347599060a401600060405180830381600087803b158015610e5557600080fd5b505af1158015610e69573d6000803e3d6000fd5b5050336000908152610136602052604081208054899450909250610e8e90849061371b565b92505081905550846101376000828254610ea8919061371b565b909155505060405185815233907f884edad9ce6fa2440d8a54cc123490eb96d2768479d49ff9c7366125a94243649060200160405180910390a25050505050565b610ef282610be0565b610efb816123f5565b610f058383612525565b505050565b6001600160a01b0381163314610f7a5760405162461bcd60e51b815260206004820152602f60248201527f416363657373436f6e74726f6c3a2063616e206f6e6c792072656e6f756e636560448201526e103937b632b9903337b91039b2b63360891b6064820152608401610a26565b610f8482826125ab565b5050565b306001600160a01b037f0000000000000000000000000000000000000000000000000000000000000000161415610fd15760405162461bcd60e51b8152600401610a2690613732565b7f00000000000000000000000000000000000000000000000000000000000000006001600160a01b0316611003612612565b6001600160a01b0316146110295760405162461bcd60e51b8152600401610a269061376c565b6110328161262e565b6040805160008082526020820190925261104e918391906126a5565b50565b6110a96040518061012001604052806060815260200160008152602001600081526020016000815260200160008152602001600081526020016000815260200160006001600160a01b03168152602001606081525090565b600061013180548060200260200160405190810160405280929190818152602001828054801561110257602002820191906000526020600020905b81546001600160a01b031681526001909101906020018083116110e4575b5050505050905061012d805461111790613677565b80601f016020809104026020016040519081016040528092919081815260200182805461114390613677565b80156111905780601f1061116557610100808354040283529160200191611190565b820191906000526020600020905b81548152906001019060200180831161117357829003601f168201915b505050918452505061013754602083015261012f546001600160a01b031660e083015261010082015290565b60006111c7816123f5565b61104e612810565b306001600160a01b037f00000000000000000000000000000000000000000000000000000000000000001614156112185760405162461bcd60e51b8152600401610a2690613732565b7f00000000000000000000000000000000000000000000000000000000000000006001600160a01b031661124a612612565b6001600160a01b0316146112705760405162461bcd60e51b8152600401610a269061376c565b6112798261262e565b610f84828260016126a5565b6000306001600160a01b037f000000000000000000000000000000000000000000000000000000000000000016146113205760405162461bcd60e51b815260206004820152603860248201527f555550535570677261646561626c653a206d757374206e6f742062652063616c6044820152771b1959081d1a1c9bdd59da0819195b1959d85d1958d85b1b60421b6064820152608401610a26565b5060008051602061395a83398151915290565b600061133e816123f5565b6113526001600160a01b038516848461285c565b836001600160a01b0316836001600160a01b03167f84f3859b7a4c4c1b17f558b22446c3394e48c551005072107bbbc4602235d5e78460405161139791815260200190565b60405180910390a350505050565b60006113b0816123f5565b6000805b610131548110156114b057600061013182815481106113d5576113d56136b2565b6000918252602090912001546001600160a01b031690506113f581612318565b6001600160a01b0382166000908152610130602052604090206004015561141b81612456565b6001600160a01b038083166000908152610130602052604090206003019190915583161561149d5761144d838261247d565b6001600160a01b0380851660008181526101346020908152604080832094871680845294825280832095909555610130815284822060040154928252610133815284822093825292909252919020555b50806114a8816136de565b9150506113b4565b506001600160a01b0383166000908152610132602052604090205460ff166115305760405162461bcd60e51b815260206004820152602d60248201527f5661756c74203a2043757272656e7420746f6b656e206973206e6f74206c697360448201526c1d195908185cc81c995dd85c99609a1b6064820152608401610a26565b6115456001600160a01b0384163330876128b2565b6001600160a01b0383166000908152610130602052604090206001015442106115ae576001600160a01b0383166000908152610130602052604090205461158c90856136f9565b6001600160a01b03841660009081526101306020526040902060020155611637565b6001600160a01b03831660009081526101306020526040812060028101546001909101546115dd90429061371b565b6115e791906137a6565b6001600160a01b0385166000908152610130602052604090205490915061160e82876137c5565b61161891906136f9565b6001600160a01b03851660009081526101306020526040902060020155505b6001600160a01b0383166000908152610130602052604090206002015461169a5760405162461bcd60e51b815260206004820152601760248201527605661756c74203a207265776172642072617465203d203604c1b6044820152606401610a26565b6040516370a0823160e01b81526001600160a01b038416906370a08231906116c69030906004016134d9565b602060405180830381865afa1580156116e3573d6000803e3d6000fd5b505050506040513d601f19601f8201168201806040525081019061170791906137dd565b6001600160a01b038416600090815261013060205260409020805460029091015461173291906137a6565b11156117805760405162461bcd60e51b815260206004820152601f60248201527f5661756c74203a2072657761726420616d6f756e74203e2062616c616e6365006044820152606401610a26565b6001600160a01b038316600090815261013060205260409020546117a490426137c5565b6001600160a01b0384166000908152610130602052604090819020600181019290925542600390920191909155517fa15feffb305aa5720198f093c3934a93f9e50a8a571b35e0e7032e7cf11f23ab9061180190859087906137f6565b60405180910390a150505050565b600054610100900460ff161580801561182f5750600054600160ff909116105b80611850575061183e306123ff565b158015611850575060005460ff166001145b6118b35760405162461bcd60e51b815260206004820152602e60248201527f496e697469616c697a61626c653a20636f6e747261637420697320616c72656160448201526d191e481a5b9a5d1a585b1a5e995960921b6064820152608401610a26565b6000805460ff1916600117905580156118d6576000805461ff0019166101001790555b6118de6128f0565b6118e661291f565b6118ee61291f565b6118f9600084612525565b61191160008051602061393a83398151915284612525565b61192960008051602061397a83398151915284612525565b855161193d9061012d906020890190613077565b5061012e80546001600160a01b038085166001600160a01b03199283161790925561012f80549288169290911691909117905560005b8451811015611ab75760006001600160a01b0316858281518110611999576119996136b2565b60200260200101516001600160a01b031614611aa5576101318582815181106119c4576119c46136b2565b6020908102919091018101518254600181018455600093845291832090910180546001600160a01b0319166001600160a01b03909216919091179055855162093a809161013091889085908110611a1d57611a1d6136b2565b60200260200101516001600160a01b03166001600160a01b031681526020019081526020016000206000018190555060016101326000878481518110611a6557611a656136b2565b60200260200101516001600160a01b03166001600160a01b0316815260200190815260200160002060006101000a81548160ff0219169083151502179055505b80611aaf816136de565b915050611973565b508015611afe576000805461ff0019169055604051600181527f7f26b83ff96e1f2b6a682f133852f6798a09c465da95921460cefb38474024989060200160405180910390a15b505050505050565b6000611b11816123f5565b61104e612946565b6101318181548110611b2a57600080fd5b6000918252602090912001546001600160a01b0316905081565b60009182526097602090815260408084206001600160a01b0393909316845291905290205460ff1690565b611b7761240e565b3360005b61013154811015611c775760006101318281548110611b9c57611b9c6136b2565b6000918252602090912001546001600160a01b03169050611bbc81612318565b6001600160a01b03821660009081526101306020526040902060040155611be281612456565b6001600160a01b0380831660009081526101306020526040902060030191909155831615611c6457611c14838261247d565b6001600160a01b0380851660008181526101346020908152604080832094871680845294825280832095909555610130815284822060040154928252610133815284822093825292909252919020555b5080611c6f816136de565b915050611b7b565b5060008211611cc15760405162461bcd60e51b815260206004820152601660248201527515985d5b1d080e88125b9d985b1a5908185b5bdd5b9d60521b6044820152606401610a26565b61012e5461012f54611ce2916001600160a01b0391821691339116856128b2565b61012e5461012f546040516311f9fbc960e21b81526001600160a01b039283169283926347e7ef2492611d1d929091169087906004016137f6565b600060405180830381600087803b158015611d3757600080fd5b505af1158015611d4b573d6000803e3d6000fd5b5050336000908152610136602052604081208054879450909250611d709084906137c5565b92505081905550826101376000828254611d8a91906137c5565b909155505061012f5460405133917f8752a472e571a816aea92eec8dae9baf628e840f4929fbcc2d155e6233ff68a791611dcf916001600160a01b03169087906137f6565b60405180910390a2505050565b611de461240e565b3360005b61013154811015611ee45760006101318281548110611e0957611e096136b2565b6000918252602090912001546001600160a01b03169050611e2981612318565b6001600160a01b03821660009081526101306020526040902060040155611e4f81612456565b6001600160a01b0380831660009081526101306020526040902060030191909155831615611ed157611e81838261247d565b6001600160a01b0380851660008181526101346020908152604080832094871680845294825280832095909555610130815284822060040154928252610133815284822093825292909252919020555b5080611edc816136de565b915050611de8565b5060005b61013154811015610f845760006101318281548110611f0957611f096136b2565b6000918252602080832090910154338352610134825260408084206001600160a01b0390921680855291909252912054909150801561204157336000818152610134602090815260408083206001600160a01b038716808552925280832092909255905163a9059cbb60e01b8152909163a9059cbb91611f8e919085906004016137f6565b6020604051808303816000875af1158015611fad573d6000803e3d6000fd5b505050506040513d601f19601f82011682018060405250810190611fd1919061380f565b50336000908152610135602090815260408083206001600160a01b0386168452909152812080548392906120069084906137c5565b909155505060405181815233907f47cee97cb7acd717b3c0aa1435d004cd5b3c8c57d70dbceb4e4458bbd60e39d49060200160405180910390a25b5050808061204e906136de565b915050611ee8565b610131546060906000906001600160401b0381111561207757612077613375565b6040519080825280602002602001820160405280156120a0578160200160208202803683370190505b50905060005b61013154811015612112576120e38461013183815481106120c9576120c96136b2565b6000918252602090912001546001600160a01b031661247d565b8282815181106120f5576120f56136b2565b60209081029190910101528061210a816136de565b9150506120a6565b5092915050565b61212282610be0565b61212b816123f5565b610f0583836125ab565b6000612140816123f5565b50610138805460ff1916911515919091179055565b6000612160816123f5565b6001600160a01b0382166000908152610130602052604090206001015442116121d75760405162461bcd60e51b8152602060048201526024808201527f5661756c74203a20726577617264206475726174696f6e206e6f742066696e696044820152631cda195960e21b6064820152608401610a26565b6001600160a01b038216600081815261013060209081526040918290208054908790558251938452908301819052908201859052907f6d403cdf356496e9be5760adb2aef6969b196ad9551fb3a47a3763dc6b4bac4690606001611801565b610131546060906000906001600160401b0381111561225757612257613375565b604051908082528060200260200182016040528015612280578160200160208202803683370190505b50905060005b61013154811015612112576001600160a01b0384166000908152610135602052604081206101318054919291849081106122c2576122c26136b2565b60009182526020808320909101546001600160a01b0316835282019290925260400190205482518390839081106122fb576122fb6136b2565b602090810291909101015280612310816136de565b915050612286565b6000610137546000141561234657506001600160a01b03166000908152610130602052604090206004015490565b6001600160a01b0382166000908152610130602052604081206003015461236c84612456565b612376919061371b565b610137546001600160a01b03851660009081526101306020526040812060020154929350916123a69084906137a6565b6123b890670de0b6b3a76400006137a6565b6123c291906136f9565b6001600160a01b038516600090815261013060205260409020600401549091506123ed9082906137c5565b949350505050565b61104e8133612983565b6001600160a01b03163b151590565b60335460ff16156124545760405162461bcd60e51b815260206004820152601060248201526f14185d5cd8589b194e881c185d5cd95960821b6044820152606401610a26565b565b6001600160a01b0381166000908152610130602052604081206001015461089190426129dc565b6001600160a01b038083166000818152610134602090815260408083209486168084529482528083205493835261013382528083209483529390529182205482816124c786612318565b6124d1919061371b565b6001600160a01b0387166000908152610136602052604081205491925090670de0b6b3a7640000906125049084906137a6565b61250e91906136f9565b905061251a81856137c5565b979650505050505050565b61252f8282611b44565b610f845760008281526097602090815260408083206001600160a01b03851684529091529020805460ff191660011790556125673390565b6001600160a01b0316816001600160a01b0316837f2f8788117e7eff1d82e926ec794901d17c78024a50270940304540a733656f0d60405160405180910390a45050565b6125b58282611b44565b15610f845760008281526097602090815260408083206001600160a01b0385168085529252808320805460ff1916905551339285917ff6391f5c32d9c69d2a47ea670b442974b53935d1edc7fd64eb21e047a839171b9190a45050565b60008051602061395a833981519152546001600160a01b031690565b60008051602061393a833981519152612646816123f5565b6101385460ff166126965760405162461bcd60e51b815260206004820152601a60248201527915985d5b1d0e88155c19dc985919481b9bdd08185b1b1bddd95960321b6044820152606401610a26565b5050610138805460ff19169055565b7f4910fdfa16fed3260ed0e7147f7cc6da11a60208b5b9406d12a635614ffd91435460ff16156126d857610f05836129f5565b826001600160a01b03166352d1902d6040518163ffffffff1660e01b8152600401602060405180830381865afa925050508015612732575060408051601f3d908101601f1916820190925261272f918101906137dd565b60015b6127955760405162461bcd60e51b815260206004820152602e60248201527f45524331393637557067726164653a206e657720696d706c656d656e7461746960448201526d6f6e206973206e6f74205555505360901b6064820152608401610a26565b60008051602061395a83398151915281146128045760405162461bcd60e51b815260206004820152602960248201527f45524331393637557067726164653a20756e737570706f727465642070726f786044820152681a58589b195555525160ba1b6064820152608401610a26565b50610f05838383612a8f565b612818612ab4565b6033805460ff191690557f5db9ee0a495bf2e6ff9c91a7834c1ba4fdd244a5e8aa4e537bd38aeae4b073aa335b60405161285291906134d9565b60405180910390a1565b610f058363a9059cbb60e01b848460405160240161287b9291906137f6565b60408051601f198184030181529190526020810180516001600160e01b03166001600160e01b031990931692909217909152612afd565b6040516001600160a01b03808516602483015283166044820152606481018290526128ea9085906323b872dd60e01b9060840161287b565b50505050565b600054610100900460ff166129175760405162461bcd60e51b8152600401610a269061382c565b612454612bcf565b600054610100900460ff166124545760405162461bcd60e51b8152600401610a269061382c565b61294e61240e565b6033805460ff191660011790557f62e78cea01bee320cd4e420270b5ea74000d11b0c9f74754ebdbfc544b05a2586128453390565b61298d8282611b44565b610f845761299a81612c02565b6129a5836020612c14565b6040516020016129b6929190613877565b60408051601f198184030181529082905262461bcd60e51b8252610a2691600401613192565b6000818311156129ec57816129ee565b825b9392505050565b6129fe816123ff565b612a605760405162461bcd60e51b815260206004820152602d60248201527f455243313936373a206e657720696d706c656d656e746174696f6e206973206e60448201526c1bdd08184818dbdb9d1c9858dd609a1b6064820152608401610a26565b60008051602061395a83398151915280546001600160a01b0319166001600160a01b0392909216919091179055565b612a9883612daf565b600082511180612aa55750805b15610f05576128ea8383612def565b60335460ff166124545760405162461bcd60e51b815260206004820152601460248201527314185d5cd8589b194e881b9bdd081c185d5cd95960621b6044820152606401610a26565b6000612b52826040518060400160405280602081526020017f5361666545524332303a206c6f772d6c6576656c2063616c6c206661696c6564815250856001600160a01b0316612ee19092919063ffffffff16565b805190915015610f055780806020019051810190612b70919061380f565b610f055760405162461bcd60e51b815260206004820152602a60248201527f5361666545524332303a204552433230206f7065726174696f6e20646964206e6044820152691bdd081cdd58d8d9595960b21b6064820152608401610a26565b600054610100900460ff16612bf65760405162461bcd60e51b8152600401610a269061382c565b6033805460ff19169055565b60606108916001600160a01b03831660145b60606000612c238360026137a6565b612c2e9060026137c5565b6001600160401b03811115612c4557612c45613375565b6040519080825280601f01601f191660200182016040528015612c6f576020820181803683370190505b509050600360fc1b81600081518110612c8a57612c8a6136b2565b60200101906001600160f81b031916908160001a905350600f60fb1b81600181518110612cb957612cb96136b2565b60200101906001600160f81b031916908160001a9053506000612cdd8460026137a6565b612ce89060016137c5565b90505b6001811115612d60576f181899199a1a9b1b9c1cb0b131b232b360811b85600f1660108110612d1c57612d1c6136b2565b1a60f81b828281518110612d3257612d326136b2565b60200101906001600160f81b031916908160001a90535060049490941c93612d59816138e6565b9050612ceb565b5083156129ee5760405162461bcd60e51b815260206004820181905260248201527f537472696e67733a20686578206c656e67746820696e73756666696369656e746044820152606401610a26565b612db8816129f5565b6040516001600160a01b038216907fbc7cd75a20ee27fd9adebab32041f755214dbc6bffa90cc0225b39da2e5c2d3b90600090a250565b6060612dfa836123ff565b612e555760405162461bcd60e51b815260206004820152602660248201527f416464726573733a2064656c65676174652063616c6c20746f206e6f6e2d636f6044820152651b9d1c9858dd60d21b6064820152608401610a26565b600080846001600160a01b031684604051612e7091906138fd565b600060405180830381855af49150503d8060008114612eab576040519150601f19603f3d011682016040523d82523d6000602084013e612eb0565b606091505b5091509150612ed8828260405180606001604052806027815260200161399a60279139612ef0565b95945050505050565b60606123ed8484600085612f09565b60608315612eff5750816129ee565b6129ee8383612fd9565b606082471015612f6a5760405162461bcd60e51b815260206004820152602660248201527f416464726573733a20696e73756666696369656e742062616c616e636520666f6044820152651c8818d85b1b60d21b6064820152608401610a26565b600080866001600160a01b03168587604051612f8691906138fd565b60006040518083038185875af1925050503d8060008114612fc3576040519150601f19603f3d011682016040523d82523d6000602084013e612fc8565b606091505b509150915061251a87838387613003565b815115612fe95781518083602001fd5b8060405162461bcd60e51b8152600401610a269190613192565b6060831561306d5782516130665761301a856123ff565b6130665760405162461bcd60e51b815260206004820152601d60248201527f416464726573733a2063616c6c20746f206e6f6e2d636f6e74726163740000006044820152606401610a26565b50816123ed565b6123ed8383612fd9565b82805461308390613677565b90600052602060002090601f0160209004810192826130a557600085556130eb565b82601f106130be57805160ff19168380011785556130eb565b828001600101855582156130eb579182015b828111156130eb5782518255916020019190600101906130d0565b506130f79291506130fb565b5090565b5b808211156130f757600081556001016130fc565b60006020828403121561312257600080fd5b81356001600160e01b0319811681146129ee57600080fd5b60005b8381101561315557818101518382015260200161313d565b838111156128ea5750506000910152565b6000815180845261317e81602086016020860161313a565b601f01601f19169290920160200192915050565b6020815260006129ee6020830184613166565b80356001600160a01b03811681146131bc57600080fd5b919050565b6000602082840312156131d357600080fd5b6129ee826131a5565b600081518084526020808501945080840160005b8381101561320c578151875295820195908201906001016131f0565b509495945050505050565b6020815281516020820152600060208301516060604084015261323d60808401826131dc565b90506040840151601f19848303016060850152612ed882826131dc565b60006020828403121561326c57600080fd5b5035919050565b6000806040838503121561328657600080fd5b82359150613296602084016131a5565b90509250929050565b600081518084526020808501945080840160005b8381101561320c5781516001600160a01b0316875295820195908201906001016132b3565b60208152600082516101208060208501526132f7610140850183613166565b9150602085015160408501526040850151606085015260608501516080850152608085015160a085015260a085015160c085015260c085015160e085015260e0850151610100613351818701836001600160a01b03169052565b860151858403601f190183870152905061336b838261329f565b9695505050505050565b634e487b7160e01b600052604160045260246000fd5b604051601f8201601f191681016001600160401b03811182821017156133b3576133b3613375565b604052919050565b60006001600160401b038311156133d4576133d4613375565b6133e7601f8401601f191660200161338b565b90508281528383830111156133fb57600080fd5b828260208301376000602084830101529392505050565b6000806040838503121561342557600080fd5b61342e836131a5565b915060208301356001600160401b0381111561344957600080fd5b8301601f8101851361345a57600080fd5b613469858235602084016133bb565b9150509250929050565b6000806040838503121561348657600080fd5b61348f836131a5565b9150613296602084016131a5565b6000806000606084860312156134b257600080fd5b6134bb846131a5565b92506134c9602085016131a5565b9150604084013590509250925092565b6001600160a01b0391909116815260200190565b600080600080600060a0868803121561350557600080fd5b85356001600160401b038082111561351c57600080fd5b818801915088601f83011261353057600080fd5b60206135408a84358386016133bb565b975061354d818a016131a5565b9650604089013592508183111561356357600080fd5b828901925089601f84011261357757600080fd5b82358281111561358957613589613375565b8060051b925061359a82840161338b565b818152928401820192828101908c8511156135b457600080fd5b948301945b848610156135d9576135ca866131a5565b825294830194908301906135b9565b8098505050505050506135ee606087016131a5565b91506135fc608087016131a5565b90509295509295909350565b6020808252825182820181905260009190848201906040850190845b8181101561364057835183529284019291840191600101613624565b50909695505050505050565b801515811461104e57600080fd5b60006020828403121561366c57600080fd5b81356129ee8161364c565b600181811c9082168061368b57607f821691505b602082108114156136ac57634e487b7160e01b600052602260045260246000fd5b50919050565b634e487b7160e01b600052603260045260246000fd5b634e487b7160e01b600052601160045260246000fd5b60006000198214156136f2576136f26136c8565b5060010190565b60008261371657634e487b7160e01b600052601260045260246000fd5b500490565b60008282101561372d5761372d6136c8565b500390565b6020808252602c9082015260008051602061391a83398151915260408201526b19195b1959d85d1958d85b1b60a21b606082015260800190565b6020808252602c9082015260008051602061391a83398151915260408201526b6163746976652070726f787960a01b606082015260800190565b60008160001904831182151516156137c0576137c06136c8565b500290565b600082198211156137d8576137d86136c8565b500190565b6000602082840312156137ef57600080fd5b5051919050565b6001600160a01b03929092168252602082015260400190565b60006020828403121561382157600080fd5b81516129ee8161364c565b6020808252602b908201527f496e697469616c697a61626c653a20636f6e7472616374206973206e6f74206960408201526a6e697469616c697a696e6760a81b606082015260800190565b76020b1b1b2b9b9a1b7b73a3937b61d1030b1b1b7bab73a1604d1b8152600083516138a981601785016020880161313a565b7001034b99036b4b9b9b4b733903937b6329607d1b60179184019182015283516138da81602884016020880161313a565b01602801949350505050565b6000816138f5576138f56136c8565b506000190190565b6000825161390f81846020870161313a565b919091019291505056fe46756e6374696f6e206d7573742062652063616c6c6564207468726f75676820189ab7a9244df0848122154315af71fe140f3db0fe014031783b0946b8c9d2e3360894a13ba1a3210667c828492db98dca3e2076cc3735a920a3ca505d382bbc65d7a28e3265b37a6474929f336521b332c1681b933f6cb9f3376673440d862a416464726573733a206c6f772d6c6576656c2064656c65676174652063616c6c206661696c6564a2646970667358221220b5625733873d0727ee3cfd66abc7b3339ea2a63440c8c50b22df701c3a69104d64736f6c634300080b0033",
  "linkReferences": {},
  "deployedLinkReferences": {}
}