{
  "_format": "hh-sol-artifact-1",
  "contractName": "D_Vault_SingleReward",
  "sourceName": "contracts/D_Vault_SingleReward.sol",
  "abi": [
    {
      "anonymous": false,
      "inputs": [
        {
          "indexed": false,
          "internalType": "address",
          "name": "previousAdmin",
          "type": "address"
        },
        {
          "indexed": false,
          "internalType": "address",
          "name": "newAdmin",
          "type": "address"
        }
      ],
      "name": "AdminChanged",
      "type": "event"
    },
    {
      "anonymous": false,
      "inputs": [
        {
          "indexed": true,
          "internalType": "address",
          "name": "beacon",
          "type": "address"
        }
      ],
      "name": "BeaconUpgraded",
      "type": "event"
    },
    {
      "anonymous": false,
      "inputs": [
        {
          "indexed": true,
          "internalType": "address",
          "name": "user",
          "type": "address"
        },
        {
          "indexed": false,
          "internalType": "uint256",
          "name": "amount",
          "type": "uint256"
        }
      ],
      "name": "Claim",
      "type": "event"
    },
    {
      "anonymous": false,
      "inputs": [
        {
          "indexed": true,
          "internalType": "address",
          "name": "user",
          "type": "address"
        },
        {
          "indexed": false,
          "internalType": "address",
          "name": "token",
          "type": "address"
        },
        {
          "indexed": false,
          "internalType": "uint256",
          "name": "amount",
          "type": "uint256"
        }
      ],
      "name": "Deposited",
      "type": "event"
    },
    {
      "anonymous": false,
      "inputs": [
        {
          "indexed": false,
          "internalType": "uint8",
          "name": "version",
          "type": "uint8"
        }
      ],
      "name": "Initialized",
      "type": "event"
    },
    {
      "anonymous": false,
      "inputs": [
        {
          "indexed": false,
          "internalType": "address",
          "name": "oldHandler",
          "type": "address"
        },
        {
          "indexed": false,
          "internalType": "address",
          "name": "newHandler",
          "type": "address"
        }
      ],
      "name": "NewHandlerSet",
      "type": "event"
    },
    {
      "anonymous": false,
      "inputs": [
        {
          "indexed": false,
          "internalType": "address",
          "name": "account",
          "type": "address"
        }
      ],
      "name": "Paused",
      "type": "event"
    },
    {
      "anonymous": false,
      "inputs": [
        {
          "indexed": true,
          "internalType": "bytes32",
          "name": "role",
          "type": "bytes32"
        },
        {
          "indexed": true,
          "internalType": "bytes32",
          "name": "previousAdminRole",
          "type": "bytes32"
        },
        {
          "indexed": true,
          "internalType": "bytes32",
          "name": "newAdminRole",
          "type": "bytes32"
        }
      ],
      "name": "RoleAdminChanged",
      "type": "event"
    },
    {
      "anonymous": false,
      "inputs": [
        {
          "indexed": true,
          "internalType": "bytes32",
          "name": "role",
          "type": "bytes32"
        },
        {
          "indexed": true,
          "internalType": "address",
          "name": "account",
          "type": "address"
        },
        {
          "indexed": true,
          "internalType": "address",
          "name": "sender",
          "type": "address"
        }
      ],
      "name": "RoleGranted",
      "type": "event"
    },
    {
      "anonymous": false,
      "inputs": [
        {
          "indexed": true,
          "internalType": "bytes32",
          "name": "role",
          "type": "bytes32"
        },
        {
          "indexed": true,
          "internalType": "address",
          "name": "account",
          "type": "address"
        },
        {
          "indexed": true,
          "internalType": "address",
          "name": "sender",
          "type": "address"
        }
      ],
      "name": "RoleRevoked",
      "type": "event"
    },
    {
      "anonymous": false,
      "inputs": [
        {
          "indexed": false,
          "internalType": "address",
          "name": "account",
          "type": "address"
        }
      ],
      "name": "Unpaused",
      "type": "event"
    },
    {
      "anonymous": false,
      "inputs": [
        {
          "indexed": false,
          "internalType": "uint256",
          "name": "amount",
          "type": "uint256"
        }
      ],
      "name": "UpdateRewardAmount",
      "type": "event"
    },
    {
      "anonymous": false,
      "inputs": [
        {
          "indexed": false,
          "internalType": "uint256",
          "name": "oldValue",
          "type": "uint256"
        },
        {
          "indexed": false,
          "internalType": "uint256",
          "name": "newValue",
          "type": "uint256"
        }
      ],
      "name": "UpdateRewardDuration",
      "type": "event"
    },
    {
      "anonymous": false,
      "inputs": [
        {
          "indexed": true,
          "internalType": "address",
          "name": "implementation",
          "type": "address"
        }
      ],
      "name": "Upgraded",
      "type": "event"
    },
    {
      "anonymous": false,
      "inputs": [
        {
          "indexed": true,
          "internalType": "address",
          "name": "user",
          "type": "address"
        },
        {
          "indexed": false,
          "internalType": "uint256",
          "name": "amount",
          "type": "uint256"
        }
      ],
      "name": "Withdraw",
      "type": "event"
    },
    {
      "anonymous": false,
      "inputs": [
        {
          "indexed": true,
          "internalType": "address",
          "name": "user",
          "type": "address"
        },
        {
          "indexed": true,
          "internalType": "address",
          "name": "token",
          "type": "address"
        },
        {
          "indexed": false,
          "internalType": "uint256",
          "name": "amount",
          "type": "uint256"
        }
      ],
      "name": "removeToken",
      "type": "event"
    },
    {
      "inputs": [],
      "name": "DEFAULT_ADMIN_ROLE",
      "outputs": [
        {
          "internalType": "bytes32",
          "name": "",
          "type": "bytes32"
        }
      ],
      "stateMutability": "view",
      "type": "function"
    },
    {
      "inputs": [],
      "name": "MINTER_ROLE",
      "outputs": [
        {
          "internalType": "bytes32",
          "name": "",
          "type": "bytes32"
        }
      ],
      "stateMutability": "view",
      "type": "function"
    },
    {
      "inputs": [],
      "name": "PAUSER_ROLE",
      "outputs": [
        {
          "internalType": "bytes32",
          "name": "",
          "type": "bytes32"
        }
      ],
      "stateMutability": "view",
      "type": "function"
    },
    {
      "inputs": [],
      "name": "UPGRADER_ROLE",
      "outputs": [
        {
          "internalType": "bytes32",
          "name": "",
          "type": "bytes32"
        }
      ],
      "stateMutability": "view",
      "type": "function"
    },
    {
      "inputs": [
        {
          "internalType": "address",
          "name": "",
          "type": "address"
        }
      ],
      "name": "balanceOf",
      "outputs": [
        {
          "internalType": "uint256",
          "name": "",
          "type": "uint256"
        }
      ],
      "stateMutability": "view",
      "type": "function"
    },
    {
      "inputs": [
        {
          "internalType": "bool",
          "name": "_status",
          "type": "bool"
        }
      ],
      "name": "changeUpgradeStatus",
      "outputs": [],
      "stateMutability": "nonpayable",
      "type": "function"
    },
    {
      "inputs": [],
      "name": "claimReward",
      "outputs": [],
      "stateMutability": "nonpayable",
      "type": "function"
    },
    {
      "inputs": [
        {
          "internalType": "uint256",
          "name": "_amount",
          "type": "uint256"
        }
      ],
      "name": "deposit",
      "outputs": [],
      "stateMutability": "nonpayable",
      "type": "function"
    },
    {
      "inputs": [],
      "name": "duration",
      "outputs": [
        {
          "internalType": "uint256",
          "name": "",
          "type": "uint256"
        }
      ],
      "stateMutability": "view",
      "type": "function"
    },
    {
      "inputs": [],
      "name": "finishAt",
      "outputs": [
        {
          "internalType": "uint256",
          "name": "",
          "type": "uint256"
        }
      ],
      "stateMutability": "view",
      "type": "function"
    },
    {
      "inputs": [
        {
          "internalType": "bytes32",
          "name": "role",
          "type": "bytes32"
        }
      ],
      "name": "getRoleAdmin",
      "outputs": [
        {
          "internalType": "bytes32",
          "name": "",
          "type": "bytes32"
        }
      ],
      "stateMutability": "view",
      "type": "function"
    },
    {
      "inputs": [
        {
          "internalType": "address",
          "name": "_account",
          "type": "address"
        }
      ],
      "name": "getStakeBalance",
      "outputs": [
        {
          "internalType": "uint256",
          "name": "",
          "type": "uint256"
        }
      ],
      "stateMutability": "view",
      "type": "function"
    },
    {
      "inputs": [
        {
          "internalType": "address",
          "name": "_account",
          "type": "address"
        }
      ],
      "name": "getTotalUserEarned",
      "outputs": [
        {
          "internalType": "uint256",
          "name": "",
          "type": "uint256"
        }
      ],
      "stateMutability": "view",
      "type": "function"
    },
    {
      "inputs": [
        {
          "internalType": "address",
          "name": "_account",
          "type": "address"
        }
      ],
      "name": "getUserAllClaimableRewards",
      "outputs": [
        {
          "internalType": "uint256[]",
          "name": "",
          "type": "uint256[]"
        }
      ],
      "stateMutability": "view",
      "type": "function"
    },
    {
      "inputs": [
        {
          "internalType": "address",
          "name": "_account",
          "type": "address"
        }
      ],
      "name": "getUserAllEarnedRewards",
      "outputs": [
        {
          "internalType": "uint256[]",
          "name": "",
          "type": "uint256[]"
        }
      ],
      "stateMutability": "view",
      "type": "function"
    },
    {
      "inputs": [
        {
          "internalType": "address",
          "name": "_account",
          "type": "address"
        }
      ],
      "name": "getUserBals",
      "outputs": [
        {
          "components": [
            {
              "internalType": "uint256",
              "name": "userDeposit",
              "type": "uint256"
            },
            {
              "internalType": "uint256[]",
              "name": "userClaimable",
              "type": "uint256[]"
            },
            {
              "internalType": "uint256[]",
              "name": "userTotalEarned",
              "type": "uint256[]"
            }
          ],
          "internalType": "struct D_Vault_SingleReward.UserBals",
          "name": "bals_",
          "type": "tuple"
        }
      ],
      "stateMutability": "view",
      "type": "function"
    },
    {
      "inputs": [],
      "name": "getVaultInfos",
      "outputs": [
        {
          "components": [
            {
              "internalType": "string",
              "name": "name",
              "type": "string"
            },
            {
              "internalType": "uint256",
              "name": "totalSupply",
              "type": "uint256"
            },
            {
              "internalType": "uint256",
              "name": "duration",
              "type": "uint256"
            },
            {
              "internalType": "uint256",
              "name": "finishAt",
              "type": "uint256"
            },
            {
              "internalType": "uint256",
              "name": "updatedAt",
              "type": "uint256"
            },
            {
              "internalType": "uint256",
              "name": "rewardRate",
              "type": "uint256"
            },
            {
              "internalType": "uint256",
              "name": "rewardPerTokenStored",
              "type": "uint256"
            },
            {
              "internalType": "address",
              "name": "stakingToken",
              "type": "address"
            },
            {
              "internalType": "address[]",
              "name": "rewardsToken",
              "type": "address[]"
            }
          ],
          "internalType": "struct D_Vault_SingleReward.VaultInfo",
          "name": "info_",
          "type": "tuple"
        }
      ],
      "stateMutability": "view",
      "type": "function"
    },
    {
      "inputs": [
        {
          "internalType": "bytes32",
          "name": "role",
          "type": "bytes32"
        },
        {
          "internalType": "address",
          "name": "account",
          "type": "address"
        }
      ],
      "name": "grantRole",
      "outputs": [],
      "stateMutability": "nonpayable",
      "type": "function"
    },
    {
      "inputs": [
        {
          "internalType": "bytes32",
          "name": "role",
          "type": "bytes32"
        },
        {
          "internalType": "address",
          "name": "account",
          "type": "address"
        }
      ],
      "name": "hasRole",
      "outputs": [
        {
          "internalType": "bool",
          "name": "",
          "type": "bool"
        }
      ],
      "stateMutability": "view",
      "type": "function"
    },
    {
      "inputs": [
        {
          "internalType": "string",
          "name": "_vaultName",
          "type": "string"
        },
        {
          "internalType": "address",
          "name": "_stakingToken",
          "type": "address"
        },
        {
          "internalType": "address",
          "name": "_rewardsToken",
          "type": "address"
        },
        {
          "internalType": "address",
          "name": "_multiSigWallet",
          "type": "address"
        },
        {
          "internalType": "address",
          "name": "_handler",
          "type": "address"
        }
      ],
      "name": "initialize",
      "outputs": [],
      "stateMutability": "nonpayable",
      "type": "function"
    },
    {
      "inputs": [],
      "name": "liquidityHandler",
      "outputs": [
        {
          "internalType": "address",
          "name": "",
          "type": "address"
        }
      ],
      "stateMutability": "view",
      "type": "function"
    },
    {
      "inputs": [
        {
          "internalType": "uint256",
          "name": "_amount",
          "type": "uint256"
        }
      ],
      "name": "notifyRewardAmount",
      "outputs": [],
      "stateMutability": "nonpayable",
      "type": "function"
    },
    {
      "inputs": [],
      "name": "pause",
      "outputs": [],
      "stateMutability": "nonpayable",
      "type": "function"
    },
    {
      "inputs": [],
      "name": "paused",
      "outputs": [
        {
          "internalType": "bool",
          "name": "",
          "type": "bool"
        }
      ],
      "stateMutability": "view",
      "type": "function"
    },
    {
      "inputs": [],
      "name": "proxiableUUID",
      "outputs": [
        {
          "internalType": "bytes32",
          "name": "",
          "type": "bytes32"
        }
      ],
      "stateMutability": "view",
      "type": "function"
    },
    {
      "inputs": [
        {
          "internalType": "address",
          "name": "_address",
          "type": "address"
        },
        {
          "internalType": "address",
          "name": "_to",
          "type": "address"
        },
        {
          "internalType": "uint256",
          "name": "_amount",
          "type": "uint256"
        }
      ],
      "name": "removeTokenByAddress",
      "outputs": [],
      "stateMutability": "nonpayable",
      "type": "function"
    },
    {
      "inputs": [
        {
          "internalType": "bytes32",
          "name": "role",
          "type": "bytes32"
        },
        {
          "internalType": "address",
          "name": "account",
          "type": "address"
        }
      ],
      "name": "renounceRole",
      "outputs": [],
      "stateMutability": "nonpayable",
      "type": "function"
    },
    {
      "inputs": [
        {
          "internalType": "bytes32",
          "name": "role",
          "type": "bytes32"
        },
        {
          "internalType": "address",
          "name": "account",
          "type": "address"
        }
      ],
      "name": "revokeRole",
      "outputs": [],
      "stateMutability": "nonpayable",
      "type": "function"
    },
    {
      "inputs": [],
      "name": "rewardPerToken",
      "outputs": [
        {
          "internalType": "uint256",
          "name": "",
          "type": "uint256"
        }
      ],
      "stateMutability": "view",
      "type": "function"
    },
    {
      "inputs": [],
      "name": "rewardPerTokenStored",
      "outputs": [
        {
          "internalType": "uint256",
          "name": "",
          "type": "uint256"
        }
      ],
      "stateMutability": "view",
      "type": "function"
    },
    {
      "inputs": [],
      "name": "rewardRate",
      "outputs": [
        {
          "internalType": "uint256",
          "name": "",
          "type": "uint256"
        }
      ],
      "stateMutability": "view",
      "type": "function"
    },
    {
      "inputs": [
        {
          "internalType": "address",
          "name": "",
          "type": "address"
        }
      ],
      "name": "rewards",
      "outputs": [
        {
          "internalType": "uint256",
          "name": "",
          "type": "uint256"
        }
      ],
      "stateMutability": "view",
      "type": "function"
    },
    {
      "inputs": [],
      "name": "rewardsToken",
      "outputs": [
        {
          "internalType": "contract IERC20Upgradeable",
          "name": "",
          "type": "address"
        }
      ],
      "stateMutability": "view",
      "type": "function"
    },
    {
      "inputs": [
        {
          "internalType": "address",
          "name": "_newHandler",
          "type": "address"
        }
      ],
      "name": "setLiquidityHandler",
      "outputs": [],
      "stateMutability": "nonpayable",
      "type": "function"
    },
    {
      "inputs": [
        {
          "internalType": "uint256",
          "name": "_duration",
          "type": "uint256"
        }
      ],
      "name": "setRewardsDuration",
      "outputs": [],
      "stateMutability": "nonpayable",
      "type": "function"
    },
    {
      "inputs": [],
      "name": "stakingToken",
      "outputs": [
        {
          "internalType": "contract IERC20Upgradeable",
          "name": "",
          "type": "address"
        }
      ],
      "stateMutability": "view",
      "type": "function"
    },
    {
      "inputs": [
        {
          "internalType": "bytes4",
          "name": "interfaceId",
          "type": "bytes4"
        }
      ],
      "name": "supportsInterface",
      "outputs": [
        {
          "internalType": "bool",
          "name": "",
          "type": "bool"
        }
      ],
      "stateMutability": "view",
      "type": "function"
    },
    {
      "inputs": [
        {
          "internalType": "address",
          "name": "",
          "type": "address"
        }
      ],
      "name": "totalClaimed",
      "outputs": [
        {
          "internalType": "uint256",
          "name": "",
          "type": "uint256"
        }
      ],
      "stateMutability": "view",
      "type": "function"
    },
    {
      "inputs": [],
      "name": "totalSupply",
      "outputs": [
        {
          "internalType": "uint256",
          "name": "",
          "type": "uint256"
        }
      ],
      "stateMutability": "view",
      "type": "function"
    },
    {
      "inputs": [],
      "name": "unpause",
      "outputs": [],
      "stateMutability": "nonpayable",
      "type": "function"
    },
    {
      "inputs": [],
      "name": "updatedAt",
      "outputs": [
        {
          "internalType": "uint256",
          "name": "",
          "type": "uint256"
        }
      ],
      "stateMutability": "view",
      "type": "function"
    },
    {
      "inputs": [],
      "name": "upgradeStatus",
      "outputs": [
        {
          "internalType": "bool",
          "name": "",
          "type": "bool"
        }
      ],
      "stateMutability": "view",
      "type": "function"
    },
    {
      "inputs": [
        {
          "internalType": "address",
          "name": "newImplementation",
          "type": "address"
        }
      ],
      "name": "upgradeTo",
      "outputs": [],
      "stateMutability": "nonpayable",
      "type": "function"
    },
    {
      "inputs": [
        {
          "internalType": "address",
          "name": "newImplementation",
          "type": "address"
        },
        {
          "internalType": "bytes",
          "name": "data",
          "type": "bytes"
        }
      ],
      "name": "upgradeToAndCall",
      "outputs": [],
      "stateMutability": "payable",
      "type": "function"
    },
    {
      "inputs": [
        {
          "internalType": "address",
          "name": "",
          "type": "address"
        }
      ],
      "name": "userRewardPerTokenPaid",
      "outputs": [
        {
          "internalType": "uint256",
          "name": "",
          "type": "uint256"
        }
      ],
      "stateMutability": "view",
      "type": "function"
    },
    {
      "inputs": [],
      "name": "vaultName",
      "outputs": [
        {
          "internalType": "string",
          "name": "",
          "type": "string"
        }
      ],
      "stateMutability": "view",
      "type": "function"
    },
    {
      "inputs": [
        {
          "internalType": "uint256",
          "name": "_amount",
          "type": "uint256"
        }
      ],
      "name": "withdraw",
      "outputs": [],
      "stateMutability": "nonpayable",
      "type": "function"
    }
  ],
  "bytecode": "0x60a06040523060805234801561001457600080fd5b506080516130a361004c60003960008181610fa901528181610fe90152818161145301528181611493015261150b01526130a36000f3fe6080604052600436106102185760003560e01c806301ffc9a71461021d5780630700037d146102525780630ace9ca01461028e5780630b885ac3146102b05780630fb5a6b4146102d257806311c09965146102e957806318160ddd146103165780631ddbddd61461032d578063248a9ca31461034d5780632e1a7d4d1461036d5780632f2ff15d1461038d57806336568abe146103ad5780633659cfe6146103cd5780633b0e9e36146103ed5780633c6b16ab1461040f5780633f4ba83a1461042f578063441f510b146104445780634f1ef2861461047b57806352d1902d1461048e5780635c975abb146104a35780636465f04a146104bb57806367d3b488146104db57806370a08231146104f257806372f702f3146105205780637519ab501461054e5780637b0a47ee146105655780638456cb591461057c5780638b8763471461059157806391d14854146105bf578063a217fddf146105df578063b6b55f25146105f4578063b88a802f14610614578063bea9379e14610629578063cc1a378f14610656578063cd3daf9d14610676578063d1af0c7d1461068b578063d4d543c5146106ac578063d5391393146106ce578063d547741f14610702578063d701f52314610722578063d9e0881114610742578063df136d6514610763578063e45cbf101461077a578063e63ab1e91461079a578063ef5d9ae8146107bc578063ef869773146107ea578063f72c0d8b14610821575b600080fd5b34801561022957600080fd5b5061023d6102383660046128a6565b610843565b60405190151581526020015b60405180910390f35b34801561025e57600080fd5b5061028061026d3660046128ec565b6101386020526000908152604090205481565b604051908152602001610249565b34801561029a57600080fd5b506102a361087a565b604051610249919061295f565b3480156102bc57600080fd5b506102d06102cb3660046129fd565b610909565b005b3480156102de57600080fd5b506102806101325481565b3480156102f557600080fd5b506103096103043660046128ec565b610acb565b6040516102499190612acb565b34801561032257600080fd5b506102806101315481565b34801561033957600080fd5b506102d06103483660046128ec565b610bd4565b34801561035957600080fd5b50610280610368366004612b0e565b610c97565b34801561037957600080fd5b506102d0610388366004612b0e565b610cac565b34801561039957600080fd5b506102d06103a8366004612b27565b610eff565b3480156103b957600080fd5b506102d06103c8366004612b27565b610f20565b3480156103d957600080fd5b506102d06103e83660046128ec565b610f9e565b3480156103f957600080fd5b50610402611067565b6040516102499190612b8c565b34801561041b57600080fd5b506102d061042a366004612b0e565b611202565b34801561043b57600080fd5b506102d0611435565b34801561045057600080fd5b5061028061045f3660046128ec565b6001600160a01b03166000908152610139602052604090205490565b6102d0610489366004612c1f565b611448565b34801561049a57600080fd5b506102806114fe565b3480156104af57600080fd5b5060335460ff1661023d565b3480156104c757600080fd5b506102d06104d6366004612c80565b6115ac565b3480156104e757600080fd5b506102806101335481565b3480156104fe57600080fd5b5061028061050d3660046128ec565b61013a6020526000908152604090205481565b34801561052c57600080fd5b5061012e54610541906001600160a01b031681565b6040516102499190612cbc565b34801561055a57600080fd5b506102806101345481565b34801561057157600080fd5b506102806101355481565b34801561058857600080fd5b506102d061161e565b34801561059d57600080fd5b506102806105ac3660046128ec565b6101376020526000908152604090205481565b3480156105cb57600080fd5b5061023d6105da366004612b27565b611631565b3480156105eb57600080fd5b50610280600081565b34801561060057600080fd5b506102d061060f366004612b0e565b61165c565b34801561062057600080fd5b506102d0611828565b34801561063557600080fd5b506106496106443660046128ec565b61198f565b6040516102499190612cd0565b34801561066257600080fd5b506102d0610671366004612b0e565b6119e2565b34801561068257600080fd5b50610280611a8a565b34801561069757600080fd5b5061012f54610541906001600160a01b031681565b3480156106b857600080fd5b5061012d5461023d90600160a01b900460ff1681565b3480156106da57600080fd5b506102807f9f2df0fed2c77648de5860a4cc508cd0818c85b8b8a1ab4ceeef8d981c8956a681565b34801561070e57600080fd5b506102d061071d366004612b27565b611b03565b34801561072e57600080fd5b506102d061073d366004612d22565b611b1f565b34801561074e57600080fd5b5061012d54610541906001600160a01b031681565b34801561076f57600080fd5b506102806101365481565b34801561078657600080fd5b506106496107953660046128ec565b611b4a565b3480156107a657600080fd5b5061028060008051602061302783398151915281565b3480156107c857600080fd5b506102806107d73660046128ec565b6101396020526000908152604090205481565b3480156107f657600080fd5b506102806108053660046128ec565b6001600160a01b0316600090815261013a602052604090205490565b34801561082d57600080fd5b50610280600080516020612fe783398151915281565b60006001600160e01b03198216637965db0b60e01b148061087457506301ffc9a760e01b6001600160e01b03198316145b92915050565b610130805461088890612d3f565b80601f01602080910402602001604051908101604052809291908181526020018280546108b490612d3f565b80156109015780601f106108d657610100808354040283529160200191610901565b820191906000526020600020905b8154815290600101906020018083116108e457829003601f168201915b505050505081565b600054610100900460ff16158080156109295750600054600160ff909116105b8061094a575061093830611b9c565b15801561094a575060005460ff166001145b6109b25760405162461bcd60e51b815260206004820152602e60248201527f496e697469616c697a61626c653a20636f6e747261637420697320616c72656160448201526d191e481a5b9a5d1a585b1a5e995960921b60648201526084015b60405180910390fd5b6000805460ff1916600117905580156109d5576000805461ff0019166101001790555b6109dd611bab565b6109e5611bdc565b6109ed611bdc565b6109f8600084611c03565b610a10600080516020612fe783398151915284611c03565b610a2860008051602061302783398151915284611c03565b8551610a3c9061013090602089019061280d565b5061012d80546001600160a01b038085166001600160a01b03199283161790925561012e805488841690831617905561012f8054928716929091169190911790558015610ac3576000805461ff0019169055604051600181527f7f26b83ff96e1f2b6a682f133852f6798a09c465da95921460cefb38474024989060200160405180910390a15b505050505050565b610aef60405180606001604052806000815260200160608152602001606081525090565b604080516001808252818301909252600091602080830190803683375050604080516001808252818301909252929350600092915060208083019080368337019050509050610b3d84611c89565b82600081518110610b5057610b50612d7a565b6020026020010181815250506101396000856001600160a01b03166001600160a01b031681526020019081526020016000205481600081518110610b9657610b96612d7a565b6020908102919091018101919091526001600160a01b03909416600090815261013a8552604090819020548452938301919091529181019190915290565b6000610bdf81611d16565b610bf1826001600160a01b0316611b9c565b610c335760405162461bcd60e51b815260206004820152601360248201527215985d5b1d0e88139bdd0818dbdb9d1c9858dd606a1b60448201526064016109a9565b61012d80546001600160a01b038481166001600160a01b031983168117909355604080519190921680825260208201939093527fe832f25a0551fc06b41113a831257a8e66a758bafc7b253af66abb65543e2efd91015b60405180910390a1505050565b60009081526097602052604090206001015490565b610cb4611d20565b33610cbd611a8a565b61013655610cc9611d66565b610134556001600160a01b03811615610d1457610ce581611c89565b6001600160a01b0382166000908152610138602090815260408083209390935561013654610137909152919020555b60008211610d725760405162461bcd60e51b815260206004820152602560248201527f5661756c74203a20616d6f756e74206d75737420626520677265617465722074604482015264068616e20360dc1b60648201526084016109a9565b33600090815261013a6020526040902054821115610de55760405162461bcd60e51b815260206004820152602a60248201527f5661756c74203a20616d6f756e7420746f6f206869676874202f2062616c616e604482015269636520746f6f206c6f7760b01b60648201526084016109a9565b6000610df36103e884612da6565b90506000610e018285612dc8565b61012d5461012e54604051637623475960e01b81523360048201526001600160a01b0391821660248201526044810188905260648101849052608481018690529293501690819063762347599060a401600060405180830381600087803b158015610e6b57600080fd5b505af1158015610e7f573d6000803e3d6000fd5b505033600090815261013a602052604081208054899450909250610ea4908490612dc8565b92505081905550846101316000828254610ebe9190612dc8565b909155505060405185815233907f884edad9ce6fa2440d8a54cc123490eb96d2768479d49ff9c7366125a94243649060200160405180910390a25050505050565b610f0882610c97565b610f1181611d16565b610f1b8383611c03565b505050565b6001600160a01b0381163314610f905760405162461bcd60e51b815260206004820152602f60248201527f416363657373436f6e74726f6c3a2063616e206f6e6c792072656e6f756e636560448201526e103937b632b9903337b91039b2b63360891b60648201526084016109a9565b610f9a8282611d7a565b5050565b306001600160a01b037f0000000000000000000000000000000000000000000000000000000000000000161415610fe75760405162461bcd60e51b81526004016109a990612ddf565b7f00000000000000000000000000000000000000000000000000000000000000006001600160a01b0316611019611de1565b6001600160a01b03161461103f5760405162461bcd60e51b81526004016109a990612e19565b61104881611dfd565b6040805160008082526020820190925261106491839190611e7e565b50565b6110bf6040518061012001604052806060815260200160008152602001600081526020016000815260200160008152602001600081526020016000815260200160006001600160a01b03168152602001606081525090565b60408051600180825281830190925260009160208083019080368337505061012f5482519293506001600160a01b03169183915060009061110257611102612d7a565b60200260200101906001600160a01b031690816001600160a01b031681525050610130805461113090612d3f565b80601f016020809104026020016040519081016040528092919081815260200182805461115c90612d3f565b80156111a95780601f1061117e576101008083540402835291602001916111a9565b820191906000526020600020905b81548152906001019060200180831161118c57829003601f168201915b50505091845250506101315460208301526101325460408301526101335460608301526101345460808301526101355460a08301526101365460c083015261012e546001600160a01b031660e083015261010082015290565b600061120d81611d16565b6000611217611a8a565b61013655611223611d66565b610134556001600160a01b0381161561126e5761123f81611c89565b6001600160a01b0382166000908152610138602090815260408083209390935561013654610137909152919020555b61013354421061128f57610132546112869084612da6565b610135556112cf565b60006101355442610133546112a49190612dc8565b6112ae9190612e53565b610132549091506112bf8286612e72565b6112c99190612da6565b61013555505b6000610135541161131c5760405162461bcd60e51b815260206004820152601760248201527605661756c74203a207265776172642072617465203d203604c1b60448201526064016109a9565b61012f546040516370a0823160e01b81526001600160a01b03909116906370a082319061134d903090600401612cbc565b602060405180830381865afa15801561136a573d6000803e3d6000fd5b505050506040513d601f19601f8201168201806040525081019061138e9190612e8a565b61013254610135546113a09190612e53565b11156113ee5760405162461bcd60e51b815260206004820152601f60248201527f5661756c74203a2072657761726420616d6f756e74203e2062616c616e63650060448201526064016109a9565b610132546113fc9042612e72565b6101335542610134556040518381527f6defe1b1ddb53b2144765659529b5867b865d1bf88dc010c744065865384044490602001610c8a565b600061144081611d16565b611064611fe9565b306001600160a01b037f00000000000000000000000000000000000000000000000000000000000000001614156114915760405162461bcd60e51b81526004016109a990612ddf565b7f00000000000000000000000000000000000000000000000000000000000000006001600160a01b03166114c3611de1565b6001600160a01b0316146114e95760405162461bcd60e51b81526004016109a990612e19565b6114f282611dfd565b610f9a82826001611e7e565b6000306001600160a01b037f000000000000000000000000000000000000000000000000000000000000000016146115995760405162461bcd60e51b815260206004820152603860248201527f555550535570677261646561626c653a206d757374206e6f742062652063616c6044820152771b1959081d1a1c9bdd59da0819195b1959d85d1958d85b1b60421b60648201526084016109a9565b5060008051602061300783398151915290565b60006115b781611d16565b6115cb6001600160a01b0385168484612035565b836001600160a01b0316836001600160a01b03167f84f3859b7a4c4c1b17f558b22446c3394e48c551005072107bbbc4602235d5e78460405161161091815260200190565b60405180910390a350505050565b600061162981611d16565b61106461208b565b60009182526097602090815260408084206001600160a01b0393909316845291905290205460ff1690565b611664611d20565b3361166d611a8a565b61013655611679611d66565b610134556001600160a01b038116156116c45761169581611c89565b6001600160a01b0382166000908152610138602090815260408083209390935561013654610137909152919020555b6000821161170d5760405162461bcd60e51b815260206004820152601660248201527515985d5b1d080e88125b9d985b1a5908185b5bdd5b9d60521b60448201526064016109a9565b61012d5461012e5461172e916001600160a01b0391821691339116856120c8565b61012d5461012e546040516311f9fbc960e21b81526001600160a01b039283169283926347e7ef249261176992909116908790600401612ea3565b600060405180830381600087803b15801561178357600080fd5b505af1158015611797573d6000803e3d6000fd5b505033600090815261013a6020526040812080548794509092506117bc908490612e72565b925050819055508261013160008282546117d69190612e72565b909155505061012e5460405133917f8752a472e571a816aea92eec8dae9baf628e840f4929fbcc2d155e6233ff68a79161181b916001600160a01b0316908790612ea3565b60405180910390a2505050565b611830611d20565b33611839611a8a565b61013655611845611d66565b610134556001600160a01b038116156118905761186181611c89565b6001600160a01b0382166000908152610138602090815260408083209390935561013654610137909152919020555b33600090815261013860205260409020548015610f9a5733600081815261013860205260408082209190915561012f54905163a9059cbb60e01b81526001600160a01b039091169163a9059cbb916118ed91908590600401612ea3565b6020604051808303816000875af115801561190c573d6000803e3d6000fd5b505050506040513d601f19601f820116820180604052508101906119309190612ebc565b50336000908152610139602052604081208054839290611951908490612e72565b909155505060405181815233907f47cee97cb7acd717b3c0aa1435d004cd5b3c8c57d70dbceb4e4458bbd60e39d49060200160405180910390a25050565b60408051600180825281830190925260609160009190602080830190803683370190505090506119be83611c89565b816000815181106119d1576119d1612d7a565b602090810291909101015292915050565b60006119ed81611d16565b426101335410611a4b5760405162461bcd60e51b8152602060048201526024808201527f5661756c74203a20726577617264206475726174696f6e206e6f742066696e696044820152631cda195960e21b60648201526084016109a9565b61013280549083905560408051828152602081018590527f742b4679d312dcba710f9ae63b66243970c9f89543a9e033a821212a1e3a308d9101610c8a565b60006101315460001415611aa057506101365490565b600061013454611aae611d66565b611ab89190612dc8565b90506000610131548261013554611acf9190612e53565b611ae190670de0b6b3a7640000612e53565b611aeb9190612da6565b90508061013654611afc9190612e72565b9250505090565b611b0c82610c97565b611b1581611d16565b610f1b8383611d7a565b6000611b2a81611d16565b5061012d8054911515600160a01b0260ff60a01b19909216919091179055565b60408051600180825281830190925260609160009190602080830190803683375050506001600160a01b038416600090815261013960205260408120548251929350918391906119d1576119d1612d7a565b6001600160a01b03163b151590565b600054610100900460ff16611bd25760405162461bcd60e51b81526004016109a990612ed9565b611bda612106565b565b600054610100900460ff16611bda5760405162461bcd60e51b81526004016109a990612ed9565b611c0d8282611631565b610f9a5760008281526097602090815260408083206001600160a01b03851684529091529020805460ff19166001179055611c453390565b6001600160a01b0316816001600160a01b0316837f2f8788117e7eff1d82e926ec794901d17c78024a50270940304540a733656f0d60405160405180910390a45050565b6001600160a01b038116600090815261013860209081526040808320546101379092528220548281611cb9611a8a565b611cc39190612dc8565b6001600160a01b038616600090815261013a602052604081205491925090670de0b6b3a764000090611cf6908490612e53565b611d009190612da6565b9050611d0c8185612e72565b9695505050505050565b6110648133612139565b60335460ff1615611bda5760405162461bcd60e51b815260206004820152601060248201526f14185d5cd8589b194e881c185d5cd95960821b60448201526064016109a9565b6000611d756101335442612192565b905090565b611d848282611631565b15610f9a5760008281526097602090815260408083206001600160a01b0385168085529252808320805460ff1916905551339285917ff6391f5c32d9c69d2a47ea670b442974b53935d1edc7fd64eb21e047a839171b9190a45050565b600080516020613007833981519152546001600160a01b031690565b600080516020612fe7833981519152611e1581611d16565b61012d54600160a01b900460ff16611e6c5760405162461bcd60e51b815260206004820152601a60248201527915985d5b1d0e88155c19dc985919481b9bdd08185b1b1bddd95960321b60448201526064016109a9565b505061012d805460ff60a01b19169055565b7f4910fdfa16fed3260ed0e7147f7cc6da11a60208b5b9406d12a635614ffd91435460ff1615611eb157610f1b836121ab565b826001600160a01b03166352d1902d6040518163ffffffff1660e01b8152600401602060405180830381865afa925050508015611f0b575060408051601f3d908101601f19168201909252611f0891810190612e8a565b60015b611f6e5760405162461bcd60e51b815260206004820152602e60248201527f45524331393637557067726164653a206e657720696d706c656d656e7461746960448201526d6f6e206973206e6f74205555505360901b60648201526084016109a9565b6000805160206130078339815191528114611fdd5760405162461bcd60e51b815260206004820152602960248201527f45524331393637557067726164653a20756e737570706f727465642070726f786044820152681a58589b195555525160ba1b60648201526084016109a9565b50610f1b838383612245565b611ff161226a565b6033805460ff191690557f5db9ee0a495bf2e6ff9c91a7834c1ba4fdd244a5e8aa4e537bd38aeae4b073aa335b60405161202b9190612cbc565b60405180910390a1565b610f1b8363a9059cbb60e01b8484604051602401612054929190612ea3565b60408051601f198184030181529190526020810180516001600160e01b03166001600160e01b0319909316929092179091526122b3565b612093611d20565b6033805460ff191660011790557f62e78cea01bee320cd4e420270b5ea74000d11b0c9f74754ebdbfc544b05a25861201e3390565b6040516001600160a01b03808516602483015283166044820152606481018290526121009085906323b872dd60e01b90608401612054565b50505050565b600054610100900460ff1661212d5760405162461bcd60e51b81526004016109a990612ed9565b6033805460ff19169055565b6121438282611631565b610f9a5761215081612385565b61215b836020612397565b60405160200161216c929190612f24565b60408051601f198184030181529082905262461bcd60e51b82526109a99160040161295f565b6000818311156121a257816121a4565b825b9392505050565b6121b481611b9c565b6122165760405162461bcd60e51b815260206004820152602d60248201527f455243313936373a206e657720696d706c656d656e746174696f6e206973206e60448201526c1bdd08184818dbdb9d1c9858dd609a1b60648201526084016109a9565b60008051602061300783398151915280546001600160a01b0319166001600160a01b0392909216919091179055565b61224e83612532565b60008251118061225b5750805b15610f1b576121008383612572565b60335460ff16611bda5760405162461bcd60e51b815260206004820152601460248201527314185d5cd8589b194e881b9bdd081c185d5cd95960621b60448201526064016109a9565b6000612308826040518060400160405280602081526020017f5361666545524332303a206c6f772d6c6576656c2063616c6c206661696c6564815250856001600160a01b03166126649092919063ffffffff16565b805190915015610f1b57808060200190518101906123269190612ebc565b610f1b5760405162461bcd60e51b815260206004820152602a60248201527f5361666545524332303a204552433230206f7065726174696f6e20646964206e6044820152691bdd081cdd58d8d9595960b21b60648201526084016109a9565b60606108746001600160a01b03831660145b606060006123a6836002612e53565b6123b1906002612e72565b6001600160401b038111156123c8576123c8612972565b6040519080825280601f01601f1916602001820160405280156123f2576020820181803683370190505b509050600360fc1b8160008151811061240d5761240d612d7a565b60200101906001600160f81b031916908160001a905350600f60fb1b8160018151811061243c5761243c612d7a565b60200101906001600160f81b031916908160001a9053506000612460846002612e53565b61246b906001612e72565b90505b60018111156124e3576f181899199a1a9b1b9c1cb0b131b232b360811b85600f166010811061249f5761249f612d7a565b1a60f81b8282815181106124b5576124b5612d7a565b60200101906001600160f81b031916908160001a90535060049490941c936124dc81612f93565b905061246e565b5083156121a45760405162461bcd60e51b815260206004820181905260248201527f537472696e67733a20686578206c656e67746820696e73756666696369656e7460448201526064016109a9565b61253b816121ab565b6040516001600160a01b038216907fbc7cd75a20ee27fd9adebab32041f755214dbc6bffa90cc0225b39da2e5c2d3b90600090a250565b606061257d83611b9c565b6125d85760405162461bcd60e51b815260206004820152602660248201527f416464726573733a2064656c65676174652063616c6c20746f206e6f6e2d636f6044820152651b9d1c9858dd60d21b60648201526084016109a9565b600080846001600160a01b0316846040516125f39190612faa565b600060405180830381855af49150503d806000811461262e576040519150601f19603f3d011682016040523d82523d6000602084013e612633565b606091505b509150915061265b82826040518060600160405280602781526020016130476027913961267b565b95945050505050565b60606126738484600085612694565b949350505050565b6060831561268a5750816121a4565b6121a4838361276f565b6060824710156126f55760405162461bcd60e51b815260206004820152602660248201527f416464726573733a20696e73756666696369656e742062616c616e636520666f6044820152651c8818d85b1b60d21b60648201526084016109a9565b600080866001600160a01b031685876040516127119190612faa565b60006040518083038185875af1925050503d806000811461274e576040519150601f19603f3d011682016040523d82523d6000602084013e612753565b606091505b509150915061276487838387612799565b979650505050505050565b81511561277f5781518083602001fd5b8060405162461bcd60e51b81526004016109a9919061295f565b606083156128035782516127fc576127b085611b9c565b6127fc5760405162461bcd60e51b815260206004820152601d60248201527f416464726573733a2063616c6c20746f206e6f6e2d636f6e747261637400000060448201526064016109a9565b5081612673565b612673838361276f565b82805461281990612d3f565b90600052602060002090601f01602090048101928261283b5760008555612881565b82601f1061285457805160ff1916838001178555612881565b82800160010185558215612881579182015b82811115612881578251825591602001919060010190612866565b5061288d929150612891565b5090565b5b8082111561288d5760008155600101612892565b6000602082840312156128b857600080fd5b81356001600160e01b0319811681146121a457600080fd5b80356001600160a01b03811681146128e757600080fd5b919050565b6000602082840312156128fe57600080fd5b6121a4826128d0565b60005b8381101561292257818101518382015260200161290a565b838111156121005750506000910152565b6000815180845261294b816020860160208601612907565b601f01601f19169290920160200192915050565b6020815260006121a46020830184612933565b634e487b7160e01b600052604160045260246000fd5b60006001600160401b03808411156129a2576129a2612972565b604051601f8501601f19908116603f011681019082821181831017156129ca576129ca612972565b816040528093508581528686860111156129e357600080fd5b858560208301376000602087830101525050509392505050565b600080600080600060a08688031215612a1557600080fd5b85356001600160401b03811115612a2b57600080fd5b8601601f81018813612a3c57600080fd5b612a4b88823560208401612988565b955050612a5a602087016128d0565b9350612a68604087016128d0565b9250612a76606087016128d0565b9150612a84608087016128d0565b90509295509295909350565b600081518084526020808501945080840160005b83811015612ac057815187529582019590820190600101612aa4565b509495945050505050565b60208152815160208201526000602083015160606040840152612af16080840182612a90565b90506040840151601f1984830301606085015261265b8282612a90565b600060208284031215612b2057600080fd5b5035919050565b60008060408385031215612b3a57600080fd5b82359150612b4a602084016128d0565b90509250929050565b600081518084526020808501945080840160005b83811015612ac05781516001600160a01b031687529582019590820190600101612b67565b6020815260008251610120806020850152612bab610140850183612933565b9150602085015160408501526040850151606085015260608501516080850152608085015160a085015260a085015160c085015260c085015160e085015260e0850151610100612c05818701836001600160a01b03169052565b860151858403601f1901838701529050611d0c8382612b53565b60008060408385031215612c3257600080fd5b612c3b836128d0565b915060208301356001600160401b03811115612c5657600080fd5b8301601f81018513612c6757600080fd5b612c7685823560208401612988565b9150509250929050565b600080600060608486031215612c9557600080fd5b612c9e846128d0565b9250612cac602085016128d0565b9150604084013590509250925092565b6001600160a01b0391909116815260200190565b6020808252825182820181905260009190848201906040850190845b81811015612d0857835183529284019291840191600101612cec565b50909695505050505050565b801515811461106457600080fd5b600060208284031215612d3457600080fd5b81356121a481612d14565b600181811c90821680612d5357607f821691505b60208210811415612d7457634e487b7160e01b600052602260045260246000fd5b50919050565b634e487b7160e01b600052603260045260246000fd5b634e487b7160e01b600052601160045260246000fd5b600082612dc357634e487b7160e01b600052601260045260246000fd5b500490565b600082821015612dda57612dda612d90565b500390565b6020808252602c90820152600080516020612fc783398151915260408201526b19195b1959d85d1958d85b1b60a21b606082015260800190565b6020808252602c90820152600080516020612fc783398151915260408201526b6163746976652070726f787960a01b606082015260800190565b6000816000190483118215151615612e6d57612e6d612d90565b500290565b60008219821115612e8557612e85612d90565b500190565b600060208284031215612e9c57600080fd5b5051919050565b6001600160a01b03929092168252602082015260400190565b600060208284031215612ece57600080fd5b81516121a481612d14565b6020808252602b908201527f496e697469616c697a61626c653a20636f6e7472616374206973206e6f74206960408201526a6e697469616c697a696e6760a81b606082015260800190565b76020b1b1b2b9b9a1b7b73a3937b61d1030b1b1b7bab73a1604d1b815260008351612f56816017850160208801612907565b7001034b99036b4b9b9b4b733903937b6329607d1b6017918401918201528351612f87816028840160208801612907565b01602801949350505050565b600081612fa257612fa2612d90565b506000190190565b60008251612fbc818460208701612907565b919091019291505056fe46756e6374696f6e206d7573742062652063616c6c6564207468726f75676820189ab7a9244df0848122154315af71fe140f3db0fe014031783b0946b8c9d2e3360894a13ba1a3210667c828492db98dca3e2076cc3735a920a3ca505d382bbc65d7a28e3265b37a6474929f336521b332c1681b933f6cb9f3376673440d862a416464726573733a206c6f772d6c6576656c2064656c65676174652063616c6c206661696c6564a2646970667358221220bd773d6760c87582ddbc9dfb9c86baa94b717c890f262e7c651987cbddbda08f64736f6c634300080b0033",
  "linkReferences": {},
  "deployedLinkReferences": {}
}