{
  "_format": "hh-sol-artifact-1",
  "contractName": "D_Vault_SingleReward",
  "sourceName": "contracts/D_Vault_SingleReward.sol",
  "abi": [
    {
      "anonymous": false,
      "inputs": [
        {
          "indexed": false,
          "internalType": "address",
          "name": "previousAdmin",
          "type": "address"
        },
        {
          "indexed": false,
          "internalType": "address",
          "name": "newAdmin",
          "type": "address"
        }
      ],
      "name": "AdminChanged",
      "type": "event"
    },
    {
      "anonymous": false,
      "inputs": [
        {
          "indexed": true,
          "internalType": "address",
          "name": "beacon",
          "type": "address"
        }
      ],
      "name": "BeaconUpgraded",
      "type": "event"
    },
    {
      "anonymous": false,
      "inputs": [
        {
          "indexed": false,
          "internalType": "uint8",
          "name": "version",
          "type": "uint8"
        }
      ],
      "name": "Initialized",
      "type": "event"
    },
    {
      "anonymous": false,
      "inputs": [
        {
          "indexed": false,
          "internalType": "address",
          "name": "account",
          "type": "address"
        }
      ],
      "name": "Paused",
      "type": "event"
    },
    {
      "anonymous": false,
      "inputs": [
        {
          "indexed": true,
          "internalType": "bytes32",
          "name": "role",
          "type": "bytes32"
        },
        {
          "indexed": true,
          "internalType": "bytes32",
          "name": "previousAdminRole",
          "type": "bytes32"
        },
        {
          "indexed": true,
          "internalType": "bytes32",
          "name": "newAdminRole",
          "type": "bytes32"
        }
      ],
      "name": "RoleAdminChanged",
      "type": "event"
    },
    {
      "anonymous": false,
      "inputs": [
        {
          "indexed": true,
          "internalType": "bytes32",
          "name": "role",
          "type": "bytes32"
        },
        {
          "indexed": true,
          "internalType": "address",
          "name": "account",
          "type": "address"
        },
        {
          "indexed": true,
          "internalType": "address",
          "name": "sender",
          "type": "address"
        }
      ],
      "name": "RoleGranted",
      "type": "event"
    },
    {
      "anonymous": false,
      "inputs": [
        {
          "indexed": true,
          "internalType": "bytes32",
          "name": "role",
          "type": "bytes32"
        },
        {
          "indexed": true,
          "internalType": "address",
          "name": "account",
          "type": "address"
        },
        {
          "indexed": true,
          "internalType": "address",
          "name": "sender",
          "type": "address"
        }
      ],
      "name": "RoleRevoked",
      "type": "event"
    },
    {
      "anonymous": false,
      "inputs": [
        {
          "indexed": false,
          "internalType": "address",
          "name": "account",
          "type": "address"
        }
      ],
      "name": "Unpaused",
      "type": "event"
    },
    {
      "anonymous": false,
      "inputs": [
        {
          "indexed": true,
          "internalType": "address",
          "name": "implementation",
          "type": "address"
        }
      ],
      "name": "Upgraded",
      "type": "event"
    },
    {
      "inputs": [],
      "name": "DEFAULT_ADMIN_ROLE",
      "outputs": [
        {
          "internalType": "bytes32",
          "name": "",
          "type": "bytes32"
        }
      ],
      "stateMutability": "view",
      "type": "function"
    },
    {
      "inputs": [],
      "name": "MINTER_ROLE",
      "outputs": [
        {
          "internalType": "bytes32",
          "name": "",
          "type": "bytes32"
        }
      ],
      "stateMutability": "view",
      "type": "function"
    },
    {
      "inputs": [],
      "name": "PAUSER_ROLE",
      "outputs": [
        {
          "internalType": "bytes32",
          "name": "",
          "type": "bytes32"
        }
      ],
      "stateMutability": "view",
      "type": "function"
    },
    {
      "inputs": [],
      "name": "UPGRADER_ROLE",
      "outputs": [
        {
          "internalType": "bytes32",
          "name": "",
          "type": "bytes32"
        }
      ],
      "stateMutability": "view",
      "type": "function"
    },
    {
      "inputs": [
        {
          "internalType": "address",
          "name": "",
          "type": "address"
        }
      ],
      "name": "balanceOf",
      "outputs": [
        {
          "internalType": "uint256",
          "name": "",
          "type": "uint256"
        }
      ],
      "stateMutability": "view",
      "type": "function"
    },
    {
      "inputs": [
        {
          "internalType": "bool",
          "name": "_status",
          "type": "bool"
        }
      ],
      "name": "changeUpgradeStatus",
      "outputs": [],
      "stateMutability": "nonpayable",
      "type": "function"
    },
    {
      "inputs": [],
      "name": "claimReward",
      "outputs": [],
      "stateMutability": "nonpayable",
      "type": "function"
    },
    {
      "inputs": [
        {
          "internalType": "uint256",
          "name": "_amount",
          "type": "uint256"
        }
      ],
      "name": "deposit",
      "outputs": [],
      "stateMutability": "nonpayable",
      "type": "function"
    },
    {
      "inputs": [],
      "name": "duration",
      "outputs": [
        {
          "internalType": "uint256",
          "name": "",
          "type": "uint256"
        }
      ],
      "stateMutability": "view",
      "type": "function"
    },
    {
      "inputs": [
        {
          "internalType": "address",
          "name": "",
          "type": "address"
        }
      ],
      "name": "earned",
      "outputs": [
        {
          "internalType": "uint256",
          "name": "",
          "type": "uint256"
        }
      ],
      "stateMutability": "view",
      "type": "function"
    },
    {
      "inputs": [],
      "name": "finishAt",
      "outputs": [
        {
          "internalType": "uint256",
          "name": "",
          "type": "uint256"
        }
      ],
      "stateMutability": "view",
      "type": "function"
    },
    {
      "inputs": [
        {
          "internalType": "address",
          "name": "_account",
          "type": "address"
        }
      ],
      "name": "getRewardBalance",
      "outputs": [
        {
          "internalType": "uint256",
          "name": "",
          "type": "uint256"
        }
      ],
      "stateMutability": "view",
      "type": "function"
    },
    {
      "inputs": [],
      "name": "getRewardToken",
      "outputs": [
        {
          "internalType": "address",
          "name": "",
          "type": "address"
        }
      ],
      "stateMutability": "view",
      "type": "function"
    },
    {
      "inputs": [
        {
          "internalType": "bytes32",
          "name": "role",
          "type": "bytes32"
        }
      ],
      "name": "getRoleAdmin",
      "outputs": [
        {
          "internalType": "bytes32",
          "name": "",
          "type": "bytes32"
        }
      ],
      "stateMutability": "view",
      "type": "function"
    },
    {
      "inputs": [
        {
          "internalType": "address",
          "name": "_account",
          "type": "address"
        }
      ],
      "name": "getStakeBalance",
      "outputs": [
        {
          "internalType": "uint256",
          "name": "",
          "type": "uint256"
        }
      ],
      "stateMutability": "view",
      "type": "function"
    },
    {
      "inputs": [],
      "name": "getStakeToken",
      "outputs": [
        {
          "internalType": "address",
          "name": "",
          "type": "address"
        }
      ],
      "stateMutability": "view",
      "type": "function"
    },
    {
      "inputs": [
        {
          "internalType": "address",
          "name": "_account",
          "type": "address"
        }
      ],
      "name": "getTotalUserEarned",
      "outputs": [
        {
          "internalType": "uint256",
          "name": "",
          "type": "uint256"
        }
      ],
      "stateMutability": "view",
      "type": "function"
    },
    {
      "inputs": [
        {
          "internalType": "bytes32",
          "name": "role",
          "type": "bytes32"
        },
        {
          "internalType": "address",
          "name": "account",
          "type": "address"
        }
      ],
      "name": "grantRole",
      "outputs": [],
      "stateMutability": "nonpayable",
      "type": "function"
    },
    {
      "inputs": [
        {
          "internalType": "bytes32",
          "name": "role",
          "type": "bytes32"
        },
        {
          "internalType": "address",
          "name": "account",
          "type": "address"
        }
      ],
      "name": "hasRole",
      "outputs": [
        {
          "internalType": "bool",
          "name": "",
          "type": "bool"
        }
      ],
      "stateMutability": "view",
      "type": "function"
    },
    {
      "inputs": [
        {
          "internalType": "string",
          "name": "_vaultName",
          "type": "string"
        },
        {
          "internalType": "address",
          "name": "_stakingToken",
          "type": "address"
        },
        {
          "internalType": "address",
          "name": "_rewardsToken",
          "type": "address"
        },
        {
          "internalType": "address",
          "name": "_multiSigWallet",
          "type": "address"
        },
        {
          "internalType": "address",
          "name": "_handler",
          "type": "address"
        }
      ],
      "name": "initialize",
      "outputs": [],
      "stateMutability": "nonpayable",
      "type": "function"
    },
    {
      "inputs": [],
      "name": "lastTimeRewardApplicable",
      "outputs": [
        {
          "internalType": "uint256",
          "name": "",
          "type": "uint256"
        }
      ],
      "stateMutability": "view",
      "type": "function"
    },
    {
      "inputs": [],
      "name": "liquidityHandler",
      "outputs": [
        {
          "internalType": "address",
          "name": "",
          "type": "address"
        }
      ],
      "stateMutability": "view",
      "type": "function"
    },
    {
      "inputs": [
        {
          "internalType": "uint256",
          "name": "_amount",
          "type": "uint256"
        }
      ],
      "name": "notifyRewardAmount",
      "outputs": [],
      "stateMutability": "nonpayable",
      "type": "function"
    },
    {
      "inputs": [],
      "name": "pause",
      "outputs": [],
      "stateMutability": "nonpayable",
      "type": "function"
    },
    {
      "inputs": [],
      "name": "paused",
      "outputs": [
        {
          "internalType": "bool",
          "name": "",
          "type": "bool"
        }
      ],
      "stateMutability": "view",
      "type": "function"
    },
    {
      "inputs": [],
      "name": "proxiableUUID",
      "outputs": [
        {
          "internalType": "bytes32",
          "name": "",
          "type": "bytes32"
        }
      ],
      "stateMutability": "view",
      "type": "function"
    },
    {
      "inputs": [
        {
          "internalType": "bytes32",
          "name": "role",
          "type": "bytes32"
        },
        {
          "internalType": "address",
          "name": "account",
          "type": "address"
        }
      ],
      "name": "renounceRole",
      "outputs": [],
      "stateMutability": "nonpayable",
      "type": "function"
    },
    {
      "inputs": [
        {
          "internalType": "bytes32",
          "name": "role",
          "type": "bytes32"
        },
        {
          "internalType": "address",
          "name": "account",
          "type": "address"
        }
      ],
      "name": "revokeRole",
      "outputs": [],
      "stateMutability": "nonpayable",
      "type": "function"
    },
    {
      "inputs": [],
      "name": "rewardPerToken",
      "outputs": [
        {
          "internalType": "uint256",
          "name": "",
          "type": "uint256"
        }
      ],
      "stateMutability": "view",
      "type": "function"
    },
    {
      "inputs": [],
      "name": "rewardPerTokenStored",
      "outputs": [
        {
          "internalType": "uint256",
          "name": "",
          "type": "uint256"
        }
      ],
      "stateMutability": "view",
      "type": "function"
    },
    {
      "inputs": [],
      "name": "rewardRate",
      "outputs": [
        {
          "internalType": "uint256",
          "name": "",
          "type": "uint256"
        }
      ],
      "stateMutability": "view",
      "type": "function"
    },
    {
      "inputs": [
        {
          "internalType": "address",
          "name": "",
          "type": "address"
        }
      ],
      "name": "rewards",
      "outputs": [
        {
          "internalType": "uint256",
          "name": "",
          "type": "uint256"
        }
      ],
      "stateMutability": "view",
      "type": "function"
    },
    {
      "inputs": [],
      "name": "rewardsToken",
      "outputs": [
        {
          "internalType": "contract IERC20Upgradeable",
          "name": "",
          "type": "address"
        }
      ],
      "stateMutability": "view",
      "type": "function"
    },
    {
      "inputs": [
        {
          "internalType": "address",
          "name": "newHandler",
          "type": "address"
        }
      ],
      "name": "setLiquidityHandler",
      "outputs": [],
      "stateMutability": "nonpayable",
      "type": "function"
    },
    {
      "inputs": [
        {
          "internalType": "uint256",
          "name": "_duration",
          "type": "uint256"
        }
      ],
      "name": "setRewardsDuration",
      "outputs": [],
      "stateMutability": "nonpayable",
      "type": "function"
    },
    {
      "inputs": [],
      "name": "stakingToken",
      "outputs": [
        {
          "internalType": "contract IERC20Upgradeable",
          "name": "",
          "type": "address"
        }
      ],
      "stateMutability": "view",
      "type": "function"
    },
    {
      "inputs": [
        {
          "internalType": "bytes4",
          "name": "interfaceId",
          "type": "bytes4"
        }
      ],
      "name": "supportsInterface",
      "outputs": [
        {
          "internalType": "bool",
          "name": "",
          "type": "bool"
        }
      ],
      "stateMutability": "view",
      "type": "function"
    },
    {
      "inputs": [],
      "name": "totalSupply",
      "outputs": [
        {
          "internalType": "uint256",
          "name": "",
          "type": "uint256"
        }
      ],
      "stateMutability": "view",
      "type": "function"
    },
    {
      "inputs": [],
      "name": "unpause",
      "outputs": [],
      "stateMutability": "nonpayable",
      "type": "function"
    },
    {
      "inputs": [],
      "name": "updatedAt",
      "outputs": [
        {
          "internalType": "uint256",
          "name": "",
          "type": "uint256"
        }
      ],
      "stateMutability": "view",
      "type": "function"
    },
    {
      "inputs": [],
      "name": "upgradeStatus",
      "outputs": [
        {
          "internalType": "bool",
          "name": "",
          "type": "bool"
        }
      ],
      "stateMutability": "view",
      "type": "function"
    },
    {
      "inputs": [
        {
          "internalType": "address",
          "name": "newImplementation",
          "type": "address"
        }
      ],
      "name": "upgradeTo",
      "outputs": [],
      "stateMutability": "nonpayable",
      "type": "function"
    },
    {
      "inputs": [
        {
          "internalType": "address",
          "name": "newImplementation",
          "type": "address"
        },
        {
          "internalType": "bytes",
          "name": "data",
          "type": "bytes"
        }
      ],
      "name": "upgradeToAndCall",
      "outputs": [],
      "stateMutability": "payable",
      "type": "function"
    },
    {
      "inputs": [
        {
          "internalType": "address",
          "name": "",
          "type": "address"
        }
      ],
      "name": "userRewardPerTokenPaid",
      "outputs": [
        {
          "internalType": "uint256",
          "name": "",
          "type": "uint256"
        }
      ],
      "stateMutability": "view",
      "type": "function"
    },
    {
      "inputs": [],
      "name": "vaultName",
      "outputs": [
        {
          "internalType": "string",
          "name": "",
          "type": "string"
        }
      ],
      "stateMutability": "view",
      "type": "function"
    },
    {
      "inputs": [
        {
          "internalType": "uint256",
          "name": "_amount",
          "type": "uint256"
        }
      ],
      "name": "withdraw",
      "outputs": [],
      "stateMutability": "nonpayable",
      "type": "function"
    }
  ],
  "bytecode": "0x60a06040523060805234801561001457600080fd5b5060805161286061004c60003960008181610d3101528181610d71015281816110070152818161104701526110bf01526128606000f3fe60806040526004361061020c5760003560e01c80628cc2621461021157806301ffc9a7146102525780630700037d146102825780630ace9ca0146102b05780630b885ac3146102d25780630fb5a6b4146102f457806318160ddd1461030b5780631ddbddd614610322578063248a9ca3146103425780632e1a7d4d146103625780632f2ff15d1461038257806336568abe146103a25780633659cfe6146103c25780633c6b16ab146103e25780633f4ba83a14610402578063441f510b146104175780634f1ef2861461044e578063500a15641461046157806352d1902d146104895780635c975abb1461049e57806367d3b488146104b657806369940d79146104cd57806370a08231146104ec57806372f702f31461051a5780637519ab501461053b5780637b0a47ee1461055257806380faa57d146105695780638456cb591461057e5780638b8763471461059357806391d14854146105c1578063a217fddf146105e1578063b6b55f25146105f6578063b88a802f14610616578063cc1a378f1461062b578063cd3daf9d1461064b578063d1af0c7d14610660578063d4d543c514610681578063d5391393146106a3578063d547741f146106d7578063d5a849e9146106f7578063d701f52314610717578063d9e0881114610737578063df136d6514610758578063e63ab1e91461076f578063ef86977314610791578063f72c0d8b146107c8575b600080fd5b34801561021d57600080fd5b5061023f61022c366004612231565b6101396020526000908152604090205481565b6040519081526020015b60405180910390f35b34801561025e57600080fd5b5061027261026d36600461224c565b6107ea565b6040519015158152602001610249565b34801561028e57600080fd5b5061023f61029d366004612231565b6101386020526000908152604090205481565b3480156102bc57600080fd5b506102c5610821565b60405161024991906122a2565b3480156102de57600080fd5b506102f26102ed366004612360565b6108b0565b005b34801561030057600080fd5b5061023f6101325481565b34801561031757600080fd5b5061023f6101315481565b34801561032e57600080fd5b506102f261033d366004612231565b610a72565b34801561034e57600080fd5b5061023f61035d3660046123f3565b610af5565b34801561036e57600080fd5b506102f261037d3660046123f3565b610b0a565b34801561038e57600080fd5b506102f261039d36600461240c565b610c87565b3480156103ae57600080fd5b506102f26103bd36600461240c565b610ca8565b3480156103ce57600080fd5b506102f26103dd366004612231565b610d26565b3480156103ee57600080fd5b506102f26103fd3660046123f3565b610def565b34801561040e57600080fd5b506102f2610fe9565b34801561042357600080fd5b5061023f610432366004612231565b6001600160a01b03166000908152610139602052604090205490565b6102f261045c366004612438565b610ffc565b34801561046d57600080fd5b5061012e546001600160a01b03165b6040516102499190612499565b34801561049557600080fd5b5061023f6110b2565b3480156104aa57600080fd5b5060335460ff16610272565b3480156104c257600080fd5b5061023f6101335481565b3480156104d957600080fd5b5061012f546001600160a01b031661047c565b3480156104f857600080fd5b5061023f610507366004612231565b61013a6020526000908152604090205481565b34801561052657600080fd5b5061012e5461047c906001600160a01b031681565b34801561054757600080fd5b5061023f6101345481565b34801561055e57600080fd5b5061023f6101355481565b34801561057557600080fd5b5061023f611160565b34801561058a57600080fd5b506102f2611174565b34801561059f57600080fd5b5061023f6105ae366004612231565b6101376020526000908152604090205481565b3480156105cd57600080fd5b506102726105dc36600461240c565b611187565b3480156105ed57600080fd5b5061023f600081565b34801561060257600080fd5b506102f26106113660046123f3565b6111b2565b34801561062257600080fd5b506102f261132c565b34801561063757600080fd5b506102f26106463660046123f3565b611456565b34801561065757600080fd5b5061023f6114b9565b34801561066c57600080fd5b5061012f5461047c906001600160a01b031681565b34801561068d57600080fd5b5061012d5461027290600160a01b900460ff1681565b3480156106af57600080fd5b5061023f7f9f2df0fed2c77648de5860a4cc508cd0818c85b8b8a1ab4ceeef8d981c8956a681565b3480156106e357600080fd5b506102f26106f236600461240c565b611521565b34801561070357600080fd5b5061023f610712366004612231565b61153d565b34801561072357600080fd5b506102f26107323660046124bb565b6115b7565b34801561074357600080fd5b5061012d5461047c906001600160a01b031681565b34801561076457600080fd5b5061023f6101365481565b34801561077b57600080fd5b5061023f6000805160206127e483398151915281565b34801561079d57600080fd5b5061023f6107ac366004612231565b6001600160a01b0316600090815261013a602052604090205490565b3480156107d457600080fd5b5061023f6000805160206127a483398151915281565b60006001600160e01b03198216637965db0b60e01b148061081b57506301ffc9a760e01b6001600160e01b03198316145b92915050565b610130805461082f906124d8565b80601f016020809104026020016040519081016040528092919081815260200182805461085b906124d8565b80156108a85780601f1061087d576101008083540402835291602001916108a8565b820191906000526020600020905b81548152906001019060200180831161088b57829003601f168201915b505050505081565b600054610100900460ff16158080156108d05750600054600160ff909116105b806108f157506108df306115e2565b1580156108f1575060005460ff166001145b6109595760405162461bcd60e51b815260206004820152602e60248201527f496e697469616c697a61626c653a20636f6e747261637420697320616c72656160448201526d191e481a5b9a5d1a585b1a5e995960921b60648201526084015b60405180910390fd5b6000805460ff19166001179055801561097c576000805461ff0019166101001790555b6109846115f1565b61098c611622565b610994611622565b61099f600084611649565b6109b76000805160206127a483398151915284611649565b6109cf6000805160206127e483398151915284611649565b85516109e39061013090602089019061217c565b5061012e80546001600160a01b038088166001600160a01b03199283161790925561012f805487841690831617905561012d8054928516929091169190911790558015610a6a576000805461ff0019169055604051600181527f7f26b83ff96e1f2b6a682f133852f6798a09c465da95921460cefb38474024989060200160405180910390a15b505050505050565b6000610a7d816116cf565b610a8f826001600160a01b03166115e2565b610ad15760405162461bcd60e51b815260206004820152601360248201527215985d5b1d0e88139bdd0818dbdb9d1c9858dd606a1b6044820152606401610950565b5061012d80546001600160a01b0319166001600160a01b0392909216919091179055565b60009081526097602052604090206001015490565b33610b136114b9565b61013655610b1f611160565b610134556001600160a01b03811615610b6a57610b3b8161153d565b6001600160a01b0382166000908152610138602090815260408083209390935561013654610137909152919020555b33600090815261013a6020526040902054821115610bd55760405162461bcd60e51b815260206004820152602260248201527f616d6f756e7420746f6f206869676874202f2062616c616e636520746f6f206c6044820152616f7760f01b6064820152608401610950565b61012d5461012e54604051636ce5768960e11b81526001600160a01b0392831692839263d9caed1292610c1092339216908890600401612513565b600060405180830381600087803b158015610c2a57600080fd5b505af1158015610c3e573d6000803e3d6000fd5b505033600090815261013a602052604081208054879450909250610c6390849061254d565b92505081905550826101316000828254610c7d919061254d565b9091555050505050565b610c9082610af5565b610c99816116cf565b610ca38383611649565b505050565b6001600160a01b0381163314610d185760405162461bcd60e51b815260206004820152602f60248201527f416363657373436f6e74726f6c3a2063616e206f6e6c792072656e6f756e636560448201526e103937b632b9903337b91039b2b63360891b6064820152608401610950565b610d2282826116d9565b5050565b306001600160a01b037f0000000000000000000000000000000000000000000000000000000000000000161415610d6f5760405162461bcd60e51b815260040161095090612564565b7f00000000000000000000000000000000000000000000000000000000000000006001600160a01b0316610da1611740565b6001600160a01b031614610dc75760405162461bcd60e51b81526004016109509061259e565b610dd08161175c565b60408051600080825260208201909252610dec918391906117dd565b50565b6000610dfa816116cf565b6000610e046114b9565b61013655610e10611160565b610134556001600160a01b03811615610e5b57610e2c8161153d565b6001600160a01b0382166000908152610138602090815260408083209390935561013654610137909152919020555b610133544210610e7c5761013254610e7390846125d8565b61013555610ebc565b6000610135544261013354610e91919061254d565b610e9b91906125fa565b61013254909150610eac8286612619565b610eb691906125d8565b61013555505b60006101355411610f015760405162461bcd60e51b815260206004820152600f60248201526e07265776172642072617465203d203608c1b6044820152606401610950565b61012f546040516370a0823160e01b81526001600160a01b03909116906370a0823190610f32903090600401612499565b602060405180830381865afa158015610f4f573d6000803e3d6000fd5b505050506040513d601f19601f82011682018060405250810190610f739190612631565b6101325461013554610f8591906125fa565b1115610fcd5760405162461bcd60e51b815260206004820152601760248201527672657761726420616d6f756e74203e2062616c616e636560481b6044820152606401610950565b61013254610fdb9042612619565b610133555050426101345550565b6000610ff4816116cf565b610dec611948565b306001600160a01b037f00000000000000000000000000000000000000000000000000000000000000001614156110455760405162461bcd60e51b815260040161095090612564565b7f00000000000000000000000000000000000000000000000000000000000000006001600160a01b0316611077611740565b6001600160a01b03161461109d5760405162461bcd60e51b81526004016109509061259e565b6110a68261175c565b610d22828260016117dd565b6000306001600160a01b037f0000000000000000000000000000000000000000000000000000000000000000161461114d5760405162461bcd60e51b815260206004820152603860248201527f555550535570677261646561626c653a206d757374206e6f742062652063616c6044820152771b1959081d1a1c9bdd59da0819195b1959d85d1958d85b1b60421b6064820152608401610950565b506000805160206127c483398151915290565b600061116f6101335442611994565b905090565b600061117f816116cf565b610dec6119ad565b60009182526097602090815260408084206001600160a01b0393909316845291905290205460ff1690565b6111ba6119ea565b336111c36114b9565b610136556111cf611160565b610134556001600160a01b0381161561121a576111eb8161153d565b6001600160a01b0382166000908152610138602090815260408083209390935561013654610137909152919020555b600082116112635760405162461bcd60e51b815260206004820152601660248201527515985d5b1d080e88125b9d985b1a5908185b5bdd5b9d60521b6044820152606401610950565b61012d5461012e54611284916001600160a01b039182169133911685611a30565b61012d5461012e546040516311f9fbc960e21b81526001600160a01b039283169283926347e7ef24926112bf9290911690879060040161264a565b600060405180830381600087803b1580156112d957600080fd5b505af11580156112ed573d6000803e3d6000fd5b505033600090815261013a602052604081208054879450909250611312908490612619565b92505081905550826101316000828254610c7d9190612619565b336113356114b9565b61013655611341611160565b610134556001600160a01b0381161561138c5761135d8161153d565b6001600160a01b0382166000908152610138602090815260408083209390935561013654610137909152919020555b33600090815261013860205260409020548015610d225733600081815261013860205260408082209190915561012f54905163a9059cbb60e01b81526001600160a01b039091169163a9059cbb916113e99190859060040161264a565b6020604051808303816000875af1158015611408573d6000803e3d6000fd5b505050506040513d601f19601f8201168201806040525081019061142c9190612663565b5033600090815261013960205260408120805483929061144d908490612619565b90915550505050565b6000611461816116cf565b4261013354106114b25760405162461bcd60e51b815260206004820152601c60248201527b1c995dd85c9908191d5c985d1a5bdb881b9bdd08199a5b9a5cda195960221b6044820152606401610950565b5061013255565b600061013154600014156114cf57506101365490565b61013154610134546114df611160565b6114e9919061254d565b610135546114f791906125fa565b61150990670de0b6b3a76400006125fa565b61151391906125d8565b6101365461116f9190612619565b61152a82610af5565b611533816116cf565b610ca383836116d9565b6001600160a01b03811660009081526101386020908152604080832054610137909252822054670de0b6b3a7640000906115756114b9565b61157f919061254d565b61158991906125d8565b6001600160a01b038416600090815261013a60205260409020546115ad91906125fa565b61081b9190612619565b60006115c2816116cf565b5061012d8054911515600160a01b0260ff60a01b19909216919091179055565b6001600160a01b03163b151590565b600054610100900460ff166116185760405162461bcd60e51b815260040161095090612680565b611620611a8e565b565b600054610100900460ff166116205760405162461bcd60e51b815260040161095090612680565b6116538282611187565b610d225760008281526097602090815260408083206001600160a01b03851684529091529020805460ff1916600117905561168b3390565b6001600160a01b0316816001600160a01b0316837f2f8788117e7eff1d82e926ec794901d17c78024a50270940304540a733656f0d60405160405180910390a45050565b610dec8133611ac1565b6116e38282611187565b15610d225760008281526097602090815260408083206001600160a01b0385168085529252808320805460ff1916905551339285917ff6391f5c32d9c69d2a47ea670b442974b53935d1edc7fd64eb21e047a839171b9190a45050565b6000805160206127c4833981519152546001600160a01b031690565b6000805160206127a4833981519152611774816116cf565b61012d54600160a01b900460ff166117cb5760405162461bcd60e51b815260206004820152601a60248201527915985d5b1d0e88155c19dc985919481b9bdd08185b1b1bddd95960321b6044820152606401610950565b505061012d805460ff60a01b19169055565b7f4910fdfa16fed3260ed0e7147f7cc6da11a60208b5b9406d12a635614ffd91435460ff161561181057610ca383611b1a565b826001600160a01b03166352d1902d6040518163ffffffff1660e01b8152600401602060405180830381865afa92505050801561186a575060408051601f3d908101601f1916820190925261186791810190612631565b60015b6118cd5760405162461bcd60e51b815260206004820152602e60248201527f45524331393637557067726164653a206e657720696d706c656d656e7461746960448201526d6f6e206973206e6f74205555505360901b6064820152608401610950565b6000805160206127c4833981519152811461193c5760405162461bcd60e51b815260206004820152602960248201527f45524331393637557067726164653a20756e737570706f727465642070726f786044820152681a58589b195555525160ba1b6064820152608401610950565b50610ca3838383611bb4565b611950611bd9565b6033805460ff191690557f5db9ee0a495bf2e6ff9c91a7834c1ba4fdd244a5e8aa4e537bd38aeae4b073aa335b60405161198a9190612499565b60405180910390a1565b6000818311156119a457816119a6565b825b9392505050565b6119b56119ea565b6033805460ff191660011790557f62e78cea01bee320cd4e420270b5ea74000d11b0c9f74754ebdbfc544b05a25861197d3390565b60335460ff16156116205760405162461bcd60e51b815260206004820152601060248201526f14185d5cd8589b194e881c185d5cd95960821b6044820152606401610950565b611a88846323b872dd60e01b858585604051602401611a5193929190612513565b60408051601f198184030181529190526020810180516001600160e01b03166001600160e01b031990931692909217909152611c22565b50505050565b600054610100900460ff16611ab55760405162461bcd60e51b815260040161095090612680565b6033805460ff19169055565b611acb8282611187565b610d2257611ad881611cf4565b611ae3836020611d06565b604051602001611af49291906126cb565b60408051601f198184030181529082905262461bcd60e51b8252610950916004016122a2565b611b23816115e2565b611b855760405162461bcd60e51b815260206004820152602d60248201527f455243313936373a206e657720696d706c656d656e746174696f6e206973206e60448201526c1bdd08184818dbdb9d1c9858dd609a1b6064820152608401610950565b6000805160206127c483398151915280546001600160a01b0319166001600160a01b0392909216919091179055565b611bbd83611ea1565b600082511180611bca5750805b15610ca357611a888383611ee1565b60335460ff166116205760405162461bcd60e51b815260206004820152601460248201527314185d5cd8589b194e881b9bdd081c185d5cd95960621b6044820152606401610950565b6000611c77826040518060400160405280602081526020017f5361666545524332303a206c6f772d6c6576656c2063616c6c206661696c6564815250856001600160a01b0316611fd39092919063ffffffff16565b805190915015610ca35780806020019051810190611c959190612663565b610ca35760405162461bcd60e51b815260206004820152602a60248201527f5361666545524332303a204552433230206f7065726174696f6e20646964206e6044820152691bdd081cdd58d8d9595960b21b6064820152608401610950565b606061081b6001600160a01b03831660145b60606000611d158360026125fa565b611d20906002612619565b6001600160401b03811115611d3757611d376122d5565b6040519080825280601f01601f191660200182016040528015611d61576020820181803683370190505b509050600360fc1b81600081518110611d7c57611d7c61273a565b60200101906001600160f81b031916908160001a905350600f60fb1b81600181518110611dab57611dab61273a565b60200101906001600160f81b031916908160001a9053506000611dcf8460026125fa565b611dda906001612619565b90505b6001811115611e52576f181899199a1a9b1b9c1cb0b131b232b360811b85600f1660108110611e0e57611e0e61273a565b1a60f81b828281518110611e2457611e2461273a565b60200101906001600160f81b031916908160001a90535060049490941c93611e4b81612750565b9050611ddd565b5083156119a65760405162461bcd60e51b815260206004820181905260248201527f537472696e67733a20686578206c656e67746820696e73756666696369656e746044820152606401610950565b611eaa81611b1a565b6040516001600160a01b038216907fbc7cd75a20ee27fd9adebab32041f755214dbc6bffa90cc0225b39da2e5c2d3b90600090a250565b6060611eec836115e2565b611f475760405162461bcd60e51b815260206004820152602660248201527f416464726573733a2064656c65676174652063616c6c20746f206e6f6e2d636f6044820152651b9d1c9858dd60d21b6064820152608401610950565b600080846001600160a01b031684604051611f629190612767565b600060405180830381855af49150503d8060008114611f9d576040519150601f19603f3d011682016040523d82523d6000602084013e611fa2565b606091505b5091509150611fca828260405180606001604052806027815260200161280460279139611fea565b95945050505050565b6060611fe28484600085612003565b949350505050565b60608315611ff95750816119a6565b6119a683836120de565b6060824710156120645760405162461bcd60e51b815260206004820152602660248201527f416464726573733a20696e73756666696369656e742062616c616e636520666f6044820152651c8818d85b1b60d21b6064820152608401610950565b600080866001600160a01b031685876040516120809190612767565b60006040518083038185875af1925050503d80600081146120bd576040519150601f19603f3d011682016040523d82523d6000602084013e6120c2565b606091505b50915091506120d387838387612108565b979650505050505050565b8151156120ee5781518083602001fd5b8060405162461bcd60e51b815260040161095091906122a2565b6060831561217257825161216b5761211f856115e2565b61216b5760405162461bcd60e51b815260206004820152601d60248201527f416464726573733a2063616c6c20746f206e6f6e2d636f6e74726163740000006044820152606401610950565b5081611fe2565b611fe283836120de565b828054612188906124d8565b90600052602060002090601f0160209004810192826121aa57600085556121f0565b82601f106121c357805160ff19168380011785556121f0565b828001600101855582156121f0579182015b828111156121f05782518255916020019190600101906121d5565b506121fc929150612200565b5090565b5b808211156121fc5760008155600101612201565b80356001600160a01b038116811461222c57600080fd5b919050565b60006020828403121561224357600080fd5b6119a682612215565b60006020828403121561225e57600080fd5b81356001600160e01b0319811681146119a657600080fd5b60005b83811015612291578181015183820152602001612279565b83811115611a885750506000910152565b60208152600082518060208401526122c1816040850160208701612276565b601f01601f19169190910160400192915050565b634e487b7160e01b600052604160045260246000fd5b60006001600160401b0380841115612305576123056122d5565b604051601f8501601f19908116603f0116810190828211818310171561232d5761232d6122d5565b8160405280935085815286868601111561234657600080fd5b858560208301376000602087830101525050509392505050565b600080600080600060a0868803121561237857600080fd5b85356001600160401b0381111561238e57600080fd5b8601601f8101881361239f57600080fd5b6123ae888235602084016122eb565b9550506123bd60208701612215565b93506123cb60408701612215565b92506123d960608701612215565b91506123e760808701612215565b90509295509295909350565b60006020828403121561240557600080fd5b5035919050565b6000806040838503121561241f57600080fd5b8235915061242f60208401612215565b90509250929050565b6000806040838503121561244b57600080fd5b61245483612215565b915060208301356001600160401b0381111561246f57600080fd5b8301601f8101851361248057600080fd5b61248f858235602084016122eb565b9150509250929050565b6001600160a01b0391909116815260200190565b8015158114610dec57600080fd5b6000602082840312156124cd57600080fd5b81356119a6816124ad565b600181811c908216806124ec57607f821691505b6020821081141561250d57634e487b7160e01b600052602260045260246000fd5b50919050565b6001600160a01b039384168152919092166020820152604081019190915260600190565b634e487b7160e01b600052601160045260246000fd5b60008282101561255f5761255f612537565b500390565b6020808252602c9082015260008051602061278483398151915260408201526b19195b1959d85d1958d85b1b60a21b606082015260800190565b6020808252602c9082015260008051602061278483398151915260408201526b6163746976652070726f787960a01b606082015260800190565b6000826125f557634e487b7160e01b600052601260045260246000fd5b500490565b600081600019048311821515161561261457612614612537565b500290565b6000821982111561262c5761262c612537565b500190565b60006020828403121561264357600080fd5b5051919050565b6001600160a01b03929092168252602082015260400190565b60006020828403121561267557600080fd5b81516119a6816124ad565b6020808252602b908201527f496e697469616c697a61626c653a20636f6e7472616374206973206e6f74206960408201526a6e697469616c697a696e6760a81b606082015260800190565b76020b1b1b2b9b9a1b7b73a3937b61d1030b1b1b7bab73a1604d1b8152600083516126fd816017850160208801612276565b7001034b99036b4b9b9b4b733903937b6329607d1b601791840191820152835161272e816028840160208801612276565b01602801949350505050565b634e487b7160e01b600052603260045260246000fd5b60008161275f5761275f612537565b506000190190565b60008251612779818460208701612276565b919091019291505056fe46756e6374696f6e206d7573742062652063616c6c6564207468726f75676820189ab7a9244df0848122154315af71fe140f3db0fe014031783b0946b8c9d2e3360894a13ba1a3210667c828492db98dca3e2076cc3735a920a3ca505d382bbc65d7a28e3265b37a6474929f336521b332c1681b933f6cb9f3376673440d862a416464726573733a206c6f772d6c6576656c2064656c65676174652063616c6c206661696c6564a2646970667358221220bb849b150ddcf59841b87f226a1425bf6d799a45d3c01f1d454e44878837d0e964736f6c634300080b0033",
  "linkReferences": {},
  "deployedLinkReferences": {}
}