{
  "_format": "hh-sol-artifact-1",
  "contractName": "D_Vault_SingleReward",
  "sourceName": "contracts/D_Vault_SingleReward.sol",
  "abi": [
    {
      "anonymous": false,
      "inputs": [
        {
          "indexed": false,
          "internalType": "address",
          "name": "previousAdmin",
          "type": "address"
        },
        {
          "indexed": false,
          "internalType": "address",
          "name": "newAdmin",
          "type": "address"
        }
      ],
      "name": "AdminChanged",
      "type": "event"
    },
    {
      "anonymous": false,
      "inputs": [
        {
          "indexed": true,
          "internalType": "address",
          "name": "beacon",
          "type": "address"
        }
      ],
      "name": "BeaconUpgraded",
      "type": "event"
    },
    {
      "anonymous": false,
      "inputs": [
        {
          "indexed": true,
          "internalType": "address",
          "name": "user",
          "type": "address"
        },
        {
          "indexed": false,
          "internalType": "uint256",
          "name": "amount",
          "type": "uint256"
        }
      ],
      "name": "Claim",
      "type": "event"
    },
    {
      "anonymous": false,
      "inputs": [
        {
          "indexed": true,
          "internalType": "address",
          "name": "user",
          "type": "address"
        },
        {
          "indexed": false,
          "internalType": "address",
          "name": "token",
          "type": "address"
        },
        {
          "indexed": false,
          "internalType": "uint256",
          "name": "amount",
          "type": "uint256"
        }
      ],
      "name": "Deposited",
      "type": "event"
    },
    {
      "anonymous": false,
      "inputs": [
        {
          "indexed": false,
          "internalType": "uint8",
          "name": "version",
          "type": "uint8"
        }
      ],
      "name": "Initialized",
      "type": "event"
    },
    {
      "anonymous": false,
      "inputs": [
        {
          "indexed": false,
          "internalType": "address",
          "name": "oldHandler",
          "type": "address"
        },
        {
          "indexed": false,
          "internalType": "address",
          "name": "newHandler",
          "type": "address"
        }
      ],
      "name": "NewHandlerSet",
      "type": "event"
    },
    {
      "anonymous": false,
      "inputs": [
        {
          "indexed": false,
          "internalType": "address",
          "name": "account",
          "type": "address"
        }
      ],
      "name": "Paused",
      "type": "event"
    },
    {
      "anonymous": false,
      "inputs": [
        {
          "indexed": true,
          "internalType": "bytes32",
          "name": "role",
          "type": "bytes32"
        },
        {
          "indexed": true,
          "internalType": "bytes32",
          "name": "previousAdminRole",
          "type": "bytes32"
        },
        {
          "indexed": true,
          "internalType": "bytes32",
          "name": "newAdminRole",
          "type": "bytes32"
        }
      ],
      "name": "RoleAdminChanged",
      "type": "event"
    },
    {
      "anonymous": false,
      "inputs": [
        {
          "indexed": true,
          "internalType": "bytes32",
          "name": "role",
          "type": "bytes32"
        },
        {
          "indexed": true,
          "internalType": "address",
          "name": "account",
          "type": "address"
        },
        {
          "indexed": true,
          "internalType": "address",
          "name": "sender",
          "type": "address"
        }
      ],
      "name": "RoleGranted",
      "type": "event"
    },
    {
      "anonymous": false,
      "inputs": [
        {
          "indexed": true,
          "internalType": "bytes32",
          "name": "role",
          "type": "bytes32"
        },
        {
          "indexed": true,
          "internalType": "address",
          "name": "account",
          "type": "address"
        },
        {
          "indexed": true,
          "internalType": "address",
          "name": "sender",
          "type": "address"
        }
      ],
      "name": "RoleRevoked",
      "type": "event"
    },
    {
      "anonymous": false,
      "inputs": [
        {
          "indexed": false,
          "internalType": "address",
          "name": "account",
          "type": "address"
        }
      ],
      "name": "Unpaused",
      "type": "event"
    },
    {
      "anonymous": false,
      "inputs": [
        {
          "indexed": false,
          "internalType": "uint256",
          "name": "amount",
          "type": "uint256"
        }
      ],
      "name": "UpdateRewardAmount",
      "type": "event"
    },
    {
      "anonymous": false,
      "inputs": [
        {
          "indexed": false,
          "internalType": "uint256",
          "name": "oldValue",
          "type": "uint256"
        },
        {
          "indexed": false,
          "internalType": "uint256",
          "name": "newValue",
          "type": "uint256"
        }
      ],
      "name": "UpdateRewardDuration",
      "type": "event"
    },
    {
      "anonymous": false,
      "inputs": [
        {
          "indexed": true,
          "internalType": "address",
          "name": "implementation",
          "type": "address"
        }
      ],
      "name": "Upgraded",
      "type": "event"
    },
    {
      "anonymous": false,
      "inputs": [
        {
          "indexed": true,
          "internalType": "address",
          "name": "user",
          "type": "address"
        },
        {
          "indexed": false,
          "internalType": "uint256",
          "name": "amount",
          "type": "uint256"
        }
      ],
      "name": "Withdraw",
      "type": "event"
    },
    {
      "anonymous": false,
      "inputs": [
        {
          "indexed": true,
          "internalType": "address",
          "name": "user",
          "type": "address"
        },
        {
          "indexed": true,
          "internalType": "address",
          "name": "token",
          "type": "address"
        },
        {
          "indexed": false,
          "internalType": "uint256",
          "name": "amount",
          "type": "uint256"
        }
      ],
      "name": "removeToken",
      "type": "event"
    },
    {
      "inputs": [],
      "name": "DEFAULT_ADMIN_ROLE",
      "outputs": [
        {
          "internalType": "bytes32",
          "name": "",
          "type": "bytes32"
        }
      ],
      "stateMutability": "view",
      "type": "function"
    },
    {
      "inputs": [],
      "name": "MINTER_ROLE",
      "outputs": [
        {
          "internalType": "bytes32",
          "name": "",
          "type": "bytes32"
        }
      ],
      "stateMutability": "view",
      "type": "function"
    },
    {
      "inputs": [],
      "name": "PAUSER_ROLE",
      "outputs": [
        {
          "internalType": "bytes32",
          "name": "",
          "type": "bytes32"
        }
      ],
      "stateMutability": "view",
      "type": "function"
    },
    {
      "inputs": [],
      "name": "UPGRADER_ROLE",
      "outputs": [
        {
          "internalType": "bytes32",
          "name": "",
          "type": "bytes32"
        }
      ],
      "stateMutability": "view",
      "type": "function"
    },
    {
      "inputs": [
        {
          "internalType": "address",
          "name": "",
          "type": "address"
        }
      ],
      "name": "balanceOf",
      "outputs": [
        {
          "internalType": "uint256",
          "name": "",
          "type": "uint256"
        }
      ],
      "stateMutability": "view",
      "type": "function"
    },
    {
      "inputs": [
        {
          "internalType": "bool",
          "name": "_status",
          "type": "bool"
        }
      ],
      "name": "changeUpgradeStatus",
      "outputs": [],
      "stateMutability": "nonpayable",
      "type": "function"
    },
    {
      "inputs": [],
      "name": "claimReward",
      "outputs": [],
      "stateMutability": "nonpayable",
      "type": "function"
    },
    {
      "inputs": [
        {
          "internalType": "uint256",
          "name": "_amount",
          "type": "uint256"
        }
      ],
      "name": "deposit",
      "outputs": [],
      "stateMutability": "nonpayable",
      "type": "function"
    },
    {
      "inputs": [],
      "name": "duration",
      "outputs": [
        {
          "internalType": "uint256",
          "name": "",
          "type": "uint256"
        }
      ],
      "stateMutability": "view",
      "type": "function"
    },
    {
      "inputs": [],
      "name": "finishAt",
      "outputs": [
        {
          "internalType": "uint256",
          "name": "",
          "type": "uint256"
        }
      ],
      "stateMutability": "view",
      "type": "function"
    },
    {
      "inputs": [
        {
          "internalType": "bytes32",
          "name": "role",
          "type": "bytes32"
        }
      ],
      "name": "getRoleAdmin",
      "outputs": [
        {
          "internalType": "bytes32",
          "name": "",
          "type": "bytes32"
        }
      ],
      "stateMutability": "view",
      "type": "function"
    },
    {
      "inputs": [
        {
          "internalType": "address",
          "name": "_account",
          "type": "address"
        }
      ],
      "name": "getStakeBalance",
      "outputs": [
        {
          "internalType": "uint256",
          "name": "",
          "type": "uint256"
        }
      ],
      "stateMutability": "view",
      "type": "function"
    },
    {
      "inputs": [
        {
          "internalType": "address",
          "name": "_account",
          "type": "address"
        }
      ],
      "name": "getTotalUserEarned",
      "outputs": [
        {
          "internalType": "uint256",
          "name": "",
          "type": "uint256"
        }
      ],
      "stateMutability": "view",
      "type": "function"
    },
    {
      "inputs": [
        {
          "internalType": "address",
          "name": "_account",
          "type": "address"
        }
      ],
      "name": "getUserAllClaimableRewards",
      "outputs": [
        {
          "internalType": "uint256[]",
          "name": "",
          "type": "uint256[]"
        }
      ],
      "stateMutability": "view",
      "type": "function"
    },
    {
      "inputs": [
        {
          "internalType": "address",
          "name": "_account",
          "type": "address"
        }
      ],
      "name": "getUserAllEarnedRewards",
      "outputs": [
        {
          "internalType": "uint256[]",
          "name": "",
          "type": "uint256[]"
        }
      ],
      "stateMutability": "view",
      "type": "function"
    },
    {
      "inputs": [
        {
          "internalType": "address",
          "name": "_account",
          "type": "address"
        }
      ],
      "name": "getUserBals",
      "outputs": [
        {
          "components": [
            {
              "internalType": "uint256",
              "name": "userDeposit",
              "type": "uint256"
            },
            {
              "internalType": "uint256[]",
              "name": "userClaimable",
              "type": "uint256[]"
            },
            {
              "internalType": "uint256[]",
              "name": "userTotalEarned",
              "type": "uint256[]"
            }
          ],
          "internalType": "struct D_Vault_SingleReward.UserBals",
          "name": "bals_",
          "type": "tuple"
        }
      ],
      "stateMutability": "view",
      "type": "function"
    },
    {
      "inputs": [],
      "name": "getVaultInfos",
      "outputs": [
        {
          "components": [
            {
              "internalType": "string",
              "name": "name",
              "type": "string"
            },
            {
              "internalType": "uint256",
              "name": "totalSupply",
              "type": "uint256"
            },
            {
              "internalType": "uint256",
              "name": "duration",
              "type": "uint256"
            },
            {
              "internalType": "uint256",
              "name": "finishAt",
              "type": "uint256"
            },
            {
              "internalType": "uint256",
              "name": "updatedAt",
              "type": "uint256"
            },
            {
              "internalType": "uint256",
              "name": "rewardRate",
              "type": "uint256"
            },
            {
              "internalType": "uint256",
              "name": "rewardPerTokenStored",
              "type": "uint256"
            },
            {
              "internalType": "address",
              "name": "stakingToken",
              "type": "address"
            },
            {
              "internalType": "address[]",
              "name": "rewardsToken",
              "type": "address[]"
            }
          ],
          "internalType": "struct D_Vault_SingleReward.VaultInfo",
          "name": "info_",
          "type": "tuple"
        }
      ],
      "stateMutability": "view",
      "type": "function"
    },
    {
      "inputs": [
        {
          "internalType": "bytes32",
          "name": "role",
          "type": "bytes32"
        },
        {
          "internalType": "address",
          "name": "account",
          "type": "address"
        }
      ],
      "name": "grantRole",
      "outputs": [],
      "stateMutability": "nonpayable",
      "type": "function"
    },
    {
      "inputs": [
        {
          "internalType": "bytes32",
          "name": "role",
          "type": "bytes32"
        },
        {
          "internalType": "address",
          "name": "account",
          "type": "address"
        }
      ],
      "name": "hasRole",
      "outputs": [
        {
          "internalType": "bool",
          "name": "",
          "type": "bool"
        }
      ],
      "stateMutability": "view",
      "type": "function"
    },
    {
      "inputs": [
        {
          "internalType": "string",
          "name": "_vaultName",
          "type": "string"
        },
        {
          "internalType": "address",
          "name": "_stakingToken",
          "type": "address"
        },
        {
          "internalType": "address",
          "name": "_rewardsToken",
          "type": "address"
        },
        {
          "internalType": "address",
          "name": "_multiSigWallet",
          "type": "address"
        },
        {
          "internalType": "address",
          "name": "_handler",
          "type": "address"
        }
      ],
      "name": "initialize",
      "outputs": [],
      "stateMutability": "nonpayable",
      "type": "function"
    },
    {
      "inputs": [],
      "name": "liquidityHandler",
      "outputs": [
        {
          "internalType": "address",
          "name": "",
          "type": "address"
        }
      ],
      "stateMutability": "view",
      "type": "function"
    },
    {
      "inputs": [
        {
          "internalType": "uint256",
          "name": "_amount",
          "type": "uint256"
        }
      ],
      "name": "notifyRewardAmount",
      "outputs": [],
      "stateMutability": "nonpayable",
      "type": "function"
    },
    {
      "inputs": [],
      "name": "pause",
      "outputs": [],
      "stateMutability": "nonpayable",
      "type": "function"
    },
    {
      "inputs": [],
      "name": "paused",
      "outputs": [
        {
          "internalType": "bool",
          "name": "",
          "type": "bool"
        }
      ],
      "stateMutability": "view",
      "type": "function"
    },
    {
      "inputs": [],
      "name": "proxiableUUID",
      "outputs": [
        {
          "internalType": "bytes32",
          "name": "",
          "type": "bytes32"
        }
      ],
      "stateMutability": "view",
      "type": "function"
    },
    {
      "inputs": [
        {
          "internalType": "address",
          "name": "_address",
          "type": "address"
        },
        {
          "internalType": "address",
          "name": "_to",
          "type": "address"
        },
        {
          "internalType": "uint256",
          "name": "_amount",
          "type": "uint256"
        }
      ],
      "name": "removeTokenByAddress",
      "outputs": [],
      "stateMutability": "nonpayable",
      "type": "function"
    },
    {
      "inputs": [
        {
          "internalType": "bytes32",
          "name": "role",
          "type": "bytes32"
        },
        {
          "internalType": "address",
          "name": "account",
          "type": "address"
        }
      ],
      "name": "renounceRole",
      "outputs": [],
      "stateMutability": "nonpayable",
      "type": "function"
    },
    {
      "inputs": [
        {
          "internalType": "bytes32",
          "name": "role",
          "type": "bytes32"
        },
        {
          "internalType": "address",
          "name": "account",
          "type": "address"
        }
      ],
      "name": "revokeRole",
      "outputs": [],
      "stateMutability": "nonpayable",
      "type": "function"
    },
    {
      "inputs": [],
      "name": "rewardPerToken",
      "outputs": [
        {
          "internalType": "uint256",
          "name": "",
          "type": "uint256"
        }
      ],
      "stateMutability": "view",
      "type": "function"
    },
    {
      "inputs": [],
      "name": "rewardPerTokenStored",
      "outputs": [
        {
          "internalType": "uint256",
          "name": "",
          "type": "uint256"
        }
      ],
      "stateMutability": "view",
      "type": "function"
    },
    {
      "inputs": [],
      "name": "rewardRate",
      "outputs": [
        {
          "internalType": "uint256",
          "name": "",
          "type": "uint256"
        }
      ],
      "stateMutability": "view",
      "type": "function"
    },
    {
      "inputs": [
        {
          "internalType": "address",
          "name": "",
          "type": "address"
        }
      ],
      "name": "rewards",
      "outputs": [
        {
          "internalType": "uint256",
          "name": "",
          "type": "uint256"
        }
      ],
      "stateMutability": "view",
      "type": "function"
    },
    {
      "inputs": [],
      "name": "rewardsToken",
      "outputs": [
        {
          "internalType": "contract IERC20Upgradeable",
          "name": "",
          "type": "address"
        }
      ],
      "stateMutability": "view",
      "type": "function"
    },
    {
      "inputs": [
        {
          "internalType": "address",
          "name": "_newHandler",
          "type": "address"
        }
      ],
      "name": "setLiquidityHandler",
      "outputs": [],
      "stateMutability": "nonpayable",
      "type": "function"
    },
    {
      "inputs": [
        {
          "internalType": "uint256",
          "name": "_duration",
          "type": "uint256"
        }
      ],
      "name": "setRewardsDuration",
      "outputs": [],
      "stateMutability": "nonpayable",
      "type": "function"
    },
    {
      "inputs": [],
      "name": "stakingToken",
      "outputs": [
        {
          "internalType": "contract IERC20Upgradeable",
          "name": "",
          "type": "address"
        }
      ],
      "stateMutability": "view",
      "type": "function"
    },
    {
      "inputs": [
        {
          "internalType": "bytes4",
          "name": "interfaceId",
          "type": "bytes4"
        }
      ],
      "name": "supportsInterface",
      "outputs": [
        {
          "internalType": "bool",
          "name": "",
          "type": "bool"
        }
      ],
      "stateMutability": "view",
      "type": "function"
    },
    {
      "inputs": [
        {
          "internalType": "address",
          "name": "",
          "type": "address"
        }
      ],
      "name": "totalClaimed",
      "outputs": [
        {
          "internalType": "uint256",
          "name": "",
          "type": "uint256"
        }
      ],
      "stateMutability": "view",
      "type": "function"
    },
    {
      "inputs": [],
      "name": "totalSupply",
      "outputs": [
        {
          "internalType": "uint256",
          "name": "",
          "type": "uint256"
        }
      ],
      "stateMutability": "view",
      "type": "function"
    },
    {
      "inputs": [],
      "name": "unpause",
      "outputs": [],
      "stateMutability": "nonpayable",
      "type": "function"
    },
    {
      "inputs": [],
      "name": "updatedAt",
      "outputs": [
        {
          "internalType": "uint256",
          "name": "",
          "type": "uint256"
        }
      ],
      "stateMutability": "view",
      "type": "function"
    },
    {
      "inputs": [],
      "name": "upgradeStatus",
      "outputs": [
        {
          "internalType": "bool",
          "name": "",
          "type": "bool"
        }
      ],
      "stateMutability": "view",
      "type": "function"
    },
    {
      "inputs": [
        {
          "internalType": "address",
          "name": "newImplementation",
          "type": "address"
        }
      ],
      "name": "upgradeTo",
      "outputs": [],
      "stateMutability": "nonpayable",
      "type": "function"
    },
    {
      "inputs": [
        {
          "internalType": "address",
          "name": "newImplementation",
          "type": "address"
        },
        {
          "internalType": "bytes",
          "name": "data",
          "type": "bytes"
        }
      ],
      "name": "upgradeToAndCall",
      "outputs": [],
      "stateMutability": "payable",
      "type": "function"
    },
    {
      "inputs": [
        {
          "internalType": "address",
          "name": "",
          "type": "address"
        }
      ],
      "name": "userRewardPerTokenPaid",
      "outputs": [
        {
          "internalType": "uint256",
          "name": "",
          "type": "uint256"
        }
      ],
      "stateMutability": "view",
      "type": "function"
    },
    {
      "inputs": [],
      "name": "vaultName",
      "outputs": [
        {
          "internalType": "string",
          "name": "",
          "type": "string"
        }
      ],
      "stateMutability": "view",
      "type": "function"
    },
    {
      "inputs": [
        {
          "internalType": "uint256",
          "name": "_amount",
          "type": "uint256"
        }
      ],
      "name": "withdraw",
      "outputs": [],
      "stateMutability": "nonpayable",
      "type": "function"
    }
  ],
  "bytecode": "0x60a06040523060805234801561001457600080fd5b5060805161302f61004c60003960008181610f5b01528181610f9b015281816113df0152818161141f0152611497015261302f6000f3fe6080604052600436106102185760003560e01c806301ffc9a71461021d5780630700037d146102525780630ace9ca01461028e5780630b885ac3146102b05780630fb5a6b4146102d257806311c09965146102e957806318160ddd146103165780631ddbddd61461032d578063248a9ca31461034d5780632e1a7d4d1461036d5780632f2ff15d1461038d57806336568abe146103ad5780633659cfe6146103cd5780633b0e9e36146103ed5780633c6b16ab1461040f5780633f4ba83a1461042f578063441f510b146104445780634f1ef2861461047b57806352d1902d1461048e5780635c975abb146104a35780636465f04a146104bb57806367d3b488146104db57806370a08231146104f257806372f702f3146105205780637519ab501461054e5780637b0a47ee146105655780638456cb591461057c5780638b8763471461059157806391d14854146105bf578063a217fddf146105df578063b6b55f25146105f4578063b88a802f14610614578063bea9379e14610629578063cc1a378f14610656578063cd3daf9d14610676578063d1af0c7d1461068b578063d4d543c5146106ac578063d5391393146106ce578063d547741f14610702578063d701f52314610722578063d9e0881114610742578063df136d6514610763578063e45cbf101461077a578063e63ab1e91461079a578063ef5d9ae8146107bc578063ef869773146107ea578063f72c0d8b14610821575b600080fd5b34801561022957600080fd5b5061023d610238366004612832565b610843565b60405190151581526020015b60405180910390f35b34801561025e57600080fd5b5061028061026d366004612878565b6101386020526000908152604090205481565b604051908152602001610249565b34801561029a57600080fd5b506102a361087a565b60405161024991906128eb565b3480156102bc57600080fd5b506102d06102cb366004612989565b610909565b005b3480156102de57600080fd5b506102806101325481565b3480156102f557600080fd5b50610309610304366004612878565b610acb565b6040516102499190612a57565b34801561032257600080fd5b506102806101315481565b34801561033957600080fd5b506102d0610348366004612878565b610b86565b34801561035957600080fd5b50610280610368366004612a9a565b610c49565b34801561037957600080fd5b506102d0610388366004612a9a565b610c5e565b34801561039957600080fd5b506102d06103a8366004612ab3565b610eb1565b3480156103b957600080fd5b506102d06103c8366004612ab3565b610ed2565b3480156103d957600080fd5b506102d06103e8366004612878565b610f50565b3480156103f957600080fd5b50610402611019565b6040516102499190612b18565b34801561041b57600080fd5b506102d061042a366004612a9a565b61118e565b34801561043b57600080fd5b506102d06113c1565b34801561045057600080fd5b5061028061045f366004612878565b6001600160a01b03166000908152610139602052604090205490565b6102d0610489366004612bab565b6113d4565b34801561049a57600080fd5b5061028061148a565b3480156104af57600080fd5b5060335460ff1661023d565b3480156104c757600080fd5b506102d06104d6366004612c0c565b611538565b3480156104e757600080fd5b506102806101335481565b3480156104fe57600080fd5b5061028061050d366004612878565b61013a6020526000908152604090205481565b34801561052c57600080fd5b5061012e54610541906001600160a01b031681565b6040516102499190612c48565b34801561055a57600080fd5b506102806101345481565b34801561057157600080fd5b506102806101355481565b34801561058857600080fd5b506102d06115aa565b34801561059d57600080fd5b506102806105ac366004612878565b6101376020526000908152604090205481565b3480156105cb57600080fd5b5061023d6105da366004612ab3565b6115bd565b3480156105eb57600080fd5b50610280600081565b34801561060057600080fd5b506102d061060f366004612a9a565b6115e8565b34801561062057600080fd5b506102d06117b4565b34801561063557600080fd5b50610649610644366004612878565b61191b565b6040516102499190612c5c565b34801561066257600080fd5b506102d0610671366004612a9a565b61196e565b34801561068257600080fd5b50610280611a16565b34801561069757600080fd5b5061012f54610541906001600160a01b031681565b3480156106b857600080fd5b5061012d5461023d90600160a01b900460ff1681565b3480156106da57600080fd5b506102807f9f2df0fed2c77648de5860a4cc508cd0818c85b8b8a1ab4ceeef8d981c8956a681565b34801561070e57600080fd5b506102d061071d366004612ab3565b611a8f565b34801561072e57600080fd5b506102d061073d366004612cae565b611aab565b34801561074e57600080fd5b5061012d54610541906001600160a01b031681565b34801561076f57600080fd5b506102806101365481565b34801561078657600080fd5b50610649610795366004612878565b611ad6565b3480156107a657600080fd5b50610280600080516020612fb383398151915281565b3480156107c857600080fd5b506102806107d7366004612878565b6101396020526000908152604090205481565b3480156107f657600080fd5b50610280610805366004612878565b6001600160a01b0316600090815261013a602052604090205490565b34801561082d57600080fd5b50610280600080516020612f7383398151915281565b60006001600160e01b03198216637965db0b60e01b148061087457506301ffc9a760e01b6001600160e01b03198316145b92915050565b610130805461088890612ccb565b80601f01602080910402602001604051908101604052809291908181526020018280546108b490612ccb565b80156109015780601f106108d657610100808354040283529160200191610901565b820191906000526020600020905b8154815290600101906020018083116108e457829003601f168201915b505050505081565b600054610100900460ff16158080156109295750600054600160ff909116105b8061094a575061093830611b28565b15801561094a575060005460ff166001145b6109b25760405162461bcd60e51b815260206004820152602e60248201527f496e697469616c697a61626c653a20636f6e747261637420697320616c72656160448201526d191e481a5b9a5d1a585b1a5e995960921b60648201526084015b60405180910390fd5b6000805460ff1916600117905580156109d5576000805461ff0019166101001790555b6109dd611b37565b6109e5611b68565b6109ed611b68565b6109f8600084611b8f565b610a10600080516020612f7383398151915284611b8f565b610a28600080516020612fb383398151915284611b8f565b8551610a3c90610130906020890190612799565b5061012d80546001600160a01b038085166001600160a01b03199283161790925561012e805488841690831617905561012f8054928716929091169190911790558015610ac3576000805461ff0019169055604051600181527f7f26b83ff96e1f2b6a682f133852f6798a09c465da95921460cefb38474024989060200160405180910390a15b505050505050565b610aef60405180606001604052806000815260200160608152602001606081525090565b6001600160a01b038216600090815261013a60205260409020548152610b1482611c15565b8160200151600081518110610b2b57610b2b612d06565b6020026020010181815250506101396000836001600160a01b03166001600160a01b03168152602001908152602001600020548160400151600081518110610b7557610b75612d06565b602002602001018181525050919050565b6000610b9181611ca2565b610ba3826001600160a01b0316611b28565b610be55760405162461bcd60e51b815260206004820152601360248201527215985d5b1d0e88139bdd0818dbdb9d1c9858dd606a1b60448201526064016109a9565b61012d80546001600160a01b038481166001600160a01b031983168117909355604080519190921680825260208201939093527fe832f25a0551fc06b41113a831257a8e66a758bafc7b253af66abb65543e2efd91015b60405180910390a1505050565b60009081526097602052604090206001015490565b610c66611cac565b33610c6f611a16565b61013655610c7b611cf2565b610134556001600160a01b03811615610cc657610c9781611c15565b6001600160a01b0382166000908152610138602090815260408083209390935561013654610137909152919020555b60008211610d245760405162461bcd60e51b815260206004820152602560248201527f5661756c74203a20616d6f756e74206d75737420626520677265617465722074604482015264068616e20360dc1b60648201526084016109a9565b33600090815261013a6020526040902054821115610d975760405162461bcd60e51b815260206004820152602a60248201527f5661756c74203a20616d6f756e7420746f6f206869676874202f2062616c616e604482015269636520746f6f206c6f7760b01b60648201526084016109a9565b6000610da56103e884612d32565b90506000610db38285612d54565b61012d5461012e54604051637623475960e01b81523360048201526001600160a01b0391821660248201526044810188905260648101849052608481018690529293501690819063762347599060a401600060405180830381600087803b158015610e1d57600080fd5b505af1158015610e31573d6000803e3d6000fd5b505033600090815261013a602052604081208054899450909250610e56908490612d54565b92505081905550846101316000828254610e709190612d54565b909155505060405185815233907f884edad9ce6fa2440d8a54cc123490eb96d2768479d49ff9c7366125a94243649060200160405180910390a25050505050565b610eba82610c49565b610ec381611ca2565b610ecd8383611b8f565b505050565b6001600160a01b0381163314610f425760405162461bcd60e51b815260206004820152602f60248201527f416363657373436f6e74726f6c3a2063616e206f6e6c792072656e6f756e636560448201526e103937b632b9903337b91039b2b63360891b60648201526084016109a9565b610f4c8282611d06565b5050565b306001600160a01b037f0000000000000000000000000000000000000000000000000000000000000000161415610f995760405162461bcd60e51b81526004016109a990612d6b565b7f00000000000000000000000000000000000000000000000000000000000000006001600160a01b0316610fcb611d6d565b6001600160a01b031614610ff15760405162461bcd60e51b81526004016109a990612da5565b610ffa81611d89565b6040805160008082526020820190925261101691839190611e0a565b50565b6110716040518061012001604052806060815260200160008152602001600081526020016000815260200160008152602001600081526020016000815260200160006001600160a01b03168152602001606081525090565b610130805461107f90612ccb565b80601f01602080910402602001604051908101604052809291908181526020018280546110ab90612ccb565b80156110f85780601f106110cd576101008083540402835291602001916110f8565b820191906000526020600020905b8154815290600101906020018083116110db57829003601f168201915b50505091835250506101315460208201526101325460408201526101335460608201526101345460808201526101355460a08201526101365460c082015261012e546001600160a01b0390811660e083015261012f54610100830151805191909216919060009061116b5761116b612d06565b60200260200101906001600160a01b031690816001600160a01b03168152505090565b600061119981611ca2565b60006111a3611a16565b610136556111af611cf2565b610134556001600160a01b038116156111fa576111cb81611c15565b6001600160a01b0382166000908152610138602090815260408083209390935561013654610137909152919020555b61013354421061121b57610132546112129084612d32565b6101355561125b565b60006101355442610133546112309190612d54565b61123a9190612ddf565b6101325490915061124b8286612dfe565b6112559190612d32565b61013555505b600061013554116112a85760405162461bcd60e51b815260206004820152601760248201527605661756c74203a207265776172642072617465203d203604c1b60448201526064016109a9565b61012f546040516370a0823160e01b81526001600160a01b03909116906370a08231906112d9903090600401612c48565b602060405180830381865afa1580156112f6573d6000803e3d6000fd5b505050506040513d601f19601f8201168201806040525081019061131a9190612e16565b610132546101355461132c9190612ddf565b111561137a5760405162461bcd60e51b815260206004820152601f60248201527f5661756c74203a2072657761726420616d6f756e74203e2062616c616e63650060448201526064016109a9565b610132546113889042612dfe565b6101335542610134556040518381527f6defe1b1ddb53b2144765659529b5867b865d1bf88dc010c744065865384044490602001610c3c565b60006113cc81611ca2565b611016611f75565b306001600160a01b037f000000000000000000000000000000000000000000000000000000000000000016141561141d5760405162461bcd60e51b81526004016109a990612d6b565b7f00000000000000000000000000000000000000000000000000000000000000006001600160a01b031661144f611d6d565b6001600160a01b0316146114755760405162461bcd60e51b81526004016109a990612da5565b61147e82611d89565b610f4c82826001611e0a565b6000306001600160a01b037f000000000000000000000000000000000000000000000000000000000000000016146115255760405162461bcd60e51b815260206004820152603860248201527f555550535570677261646561626c653a206d757374206e6f742062652063616c6044820152771b1959081d1a1c9bdd59da0819195b1959d85d1958d85b1b60421b60648201526084016109a9565b50600080516020612f9383398151915290565b600061154381611ca2565b6115576001600160a01b0385168484611fc1565b836001600160a01b0316836001600160a01b03167f84f3859b7a4c4c1b17f558b22446c3394e48c551005072107bbbc4602235d5e78460405161159c91815260200190565b60405180910390a350505050565b60006115b581611ca2565b611016612017565b60009182526097602090815260408084206001600160a01b0393909316845291905290205460ff1690565b6115f0611cac565b336115f9611a16565b61013655611605611cf2565b610134556001600160a01b038116156116505761162181611c15565b6001600160a01b0382166000908152610138602090815260408083209390935561013654610137909152919020555b600082116116995760405162461bcd60e51b815260206004820152601660248201527515985d5b1d080e88125b9d985b1a5908185b5bdd5b9d60521b60448201526064016109a9565b61012d5461012e546116ba916001600160a01b039182169133911685612054565b61012d5461012e546040516311f9fbc960e21b81526001600160a01b039283169283926347e7ef24926116f592909116908790600401612e2f565b600060405180830381600087803b15801561170f57600080fd5b505af1158015611723573d6000803e3d6000fd5b505033600090815261013a602052604081208054879450909250611748908490612dfe565b925050819055508261013160008282546117629190612dfe565b909155505061012e5460405133917f8752a472e571a816aea92eec8dae9baf628e840f4929fbcc2d155e6233ff68a7916117a7916001600160a01b0316908790612e2f565b60405180910390a2505050565b6117bc611cac565b336117c5611a16565b610136556117d1611cf2565b610134556001600160a01b0381161561181c576117ed81611c15565b6001600160a01b0382166000908152610138602090815260408083209390935561013654610137909152919020555b33600090815261013860205260409020548015610f4c5733600081815261013860205260408082209190915561012f54905163a9059cbb60e01b81526001600160a01b039091169163a9059cbb9161187991908590600401612e2f565b6020604051808303816000875af1158015611898573d6000803e3d6000fd5b505050506040513d601f19601f820116820180604052508101906118bc9190612e48565b503360009081526101396020526040812080548392906118dd908490612dfe565b909155505060405181815233907f47cee97cb7acd717b3c0aa1435d004cd5b3c8c57d70dbceb4e4458bbd60e39d49060200160405180910390a25050565b604080516001808252818301909252606091600091906020808301908036833701905050905061194a83611c15565b8160008151811061195d5761195d612d06565b602090810291909101015292915050565b600061197981611ca2565b4261013354106119d75760405162461bcd60e51b8152602060048201526024808201527f5661756c74203a20726577617264206475726174696f6e206e6f742066696e696044820152631cda195960e21b60648201526084016109a9565b61013280549083905560408051828152602081018590527f742b4679d312dcba710f9ae63b66243970c9f89543a9e033a821212a1e3a308d9101610c3c565b60006101315460001415611a2c57506101365490565b600061013454611a3a611cf2565b611a449190612d54565b90506000610131548261013554611a5b9190612ddf565b611a6d90670de0b6b3a7640000612ddf565b611a779190612d32565b90508061013654611a889190612dfe565b9250505090565b611a9882610c49565b611aa181611ca2565b610ecd8383611d06565b6000611ab681611ca2565b5061012d8054911515600160a01b0260ff60a01b19909216919091179055565b60408051600180825281830190925260609160009190602080830190803683375050506001600160a01b0384166000908152610139602052604081205482519293509183919061195d5761195d612d06565b6001600160a01b03163b151590565b600054610100900460ff16611b5e5760405162461bcd60e51b81526004016109a990612e65565b611b66612092565b565b600054610100900460ff16611b665760405162461bcd60e51b81526004016109a990612e65565b611b9982826115bd565b610f4c5760008281526097602090815260408083206001600160a01b03851684529091529020805460ff19166001179055611bd13390565b6001600160a01b0316816001600160a01b0316837f2f8788117e7eff1d82e926ec794901d17c78024a50270940304540a733656f0d60405160405180910390a45050565b6001600160a01b038116600090815261013860209081526040808320546101379092528220548281611c45611a16565b611c4f9190612d54565b6001600160a01b038616600090815261013a602052604081205491925090670de0b6b3a764000090611c82908490612ddf565b611c8c9190612d32565b9050611c988185612dfe565b9695505050505050565b61101681336120c5565b60335460ff1615611b665760405162461bcd60e51b815260206004820152601060248201526f14185d5cd8589b194e881c185d5cd95960821b60448201526064016109a9565b6000611d01610133544261211e565b905090565b611d1082826115bd565b15610f4c5760008281526097602090815260408083206001600160a01b0385168085529252808320805460ff1916905551339285917ff6391f5c32d9c69d2a47ea670b442974b53935d1edc7fd64eb21e047a839171b9190a45050565b600080516020612f93833981519152546001600160a01b031690565b600080516020612f73833981519152611da181611ca2565b61012d54600160a01b900460ff16611df85760405162461bcd60e51b815260206004820152601a60248201527915985d5b1d0e88155c19dc985919481b9bdd08185b1b1bddd95960321b60448201526064016109a9565b505061012d805460ff60a01b19169055565b7f4910fdfa16fed3260ed0e7147f7cc6da11a60208b5b9406d12a635614ffd91435460ff1615611e3d57610ecd83612137565b826001600160a01b03166352d1902d6040518163ffffffff1660e01b8152600401602060405180830381865afa925050508015611e97575060408051601f3d908101601f19168201909252611e9491810190612e16565b60015b611efa5760405162461bcd60e51b815260206004820152602e60248201527f45524331393637557067726164653a206e657720696d706c656d656e7461746960448201526d6f6e206973206e6f74205555505360901b60648201526084016109a9565b600080516020612f938339815191528114611f695760405162461bcd60e51b815260206004820152602960248201527f45524331393637557067726164653a20756e737570706f727465642070726f786044820152681a58589b195555525160ba1b60648201526084016109a9565b50610ecd8383836121d1565b611f7d6121f6565b6033805460ff191690557f5db9ee0a495bf2e6ff9c91a7834c1ba4fdd244a5e8aa4e537bd38aeae4b073aa335b604051611fb79190612c48565b60405180910390a1565b610ecd8363a9059cbb60e01b8484604051602401611fe0929190612e2f565b60408051601f198184030181529190526020810180516001600160e01b03166001600160e01b03199093169290921790915261223f565b61201f611cac565b6033805460ff191660011790557f62e78cea01bee320cd4e420270b5ea74000d11b0c9f74754ebdbfc544b05a258611faa3390565b6040516001600160a01b038085166024830152831660448201526064810182905261208c9085906323b872dd60e01b90608401611fe0565b50505050565b600054610100900460ff166120b95760405162461bcd60e51b81526004016109a990612e65565b6033805460ff19169055565b6120cf82826115bd565b610f4c576120dc81612311565b6120e7836020612323565b6040516020016120f8929190612eb0565b60408051601f198184030181529082905262461bcd60e51b82526109a9916004016128eb565b60008183111561212e5781612130565b825b9392505050565b61214081611b28565b6121a25760405162461bcd60e51b815260206004820152602d60248201527f455243313936373a206e657720696d706c656d656e746174696f6e206973206e60448201526c1bdd08184818dbdb9d1c9858dd609a1b60648201526084016109a9565b600080516020612f9383398151915280546001600160a01b0319166001600160a01b0392909216919091179055565b6121da836124be565b6000825111806121e75750805b15610ecd5761208c83836124fe565b60335460ff16611b665760405162461bcd60e51b815260206004820152601460248201527314185d5cd8589b194e881b9bdd081c185d5cd95960621b60448201526064016109a9565b6000612294826040518060400160405280602081526020017f5361666545524332303a206c6f772d6c6576656c2063616c6c206661696c6564815250856001600160a01b03166125f09092919063ffffffff16565b805190915015610ecd57808060200190518101906122b29190612e48565b610ecd5760405162461bcd60e51b815260206004820152602a60248201527f5361666545524332303a204552433230206f7065726174696f6e20646964206e6044820152691bdd081cdd58d8d9595960b21b60648201526084016109a9565b60606108746001600160a01b03831660145b60606000612332836002612ddf565b61233d906002612dfe565b6001600160401b03811115612354576123546128fe565b6040519080825280601f01601f19166020018201604052801561237e576020820181803683370190505b509050600360fc1b8160008151811061239957612399612d06565b60200101906001600160f81b031916908160001a905350600f60fb1b816001815181106123c8576123c8612d06565b60200101906001600160f81b031916908160001a90535060006123ec846002612ddf565b6123f7906001612dfe565b90505b600181111561246f576f181899199a1a9b1b9c1cb0b131b232b360811b85600f166010811061242b5761242b612d06565b1a60f81b82828151811061244157612441612d06565b60200101906001600160f81b031916908160001a90535060049490941c9361246881612f1f565b90506123fa565b5083156121305760405162461bcd60e51b815260206004820181905260248201527f537472696e67733a20686578206c656e67746820696e73756666696369656e7460448201526064016109a9565b6124c781612137565b6040516001600160a01b038216907fbc7cd75a20ee27fd9adebab32041f755214dbc6bffa90cc0225b39da2e5c2d3b90600090a250565b606061250983611b28565b6125645760405162461bcd60e51b815260206004820152602660248201527f416464726573733a2064656c65676174652063616c6c20746f206e6f6e2d636f6044820152651b9d1c9858dd60d21b60648201526084016109a9565b600080846001600160a01b03168460405161257f9190612f36565b600060405180830381855af49150503d80600081146125ba576040519150601f19603f3d011682016040523d82523d6000602084013e6125bf565b606091505b50915091506125e78282604051806060016040528060278152602001612fd360279139612607565b95945050505050565b60606125ff8484600085612620565b949350505050565b60608315612616575081612130565b61213083836126fb565b6060824710156126815760405162461bcd60e51b815260206004820152602660248201527f416464726573733a20696e73756666696369656e742062616c616e636520666f6044820152651c8818d85b1b60d21b60648201526084016109a9565b600080866001600160a01b0316858760405161269d9190612f36565b60006040518083038185875af1925050503d80600081146126da576040519150601f19603f3d011682016040523d82523d6000602084013e6126df565b606091505b50915091506126f087838387612725565b979650505050505050565b81511561270b5781518083602001fd5b8060405162461bcd60e51b81526004016109a991906128eb565b6060831561278f5782516127885761273c85611b28565b6127885760405162461bcd60e51b815260206004820152601d60248201527f416464726573733a2063616c6c20746f206e6f6e2d636f6e747261637400000060448201526064016109a9565b50816125ff565b6125ff83836126fb565b8280546127a590612ccb565b90600052602060002090601f0160209004810192826127c7576000855561280d565b82601f106127e057805160ff191683800117855561280d565b8280016001018555821561280d579182015b8281111561280d5782518255916020019190600101906127f2565b5061281992915061281d565b5090565b5b80821115612819576000815560010161281e565b60006020828403121561284457600080fd5b81356001600160e01b03198116811461213057600080fd5b80356001600160a01b038116811461287357600080fd5b919050565b60006020828403121561288a57600080fd5b6121308261285c565b60005b838110156128ae578181015183820152602001612896565b8381111561208c5750506000910152565b600081518084526128d7816020860160208601612893565b601f01601f19169290920160200192915050565b60208152600061213060208301846128bf565b634e487b7160e01b600052604160045260246000fd5b60006001600160401b038084111561292e5761292e6128fe565b604051601f8501601f19908116603f01168101908282118183101715612956576129566128fe565b8160405280935085815286868601111561296f57600080fd5b858560208301376000602087830101525050509392505050565b600080600080600060a086880312156129a157600080fd5b85356001600160401b038111156129b757600080fd5b8601601f810188136129c857600080fd5b6129d788823560208401612914565b9550506129e66020870161285c565b93506129f46040870161285c565b9250612a026060870161285c565b9150612a106080870161285c565b90509295509295909350565b600081518084526020808501945080840160005b83811015612a4c57815187529582019590820190600101612a30565b509495945050505050565b60208152815160208201526000602083015160606040840152612a7d6080840182612a1c565b90506040840151601f198483030160608501526125e78282612a1c565b600060208284031215612aac57600080fd5b5035919050565b60008060408385031215612ac657600080fd5b82359150612ad66020840161285c565b90509250929050565b600081518084526020808501945080840160005b83811015612a4c5781516001600160a01b031687529582019590820190600101612af3565b6020815260008251610120806020850152612b376101408501836128bf565b9150602085015160408501526040850151606085015260608501516080850152608085015160a085015260a085015160c085015260c085015160e085015260e0850151610100612b91818701836001600160a01b03169052565b860151858403601f1901838701529050611c988382612adf565b60008060408385031215612bbe57600080fd5b612bc78361285c565b915060208301356001600160401b03811115612be257600080fd5b8301601f81018513612bf357600080fd5b612c0285823560208401612914565b9150509250929050565b600080600060608486031215612c2157600080fd5b612c2a8461285c565b9250612c386020850161285c565b9150604084013590509250925092565b6001600160a01b0391909116815260200190565b6020808252825182820181905260009190848201906040850190845b81811015612c9457835183529284019291840191600101612c78565b50909695505050505050565b801515811461101657600080fd5b600060208284031215612cc057600080fd5b813561213081612ca0565b600181811c90821680612cdf57607f821691505b60208210811415612d0057634e487b7160e01b600052602260045260246000fd5b50919050565b634e487b7160e01b600052603260045260246000fd5b634e487b7160e01b600052601160045260246000fd5b600082612d4f57634e487b7160e01b600052601260045260246000fd5b500490565b600082821015612d6657612d66612d1c565b500390565b6020808252602c90820152600080516020612f5383398151915260408201526b19195b1959d85d1958d85b1b60a21b606082015260800190565b6020808252602c90820152600080516020612f5383398151915260408201526b6163746976652070726f787960a01b606082015260800190565b6000816000190483118215151615612df957612df9612d1c565b500290565b60008219821115612e1157612e11612d1c565b500190565b600060208284031215612e2857600080fd5b5051919050565b6001600160a01b03929092168252602082015260400190565b600060208284031215612e5a57600080fd5b815161213081612ca0565b6020808252602b908201527f496e697469616c697a61626c653a20636f6e7472616374206973206e6f74206960408201526a6e697469616c697a696e6760a81b606082015260800190565b76020b1b1b2b9b9a1b7b73a3937b61d1030b1b1b7bab73a1604d1b815260008351612ee2816017850160208801612893565b7001034b99036b4b9b9b4b733903937b6329607d1b6017918401918201528351612f13816028840160208801612893565b01602801949350505050565b600081612f2e57612f2e612d1c565b506000190190565b60008251612f48818460208701612893565b919091019291505056fe46756e6374696f6e206d7573742062652063616c6c6564207468726f75676820189ab7a9244df0848122154315af71fe140f3db0fe014031783b0946b8c9d2e3360894a13ba1a3210667c828492db98dca3e2076cc3735a920a3ca505d382bbc65d7a28e3265b37a6474929f336521b332c1681b933f6cb9f3376673440d862a416464726573733a206c6f772d6c6576656c2064656c65676174652063616c6c206661696c6564a26469706673582212202087e3fb5969ae2b5f71072b1ad04c4020e2c26d44a1f635f4aa14b928b940d564736f6c634300080b0033",
  "linkReferences": {},
  "deployedLinkReferences": {}
}