{
  "_format": "hh-sol-artifact-1",
  "contractName": "D_Vault_SingleReward",
  "sourceName": "contracts/D_Vault_SingleReward.sol",
  "abi": [
    {
      "anonymous": false,
      "inputs": [
        {
          "indexed": false,
          "internalType": "address",
          "name": "previousAdmin",
          "type": "address"
        },
        {
          "indexed": false,
          "internalType": "address",
          "name": "newAdmin",
          "type": "address"
        }
      ],
      "name": "AdminChanged",
      "type": "event"
    },
    {
      "anonymous": false,
      "inputs": [
        {
          "indexed": true,
          "internalType": "address",
          "name": "beacon",
          "type": "address"
        }
      ],
      "name": "BeaconUpgraded",
      "type": "event"
    },
    {
      "anonymous": false,
      "inputs": [
        {
          "indexed": false,
          "internalType": "uint8",
          "name": "version",
          "type": "uint8"
        }
      ],
      "name": "Initialized",
      "type": "event"
    },
    {
      "anonymous": false,
      "inputs": [
        {
          "indexed": false,
          "internalType": "address",
          "name": "account",
          "type": "address"
        }
      ],
      "name": "Paused",
      "type": "event"
    },
    {
      "anonymous": false,
      "inputs": [
        {
          "indexed": true,
          "internalType": "bytes32",
          "name": "role",
          "type": "bytes32"
        },
        {
          "indexed": true,
          "internalType": "bytes32",
          "name": "previousAdminRole",
          "type": "bytes32"
        },
        {
          "indexed": true,
          "internalType": "bytes32",
          "name": "newAdminRole",
          "type": "bytes32"
        }
      ],
      "name": "RoleAdminChanged",
      "type": "event"
    },
    {
      "anonymous": false,
      "inputs": [
        {
          "indexed": true,
          "internalType": "bytes32",
          "name": "role",
          "type": "bytes32"
        },
        {
          "indexed": true,
          "internalType": "address",
          "name": "account",
          "type": "address"
        },
        {
          "indexed": true,
          "internalType": "address",
          "name": "sender",
          "type": "address"
        }
      ],
      "name": "RoleGranted",
      "type": "event"
    },
    {
      "anonymous": false,
      "inputs": [
        {
          "indexed": true,
          "internalType": "bytes32",
          "name": "role",
          "type": "bytes32"
        },
        {
          "indexed": true,
          "internalType": "address",
          "name": "account",
          "type": "address"
        },
        {
          "indexed": true,
          "internalType": "address",
          "name": "sender",
          "type": "address"
        }
      ],
      "name": "RoleRevoked",
      "type": "event"
    },
    {
      "anonymous": false,
      "inputs": [
        {
          "indexed": false,
          "internalType": "address",
          "name": "account",
          "type": "address"
        }
      ],
      "name": "Unpaused",
      "type": "event"
    },
    {
      "anonymous": false,
      "inputs": [
        {
          "indexed": true,
          "internalType": "address",
          "name": "implementation",
          "type": "address"
        }
      ],
      "name": "Upgraded",
      "type": "event"
    },
    {
      "inputs": [],
      "name": "DEFAULT_ADMIN_ROLE",
      "outputs": [
        {
          "internalType": "bytes32",
          "name": "",
          "type": "bytes32"
        }
      ],
      "stateMutability": "view",
      "type": "function"
    },
    {
      "inputs": [],
      "name": "MINTER_ROLE",
      "outputs": [
        {
          "internalType": "bytes32",
          "name": "",
          "type": "bytes32"
        }
      ],
      "stateMutability": "view",
      "type": "function"
    },
    {
      "inputs": [],
      "name": "PAUSER_ROLE",
      "outputs": [
        {
          "internalType": "bytes32",
          "name": "",
          "type": "bytes32"
        }
      ],
      "stateMutability": "view",
      "type": "function"
    },
    {
      "inputs": [],
      "name": "UPGRADER_ROLE",
      "outputs": [
        {
          "internalType": "bytes32",
          "name": "",
          "type": "bytes32"
        }
      ],
      "stateMutability": "view",
      "type": "function"
    },
    {
      "inputs": [
        {
          "internalType": "address",
          "name": "",
          "type": "address"
        }
      ],
      "name": "balanceOf",
      "outputs": [
        {
          "internalType": "uint256",
          "name": "",
          "type": "uint256"
        }
      ],
      "stateMutability": "view",
      "type": "function"
    },
    {
      "inputs": [
        {
          "internalType": "bool",
          "name": "_status",
          "type": "bool"
        }
      ],
      "name": "changeUpgradeStatus",
      "outputs": [],
      "stateMutability": "nonpayable",
      "type": "function"
    },
    {
      "inputs": [],
      "name": "claimReward",
      "outputs": [],
      "stateMutability": "nonpayable",
      "type": "function"
    },
    {
      "inputs": [
        {
          "internalType": "uint256",
          "name": "_amount",
          "type": "uint256"
        }
      ],
      "name": "deposit",
      "outputs": [],
      "stateMutability": "nonpayable",
      "type": "function"
    },
    {
      "inputs": [],
      "name": "duration",
      "outputs": [
        {
          "internalType": "uint256",
          "name": "",
          "type": "uint256"
        }
      ],
      "stateMutability": "view",
      "type": "function"
    },
    {
      "inputs": [
        {
          "internalType": "address",
          "name": "",
          "type": "address"
        }
      ],
      "name": "earned",
      "outputs": [
        {
          "internalType": "uint256",
          "name": "",
          "type": "uint256"
        }
      ],
      "stateMutability": "view",
      "type": "function"
    },
    {
      "inputs": [],
      "name": "finishAt",
      "outputs": [
        {
          "internalType": "uint256",
          "name": "",
          "type": "uint256"
        }
      ],
      "stateMutability": "view",
      "type": "function"
    },
    {
      "inputs": [
        {
          "internalType": "address",
          "name": "_account",
          "type": "address"
        }
      ],
      "name": "getRewardBalance",
      "outputs": [
        {
          "internalType": "uint256",
          "name": "",
          "type": "uint256"
        }
      ],
      "stateMutability": "view",
      "type": "function"
    },
    {
      "inputs": [],
      "name": "getRewardToken",
      "outputs": [
        {
          "internalType": "address",
          "name": "",
          "type": "address"
        }
      ],
      "stateMutability": "view",
      "type": "function"
    },
    {
      "inputs": [
        {
          "internalType": "bytes32",
          "name": "role",
          "type": "bytes32"
        }
      ],
      "name": "getRoleAdmin",
      "outputs": [
        {
          "internalType": "bytes32",
          "name": "",
          "type": "bytes32"
        }
      ],
      "stateMutability": "view",
      "type": "function"
    },
    {
      "inputs": [
        {
          "internalType": "address",
          "name": "_account",
          "type": "address"
        }
      ],
      "name": "getStakeBalance",
      "outputs": [
        {
          "internalType": "uint256",
          "name": "",
          "type": "uint256"
        }
      ],
      "stateMutability": "view",
      "type": "function"
    },
    {
      "inputs": [],
      "name": "getStakeToken",
      "outputs": [
        {
          "internalType": "address",
          "name": "",
          "type": "address"
        }
      ],
      "stateMutability": "view",
      "type": "function"
    },
    {
      "inputs": [
        {
          "internalType": "address",
          "name": "_account",
          "type": "address"
        }
      ],
      "name": "getTotalUserEarned",
      "outputs": [
        {
          "internalType": "uint256",
          "name": "",
          "type": "uint256"
        }
      ],
      "stateMutability": "view",
      "type": "function"
    },
    {
      "inputs": [
        {
          "internalType": "bytes32",
          "name": "role",
          "type": "bytes32"
        },
        {
          "internalType": "address",
          "name": "account",
          "type": "address"
        }
      ],
      "name": "grantRole",
      "outputs": [],
      "stateMutability": "nonpayable",
      "type": "function"
    },
    {
      "inputs": [
        {
          "internalType": "bytes32",
          "name": "role",
          "type": "bytes32"
        },
        {
          "internalType": "address",
          "name": "account",
          "type": "address"
        }
      ],
      "name": "hasRole",
      "outputs": [
        {
          "internalType": "bool",
          "name": "",
          "type": "bool"
        }
      ],
      "stateMutability": "view",
      "type": "function"
    },
    {
      "inputs": [
        {
          "internalType": "string",
          "name": "_vaultName",
          "type": "string"
        },
        {
          "internalType": "address",
          "name": "_stakingToken",
          "type": "address"
        },
        {
          "internalType": "address",
          "name": "_rewardsToken",
          "type": "address"
        },
        {
          "internalType": "address",
          "name": "_multiSigWallet",
          "type": "address"
        },
        {
          "internalType": "address",
          "name": "_handler",
          "type": "address"
        },
        {
          "internalType": "address",
          "name": "_trustedForwarder",
          "type": "address"
        }
      ],
      "name": "initialize",
      "outputs": [],
      "stateMutability": "nonpayable",
      "type": "function"
    },
    {
      "inputs": [
        {
          "internalType": "address",
          "name": "forwarder",
          "type": "address"
        }
      ],
      "name": "isTrustedForwarder",
      "outputs": [
        {
          "internalType": "bool",
          "name": "",
          "type": "bool"
        }
      ],
      "stateMutability": "view",
      "type": "function"
    },
    {
      "inputs": [],
      "name": "lastTimeRewardApplicable",
      "outputs": [
        {
          "internalType": "uint256",
          "name": "",
          "type": "uint256"
        }
      ],
      "stateMutability": "view",
      "type": "function"
    },
    {
      "inputs": [],
      "name": "liquidityHandler",
      "outputs": [
        {
          "internalType": "address",
          "name": "",
          "type": "address"
        }
      ],
      "stateMutability": "view",
      "type": "function"
    },
    {
      "inputs": [
        {
          "internalType": "uint256",
          "name": "_amount",
          "type": "uint256"
        }
      ],
      "name": "notifyRewardAmount",
      "outputs": [],
      "stateMutability": "nonpayable",
      "type": "function"
    },
    {
      "inputs": [],
      "name": "pause",
      "outputs": [],
      "stateMutability": "nonpayable",
      "type": "function"
    },
    {
      "inputs": [],
      "name": "paused",
      "outputs": [
        {
          "internalType": "bool",
          "name": "",
          "type": "bool"
        }
      ],
      "stateMutability": "view",
      "type": "function"
    },
    {
      "inputs": [],
      "name": "proxiableUUID",
      "outputs": [
        {
          "internalType": "bytes32",
          "name": "",
          "type": "bytes32"
        }
      ],
      "stateMutability": "view",
      "type": "function"
    },
    {
      "inputs": [
        {
          "internalType": "bytes32",
          "name": "role",
          "type": "bytes32"
        },
        {
          "internalType": "address",
          "name": "account",
          "type": "address"
        }
      ],
      "name": "renounceRole",
      "outputs": [],
      "stateMutability": "nonpayable",
      "type": "function"
    },
    {
      "inputs": [
        {
          "internalType": "bytes32",
          "name": "role",
          "type": "bytes32"
        },
        {
          "internalType": "address",
          "name": "account",
          "type": "address"
        }
      ],
      "name": "revokeRole",
      "outputs": [],
      "stateMutability": "nonpayable",
      "type": "function"
    },
    {
      "inputs": [],
      "name": "rewardPerToken",
      "outputs": [
        {
          "internalType": "uint256",
          "name": "",
          "type": "uint256"
        }
      ],
      "stateMutability": "view",
      "type": "function"
    },
    {
      "inputs": [],
      "name": "rewardPerTokenStored",
      "outputs": [
        {
          "internalType": "uint256",
          "name": "",
          "type": "uint256"
        }
      ],
      "stateMutability": "view",
      "type": "function"
    },
    {
      "inputs": [],
      "name": "rewardRate",
      "outputs": [
        {
          "internalType": "uint256",
          "name": "",
          "type": "uint256"
        }
      ],
      "stateMutability": "view",
      "type": "function"
    },
    {
      "inputs": [
        {
          "internalType": "address",
          "name": "",
          "type": "address"
        }
      ],
      "name": "rewards",
      "outputs": [
        {
          "internalType": "uint256",
          "name": "",
          "type": "uint256"
        }
      ],
      "stateMutability": "view",
      "type": "function"
    },
    {
      "inputs": [],
      "name": "rewardsToken",
      "outputs": [
        {
          "internalType": "contract IERC20Upgradeable",
          "name": "",
          "type": "address"
        }
      ],
      "stateMutability": "view",
      "type": "function"
    },
    {
      "inputs": [
        {
          "internalType": "address",
          "name": "newHandler",
          "type": "address"
        }
      ],
      "name": "setLiquidityHandler",
      "outputs": [],
      "stateMutability": "nonpayable",
      "type": "function"
    },
    {
      "inputs": [
        {
          "internalType": "uint256",
          "name": "_duration",
          "type": "uint256"
        }
      ],
      "name": "setRewardsDuration",
      "outputs": [],
      "stateMutability": "nonpayable",
      "type": "function"
    },
    {
      "inputs": [
        {
          "internalType": "address",
          "name": "newTrustedForwarder",
          "type": "address"
        }
      ],
      "name": "setTrustedForwarder",
      "outputs": [],
      "stateMutability": "nonpayable",
      "type": "function"
    },
    {
      "inputs": [],
      "name": "stakingToken",
      "outputs": [
        {
          "internalType": "contract IERC20Upgradeable",
          "name": "",
          "type": "address"
        }
      ],
      "stateMutability": "view",
      "type": "function"
    },
    {
      "inputs": [
        {
          "internalType": "bytes4",
          "name": "interfaceId",
          "type": "bytes4"
        }
      ],
      "name": "supportsInterface",
      "outputs": [
        {
          "internalType": "bool",
          "name": "",
          "type": "bool"
        }
      ],
      "stateMutability": "view",
      "type": "function"
    },
    {
      "inputs": [],
      "name": "totalSupply",
      "outputs": [
        {
          "internalType": "uint256",
          "name": "",
          "type": "uint256"
        }
      ],
      "stateMutability": "view",
      "type": "function"
    },
    {
      "inputs": [],
      "name": "trustedForwarder",
      "outputs": [
        {
          "internalType": "address",
          "name": "",
          "type": "address"
        }
      ],
      "stateMutability": "view",
      "type": "function"
    },
    {
      "inputs": [],
      "name": "unpause",
      "outputs": [],
      "stateMutability": "nonpayable",
      "type": "function"
    },
    {
      "inputs": [],
      "name": "updatedAt",
      "outputs": [
        {
          "internalType": "uint256",
          "name": "",
          "type": "uint256"
        }
      ],
      "stateMutability": "view",
      "type": "function"
    },
    {
      "inputs": [],
      "name": "upgradeStatus",
      "outputs": [
        {
          "internalType": "bool",
          "name": "",
          "type": "bool"
        }
      ],
      "stateMutability": "view",
      "type": "function"
    },
    {
      "inputs": [
        {
          "internalType": "address",
          "name": "newImplementation",
          "type": "address"
        }
      ],
      "name": "upgradeTo",
      "outputs": [],
      "stateMutability": "nonpayable",
      "type": "function"
    },
    {
      "inputs": [
        {
          "internalType": "address",
          "name": "newImplementation",
          "type": "address"
        },
        {
          "internalType": "bytes",
          "name": "data",
          "type": "bytes"
        }
      ],
      "name": "upgradeToAndCall",
      "outputs": [],
      "stateMutability": "payable",
      "type": "function"
    },
    {
      "inputs": [
        {
          "internalType": "address",
          "name": "",
          "type": "address"
        }
      ],
      "name": "userRewardPerTokenPaid",
      "outputs": [
        {
          "internalType": "uint256",
          "name": "",
          "type": "uint256"
        }
      ],
      "stateMutability": "view",
      "type": "function"
    },
    {
      "inputs": [],
      "name": "vaultName",
      "outputs": [
        {
          "internalType": "string",
          "name": "",
          "type": "string"
        }
      ],
      "stateMutability": "view",
      "type": "function"
    },
    {
      "inputs": [
        {
          "internalType": "uint256",
          "name": "_amount",
          "type": "uint256"
        }
      ],
      "name": "withdraw",
      "outputs": [],
      "stateMutability": "nonpayable",
      "type": "function"
    }
  ],
  "bytecode": "0x60a06040523060805234801561001457600080fd5b5060805161298361004c60003960008181610c1701528181610c5701528181610eed01528181610f2d0152610fa501526129836000f3fe60806040526004361061022d5760003560e01c80628cc2621461023257806301ffc9a7146102735780630700037d146102a35780630ace9ca0146102d15780630fb5a6b4146102f357806318160ddd1461030a5780631ddbddd614610321578063248a9ca3146103435780632e1a7d4d146103635780632f2ff15d1461038357806336568abe146103a35780633659cfe6146103c35780633c6b16ab146103e35780633f4ba83a14610403578063441f510b146104185780634f1ef2861461044f578063500a15641461046257806352d1902d1461048a578063572b6c051461049f5780635c975abb146104cf57806367d3b488146104e757806369940d79146104fe57806370a082311461051d57806372f702f31461054b5780637519ab501461056c5780637b0a47ee146105835780637da0a8771461059a57806380faa57d146105bb5780638182e707146105d05780638456cb59146105f05780638b8763471461060557806391d1485414610633578063a217fddf14610653578063b6b55f2514610668578063b88a802f14610688578063cc1a378f1461069d578063cd3daf9d146106bd578063d1af0c7d146106d2578063d4d543c5146106f3578063d539139314610715578063d547741f14610749578063d5a849e914610769578063d701f52314610789578063d9e08811146107a9578063da742228146107ca578063df136d65146107ea578063e63ab1e914610801578063ef86977314610823578063f72c0d8b1461085a575b600080fd5b34801561023e57600080fd5b5061026061024d366004612316565b61013a6020526000908152604090205481565b6040519081526020015b60405180910390f35b34801561027f57600080fd5b5061029361028e366004612331565b61087c565b604051901515815260200161026a565b3480156102af57600080fd5b506102606102be366004612316565b6101396020526000908152604090205481565b3480156102dd57600080fd5b506102e66108b3565b60405161026a9190612387565b3480156102ff57600080fd5b506102606101335481565b34801561031657600080fd5b506102606101325481565b34801561032d57600080fd5b5061034161033c366004612316565b610942565b005b34801561034f57600080fd5b5061026061035e3660046123ba565b6109a8565b34801561036f57600080fd5b5061034161037e3660046123ba565b6109bd565b34801561038f57600080fd5b5061034161039e3660046123d3565b610b3a565b3480156103af57600080fd5b506103416103be3660046123d3565b610b8e565b3480156103cf57600080fd5b506103416103de366004612316565b610c0c565b3480156103ef57600080fd5b506103416103fe3660046123ba565b610cd5565b34801561040f57600080fd5b50610341610ecf565b34801561042457600080fd5b50610260610433366004612316565b6001600160a01b0316600090815261013a602052604090205490565b61034161045d36600461248a565b610ee2565b34801561046e57600080fd5b5061012f546001600160a01b03165b60405161026a91906124eb565b34801561049657600080fd5b50610260610f98565b3480156104ab57600080fd5b506102936104ba366004612316565b61012e546001600160a01b0391821691161490565b3480156104db57600080fd5b5060335460ff16610293565b3480156104f357600080fd5b506102606101345481565b34801561050a57600080fd5b50610130546001600160a01b031661047d565b34801561052957600080fd5b50610260610538366004612316565b61013b6020526000908152604090205481565b34801561055757600080fd5b5061012f5461047d906001600160a01b031681565b34801561057857600080fd5b506102606101355481565b34801561058f57600080fd5b506102606101365481565b3480156105a657600080fd5b5061012e5461047d906001600160a01b031681565b3480156105c757600080fd5b50610260611046565b3480156105dc57600080fd5b506103416105eb3660046124ff565b61105a565b3480156105fc57600080fd5b50610341611226565b34801561061157600080fd5b50610260610620366004612316565b6101386020526000908152604090205481565b34801561063f57600080fd5b5061029361064e3660046123d3565b611239565b34801561065f57600080fd5b50610260600081565b34801561067457600080fd5b506103416106833660046123ba565b611264565b34801561069457600080fd5b506103416113e0565b3480156106a957600080fd5b506103416106b83660046123ba565b61150a565b3480156106c957600080fd5b5061026061156d565b3480156106de57600080fd5b506101305461047d906001600160a01b031681565b3480156106ff57600080fd5b5061012d5461029390600160a01b900460ff1681565b34801561072157600080fd5b506102607f9f2df0fed2c77648de5860a4cc508cd0818c85b8b8a1ab4ceeef8d981c8956a681565b34801561075557600080fd5b506103416107643660046123d3565b6115d5565b34801561077557600080fd5b50610260610784366004612316565b6115f1565b34801561079557600080fd5b506103416107a43660046125af565b61166b565b3480156107b557600080fd5b5061012d5461047d906001600160a01b031681565b3480156107d657600080fd5b506103416107e5366004612316565b611696565b3480156107f657600080fd5b506102606101375481565b34801561080d57600080fd5b5061026060008051602061290783398151915281565b34801561082f57600080fd5b5061026061083e366004612316565b6001600160a01b0316600090815261013b602052604090205490565b34801561086657600080fd5b506102606000805160206128c783398151915281565b60006001600160e01b03198216637965db0b60e01b14806108ad57506301ffc9a760e01b6001600160e01b03198316145b92915050565b61013180546108c1906125cc565b80601f01602080910402602001604051908101604052809291908181526020018280546108ed906125cc565b801561093a5780601f1061090f5761010080835404028352916020019161093a565b820191906000526020600020905b81548152906001019060200180831161091d57829003601f168201915b505050505081565b600061094d816116c5565b61095f826001600160a01b03166116cf565b6109845760405162461bcd60e51b815260040161097b90612607565b60405180910390fd5b5061012d80546001600160a01b0319166001600160a01b0392909216919091179055565b60009081526097602052604090206001015490565b336109c661156d565b610137556109d2611046565b610135556001600160a01b03811615610a1d576109ee816115f1565b6001600160a01b0382166000908152610139602090815260408083209390935561013754610138909152919020555b33600090815261013b6020526040902054821115610a885760405162461bcd60e51b815260206004820152602260248201527f616d6f756e7420746f6f206869676874202f2062616c616e636520746f6f206c6044820152616f7760f01b606482015260840161097b565b61012d5461012f54604051636ce5768960e11b81526001600160a01b0392831692839263d9caed1292610ac392339216908890600401612636565b600060405180830381600087803b158015610add57600080fd5b505af1158015610af1573d6000803e3d6000fd5b505033600090815261013b602052604081208054879450909250610b16908490612670565b92505081905550826101326000828254610b309190612670565b9091555050505050565b610b43826109a8565b610b4c816116c5565b82610b7f57610b63826001600160a01b03166116cf565b610b7f5760405162461bcd60e51b815260040161097b90612607565b610b8983836116de565b505050565b6001600160a01b0381163314610bfe5760405162461bcd60e51b815260206004820152602f60248201527f416363657373436f6e74726f6c3a2063616e206f6e6c792072656e6f756e636560448201526e103937b632b9903337b91039b2b63360891b606482015260840161097b565b610c088282611764565b5050565b306001600160a01b037f0000000000000000000000000000000000000000000000000000000000000000161415610c555760405162461bcd60e51b815260040161097b90612687565b7f00000000000000000000000000000000000000000000000000000000000000006001600160a01b0316610c876117cb565b6001600160a01b031614610cad5760405162461bcd60e51b815260040161097b906126c1565b610cb6816117e7565b60408051600080825260208201909252610cd29183919061186a565b50565b6000610ce0816116c5565b6000610cea61156d565b61013755610cf6611046565b610135556001600160a01b03811615610d4157610d12816115f1565b6001600160a01b0382166000908152610139602090815260408083209390935561013754610138909152919020555b610134544210610d625761013354610d5990846126fb565b61013655610da2565b6000610136544261013454610d779190612670565b610d81919061271d565b61013354909150610d92828661273c565b610d9c91906126fb565b61013655505b60006101365411610de75760405162461bcd60e51b815260206004820152600f60248201526e07265776172642072617465203d203608c1b604482015260640161097b565b610130546040516370a0823160e01b81526001600160a01b03909116906370a0823190610e189030906004016124eb565b602060405180830381865afa158015610e35573d6000803e3d6000fd5b505050506040513d601f19601f82011682018060405250810190610e599190612754565b6101335461013654610e6b919061271d565b1115610eb35760405162461bcd60e51b815260206004820152601760248201527672657761726420616d6f756e74203e2062616c616e636560481b604482015260640161097b565b61013354610ec1904261273c565b610134555050426101355550565b6000610eda816116c5565b610cd26119d5565b306001600160a01b037f0000000000000000000000000000000000000000000000000000000000000000161415610f2b5760405162461bcd60e51b815260040161097b90612687565b7f00000000000000000000000000000000000000000000000000000000000000006001600160a01b0316610f5d6117cb565b6001600160a01b031614610f835760405162461bcd60e51b815260040161097b906126c1565b610f8c826117e7565b610c088282600161186a565b6000306001600160a01b037f000000000000000000000000000000000000000000000000000000000000000016146110335760405162461bcd60e51b815260206004820152603860248201527f555550535570677261646561626c653a206d757374206e6f742062652063616c6044820152771b1959081d1a1c9bdd59da0819195b1959d85d1958d85b1b60421b606482015260840161097b565b506000805160206128e783398151915290565b60006110556101345442611a21565b905090565b600054610100900460ff161580801561107a5750600054600160ff909116105b8061109b5750611089306116cf565b15801561109b575060005460ff166001145b6110fe5760405162461bcd60e51b815260206004820152602e60248201527f496e697469616c697a61626c653a20636f6e747261637420697320616c72656160448201526d191e481a5b9a5d1a585b1a5e995960921b606482015260840161097b565b6000805460ff191660011790558015611121576000805461ff0019166101001790555b611129611a3a565b611131611a6b565b611139611a6b565b6111446000856116de565b61115c6000805160206128c7833981519152856116de565b611174600080516020612907833981519152856116de565b8651611188906101319060208a0190612261565b5061012f80546001600160a01b038089166001600160a01b031992831617909255610130805488841690831617905561012d805486841690831617905561012e805492851692909116919091179055801561121d576000805461ff0019169055604051600181527f7f26b83ff96e1f2b6a682f133852f6798a09c465da95921460cefb38474024989060200160405180910390a15b50505050505050565b6000611231816116c5565b610cd2611a92565b60009182526097602090815260408084206001600160a01b0393909316845291905290205460ff1690565b61126c611acf565b3361127561156d565b61013755611281611046565b610135556001600160a01b038116156112cc5761129d816115f1565b6001600160a01b0382166000908152610139602090815260408083209390935561013754610138909152919020555b600082116113175760405162461bcd60e51b81526020600482015260186024820152771250951bdad95b880e88125b9d985b1a5908185b5bdd5b9d60421b604482015260640161097b565b61012d5461012f54611338916001600160a01b039182169133911685611b15565b61012d5461012f546040516311f9fbc960e21b81526001600160a01b039283169283926347e7ef24926113739290911690879060040161276d565b600060405180830381600087803b15801561138d57600080fd5b505af11580156113a1573d6000803e3d6000fd5b505033600090815261013b6020526040812080548794509092506113c690849061273c565b92505081905550826101326000828254610b30919061273c565b336113e961156d565b610137556113f5611046565b610135556001600160a01b0381161561144057611411816115f1565b6001600160a01b0382166000908152610139602090815260408083209390935561013754610138909152919020555b33600090815261013960205260409020548015610c085733600081815261013960205260408082209190915561013054905163a9059cbb60e01b81526001600160a01b039091169163a9059cbb9161149d9190859060040161276d565b6020604051808303816000875af11580156114bc573d6000803e3d6000fd5b505050506040513d601f19601f820116820180604052508101906114e09190612786565b5033600090815261013a60205260408120805483929061150190849061273c565b90915550505050565b6000611515816116c5565b4261013454106115665760405162461bcd60e51b815260206004820152601c60248201527b1c995dd85c9908191d5c985d1a5bdb881b9bdd08199a5b9a5cda195960221b604482015260640161097b565b5061013355565b6000610132546000141561158357506101375490565b6101325461013554611593611046565b61159d9190612670565b610136546115ab919061271d565b6115bd90670de0b6b3a764000061271d565b6115c791906126fb565b61013754611055919061273c565b6115de826109a8565b6115e7816116c5565b610b898383611764565b6001600160a01b03811660009081526101396020908152604080832054610138909252822054670de0b6b3a76400009061162961156d565b6116339190612670565b61163d91906126fb565b6001600160a01b038416600090815261013b6020526040902054611661919061271d565b6108ad919061273c565b6000611676816116c5565b5061012d8054911515600160a01b0260ff60a01b19909216919091179055565b60006116a1816116c5565b5061012e80546001600160a01b0319166001600160a01b0392909216919091179055565b610cd28133611b73565b6001600160a01b03163b151590565b6116e88282611239565b610c085760008281526097602090815260408083206001600160a01b03851684529091529020805460ff191660011790556117203390565b6001600160a01b0316816001600160a01b0316837f2f8788117e7eff1d82e926ec794901d17c78024a50270940304540a733656f0d60405160405180910390a45050565b61176e8282611239565b15610c085760008281526097602090815260408083206001600160a01b0385168085529252808320805460ff1916905551339285917ff6391f5c32d9c69d2a47ea670b442974b53935d1edc7fd64eb21e047a839171b9190a45050565b6000805160206128e7833981519152546001600160a01b031690565b6000805160206128c78339815191526117ff816116c5565b61012d54600160a01b900460ff166118585760405162461bcd60e51b815260206004820152601c60248201527b1250951bdad95b8e88155c19dc985919481b9bdd08185b1b1bddd95960221b604482015260640161097b565b505061012d805460ff60a01b19169055565b7f4910fdfa16fed3260ed0e7147f7cc6da11a60208b5b9406d12a635614ffd91435460ff161561189d57610b8983611bcc565b826001600160a01b03166352d1902d6040518163ffffffff1660e01b8152600401602060405180830381865afa9250505080156118f7575060408051601f3d908101601f191682019092526118f491810190612754565b60015b61195a5760405162461bcd60e51b815260206004820152602e60248201527f45524331393637557067726164653a206e657720696d706c656d656e7461746960448201526d6f6e206973206e6f74205555505360901b606482015260840161097b565b6000805160206128e783398151915281146119c95760405162461bcd60e51b815260206004820152602960248201527f45524331393637557067726164653a20756e737570706f727465642070726f786044820152681a58589b195555525160ba1b606482015260840161097b565b50610b89838383611c66565b6119dd611c8b565b6033805460ff191690557f5db9ee0a495bf2e6ff9c91a7834c1ba4fdd244a5e8aa4e537bd38aeae4b073aa335b604051611a1791906124eb565b60405180910390a1565b600081831115611a315781611a33565b825b9392505050565b600054610100900460ff16611a615760405162461bcd60e51b815260040161097b906127a3565b611a69611cd4565b565b600054610100900460ff16611a695760405162461bcd60e51b815260040161097b906127a3565b611a9a611acf565b6033805460ff191660011790557f62e78cea01bee320cd4e420270b5ea74000d11b0c9f74754ebdbfc544b05a258611a0a3390565b60335460ff1615611a695760405162461bcd60e51b815260206004820152601060248201526f14185d5cd8589b194e881c185d5cd95960821b604482015260640161097b565b611b6d846323b872dd60e01b858585604051602401611b3693929190612636565b60408051601f198184030181529190526020810180516001600160e01b03166001600160e01b031990931692909217909152611d07565b50505050565b611b7d8282611239565b610c0857611b8a81611dd9565b611b95836020611deb565b604051602001611ba69291906127ee565b60408051601f198184030181529082905262461bcd60e51b825261097b91600401612387565b611bd5816116cf565b611c375760405162461bcd60e51b815260206004820152602d60248201527f455243313936373a206e657720696d706c656d656e746174696f6e206973206e60448201526c1bdd08184818dbdb9d1c9858dd609a1b606482015260840161097b565b6000805160206128e783398151915280546001600160a01b0319166001600160a01b0392909216919091179055565b611c6f83611f86565b600082511180611c7c5750805b15610b8957611b6d8383611fc6565b60335460ff16611a695760405162461bcd60e51b815260206004820152601460248201527314185d5cd8589b194e881b9bdd081c185d5cd95960621b604482015260640161097b565b600054610100900460ff16611cfb5760405162461bcd60e51b815260040161097b906127a3565b6033805460ff19169055565b6000611d5c826040518060400160405280602081526020017f5361666545524332303a206c6f772d6c6576656c2063616c6c206661696c6564815250856001600160a01b03166120b89092919063ffffffff16565b805190915015610b895780806020019051810190611d7a9190612786565b610b895760405162461bcd60e51b815260206004820152602a60248201527f5361666545524332303a204552433230206f7065726174696f6e20646964206e6044820152691bdd081cdd58d8d9595960b21b606482015260840161097b565b60606108ad6001600160a01b03831660145b60606000611dfa83600261271d565b611e0590600261273c565b6001600160401b03811115611e1c57611e1c6123ff565b6040519080825280601f01601f191660200182016040528015611e46576020820181803683370190505b509050600360fc1b81600081518110611e6157611e6161285d565b60200101906001600160f81b031916908160001a905350600f60fb1b81600181518110611e9057611e9061285d565b60200101906001600160f81b031916908160001a9053506000611eb484600261271d565b611ebf90600161273c565b90505b6001811115611f37576f181899199a1a9b1b9c1cb0b131b232b360811b85600f1660108110611ef357611ef361285d565b1a60f81b828281518110611f0957611f0961285d565b60200101906001600160f81b031916908160001a90535060049490941c93611f3081612873565b9050611ec2565b508315611a335760405162461bcd60e51b815260206004820181905260248201527f537472696e67733a20686578206c656e67746820696e73756666696369656e74604482015260640161097b565b611f8f81611bcc565b6040516001600160a01b038216907fbc7cd75a20ee27fd9adebab32041f755214dbc6bffa90cc0225b39da2e5c2d3b90600090a250565b6060611fd1836116cf565b61202c5760405162461bcd60e51b815260206004820152602660248201527f416464726573733a2064656c65676174652063616c6c20746f206e6f6e2d636f6044820152651b9d1c9858dd60d21b606482015260840161097b565b600080846001600160a01b031684604051612047919061288a565b600060405180830381855af49150503d8060008114612082576040519150601f19603f3d011682016040523d82523d6000602084013e612087565b606091505b50915091506120af8282604051806060016040528060278152602001612927602791396120cf565b95945050505050565b60606120c784846000856120e8565b949350505050565b606083156120de575081611a33565b611a3383836121c3565b6060824710156121495760405162461bcd60e51b815260206004820152602660248201527f416464726573733a20696e73756666696369656e742062616c616e636520666f6044820152651c8818d85b1b60d21b606482015260840161097b565b600080866001600160a01b03168587604051612165919061288a565b60006040518083038185875af1925050503d80600081146121a2576040519150601f19603f3d011682016040523d82523d6000602084013e6121a7565b606091505b50915091506121b8878383876121ed565b979650505050505050565b8151156121d35781518083602001fd5b8060405162461bcd60e51b815260040161097b9190612387565b6060831561225757825161225057612204856116cf565b6122505760405162461bcd60e51b815260206004820152601d60248201527f416464726573733a2063616c6c20746f206e6f6e2d636f6e7472616374000000604482015260640161097b565b50816120c7565b6120c783836121c3565b82805461226d906125cc565b90600052602060002090601f01602090048101928261228f57600085556122d5565b82601f106122a857805160ff19168380011785556122d5565b828001600101855582156122d5579182015b828111156122d55782518255916020019190600101906122ba565b506122e19291506122e5565b5090565b5b808211156122e157600081556001016122e6565b80356001600160a01b038116811461231157600080fd5b919050565b60006020828403121561232857600080fd5b611a33826122fa565b60006020828403121561234357600080fd5b81356001600160e01b031981168114611a3357600080fd5b60005b8381101561237657818101518382015260200161235e565b83811115611b6d5750506000910152565b60208152600082518060208401526123a681604085016020870161235b565b601f01601f19169190910160400192915050565b6000602082840312156123cc57600080fd5b5035919050565b600080604083850312156123e657600080fd5b823591506123f6602084016122fa565b90509250929050565b634e487b7160e01b600052604160045260246000fd5b60006001600160401b038084111561242f5761242f6123ff565b604051601f8501601f19908116603f01168101908282118183101715612457576124576123ff565b8160405280935085815286868601111561247057600080fd5b858560208301376000602087830101525050509392505050565b6000806040838503121561249d57600080fd5b6124a6836122fa565b915060208301356001600160401b038111156124c157600080fd5b8301601f810185136124d257600080fd5b6124e185823560208401612415565b9150509250929050565b6001600160a01b0391909116815260200190565b60008060008060008060c0878903121561251857600080fd5b86356001600160401b0381111561252e57600080fd5b8701601f8101891361253f57600080fd5b61254e89823560208401612415565b96505061255d602088016122fa565b945061256b604088016122fa565b9350612579606088016122fa565b9250612587608088016122fa565b915061259560a088016122fa565b90509295509295509295565b8015158114610cd257600080fd5b6000602082840312156125c157600080fd5b8135611a33816125a1565b600181811c908216806125e057607f821691505b6020821081141561260157634e487b7160e01b600052602260045260246000fd5b50919050565b6020808252601590820152741250951bdad95b8e88139bdd0818dbdb9d1c9858dd605a1b604082015260600190565b6001600160a01b039384168152919092166020820152604081019190915260600190565b634e487b7160e01b600052601160045260246000fd5b6000828210156126825761268261265a565b500390565b6020808252602c908201526000805160206128a783398151915260408201526b19195b1959d85d1958d85b1b60a21b606082015260800190565b6020808252602c908201526000805160206128a783398151915260408201526b6163746976652070726f787960a01b606082015260800190565b60008261271857634e487b7160e01b600052601260045260246000fd5b500490565b60008160001904831182151516156127375761273761265a565b500290565b6000821982111561274f5761274f61265a565b500190565b60006020828403121561276657600080fd5b5051919050565b6001600160a01b03929092168252602082015260400190565b60006020828403121561279857600080fd5b8151611a33816125a1565b6020808252602b908201527f496e697469616c697a61626c653a20636f6e7472616374206973206e6f74206960408201526a6e697469616c697a696e6760a81b606082015260800190565b76020b1b1b2b9b9a1b7b73a3937b61d1030b1b1b7bab73a1604d1b81526000835161282081601785016020880161235b565b7001034b99036b4b9b9b4b733903937b6329607d1b601791840191820152835161285181602884016020880161235b565b01602801949350505050565b634e487b7160e01b600052603260045260246000fd5b6000816128825761288261265a565b506000190190565b6000825161289c81846020870161235b565b919091019291505056fe46756e6374696f6e206d7573742062652063616c6c6564207468726f75676820189ab7a9244df0848122154315af71fe140f3db0fe014031783b0946b8c9d2e3360894a13ba1a3210667c828492db98dca3e2076cc3735a920a3ca505d382bbc65d7a28e3265b37a6474929f336521b332c1681b933f6cb9f3376673440d862a416464726573733a206c6f772d6c6576656c2064656c65676174652063616c6c206661696c6564a26469706673582212205709cd99707539a637f093324b6ce8f33fa1d7d14612984975872c68446fe2a564736f6c634300080b0033",
  "linkReferences": {},
  "deployedLinkReferences": {}
}