{
  "_format": "hh-sol-artifact-1",
  "contractName": "D_Vault_SingleReward",
  "sourceName": "contracts/D_Vault_SingleReward.sol",
  "abi": [
    {
      "anonymous": false,
      "inputs": [
        {
          "indexed": false,
          "internalType": "address",
          "name": "previousAdmin",
          "type": "address"
        },
        {
          "indexed": false,
          "internalType": "address",
          "name": "newAdmin",
          "type": "address"
        }
      ],
      "name": "AdminChanged",
      "type": "event"
    },
    {
      "anonymous": false,
      "inputs": [
        {
          "indexed": true,
          "internalType": "address",
          "name": "beacon",
          "type": "address"
        }
      ],
      "name": "BeaconUpgraded",
      "type": "event"
    },
    {
      "anonymous": false,
      "inputs": [
        {
          "indexed": true,
          "internalType": "address",
          "name": "user",
          "type": "address"
        },
        {
          "indexed": false,
          "internalType": "uint256",
          "name": "amount",
          "type": "uint256"
        }
      ],
      "name": "Claim",
      "type": "event"
    },
    {
      "anonymous": false,
      "inputs": [
        {
          "indexed": true,
          "internalType": "address",
          "name": "user",
          "type": "address"
        },
        {
          "indexed": false,
          "internalType": "address",
          "name": "token",
          "type": "address"
        },
        {
          "indexed": false,
          "internalType": "uint256",
          "name": "amount",
          "type": "uint256"
        }
      ],
      "name": "Deposited",
      "type": "event"
    },
    {
      "anonymous": false,
      "inputs": [
        {
          "indexed": false,
          "internalType": "uint8",
          "name": "version",
          "type": "uint8"
        }
      ],
      "name": "Initialized",
      "type": "event"
    },
    {
      "anonymous": false,
      "inputs": [
        {
          "indexed": false,
          "internalType": "address",
          "name": "oldHandler",
          "type": "address"
        },
        {
          "indexed": false,
          "internalType": "address",
          "name": "newHandler",
          "type": "address"
        }
      ],
      "name": "NewHandlerSet",
      "type": "event"
    },
    {
      "anonymous": false,
      "inputs": [
        {
          "indexed": false,
          "internalType": "address",
          "name": "account",
          "type": "address"
        }
      ],
      "name": "Paused",
      "type": "event"
    },
    {
      "anonymous": false,
      "inputs": [
        {
          "indexed": true,
          "internalType": "bytes32",
          "name": "role",
          "type": "bytes32"
        },
        {
          "indexed": true,
          "internalType": "bytes32",
          "name": "previousAdminRole",
          "type": "bytes32"
        },
        {
          "indexed": true,
          "internalType": "bytes32",
          "name": "newAdminRole",
          "type": "bytes32"
        }
      ],
      "name": "RoleAdminChanged",
      "type": "event"
    },
    {
      "anonymous": false,
      "inputs": [
        {
          "indexed": true,
          "internalType": "bytes32",
          "name": "role",
          "type": "bytes32"
        },
        {
          "indexed": true,
          "internalType": "address",
          "name": "account",
          "type": "address"
        },
        {
          "indexed": true,
          "internalType": "address",
          "name": "sender",
          "type": "address"
        }
      ],
      "name": "RoleGranted",
      "type": "event"
    },
    {
      "anonymous": false,
      "inputs": [
        {
          "indexed": true,
          "internalType": "bytes32",
          "name": "role",
          "type": "bytes32"
        },
        {
          "indexed": true,
          "internalType": "address",
          "name": "account",
          "type": "address"
        },
        {
          "indexed": true,
          "internalType": "address",
          "name": "sender",
          "type": "address"
        }
      ],
      "name": "RoleRevoked",
      "type": "event"
    },
    {
      "anonymous": false,
      "inputs": [
        {
          "indexed": false,
          "internalType": "address",
          "name": "account",
          "type": "address"
        }
      ],
      "name": "Unpaused",
      "type": "event"
    },
    {
      "anonymous": false,
      "inputs": [
        {
          "indexed": false,
          "internalType": "uint256",
          "name": "amount",
          "type": "uint256"
        }
      ],
      "name": "UpdateRewardAmount",
      "type": "event"
    },
    {
      "anonymous": false,
      "inputs": [
        {
          "indexed": false,
          "internalType": "uint256",
          "name": "oldValue",
          "type": "uint256"
        },
        {
          "indexed": false,
          "internalType": "uint256",
          "name": "newValue",
          "type": "uint256"
        }
      ],
      "name": "UpdateRewardDuration",
      "type": "event"
    },
    {
      "anonymous": false,
      "inputs": [
        {
          "indexed": true,
          "internalType": "address",
          "name": "implementation",
          "type": "address"
        }
      ],
      "name": "Upgraded",
      "type": "event"
    },
    {
      "anonymous": false,
      "inputs": [
        {
          "indexed": true,
          "internalType": "address",
          "name": "user",
          "type": "address"
        },
        {
          "indexed": false,
          "internalType": "uint256",
          "name": "amount",
          "type": "uint256"
        }
      ],
      "name": "Withdraw",
      "type": "event"
    },
    {
      "anonymous": false,
      "inputs": [
        {
          "indexed": true,
          "internalType": "address",
          "name": "user",
          "type": "address"
        },
        {
          "indexed": true,
          "internalType": "address",
          "name": "token",
          "type": "address"
        },
        {
          "indexed": false,
          "internalType": "uint256",
          "name": "amount",
          "type": "uint256"
        }
      ],
      "name": "removeToken",
      "type": "event"
    },
    {
      "inputs": [],
      "name": "DEFAULT_ADMIN_ROLE",
      "outputs": [
        {
          "internalType": "bytes32",
          "name": "",
          "type": "bytes32"
        }
      ],
      "stateMutability": "view",
      "type": "function"
    },
    {
      "inputs": [],
      "name": "MINTER_ROLE",
      "outputs": [
        {
          "internalType": "bytes32",
          "name": "",
          "type": "bytes32"
        }
      ],
      "stateMutability": "view",
      "type": "function"
    },
    {
      "inputs": [],
      "name": "PAUSER_ROLE",
      "outputs": [
        {
          "internalType": "bytes32",
          "name": "",
          "type": "bytes32"
        }
      ],
      "stateMutability": "view",
      "type": "function"
    },
    {
      "inputs": [],
      "name": "UPGRADER_ROLE",
      "outputs": [
        {
          "internalType": "bytes32",
          "name": "",
          "type": "bytes32"
        }
      ],
      "stateMutability": "view",
      "type": "function"
    },
    {
      "inputs": [
        {
          "internalType": "address",
          "name": "",
          "type": "address"
        }
      ],
      "name": "balanceOf",
      "outputs": [
        {
          "internalType": "uint256",
          "name": "",
          "type": "uint256"
        }
      ],
      "stateMutability": "view",
      "type": "function"
    },
    {
      "inputs": [
        {
          "internalType": "bool",
          "name": "_status",
          "type": "bool"
        }
      ],
      "name": "changeUpgradeStatus",
      "outputs": [],
      "stateMutability": "nonpayable",
      "type": "function"
    },
    {
      "inputs": [],
      "name": "claimReward",
      "outputs": [],
      "stateMutability": "nonpayable",
      "type": "function"
    },
    {
      "inputs": [
        {
          "internalType": "uint256",
          "name": "_amount",
          "type": "uint256"
        }
      ],
      "name": "deposit",
      "outputs": [],
      "stateMutability": "nonpayable",
      "type": "function"
    },
    {
      "inputs": [],
      "name": "duration",
      "outputs": [
        {
          "internalType": "uint256",
          "name": "",
          "type": "uint256"
        }
      ],
      "stateMutability": "view",
      "type": "function"
    },
    {
      "inputs": [],
      "name": "finishAt",
      "outputs": [
        {
          "internalType": "uint256",
          "name": "",
          "type": "uint256"
        }
      ],
      "stateMutability": "view",
      "type": "function"
    },
    {
      "inputs": [],
      "name": "getRewardToken",
      "outputs": [
        {
          "internalType": "address",
          "name": "",
          "type": "address"
        }
      ],
      "stateMutability": "view",
      "type": "function"
    },
    {
      "inputs": [
        {
          "internalType": "bytes32",
          "name": "role",
          "type": "bytes32"
        }
      ],
      "name": "getRoleAdmin",
      "outputs": [
        {
          "internalType": "bytes32",
          "name": "",
          "type": "bytes32"
        }
      ],
      "stateMutability": "view",
      "type": "function"
    },
    {
      "inputs": [
        {
          "internalType": "address",
          "name": "_account",
          "type": "address"
        }
      ],
      "name": "getStakeBalance",
      "outputs": [
        {
          "internalType": "uint256",
          "name": "",
          "type": "uint256"
        }
      ],
      "stateMutability": "view",
      "type": "function"
    },
    {
      "inputs": [],
      "name": "getStakeToken",
      "outputs": [
        {
          "internalType": "address",
          "name": "",
          "type": "address"
        }
      ],
      "stateMutability": "view",
      "type": "function"
    },
    {
      "inputs": [
        {
          "internalType": "address",
          "name": "_account",
          "type": "address"
        }
      ],
      "name": "getTotalUserEarned",
      "outputs": [
        {
          "internalType": "uint256",
          "name": "",
          "type": "uint256"
        }
      ],
      "stateMutability": "view",
      "type": "function"
    },
    {
      "inputs": [
        {
          "internalType": "address",
          "name": "_account",
          "type": "address"
        }
      ],
      "name": "getUserAllClaimableRewards",
      "outputs": [
        {
          "internalType": "uint256[]",
          "name": "",
          "type": "uint256[]"
        }
      ],
      "stateMutability": "view",
      "type": "function"
    },
    {
      "inputs": [
        {
          "internalType": "address",
          "name": "_account",
          "type": "address"
        }
      ],
      "name": "getUserAllEarnedRewards",
      "outputs": [
        {
          "internalType": "uint256[]",
          "name": "",
          "type": "uint256[]"
        }
      ],
      "stateMutability": "view",
      "type": "function"
    },
    {
      "inputs": [
        {
          "internalType": "bytes32",
          "name": "role",
          "type": "bytes32"
        },
        {
          "internalType": "address",
          "name": "account",
          "type": "address"
        }
      ],
      "name": "grantRole",
      "outputs": [],
      "stateMutability": "nonpayable",
      "type": "function"
    },
    {
      "inputs": [
        {
          "internalType": "bytes32",
          "name": "role",
          "type": "bytes32"
        },
        {
          "internalType": "address",
          "name": "account",
          "type": "address"
        }
      ],
      "name": "hasRole",
      "outputs": [
        {
          "internalType": "bool",
          "name": "",
          "type": "bool"
        }
      ],
      "stateMutability": "view",
      "type": "function"
    },
    {
      "inputs": [
        {
          "internalType": "string",
          "name": "_vaultName",
          "type": "string"
        },
        {
          "internalType": "address",
          "name": "_stakingToken",
          "type": "address"
        },
        {
          "internalType": "address",
          "name": "_rewardsToken",
          "type": "address"
        },
        {
          "internalType": "address",
          "name": "_multiSigWallet",
          "type": "address"
        },
        {
          "internalType": "address",
          "name": "_handler",
          "type": "address"
        }
      ],
      "name": "initialize",
      "outputs": [],
      "stateMutability": "nonpayable",
      "type": "function"
    },
    {
      "inputs": [],
      "name": "liquidityHandler",
      "outputs": [
        {
          "internalType": "address",
          "name": "",
          "type": "address"
        }
      ],
      "stateMutability": "view",
      "type": "function"
    },
    {
      "inputs": [
        {
          "internalType": "uint256",
          "name": "_amount",
          "type": "uint256"
        }
      ],
      "name": "notifyRewardAmount",
      "outputs": [],
      "stateMutability": "nonpayable",
      "type": "function"
    },
    {
      "inputs": [],
      "name": "pause",
      "outputs": [],
      "stateMutability": "nonpayable",
      "type": "function"
    },
    {
      "inputs": [],
      "name": "paused",
      "outputs": [
        {
          "internalType": "bool",
          "name": "",
          "type": "bool"
        }
      ],
      "stateMutability": "view",
      "type": "function"
    },
    {
      "inputs": [],
      "name": "proxiableUUID",
      "outputs": [
        {
          "internalType": "bytes32",
          "name": "",
          "type": "bytes32"
        }
      ],
      "stateMutability": "view",
      "type": "function"
    },
    {
      "inputs": [
        {
          "internalType": "address",
          "name": "_address",
          "type": "address"
        },
        {
          "internalType": "address",
          "name": "_to",
          "type": "address"
        },
        {
          "internalType": "uint256",
          "name": "_amount",
          "type": "uint256"
        }
      ],
      "name": "removeTokenByAddress",
      "outputs": [],
      "stateMutability": "nonpayable",
      "type": "function"
    },
    {
      "inputs": [
        {
          "internalType": "bytes32",
          "name": "role",
          "type": "bytes32"
        },
        {
          "internalType": "address",
          "name": "account",
          "type": "address"
        }
      ],
      "name": "renounceRole",
      "outputs": [],
      "stateMutability": "nonpayable",
      "type": "function"
    },
    {
      "inputs": [
        {
          "internalType": "bytes32",
          "name": "role",
          "type": "bytes32"
        },
        {
          "internalType": "address",
          "name": "account",
          "type": "address"
        }
      ],
      "name": "revokeRole",
      "outputs": [],
      "stateMutability": "nonpayable",
      "type": "function"
    },
    {
      "inputs": [],
      "name": "rewardPerToken",
      "outputs": [
        {
          "internalType": "uint256",
          "name": "",
          "type": "uint256"
        }
      ],
      "stateMutability": "view",
      "type": "function"
    },
    {
      "inputs": [],
      "name": "rewardPerTokenStored",
      "outputs": [
        {
          "internalType": "uint256",
          "name": "",
          "type": "uint256"
        }
      ],
      "stateMutability": "view",
      "type": "function"
    },
    {
      "inputs": [],
      "name": "rewardRate",
      "outputs": [
        {
          "internalType": "uint256",
          "name": "",
          "type": "uint256"
        }
      ],
      "stateMutability": "view",
      "type": "function"
    },
    {
      "inputs": [
        {
          "internalType": "address",
          "name": "",
          "type": "address"
        }
      ],
      "name": "rewards",
      "outputs": [
        {
          "internalType": "uint256",
          "name": "",
          "type": "uint256"
        }
      ],
      "stateMutability": "view",
      "type": "function"
    },
    {
      "inputs": [],
      "name": "rewardsToken",
      "outputs": [
        {
          "internalType": "contract IERC20Upgradeable",
          "name": "",
          "type": "address"
        }
      ],
      "stateMutability": "view",
      "type": "function"
    },
    {
      "inputs": [
        {
          "internalType": "address",
          "name": "_newHandler",
          "type": "address"
        }
      ],
      "name": "setLiquidityHandler",
      "outputs": [],
      "stateMutability": "nonpayable",
      "type": "function"
    },
    {
      "inputs": [
        {
          "internalType": "uint256",
          "name": "_duration",
          "type": "uint256"
        }
      ],
      "name": "setRewardsDuration",
      "outputs": [],
      "stateMutability": "nonpayable",
      "type": "function"
    },
    {
      "inputs": [],
      "name": "stakingToken",
      "outputs": [
        {
          "internalType": "contract IERC20Upgradeable",
          "name": "",
          "type": "address"
        }
      ],
      "stateMutability": "view",
      "type": "function"
    },
    {
      "inputs": [
        {
          "internalType": "bytes4",
          "name": "interfaceId",
          "type": "bytes4"
        }
      ],
      "name": "supportsInterface",
      "outputs": [
        {
          "internalType": "bool",
          "name": "",
          "type": "bool"
        }
      ],
      "stateMutability": "view",
      "type": "function"
    },
    {
      "inputs": [
        {
          "internalType": "address",
          "name": "",
          "type": "address"
        }
      ],
      "name": "totalClaimed",
      "outputs": [
        {
          "internalType": "uint256",
          "name": "",
          "type": "uint256"
        }
      ],
      "stateMutability": "view",
      "type": "function"
    },
    {
      "inputs": [],
      "name": "totalSupply",
      "outputs": [
        {
          "internalType": "uint256",
          "name": "",
          "type": "uint256"
        }
      ],
      "stateMutability": "view",
      "type": "function"
    },
    {
      "inputs": [],
      "name": "unpause",
      "outputs": [],
      "stateMutability": "nonpayable",
      "type": "function"
    },
    {
      "inputs": [],
      "name": "updatedAt",
      "outputs": [
        {
          "internalType": "uint256",
          "name": "",
          "type": "uint256"
        }
      ],
      "stateMutability": "view",
      "type": "function"
    },
    {
      "inputs": [],
      "name": "upgradeStatus",
      "outputs": [
        {
          "internalType": "bool",
          "name": "",
          "type": "bool"
        }
      ],
      "stateMutability": "view",
      "type": "function"
    },
    {
      "inputs": [
        {
          "internalType": "address",
          "name": "newImplementation",
          "type": "address"
        }
      ],
      "name": "upgradeTo",
      "outputs": [],
      "stateMutability": "nonpayable",
      "type": "function"
    },
    {
      "inputs": [
        {
          "internalType": "address",
          "name": "newImplementation",
          "type": "address"
        },
        {
          "internalType": "bytes",
          "name": "data",
          "type": "bytes"
        }
      ],
      "name": "upgradeToAndCall",
      "outputs": [],
      "stateMutability": "payable",
      "type": "function"
    },
    {
      "inputs": [
        {
          "internalType": "address",
          "name": "",
          "type": "address"
        }
      ],
      "name": "userRewardPerTokenPaid",
      "outputs": [
        {
          "internalType": "uint256",
          "name": "",
          "type": "uint256"
        }
      ],
      "stateMutability": "view",
      "type": "function"
    },
    {
      "inputs": [],
      "name": "vaultName",
      "outputs": [
        {
          "internalType": "string",
          "name": "",
          "type": "string"
        }
      ],
      "stateMutability": "view",
      "type": "function"
    },
    {
      "inputs": [
        {
          "internalType": "uint256",
          "name": "_amount",
          "type": "uint256"
        }
      ],
      "name": "withdraw",
      "outputs": [],
      "stateMutability": "nonpayable",
      "type": "function"
    }
  ],
  "bytecode": "0x60a06040523060805234801561001457600080fd5b50608051612ca861004c60003960008181610ea301528181610ee3015281816111b2015281816111f2015261126a0152612ca86000f3fe6080604052600436106102185760003560e01c806301ffc9a71461021d5780630700037d146102525780630ace9ca01461028e5780630b885ac3146102b05780630fb5a6b4146102d257806318160ddd146102e95780631ddbddd614610300578063248a9ca3146103205780632e1a7d4d146103405780632f2ff15d1461036057806336568abe146103805780633659cfe6146103a05780633c6b16ab146103c05780633f4ba83a146103e0578063441f510b146103f55780634f1ef2861461042c578063500a15641461043f57806352d1902d146104675780635c975abb1461047c5780636465f04a1461049457806367d3b488146104b457806369940d79146104cb57806370a08231146104ea57806372f702f3146105185780637519ab50146105395780637b0a47ee146105505780638456cb59146105675780638b8763471461057c57806391d14854146105aa578063a217fddf146105ca578063b6b55f25146105df578063b88a802f146105ff578063bea9379e14610614578063cc1a378f14610641578063cd3daf9d14610661578063d1af0c7d14610676578063d4d543c514610697578063d5391393146106b9578063d547741f146106ed578063d701f5231461070d578063d9e088111461072d578063df136d651461074e578063e45cbf1014610765578063e63ab1e914610785578063ef5d9ae8146107a7578063ef869773146107d5578063f72c0d8b1461080c575b600080fd5b34801561022957600080fd5b5061023d610238366004612601565b61082e565b60405190151581526020015b60405180910390f35b34801561025e57600080fd5b5061028061026d366004612647565b6101386020526000908152604090205481565b604051908152602001610249565b34801561029a57600080fd5b506102a3610865565b604051610249919061268e565b3480156102bc57600080fd5b506102d06102cb36600461274c565b6108f4565b005b3480156102de57600080fd5b506102806101325481565b3480156102f557600080fd5b506102806101315481565b34801561030c57600080fd5b506102d061031b366004612647565b610ab6565b34801561032c57600080fd5b5061028061033b3660046127df565b610b79565b34801561034c57600080fd5b506102d061035b3660046127df565b610b8e565b34801561036c57600080fd5b506102d061037b3660046127f8565b610df9565b34801561038c57600080fd5b506102d061039b3660046127f8565b610e1a565b3480156103ac57600080fd5b506102d06103bb366004612647565b610e98565b3480156103cc57600080fd5b506102d06103db3660046127df565b610f61565b3480156103ec57600080fd5b506102d0611194565b34801561040157600080fd5b50610280610410366004612647565b6001600160a01b03166000908152610139602052604090205490565b6102d061043a366004612824565b6111a7565b34801561044b57600080fd5b5061012e546001600160a01b03165b6040516102499190612885565b34801561047357600080fd5b5061028061125d565b34801561048857600080fd5b5060335460ff1661023d565b3480156104a057600080fd5b506102d06104af366004612899565b61130b565b3480156104c057600080fd5b506102806101335481565b3480156104d757600080fd5b5061012f546001600160a01b031661045a565b3480156104f657600080fd5b50610280610505366004612647565b61013a6020526000908152604090205481565b34801561052457600080fd5b5061012e5461045a906001600160a01b031681565b34801561054557600080fd5b506102806101345481565b34801561055c57600080fd5b506102806101355481565b34801561057357600080fd5b506102d061137d565b34801561058857600080fd5b50610280610597366004612647565b6101376020526000908152604090205481565b3480156105b657600080fd5b5061023d6105c53660046127f8565b611390565b3480156105d657600080fd5b50610280600081565b3480156105eb57600080fd5b506102d06105fa3660046127df565b6113bb565b34801561060b57600080fd5b506102d0611587565b34801561062057600080fd5b5061063461062f366004612647565b6116ee565b60405161024991906128d5565b34801561064d57600080fd5b506102d061065c3660046127df565b611741565b34801561066d57600080fd5b506102806117e9565b34801561068257600080fd5b5061012f5461045a906001600160a01b031681565b3480156106a357600080fd5b5061012d5461023d90600160a01b900460ff1681565b3480156106c557600080fd5b506102807f9f2df0fed2c77648de5860a4cc508cd0818c85b8b8a1ab4ceeef8d981c8956a681565b3480156106f957600080fd5b506102d06107083660046127f8565b611862565b34801561071957600080fd5b506102d0610728366004612927565b61187e565b34801561073957600080fd5b5061012d5461045a906001600160a01b031681565b34801561075a57600080fd5b506102806101365481565b34801561077157600080fd5b50610634610780366004612647565b6118a9565b34801561079157600080fd5b50610280600080516020612c2c83398151915281565b3480156107b357600080fd5b506102806107c2366004612647565b6101396020526000908152604090205481565b3480156107e157600080fd5b506102806107f0366004612647565b6001600160a01b0316600090815261013a602052604090205490565b34801561081857600080fd5b50610280600080516020612bec83398151915281565b60006001600160e01b03198216637965db0b60e01b148061085f57506301ffc9a760e01b6001600160e01b03198316145b92915050565b610130805461087390612944565b80601f016020809104026020016040519081016040528092919081815260200182805461089f90612944565b80156108ec5780601f106108c1576101008083540402835291602001916108ec565b820191906000526020600020905b8154815290600101906020018083116108cf57829003601f168201915b505050505081565b600054610100900460ff16158080156109145750600054600160ff909116105b806109355750610923306118fb565b158015610935575060005460ff166001145b61099d5760405162461bcd60e51b815260206004820152602e60248201527f496e697469616c697a61626c653a20636f6e747261637420697320616c72656160448201526d191e481a5b9a5d1a585b1a5e995960921b60648201526084015b60405180910390fd5b6000805460ff1916600117905580156109c0576000805461ff0019166101001790555b6109c861190a565b6109d061193b565b6109d861193b565b6109e3600084611962565b6109fb600080516020612bec83398151915284611962565b610a13600080516020612c2c83398151915284611962565b8551610a2790610130906020890190612568565b5061012d80546001600160a01b038085166001600160a01b03199283161790925561012e805488841690831617905561012f8054928716929091169190911790558015610aae576000805461ff0019169055604051600181527f7f26b83ff96e1f2b6a682f133852f6798a09c465da95921460cefb38474024989060200160405180910390a15b505050505050565b6000610ac1816119e8565b610ad3826001600160a01b03166118fb565b610b155760405162461bcd60e51b815260206004820152601360248201527215985d5b1d0e88139bdd0818dbdb9d1c9858dd606a1b6044820152606401610994565b61012d80546001600160a01b038481166001600160a01b031983168117909355604080519190921680825260208201939093527fe832f25a0551fc06b41113a831257a8e66a758bafc7b253af66abb65543e2efd91015b60405180910390a1505050565b60009081526097602052604090206001015490565b610b966119f2565b33610b9f6117e9565b61013655610bab611a38565b610134556001600160a01b03811615610bf657610bc781611a4c565b6001600160a01b0382166000908152610138602090815260408083209390935561013654610137909152919020555b60008211610c545760405162461bcd60e51b815260206004820152602560248201527f5661756c74203a20616d6f756e74206d75737420626520677265617465722074604482015264068616e20360dc1b6064820152608401610994565b33600090815261013a6020526040902054821115610cc75760405162461bcd60e51b815260206004820152602a60248201527f5661756c74203a20616d6f756e7420746f6f206869676874202f2062616c616e604482015269636520746f6f206c6f7760b01b6064820152608401610994565b6000610cd56103e884612995565b90506000610ce382856129b7565b61012d5461012e54604051637623475960e01b81523060048201526001600160a01b0391821660248201526044810188905260648101849052608481018690529293501690819063762347599060a401600060405180830381600087803b158015610d4d57600080fd5b505af1158015610d61573d6000803e3d6000fd5b505061012e54610d7e92506001600160a01b031690503384611ad9565b33600090815261013a602052604081208054879290610d9e9084906129b7565b92505081905550846101316000828254610db891906129b7565b909155505060405185815233907f884edad9ce6fa2440d8a54cc123490eb96d2768479d49ff9c7366125a94243649060200160405180910390a25050505050565b610e0282610b79565b610e0b816119e8565b610e158383611962565b505050565b6001600160a01b0381163314610e8a5760405162461bcd60e51b815260206004820152602f60248201527f416363657373436f6e74726f6c3a2063616e206f6e6c792072656e6f756e636560448201526e103937b632b9903337b91039b2b63360891b6064820152608401610994565b610e948282611b2f565b5050565b306001600160a01b037f0000000000000000000000000000000000000000000000000000000000000000161415610ee15760405162461bcd60e51b8152600401610994906129ce565b7f00000000000000000000000000000000000000000000000000000000000000006001600160a01b0316610f13611b96565b6001600160a01b031614610f395760405162461bcd60e51b815260040161099490612a08565b610f4281611bb2565b60408051600080825260208201909252610f5e91839190611c33565b50565b6000610f6c816119e8565b6000610f766117e9565b61013655610f82611a38565b610134556001600160a01b03811615610fcd57610f9e81611a4c565b6001600160a01b0382166000908152610138602090815260408083209390935561013654610137909152919020555b610133544210610fee5761013254610fe59084612995565b6101355561102e565b600061013554426101335461100391906129b7565b61100d9190612a42565b6101325490915061101e8286612a61565b6110289190612995565b61013555505b6000610135541161107b5760405162461bcd60e51b815260206004820152601760248201527605661756c74203a207265776172642072617465203d203604c1b6044820152606401610994565b61012f546040516370a0823160e01b81526001600160a01b03909116906370a08231906110ac903090600401612885565b602060405180830381865afa1580156110c9573d6000803e3d6000fd5b505050506040513d601f19601f820116820180604052508101906110ed9190612a79565b61013254610135546110ff9190612a42565b111561114d5760405162461bcd60e51b815260206004820152601f60248201527f5661756c74203a2072657761726420616d6f756e74203e2062616c616e6365006044820152606401610994565b6101325461115b9042612a61565b6101335542610134556040518381527f6defe1b1ddb53b2144765659529b5867b865d1bf88dc010c744065865384044490602001610b6c565b600061119f816119e8565b610f5e611d9e565b306001600160a01b037f00000000000000000000000000000000000000000000000000000000000000001614156111f05760405162461bcd60e51b8152600401610994906129ce565b7f00000000000000000000000000000000000000000000000000000000000000006001600160a01b0316611222611b96565b6001600160a01b0316146112485760405162461bcd60e51b815260040161099490612a08565b61125182611bb2565b610e9482826001611c33565b6000306001600160a01b037f000000000000000000000000000000000000000000000000000000000000000016146112f85760405162461bcd60e51b815260206004820152603860248201527f555550535570677261646561626c653a206d757374206e6f742062652063616c6044820152771b1959081d1a1c9bdd59da0819195b1959d85d1958d85b1b60421b6064820152608401610994565b50600080516020612c0c83398151915290565b6000611316816119e8565b61132a6001600160a01b0385168484611ad9565b836001600160a01b0316836001600160a01b03167f84f3859b7a4c4c1b17f558b22446c3394e48c551005072107bbbc4602235d5e78460405161136f91815260200190565b60405180910390a350505050565b6000611388816119e8565b610f5e611dea565b60009182526097602090815260408084206001600160a01b0393909316845291905290205460ff1690565b6113c36119f2565b336113cc6117e9565b610136556113d8611a38565b610134556001600160a01b03811615611423576113f481611a4c565b6001600160a01b0382166000908152610138602090815260408083209390935561013654610137909152919020555b6000821161146c5760405162461bcd60e51b815260206004820152601660248201527515985d5b1d080e88125b9d985b1a5908185b5bdd5b9d60521b6044820152606401610994565b61012d5461012e5461148d916001600160a01b039182169133911685611e27565b61012d5461012e546040516311f9fbc960e21b81526001600160a01b039283169283926347e7ef24926114c892909116908790600401612a92565b600060405180830381600087803b1580156114e257600080fd5b505af11580156114f6573d6000803e3d6000fd5b505033600090815261013a60205260408120805487945090925061151b908490612a61565b925050819055508261013160008282546115359190612a61565b909155505061012e5460405133917f8752a472e571a816aea92eec8dae9baf628e840f4929fbcc2d155e6233ff68a79161157a916001600160a01b0316908790612a92565b60405180910390a2505050565b61158f6119f2565b336115986117e9565b610136556115a4611a38565b610134556001600160a01b038116156115ef576115c081611a4c565b6001600160a01b0382166000908152610138602090815260408083209390935561013654610137909152919020555b33600090815261013860205260409020548015610e945733600081815261013860205260408082209190915561012f54905163a9059cbb60e01b81526001600160a01b039091169163a9059cbb9161164c91908590600401612a92565b6020604051808303816000875af115801561166b573d6000803e3d6000fd5b505050506040513d601f19601f8201168201806040525081019061168f9190612aab565b503360009081526101396020526040812080548392906116b0908490612a61565b909155505060405181815233907f47cee97cb7acd717b3c0aa1435d004cd5b3c8c57d70dbceb4e4458bbd60e39d49060200160405180910390a25050565b604080516001808252818301909252606091600091906020808301908036833701905050905061171d83611a4c565b8160008151811061173057611730612ac8565b602090810291909101015292915050565b600061174c816119e8565b4261013354106117aa5760405162461bcd60e51b8152602060048201526024808201527f5661756c74203a20726577617264206475726174696f6e206e6f742066696e696044820152631cda195960e21b6064820152608401610994565b61013280549083905560408051828152602081018590527f742b4679d312dcba710f9ae63b66243970c9f89543a9e033a821212a1e3a308d9101610b6c565b600061013154600014156117ff57506101365490565b60006101345461180d611a38565b61181791906129b7565b9050600061013154826101355461182e9190612a42565b61184090670de0b6b3a7640000612a42565b61184a9190612995565b9050806101365461185b9190612a61565b9250505090565b61186b82610b79565b611874816119e8565b610e158383611b2f565b6000611889816119e8565b5061012d8054911515600160a01b0260ff60a01b19909216919091179055565b60408051600180825281830190925260609160009190602080830190803683375050506001600160a01b0384166000908152610139602052604081205482519293509183919061173057611730612ac8565b6001600160a01b03163b151590565b600054610100900460ff166119315760405162461bcd60e51b815260040161099490612ade565b611939611e65565b565b600054610100900460ff166119395760405162461bcd60e51b815260040161099490612ade565b61196c8282611390565b610e945760008281526097602090815260408083206001600160a01b03851684529091529020805460ff191660011790556119a43390565b6001600160a01b0316816001600160a01b0316837f2f8788117e7eff1d82e926ec794901d17c78024a50270940304540a733656f0d60405160405180910390a45050565b610f5e8133611e98565b60335460ff16156119395760405162461bcd60e51b815260206004820152601060248201526f14185d5cd8589b194e881c185d5cd95960821b6044820152606401610994565b6000611a476101335442611ef1565b905090565b6001600160a01b038116600090815261013860209081526040808320546101379092528220548281611a7c6117e9565b611a8691906129b7565b6001600160a01b038616600090815261013a602052604081205491925090670de0b6b3a764000090611ab9908490612a42565b611ac39190612995565b9050611acf8185612a61565b9695505050505050565b610e158363a9059cbb60e01b8484604051602401611af8929190612a92565b60408051601f198184030181529190526020810180516001600160e01b03166001600160e01b031990931692909217909152611f0a565b611b398282611390565b15610e945760008281526097602090815260408083206001600160a01b0385168085529252808320805460ff1916905551339285917ff6391f5c32d9c69d2a47ea670b442974b53935d1edc7fd64eb21e047a839171b9190a45050565b600080516020612c0c833981519152546001600160a01b031690565b600080516020612bec833981519152611bca816119e8565b61012d54600160a01b900460ff16611c215760405162461bcd60e51b815260206004820152601a60248201527915985d5b1d0e88155c19dc985919481b9bdd08185b1b1bddd95960321b6044820152606401610994565b505061012d805460ff60a01b19169055565b7f4910fdfa16fed3260ed0e7147f7cc6da11a60208b5b9406d12a635614ffd91435460ff1615611c6657610e1583611fdc565b826001600160a01b03166352d1902d6040518163ffffffff1660e01b8152600401602060405180830381865afa925050508015611cc0575060408051601f3d908101601f19168201909252611cbd91810190612a79565b60015b611d235760405162461bcd60e51b815260206004820152602e60248201527f45524331393637557067726164653a206e657720696d706c656d656e7461746960448201526d6f6e206973206e6f74205555505360901b6064820152608401610994565b600080516020612c0c8339815191528114611d925760405162461bcd60e51b815260206004820152602960248201527f45524331393637557067726164653a20756e737570706f727465642070726f786044820152681a58589b195555525160ba1b6064820152608401610994565b50610e15838383612076565b611da661209b565b6033805460ff191690557f5db9ee0a495bf2e6ff9c91a7834c1ba4fdd244a5e8aa4e537bd38aeae4b073aa335b604051611de09190612885565b60405180910390a1565b611df26119f2565b6033805460ff191660011790557f62e78cea01bee320cd4e420270b5ea74000d11b0c9f74754ebdbfc544b05a258611dd33390565b6040516001600160a01b0380851660248301528316604482015260648101829052611e5f9085906323b872dd60e01b90608401611af8565b50505050565b600054610100900460ff16611e8c5760405162461bcd60e51b815260040161099490612ade565b6033805460ff19169055565b611ea28282611390565b610e9457611eaf816120e4565b611eba8360206120f6565b604051602001611ecb929190612b29565b60408051601f198184030181529082905262461bcd60e51b82526109949160040161268e565b600081831115611f015781611f03565b825b9392505050565b6000611f5f826040518060400160405280602081526020017f5361666545524332303a206c6f772d6c6576656c2063616c6c206661696c6564815250856001600160a01b03166122919092919063ffffffff16565b805190915015610e155780806020019051810190611f7d9190612aab565b610e155760405162461bcd60e51b815260206004820152602a60248201527f5361666545524332303a204552433230206f7065726174696f6e20646964206e6044820152691bdd081cdd58d8d9595960b21b6064820152608401610994565b611fe5816118fb565b6120475760405162461bcd60e51b815260206004820152602d60248201527f455243313936373a206e657720696d706c656d656e746174696f6e206973206e60448201526c1bdd08184818dbdb9d1c9858dd609a1b6064820152608401610994565b600080516020612c0c83398151915280546001600160a01b0319166001600160a01b0392909216919091179055565b61207f836122a8565b60008251118061208c5750805b15610e1557611e5f83836122e8565b60335460ff166119395760405162461bcd60e51b815260206004820152601460248201527314185d5cd8589b194e881b9bdd081c185d5cd95960621b6044820152606401610994565b606061085f6001600160a01b03831660145b60606000612105836002612a42565b612110906002612a61565b6001600160401b03811115612127576121276126c1565b6040519080825280601f01601f191660200182016040528015612151576020820181803683370190505b509050600360fc1b8160008151811061216c5761216c612ac8565b60200101906001600160f81b031916908160001a905350600f60fb1b8160018151811061219b5761219b612ac8565b60200101906001600160f81b031916908160001a90535060006121bf846002612a42565b6121ca906001612a61565b90505b6001811115612242576f181899199a1a9b1b9c1cb0b131b232b360811b85600f16601081106121fe576121fe612ac8565b1a60f81b82828151811061221457612214612ac8565b60200101906001600160f81b031916908160001a90535060049490941c9361223b81612b98565b90506121cd565b508315611f035760405162461bcd60e51b815260206004820181905260248201527f537472696e67733a20686578206c656e67746820696e73756666696369656e746044820152606401610994565b60606122a084846000856123da565b949350505050565b6122b181611fdc565b6040516001600160a01b038216907fbc7cd75a20ee27fd9adebab32041f755214dbc6bffa90cc0225b39da2e5c2d3b90600090a250565b60606122f3836118fb565b61234e5760405162461bcd60e51b815260206004820152602660248201527f416464726573733a2064656c65676174652063616c6c20746f206e6f6e2d636f6044820152651b9d1c9858dd60d21b6064820152608401610994565b600080846001600160a01b0316846040516123699190612baf565b600060405180830381855af49150503d80600081146123a4576040519150601f19603f3d011682016040523d82523d6000602084013e6123a9565b606091505b50915091506123d18282604051806060016040528060278152602001612c4c602791396124b5565b95945050505050565b60608247101561243b5760405162461bcd60e51b815260206004820152602660248201527f416464726573733a20696e73756666696369656e742062616c616e636520666f6044820152651c8818d85b1b60d21b6064820152608401610994565b600080866001600160a01b031685876040516124579190612baf565b60006040518083038185875af1925050503d8060008114612494576040519150601f19603f3d011682016040523d82523d6000602084013e612499565b606091505b50915091506124aa878383876124ce565b979650505050505050565b606083156124c4575081611f03565b611f03838361253e565b60608315612538578251612531576124e5856118fb565b6125315760405162461bcd60e51b815260206004820152601d60248201527f416464726573733a2063616c6c20746f206e6f6e2d636f6e74726163740000006044820152606401610994565b50816122a0565b6122a083835b81511561254e5781518083602001fd5b8060405162461bcd60e51b8152600401610994919061268e565b82805461257490612944565b90600052602060002090601f01602090048101928261259657600085556125dc565b82601f106125af57805160ff19168380011785556125dc565b828001600101855582156125dc579182015b828111156125dc5782518255916020019190600101906125c1565b506125e89291506125ec565b5090565b5b808211156125e857600081556001016125ed565b60006020828403121561261357600080fd5b81356001600160e01b031981168114611f0357600080fd5b80356001600160a01b038116811461264257600080fd5b919050565b60006020828403121561265957600080fd5b611f038261262b565b60005b8381101561267d578181015183820152602001612665565b83811115611e5f5750506000910152565b60208152600082518060208401526126ad816040850160208701612662565b601f01601f19169190910160400192915050565b634e487b7160e01b600052604160045260246000fd5b60006001600160401b03808411156126f1576126f16126c1565b604051601f8501601f19908116603f01168101908282118183101715612719576127196126c1565b8160405280935085815286868601111561273257600080fd5b858560208301376000602087830101525050509392505050565b600080600080600060a0868803121561276457600080fd5b85356001600160401b0381111561277a57600080fd5b8601601f8101881361278b57600080fd5b61279a888235602084016126d7565b9550506127a96020870161262b565b93506127b76040870161262b565b92506127c56060870161262b565b91506127d36080870161262b565b90509295509295909350565b6000602082840312156127f157600080fd5b5035919050565b6000806040838503121561280b57600080fd5b8235915061281b6020840161262b565b90509250929050565b6000806040838503121561283757600080fd5b6128408361262b565b915060208301356001600160401b0381111561285b57600080fd5b8301601f8101851361286c57600080fd5b61287b858235602084016126d7565b9150509250929050565b6001600160a01b0391909116815260200190565b6000806000606084860312156128ae57600080fd5b6128b78461262b565b92506128c56020850161262b565b9150604084013590509250925092565b6020808252825182820181905260009190848201906040850190845b8181101561290d578351835292840192918401916001016128f1565b50909695505050505050565b8015158114610f5e57600080fd5b60006020828403121561293957600080fd5b8135611f0381612919565b600181811c9082168061295857607f821691505b6020821081141561297957634e487b7160e01b600052602260045260246000fd5b50919050565b634e487b7160e01b600052601160045260246000fd5b6000826129b257634e487b7160e01b600052601260045260246000fd5b500490565b6000828210156129c9576129c961297f565b500390565b6020808252602c90820152600080516020612bcc83398151915260408201526b19195b1959d85d1958d85b1b60a21b606082015260800190565b6020808252602c90820152600080516020612bcc83398151915260408201526b6163746976652070726f787960a01b606082015260800190565b6000816000190483118215151615612a5c57612a5c61297f565b500290565b60008219821115612a7457612a7461297f565b500190565b600060208284031215612a8b57600080fd5b5051919050565b6001600160a01b03929092168252602082015260400190565b600060208284031215612abd57600080fd5b8151611f0381612919565b634e487b7160e01b600052603260045260246000fd5b6020808252602b908201527f496e697469616c697a61626c653a20636f6e7472616374206973206e6f74206960408201526a6e697469616c697a696e6760a81b606082015260800190565b76020b1b1b2b9b9a1b7b73a3937b61d1030b1b1b7bab73a1604d1b815260008351612b5b816017850160208801612662565b7001034b99036b4b9b9b4b733903937b6329607d1b6017918401918201528351612b8c816028840160208801612662565b01602801949350505050565b600081612ba757612ba761297f565b506000190190565b60008251612bc1818460208701612662565b919091019291505056fe46756e6374696f6e206d7573742062652063616c6c6564207468726f75676820189ab7a9244df0848122154315af71fe140f3db0fe014031783b0946b8c9d2e3360894a13ba1a3210667c828492db98dca3e2076cc3735a920a3ca505d382bbc65d7a28e3265b37a6474929f336521b332c1681b933f6cb9f3376673440d862a416464726573733a206c6f772d6c6576656c2064656c65676174652063616c6c206661696c6564a26469706673582212208670ee1457f9b5fe738049c0cf72606492479a48696ded10ce333ec073a47fe464736f6c634300080b0033",
  "linkReferences": {},
  "deployedLinkReferences": {}
}