{
  "_format": "hh-sol-artifact-1",
  "contractName": "DeepfiToken",
  "sourceName": "contracts/DeepfiToken.sol",
  "abi": [
    {
      "anonymous": false,
      "inputs": [
        {
          "indexed": false,
          "internalType": "address",
          "name": "previousAdmin",
          "type": "address"
        },
        {
          "indexed": false,
          "internalType": "address",
          "name": "newAdmin",
          "type": "address"
        }
      ],
      "name": "AdminChanged",
      "type": "event"
    },
    {
      "anonymous": false,
      "inputs": [
        {
          "indexed": true,
          "internalType": "address",
          "name": "owner",
          "type": "address"
        },
        {
          "indexed": true,
          "internalType": "address",
          "name": "spender",
          "type": "address"
        },
        {
          "indexed": false,
          "internalType": "uint256",
          "name": "value",
          "type": "uint256"
        }
      ],
      "name": "Approval",
      "type": "event"
    },
    {
      "anonymous": false,
      "inputs": [
        {
          "indexed": true,
          "internalType": "address",
          "name": "beacon",
          "type": "address"
        }
      ],
      "name": "BeaconUpgraded",
      "type": "event"
    },
    {
      "anonymous": false,
      "inputs": [
        {
          "indexed": false,
          "internalType": "uint8",
          "name": "version",
          "type": "uint8"
        }
      ],
      "name": "Initialized",
      "type": "event"
    },
    {
      "anonymous": false,
      "inputs": [
        {
          "indexed": false,
          "internalType": "address",
          "name": "account",
          "type": "address"
        }
      ],
      "name": "Paused",
      "type": "event"
    },
    {
      "anonymous": false,
      "inputs": [
        {
          "indexed": true,
          "internalType": "bytes32",
          "name": "role",
          "type": "bytes32"
        },
        {
          "indexed": true,
          "internalType": "bytes32",
          "name": "previousAdminRole",
          "type": "bytes32"
        },
        {
          "indexed": true,
          "internalType": "bytes32",
          "name": "newAdminRole",
          "type": "bytes32"
        }
      ],
      "name": "RoleAdminChanged",
      "type": "event"
    },
    {
      "anonymous": false,
      "inputs": [
        {
          "indexed": true,
          "internalType": "bytes32",
          "name": "role",
          "type": "bytes32"
        },
        {
          "indexed": true,
          "internalType": "address",
          "name": "account",
          "type": "address"
        },
        {
          "indexed": true,
          "internalType": "address",
          "name": "sender",
          "type": "address"
        }
      ],
      "name": "RoleGranted",
      "type": "event"
    },
    {
      "anonymous": false,
      "inputs": [
        {
          "indexed": true,
          "internalType": "bytes32",
          "name": "role",
          "type": "bytes32"
        },
        {
          "indexed": true,
          "internalType": "address",
          "name": "account",
          "type": "address"
        },
        {
          "indexed": true,
          "internalType": "address",
          "name": "sender",
          "type": "address"
        }
      ],
      "name": "RoleRevoked",
      "type": "event"
    },
    {
      "anonymous": false,
      "inputs": [
        {
          "indexed": true,
          "internalType": "address",
          "name": "from",
          "type": "address"
        },
        {
          "indexed": true,
          "internalType": "address",
          "name": "to",
          "type": "address"
        },
        {
          "indexed": false,
          "internalType": "uint256",
          "name": "value",
          "type": "uint256"
        }
      ],
      "name": "Transfer",
      "type": "event"
    },
    {
      "anonymous": false,
      "inputs": [
        {
          "indexed": false,
          "internalType": "address",
          "name": "account",
          "type": "address"
        }
      ],
      "name": "Unpaused",
      "type": "event"
    },
    {
      "anonymous": false,
      "inputs": [
        {
          "indexed": true,
          "internalType": "address",
          "name": "implementation",
          "type": "address"
        }
      ],
      "name": "Upgraded",
      "type": "event"
    },
    {
      "inputs": [],
      "name": "DEFAULT_ADMIN_ROLE",
      "outputs": [
        {
          "internalType": "bytes32",
          "name": "",
          "type": "bytes32"
        }
      ],
      "stateMutability": "view",
      "type": "function"
    },
    {
      "inputs": [],
      "name": "MINTER_ROLE",
      "outputs": [
        {
          "internalType": "bytes32",
          "name": "",
          "type": "bytes32"
        }
      ],
      "stateMutability": "view",
      "type": "function"
    },
    {
      "inputs": [],
      "name": "PAUSER_ROLE",
      "outputs": [
        {
          "internalType": "bytes32",
          "name": "",
          "type": "bytes32"
        }
      ],
      "stateMutability": "view",
      "type": "function"
    },
    {
      "inputs": [],
      "name": "UPGRADER_ROLE",
      "outputs": [
        {
          "internalType": "bytes32",
          "name": "",
          "type": "bytes32"
        }
      ],
      "stateMutability": "view",
      "type": "function"
    },
    {
      "inputs": [
        {
          "internalType": "address",
          "name": "owner",
          "type": "address"
        },
        {
          "internalType": "address",
          "name": "spender",
          "type": "address"
        }
      ],
      "name": "allowance",
      "outputs": [
        {
          "internalType": "uint256",
          "name": "",
          "type": "uint256"
        }
      ],
      "stateMutability": "view",
      "type": "function"
    },
    {
      "inputs": [
        {
          "internalType": "address",
          "name": "spender",
          "type": "address"
        },
        {
          "internalType": "uint256",
          "name": "amount",
          "type": "uint256"
        }
      ],
      "name": "approve",
      "outputs": [
        {
          "internalType": "bool",
          "name": "",
          "type": "bool"
        }
      ],
      "stateMutability": "nonpayable",
      "type": "function"
    },
    {
      "inputs": [
        {
          "internalType": "address",
          "name": "account",
          "type": "address"
        }
      ],
      "name": "balanceOf",
      "outputs": [
        {
          "internalType": "uint256",
          "name": "",
          "type": "uint256"
        }
      ],
      "stateMutability": "view",
      "type": "function"
    },
    {
      "inputs": [],
      "name": "decimals",
      "outputs": [
        {
          "internalType": "uint8",
          "name": "",
          "type": "uint8"
        }
      ],
      "stateMutability": "view",
      "type": "function"
    },
    {
      "inputs": [
        {
          "internalType": "address",
          "name": "spender",
          "type": "address"
        },
        {
          "internalType": "uint256",
          "name": "subtractedValue",
          "type": "uint256"
        }
      ],
      "name": "decreaseAllowance",
      "outputs": [
        {
          "internalType": "bool",
          "name": "",
          "type": "bool"
        }
      ],
      "stateMutability": "nonpayable",
      "type": "function"
    },
    {
      "inputs": [
        {
          "internalType": "bytes32",
          "name": "role",
          "type": "bytes32"
        }
      ],
      "name": "getRoleAdmin",
      "outputs": [
        {
          "internalType": "bytes32",
          "name": "",
          "type": "bytes32"
        }
      ],
      "stateMutability": "view",
      "type": "function"
    },
    {
      "inputs": [
        {
          "internalType": "bytes32",
          "name": "role",
          "type": "bytes32"
        },
        {
          "internalType": "address",
          "name": "account",
          "type": "address"
        }
      ],
      "name": "grantRole",
      "outputs": [],
      "stateMutability": "nonpayable",
      "type": "function"
    },
    {
      "inputs": [
        {
          "internalType": "bytes32",
          "name": "role",
          "type": "bytes32"
        },
        {
          "internalType": "address",
          "name": "account",
          "type": "address"
        }
      ],
      "name": "hasRole",
      "outputs": [
        {
          "internalType": "bool",
          "name": "",
          "type": "bool"
        }
      ],
      "stateMutability": "view",
      "type": "function"
    },
    {
      "inputs": [
        {
          "internalType": "address",
          "name": "spender",
          "type": "address"
        },
        {
          "internalType": "uint256",
          "name": "addedValue",
          "type": "uint256"
        }
      ],
      "name": "increaseAllowance",
      "outputs": [
        {
          "internalType": "bool",
          "name": "",
          "type": "bool"
        }
      ],
      "stateMutability": "nonpayable",
      "type": "function"
    },
    {
      "inputs": [
        {
          "internalType": "address",
          "name": "_admin",
          "type": "address"
        }
      ],
      "name": "initialize",
      "outputs": [],
      "stateMutability": "nonpayable",
      "type": "function"
    },
    {
      "inputs": [
        {
          "internalType": "address",
          "name": "to",
          "type": "address"
        },
        {
          "internalType": "uint256",
          "name": "amount",
          "type": "uint256"
        }
      ],
      "name": "mint",
      "outputs": [],
      "stateMutability": "nonpayable",
      "type": "function"
    },
    {
      "inputs": [],
      "name": "name",
      "outputs": [
        {
          "internalType": "string",
          "name": "",
          "type": "string"
        }
      ],
      "stateMutability": "view",
      "type": "function"
    },
    {
      "inputs": [],
      "name": "pause",
      "outputs": [],
      "stateMutability": "nonpayable",
      "type": "function"
    },
    {
      "inputs": [],
      "name": "paused",
      "outputs": [
        {
          "internalType": "bool",
          "name": "",
          "type": "bool"
        }
      ],
      "stateMutability": "view",
      "type": "function"
    },
    {
      "inputs": [],
      "name": "proxiableUUID",
      "outputs": [
        {
          "internalType": "bytes32",
          "name": "",
          "type": "bytes32"
        }
      ],
      "stateMutability": "view",
      "type": "function"
    },
    {
      "inputs": [
        {
          "internalType": "bytes32",
          "name": "role",
          "type": "bytes32"
        },
        {
          "internalType": "address",
          "name": "account",
          "type": "address"
        }
      ],
      "name": "renounceRole",
      "outputs": [],
      "stateMutability": "nonpayable",
      "type": "function"
    },
    {
      "inputs": [
        {
          "internalType": "bytes32",
          "name": "role",
          "type": "bytes32"
        },
        {
          "internalType": "address",
          "name": "account",
          "type": "address"
        }
      ],
      "name": "revokeRole",
      "outputs": [],
      "stateMutability": "nonpayable",
      "type": "function"
    },
    {
      "inputs": [
        {
          "internalType": "bytes4",
          "name": "interfaceId",
          "type": "bytes4"
        }
      ],
      "name": "supportsInterface",
      "outputs": [
        {
          "internalType": "bool",
          "name": "",
          "type": "bool"
        }
      ],
      "stateMutability": "view",
      "type": "function"
    },
    {
      "inputs": [],
      "name": "symbol",
      "outputs": [
        {
          "internalType": "string",
          "name": "",
          "type": "string"
        }
      ],
      "stateMutability": "view",
      "type": "function"
    },
    {
      "inputs": [],
      "name": "totalSupply",
      "outputs": [
        {
          "internalType": "uint256",
          "name": "",
          "type": "uint256"
        }
      ],
      "stateMutability": "view",
      "type": "function"
    },
    {
      "inputs": [
        {
          "internalType": "address",
          "name": "to",
          "type": "address"
        },
        {
          "internalType": "uint256",
          "name": "amount",
          "type": "uint256"
        }
      ],
      "name": "transfer",
      "outputs": [
        {
          "internalType": "bool",
          "name": "",
          "type": "bool"
        }
      ],
      "stateMutability": "nonpayable",
      "type": "function"
    },
    {
      "inputs": [
        {
          "internalType": "address",
          "name": "from",
          "type": "address"
        },
        {
          "internalType": "address",
          "name": "to",
          "type": "address"
        },
        {
          "internalType": "uint256",
          "name": "amount",
          "type": "uint256"
        }
      ],
      "name": "transferFrom",
      "outputs": [
        {
          "internalType": "bool",
          "name": "",
          "type": "bool"
        }
      ],
      "stateMutability": "nonpayable",
      "type": "function"
    },
    {
      "inputs": [],
      "name": "unpause",
      "outputs": [],
      "stateMutability": "nonpayable",
      "type": "function"
    },
    {
      "inputs": [
        {
          "internalType": "address",
          "name": "newImplementation",
          "type": "address"
        }
      ],
      "name": "upgradeTo",
      "outputs": [],
      "stateMutability": "nonpayable",
      "type": "function"
    },
    {
      "inputs": [
        {
          "internalType": "address",
          "name": "newImplementation",
          "type": "address"
        },
        {
          "internalType": "bytes",
          "name": "data",
          "type": "bytes"
        }
      ],
      "name": "upgradeToAndCall",
      "outputs": [],
      "stateMutability": "payable",
      "type": "function"
    }
  ],
  "bytecode": "0x60a06040523060805234801561001457600080fd5b5060805161210161004c600039600081816106a6015281816106e6015281816108340152818161087401526108ec01526121016000f3fe6080604052600436106101525760003560e01c806301ffc9a71461015757806306fdde031461018c578063095ea7b3146101ae57806318160ddd146101ce57806323b872dd146101ed578063248a9ca31461020d5780632f2ff15d1461022d578063313ce5671461024f57806336568abe1461026b5780633659cfe61461028b57806339509351146102ab5780633f4ba83a146102cb57806340c10f19146102e05780634f1ef2861461030057806352d1902d146103135780635c975abb1461032857806370a08231146103405780638456cb591461037657806391d148541461038b57806395d89b41146103ab578063a217fddf146103c0578063a457c2d7146103d5578063a9059cbb146103f5578063c4d66de814610415578063d539139314610435578063d547741f14610457578063dd62ed3e14610477578063e63ab1e914610497578063f72c0d8b146104b9575b600080fd5b34801561016357600080fd5b50610177610172366004611a6d565b6104db565b60405190151581526020015b60405180910390f35b34801561019857600080fd5b506101a1610512565b6040516101839190611ac3565b3480156101ba57600080fd5b506101776101c9366004611b12565b6105a4565b3480156101da57600080fd5b506035545b604051908152602001610183565b3480156101f957600080fd5b50610177610208366004611b3c565b6105bc565b34801561021957600080fd5b506101df610228366004611b78565b6105e2565b34801561023957600080fd5b5061024d610248366004611b91565b6105f7565b005b34801561025b57600080fd5b5060405160128152602001610183565b34801561027757600080fd5b5061024d610286366004611b91565b610618565b34801561029757600080fd5b5061024d6102a6366004611bbd565b61069b565b3480156102b757600080fd5b506101776102c6366004611b12565b610764565b3480156102d757600080fd5b5061024d610786565b3480156102ec57600080fd5b5061024d6102fb366004611b12565b6107a6565b61024d61030e366004611bee565b610829565b34801561031f57600080fd5b506101df6108df565b34801561033457600080fd5b5060655460ff16610177565b34801561034c57600080fd5b506101df61035b366004611bbd565b6001600160a01b031660009081526033602052604090205490565b34801561038257600080fd5b5061024d61098d565b34801561039757600080fd5b506101776103a6366004611b91565b6109ad565b3480156103b757600080fd5b506101a16109d8565b3480156103cc57600080fd5b506101df600081565b3480156103e157600080fd5b506101776103f0366004611b12565b6109e7565b34801561040157600080fd5b50610177610410366004611b12565b610a6d565b34801561042157600080fd5b5061024d610430366004611bbd565b610a7b565b34801561044157600080fd5b506101df60008051602061208c83398151915281565b34801561046357600080fd5b5061024d610472366004611b91565b610c7d565b34801561048357600080fd5b506101df610492366004611caf565b610c99565b3480156104a357600080fd5b506101df60008051602061204583398151915281565b3480156104c557600080fd5b506101df60008051602061200583398151915281565b60006001600160e01b03198216637965db0b60e01b148061050c57506301ffc9a760e01b6001600160e01b03198316145b92915050565b60606036805461052190611cd9565b80601f016020809104026020016040519081016040528092919081815260200182805461054d90611cd9565b801561059a5780601f1061056f5761010080835404028352916020019161059a565b820191906000526020600020905b81548152906001019060200180831161057d57829003601f168201915b5050505050905090565b6000336105b2818585610cc4565b5060019392505050565b6000336105ca858285610de8565b6105d5858585610e62565b60019150505b9392505050565b600090815260c9602052604090206001015490565b610600826105e2565b61060981611006565b6106138383611010565b505050565b6001600160a01b038116331461068d5760405162461bcd60e51b815260206004820152602f60248201527f416363657373436f6e74726f6c3a2063616e206f6e6c792072656e6f756e636560448201526e103937b632b9903337b91039b2b63360891b60648201526084015b60405180910390fd5b6106978282611096565b5050565b306001600160a01b037f00000000000000000000000000000000000000000000000000000000000000001614156106e45760405162461bcd60e51b815260040161068490611d14565b7f00000000000000000000000000000000000000000000000000000000000000006001600160a01b03166107166110fd565b6001600160a01b03161461073c5760405162461bcd60e51b815260040161068490611d4e565b61074581611119565b6040805160008082526020820190925261076191839190611131565b50565b6000336105b28185856107778383610c99565b6107819190611d9e565b610cc4565b60008051602061204583398151915261079e81611006565b61076161129c565b60008051602061208c8339815191526107be81611006565b6301e1338061015f546107d19190611d9e565b42101561081a5760405162461bcd60e51b8152602060048201526017602482015276135a5b9d1a5b99c81b9bdd08185b1b1bddd959081e595d604a1b6044820152606401610684565b4261015f5561061383836112ee565b306001600160a01b037f00000000000000000000000000000000000000000000000000000000000000001614156108725760405162461bcd60e51b815260040161068490611d14565b7f00000000000000000000000000000000000000000000000000000000000000006001600160a01b03166108a46110fd565b6001600160a01b0316146108ca5760405162461bcd60e51b815260040161068490611d4e565b6108d382611119565b61069782826001611131565b6000306001600160a01b037f0000000000000000000000000000000000000000000000000000000000000000161461097a5760405162461bcd60e51b815260206004820152603860248201527f555550535570677261646561626c653a206d757374206e6f742062652063616c6044820152771b1959081d1a1c9bdd59da0819195b1959d85d1958d85b1b60421b6064820152608401610684565b5060008051602061202583398151915290565b6000805160206120458339815191526109a581611006565b6107616113a9565b600091825260c9602090815260408084206001600160a01b0393909316845291905290205460ff1690565b60606037805461052190611cd9565b600033816109f58286610c99565b905083811015610a555760405162461bcd60e51b815260206004820152602560248201527f45524332303a2064656372656173656420616c6c6f77616e63652062656c6f77604482015264207a65726f60d81b6064820152608401610684565b610a628286868403610cc4565b506001949350505050565b6000336105b2818585610e62565b600054610100900460ff1615808015610a9b5750600054600160ff909116105b80610abc5750610aaa306113e6565b158015610abc575060005460ff166001145b610b1f5760405162461bcd60e51b815260206004820152602e60248201527f496e697469616c697a61626c653a20636f6e747261637420697320616c72656160448201526d191e481a5b9a5d1a585b1a5e995960921b6064820152608401610684565b6000805460ff191660011790558015610b42576000805461ff0019166101001790555b610ba7604051806040016040528060098152602001682232b334aa37b5b2b760b91b81525060405180604001604052806002815260200161111560f21b815250610b8a601290565b610b9590600a611e9a565b610ba29062e4e1c0611ea9565b6113f5565b610baf611427565b610bb7611458565b610bbf611458565b610bca600083611010565b610be260008051602061204583398151915283611010565b610c0482610bf26012600a611e9a565b610bff90624c4b40611ea9565b6112ee565b610c1c60008051602061208c83398151915283611010565b610c3460008051602061200583398151915283611010565b8015610697576000805461ff0019169055604051600181527f7f26b83ff96e1f2b6a682f133852f6798a09c465da95921460cefb38474024989060200160405180910390a15050565b610c86826105e2565b610c8f81611006565b6106138383611096565b6001600160a01b03918216600090815260346020908152604080832093909416825291909152205490565b6001600160a01b038316610d265760405162461bcd60e51b8152602060048201526024808201527f45524332303a20617070726f76652066726f6d20746865207a65726f206164646044820152637265737360e01b6064820152608401610684565b6001600160a01b038216610d875760405162461bcd60e51b815260206004820152602260248201527f45524332303a20617070726f766520746f20746865207a65726f206164647265604482015261737360f01b6064820152608401610684565b6001600160a01b0383811660008181526034602090815260408083209487168084529482529182902085905590518481527f8c5be1e5ebec7d5bd14f71427d1e84f3dd0314c0f7b2291e5b200ac8c7c3b925910160405180910390a3505050565b6000610df48484610c99565b90506000198114610e5c5781811015610e4f5760405162461bcd60e51b815260206004820152601d60248201527f45524332303a20696e73756666696369656e7420616c6c6f77616e63650000006044820152606401610684565b610e5c8484848403610cc4565b50505050565b6001600160a01b038316610ec65760405162461bcd60e51b815260206004820152602560248201527f45524332303a207472616e736665722066726f6d20746865207a65726f206164604482015264647265737360d81b6064820152608401610684565b6001600160a01b038216610f285760405162461bcd60e51b815260206004820152602360248201527f45524332303a207472616e7366657220746f20746865207a65726f206164647260448201526265737360e81b6064820152608401610684565b610f3383838361147f565b6001600160a01b03831660009081526033602052604090205481811015610fab5760405162461bcd60e51b815260206004820152602660248201527f45524332303a207472616e7366657220616d6f756e7420657863656564732062604482015265616c616e636560d01b6064820152608401610684565b6001600160a01b0380851660008181526033602052604080822086860390559286168082529083902080548601905591516000805160206120ac83398151915290610ff99086815260200190565b60405180910390a3610e5c565b6107618133611487565b61101a82826109ad565b61069757600082815260c9602090815260408083206001600160a01b03851684529091529020805460ff191660011790556110523390565b6001600160a01b0316816001600160a01b0316837f2f8788117e7eff1d82e926ec794901d17c78024a50270940304540a733656f0d60405160405180910390a45050565b6110a082826109ad565b1561069757600082815260c9602090815260408083206001600160a01b0385168085529252808320805460ff1916905551339285917ff6391f5c32d9c69d2a47ea670b442974b53935d1edc7fd64eb21e047a839171b9190a45050565b600080516020612025833981519152546001600160a01b031690565b60008051602061200583398151915261069781611006565b7f4910fdfa16fed3260ed0e7147f7cc6da11a60208b5b9406d12a635614ffd91435460ff161561116457610613836114e0565b826001600160a01b03166352d1902d6040518163ffffffff1660e01b8152600401602060405180830381865afa9250505080156111be575060408051601f3d908101601f191682019092526111bb91810190611ec8565b60015b6112215760405162461bcd60e51b815260206004820152602e60248201527f45524331393637557067726164653a206e657720696d706c656d656e7461746960448201526d6f6e206973206e6f74205555505360901b6064820152608401610684565b60008051602061202583398151915281146112905760405162461bcd60e51b815260206004820152602960248201527f45524331393637557067726164653a20756e737570706f727465642070726f786044820152681a58589b195555525160ba1b6064820152608401610684565b5061061383838361157a565b6112a461159f565b6065805460ff191690557f5db9ee0a495bf2e6ff9c91a7834c1ba4fdd244a5e8aa4e537bd38aeae4b073aa335b6040516001600160a01b03909116815260200160405180910390a1565b6001600160a01b0382166113445760405162461bcd60e51b815260206004820152601f60248201527f45524332303a206d696e7420746f20746865207a65726f2061646472657373006044820152606401610684565b6113506000838361147f565b80603560008282546113629190611d9e565b90915550506001600160a01b0382166000818152603360209081526040808320805486019055518481526000805160206120ac833981519152910160405180910390a35050565b6113b16115e8565b6065805460ff191660011790557f62e78cea01bee320cd4e420270b5ea74000d11b0c9f74754ebdbfc544b05a2586112d13390565b6001600160a01b03163b151590565b600054610100900460ff1661141c5760405162461bcd60e51b815260040161068490611ee1565b61061383838361162e565b600054610100900460ff1661144e5760405162461bcd60e51b815260040161068490611ee1565b611456611684565b565b600054610100900460ff166114565760405162461bcd60e51b815260040161068490611ee1565b6106136115e8565b61149182826109ad565b6106975761149e816116b7565b6114a98360206116c9565b6040516020016114ba929190611f2c565b60408051601f198184030181529082905262461bcd60e51b825261068491600401611ac3565b6114e9816113e6565b61154b5760405162461bcd60e51b815260206004820152602d60248201527f455243313936373a206e657720696d706c656d656e746174696f6e206973206e60448201526c1bdd08184818dbdb9d1c9858dd609a1b6064820152608401610684565b60008051602061202583398151915280546001600160a01b0319166001600160a01b0392909216919091179055565b61158383611864565b6000825111806115905750805b1561061357610e5c83836118a4565b60655460ff166114565760405162461bcd60e51b815260206004820152601460248201527314185d5cd8589b194e881b9bdd081c185d5cd95960621b6044820152606401610684565b60655460ff16156114565760405162461bcd60e51b815260206004820152601060248201526f14185d5cd8589b194e881c185d5cd95960821b6044820152606401610684565b600054610100900460ff166116555760405162461bcd60e51b815260040161068490611ee1565b82516116689060369060208601906119d4565b50815161167c9060379060208501906119d4565b506035555050565b600054610100900460ff166116ab5760405162461bcd60e51b815260040161068490611ee1565b6065805460ff19169055565b606061050c6001600160a01b03831660145b606060006116d8836002611ea9565b6116e3906002611d9e565b6001600160401b038111156116fa576116fa611bd8565b6040519080825280601f01601f191660200182016040528015611724576020820181803683370190505b509050600360fc1b8160008151811061173f5761173f611f9b565b60200101906001600160f81b031916908160001a905350600f60fb1b8160018151811061176e5761176e611f9b565b60200101906001600160f81b031916908160001a9053506000611792846002611ea9565b61179d906001611d9e565b90505b6001811115611815576f181899199a1a9b1b9c1cb0b131b232b360811b85600f16601081106117d1576117d1611f9b565b1a60f81b8282815181106117e7576117e7611f9b565b60200101906001600160f81b031916908160001a90535060049490941c9361180e81611fb1565b90506117a0565b5083156105db5760405162461bcd60e51b815260206004820181905260248201527f537472696e67733a20686578206c656e67746820696e73756666696369656e746044820152606401610684565b61186d816114e0565b6040516001600160a01b038216907fbc7cd75a20ee27fd9adebab32041f755214dbc6bffa90cc0225b39da2e5c2d3b90600090a250565b60606118af836113e6565b61190a5760405162461bcd60e51b815260206004820152602660248201527f416464726573733a2064656c65676174652063616c6c20746f206e6f6e2d636f6044820152651b9d1c9858dd60d21b6064820152608401610684565b600080846001600160a01b0316846040516119259190611fc8565b600060405180830381855af49150503d8060008114611960576040519150601f19603f3d011682016040523d82523d6000602084013e611965565b606091505b509150915061198d828260405180606001604052806027815260200161206560279139611996565b95945050505050565b606083156119a55750816105db565b6105db83838151156119ba5781518083602001fd5b8060405162461bcd60e51b81526004016106849190611ac3565b8280546119e090611cd9565b90600052602060002090601f016020900481019282611a025760008555611a48565b82601f10611a1b57805160ff1916838001178555611a48565b82800160010185558215611a48579182015b82811115611a48578251825591602001919060010190611a2d565b50611a54929150611a58565b5090565b5b80821115611a545760008155600101611a59565b600060208284031215611a7f57600080fd5b81356001600160e01b0319811681146105db57600080fd5b60005b83811015611ab2578181015183820152602001611a9a565b83811115610e5c5750506000910152565b6020815260008251806020840152611ae2816040850160208701611a97565b601f01601f19169190910160400192915050565b80356001600160a01b0381168114611b0d57600080fd5b919050565b60008060408385031215611b2557600080fd5b611b2e83611af6565b946020939093013593505050565b600080600060608486031215611b5157600080fd5b611b5a84611af6565b9250611b6860208501611af6565b9150604084013590509250925092565b600060208284031215611b8a57600080fd5b5035919050565b60008060408385031215611ba457600080fd5b82359150611bb460208401611af6565b90509250929050565b600060208284031215611bcf57600080fd5b6105db82611af6565b634e487b7160e01b600052604160045260246000fd5b60008060408385031215611c0157600080fd5b611c0a83611af6565b915060208301356001600160401b0380821115611c2657600080fd5b818501915085601f830112611c3a57600080fd5b813581811115611c4c57611c4c611bd8565b604051601f8201601f19908116603f01168101908382118183101715611c7457611c74611bd8565b81604052828152886020848701011115611c8d57600080fd5b8260208601602083013760006020848301015280955050505050509250929050565b60008060408385031215611cc257600080fd5b611ccb83611af6565b9150611bb460208401611af6565b600181811c90821680611ced57607f821691505b60208210811415611d0e57634e487b7160e01b600052602260045260246000fd5b50919050565b6020808252602c90820152600080516020611fe583398151915260408201526b19195b1959d85d1958d85b1b60a21b606082015260800190565b6020808252602c90820152600080516020611fe583398151915260408201526b6163746976652070726f787960a01b606082015260800190565b634e487b7160e01b600052601160045260246000fd5b60008219821115611db157611db1611d88565b500190565b600181815b80851115611df1578160001904821115611dd757611dd7611d88565b80851615611de457918102915b93841c9390800290611dbb565b509250929050565b600082611e085750600161050c565b81611e155750600061050c565b8160018114611e2b5760028114611e3557611e51565b600191505061050c565b60ff841115611e4657611e46611d88565b50506001821b61050c565b5060208310610133831016604e8410600b8410161715611e74575081810a61050c565b611e7e8383611db6565b8060001904821115611e9257611e92611d88565b029392505050565b60006105db60ff841683611df9565b6000816000190483118215151615611ec357611ec3611d88565b500290565b600060208284031215611eda57600080fd5b5051919050565b6020808252602b908201527f496e697469616c697a61626c653a20636f6e7472616374206973206e6f74206960408201526a6e697469616c697a696e6760a81b606082015260800190565b76020b1b1b2b9b9a1b7b73a3937b61d1030b1b1b7bab73a1604d1b815260008351611f5e816017850160208801611a97565b7001034b99036b4b9b9b4b733903937b6329607d1b6017918401918201528351611f8f816028840160208801611a97565b01602801949350505050565b634e487b7160e01b600052603260045260246000fd5b600081611fc057611fc0611d88565b506000190190565b60008251611fda818460208701611a97565b919091019291505056fe46756e6374696f6e206d7573742062652063616c6c6564207468726f75676820189ab7a9244df0848122154315af71fe140f3db0fe014031783b0946b8c9d2e3360894a13ba1a3210667c828492db98dca3e2076cc3735a920a3ca505d382bbc65d7a28e3265b37a6474929f336521b332c1681b933f6cb9f3376673440d862a416464726573733a206c6f772d6c6576656c2064656c65676174652063616c6c206661696c65649f2df0fed2c77648de5860a4cc508cd0818c85b8b8a1ab4ceeef8d981c8956a6ddf252ad1be2c89b69c2b068fc378daa952ba7f163c4a11628f55a4df523b3efa26469706673582212205a5d4055ddc0f9891efe9853e37fa43bd09589c525b70d8313943de4134e1bc564736f6c634300080b0033",
  "linkReferences": {},
  "deployedLinkReferences": {}
}