{
  "_format": "hh-sol-artifact-1",
  "contractName": "DeepfiToken",
  "sourceName": "contracts/DeepfiToken.sol",
  "abi": [
    {
      "anonymous": false,
      "inputs": [
        {
          "indexed": false,
          "internalType": "address",
          "name": "previousAdmin",
          "type": "address"
        },
        {
          "indexed": false,
          "internalType": "address",
          "name": "newAdmin",
          "type": "address"
        }
      ],
      "name": "AdminChanged",
      "type": "event"
    },
    {
      "anonymous": false,
      "inputs": [
        {
          "indexed": true,
          "internalType": "address",
          "name": "owner",
          "type": "address"
        },
        {
          "indexed": true,
          "internalType": "address",
          "name": "spender",
          "type": "address"
        },
        {
          "indexed": false,
          "internalType": "uint256",
          "name": "value",
          "type": "uint256"
        }
      ],
      "name": "Approval",
      "type": "event"
    },
    {
      "anonymous": false,
      "inputs": [
        {
          "indexed": true,
          "internalType": "address",
          "name": "beacon",
          "type": "address"
        }
      ],
      "name": "BeaconUpgraded",
      "type": "event"
    },
    {
      "anonymous": false,
      "inputs": [
        {
          "indexed": false,
          "internalType": "uint8",
          "name": "version",
          "type": "uint8"
        }
      ],
      "name": "Initialized",
      "type": "event"
    },
    {
      "anonymous": false,
      "inputs": [
        {
          "indexed": false,
          "internalType": "address",
          "name": "account",
          "type": "address"
        }
      ],
      "name": "Paused",
      "type": "event"
    },
    {
      "anonymous": false,
      "inputs": [
        {
          "indexed": true,
          "internalType": "bytes32",
          "name": "role",
          "type": "bytes32"
        },
        {
          "indexed": true,
          "internalType": "bytes32",
          "name": "previousAdminRole",
          "type": "bytes32"
        },
        {
          "indexed": true,
          "internalType": "bytes32",
          "name": "newAdminRole",
          "type": "bytes32"
        }
      ],
      "name": "RoleAdminChanged",
      "type": "event"
    },
    {
      "anonymous": false,
      "inputs": [
        {
          "indexed": true,
          "internalType": "bytes32",
          "name": "role",
          "type": "bytes32"
        },
        {
          "indexed": true,
          "internalType": "address",
          "name": "account",
          "type": "address"
        },
        {
          "indexed": true,
          "internalType": "address",
          "name": "sender",
          "type": "address"
        }
      ],
      "name": "RoleGranted",
      "type": "event"
    },
    {
      "anonymous": false,
      "inputs": [
        {
          "indexed": true,
          "internalType": "bytes32",
          "name": "role",
          "type": "bytes32"
        },
        {
          "indexed": true,
          "internalType": "address",
          "name": "account",
          "type": "address"
        },
        {
          "indexed": true,
          "internalType": "address",
          "name": "sender",
          "type": "address"
        }
      ],
      "name": "RoleRevoked",
      "type": "event"
    },
    {
      "anonymous": false,
      "inputs": [
        {
          "indexed": true,
          "internalType": "address",
          "name": "from",
          "type": "address"
        },
        {
          "indexed": true,
          "internalType": "address",
          "name": "to",
          "type": "address"
        },
        {
          "indexed": false,
          "internalType": "uint256",
          "name": "value",
          "type": "uint256"
        }
      ],
      "name": "Transfer",
      "type": "event"
    },
    {
      "anonymous": false,
      "inputs": [
        {
          "indexed": false,
          "internalType": "address",
          "name": "account",
          "type": "address"
        }
      ],
      "name": "Unpaused",
      "type": "event"
    },
    {
      "anonymous": false,
      "inputs": [
        {
          "indexed": true,
          "internalType": "address",
          "name": "implementation",
          "type": "address"
        }
      ],
      "name": "Upgraded",
      "type": "event"
    },
    {
      "inputs": [],
      "name": "DEFAULT_ADMIN_ROLE",
      "outputs": [
        {
          "internalType": "bytes32",
          "name": "",
          "type": "bytes32"
        }
      ],
      "stateMutability": "view",
      "type": "function"
    },
    {
      "inputs": [],
      "name": "MINTER_ROLE",
      "outputs": [
        {
          "internalType": "bytes32",
          "name": "",
          "type": "bytes32"
        }
      ],
      "stateMutability": "view",
      "type": "function"
    },
    {
      "inputs": [],
      "name": "PAUSER_ROLE",
      "outputs": [
        {
          "internalType": "bytes32",
          "name": "",
          "type": "bytes32"
        }
      ],
      "stateMutability": "view",
      "type": "function"
    },
    {
      "inputs": [],
      "name": "UPGRADER_ROLE",
      "outputs": [
        {
          "internalType": "bytes32",
          "name": "",
          "type": "bytes32"
        }
      ],
      "stateMutability": "view",
      "type": "function"
    },
    {
      "inputs": [
        {
          "internalType": "address",
          "name": "owner",
          "type": "address"
        },
        {
          "internalType": "address",
          "name": "spender",
          "type": "address"
        }
      ],
      "name": "allowance",
      "outputs": [
        {
          "internalType": "uint256",
          "name": "",
          "type": "uint256"
        }
      ],
      "stateMutability": "view",
      "type": "function"
    },
    {
      "inputs": [
        {
          "internalType": "address",
          "name": "spender",
          "type": "address"
        },
        {
          "internalType": "uint256",
          "name": "amount",
          "type": "uint256"
        }
      ],
      "name": "approve",
      "outputs": [
        {
          "internalType": "bool",
          "name": "",
          "type": "bool"
        }
      ],
      "stateMutability": "nonpayable",
      "type": "function"
    },
    {
      "inputs": [
        {
          "internalType": "address",
          "name": "account",
          "type": "address"
        }
      ],
      "name": "balanceOf",
      "outputs": [
        {
          "internalType": "uint256",
          "name": "",
          "type": "uint256"
        }
      ],
      "stateMutability": "view",
      "type": "function"
    },
    {
      "inputs": [],
      "name": "decimals",
      "outputs": [
        {
          "internalType": "uint8",
          "name": "",
          "type": "uint8"
        }
      ],
      "stateMutability": "view",
      "type": "function"
    },
    {
      "inputs": [
        {
          "internalType": "address",
          "name": "spender",
          "type": "address"
        },
        {
          "internalType": "uint256",
          "name": "subtractedValue",
          "type": "uint256"
        }
      ],
      "name": "decreaseAllowance",
      "outputs": [
        {
          "internalType": "bool",
          "name": "",
          "type": "bool"
        }
      ],
      "stateMutability": "nonpayable",
      "type": "function"
    },
    {
      "inputs": [
        {
          "internalType": "address",
          "name": "to",
          "type": "address"
        }
      ],
      "name": "firstFunding",
      "outputs": [],
      "stateMutability": "nonpayable",
      "type": "function"
    },
    {
      "inputs": [],
      "name": "firstFundingCount",
      "outputs": [
        {
          "internalType": "uint8",
          "name": "",
          "type": "uint8"
        }
      ],
      "stateMutability": "view",
      "type": "function"
    },
    {
      "inputs": [],
      "name": "firstFundingLastMintTime",
      "outputs": [
        {
          "internalType": "uint256",
          "name": "",
          "type": "uint256"
        }
      ],
      "stateMutability": "view",
      "type": "function"
    },
    {
      "inputs": [
        {
          "internalType": "bytes32",
          "name": "role",
          "type": "bytes32"
        }
      ],
      "name": "getRoleAdmin",
      "outputs": [
        {
          "internalType": "bytes32",
          "name": "",
          "type": "bytes32"
        }
      ],
      "stateMutability": "view",
      "type": "function"
    },
    {
      "inputs": [
        {
          "internalType": "bytes32",
          "name": "role",
          "type": "bytes32"
        },
        {
          "internalType": "address",
          "name": "account",
          "type": "address"
        }
      ],
      "name": "grantRole",
      "outputs": [],
      "stateMutability": "nonpayable",
      "type": "function"
    },
    {
      "inputs": [
        {
          "internalType": "bytes32",
          "name": "role",
          "type": "bytes32"
        },
        {
          "internalType": "address",
          "name": "account",
          "type": "address"
        }
      ],
      "name": "hasRole",
      "outputs": [
        {
          "internalType": "bool",
          "name": "",
          "type": "bool"
        }
      ],
      "stateMutability": "view",
      "type": "function"
    },
    {
      "inputs": [
        {
          "internalType": "address",
          "name": "spender",
          "type": "address"
        },
        {
          "internalType": "uint256",
          "name": "addedValue",
          "type": "uint256"
        }
      ],
      "name": "increaseAllowance",
      "outputs": [
        {
          "internalType": "bool",
          "name": "",
          "type": "bool"
        }
      ],
      "stateMutability": "nonpayable",
      "type": "function"
    },
    {
      "inputs": [
        {
          "internalType": "address",
          "name": "_admin",
          "type": "address"
        }
      ],
      "name": "initialize",
      "outputs": [],
      "stateMutability": "nonpayable",
      "type": "function"
    },
    {
      "inputs": [],
      "name": "lastMintTime",
      "outputs": [
        {
          "internalType": "uint256",
          "name": "",
          "type": "uint256"
        }
      ],
      "stateMutability": "view",
      "type": "function"
    },
    {
      "inputs": [
        {
          "internalType": "address",
          "name": "to",
          "type": "address"
        }
      ],
      "name": "mint",
      "outputs": [],
      "stateMutability": "nonpayable",
      "type": "function"
    },
    {
      "inputs": [],
      "name": "name",
      "outputs": [
        {
          "internalType": "string",
          "name": "",
          "type": "string"
        }
      ],
      "stateMutability": "view",
      "type": "function"
    },
    {
      "inputs": [],
      "name": "pause",
      "outputs": [],
      "stateMutability": "nonpayable",
      "type": "function"
    },
    {
      "inputs": [],
      "name": "paused",
      "outputs": [
        {
          "internalType": "bool",
          "name": "",
          "type": "bool"
        }
      ],
      "stateMutability": "view",
      "type": "function"
    },
    {
      "inputs": [],
      "name": "proxiableUUID",
      "outputs": [
        {
          "internalType": "bytes32",
          "name": "",
          "type": "bytes32"
        }
      ],
      "stateMutability": "view",
      "type": "function"
    },
    {
      "inputs": [
        {
          "internalType": "bytes32",
          "name": "role",
          "type": "bytes32"
        },
        {
          "internalType": "address",
          "name": "account",
          "type": "address"
        }
      ],
      "name": "renounceRole",
      "outputs": [],
      "stateMutability": "nonpayable",
      "type": "function"
    },
    {
      "inputs": [
        {
          "internalType": "bytes32",
          "name": "role",
          "type": "bytes32"
        },
        {
          "internalType": "address",
          "name": "account",
          "type": "address"
        }
      ],
      "name": "revokeRole",
      "outputs": [],
      "stateMutability": "nonpayable",
      "type": "function"
    },
    {
      "inputs": [
        {
          "internalType": "bytes4",
          "name": "interfaceId",
          "type": "bytes4"
        }
      ],
      "name": "supportsInterface",
      "outputs": [
        {
          "internalType": "bool",
          "name": "",
          "type": "bool"
        }
      ],
      "stateMutability": "view",
      "type": "function"
    },
    {
      "inputs": [],
      "name": "symbol",
      "outputs": [
        {
          "internalType": "string",
          "name": "",
          "type": "string"
        }
      ],
      "stateMutability": "view",
      "type": "function"
    },
    {
      "inputs": [],
      "name": "totalSupply",
      "outputs": [
        {
          "internalType": "uint256",
          "name": "",
          "type": "uint256"
        }
      ],
      "stateMutability": "view",
      "type": "function"
    },
    {
      "inputs": [
        {
          "internalType": "address",
          "name": "to",
          "type": "address"
        },
        {
          "internalType": "uint256",
          "name": "amount",
          "type": "uint256"
        }
      ],
      "name": "transfer",
      "outputs": [
        {
          "internalType": "bool",
          "name": "",
          "type": "bool"
        }
      ],
      "stateMutability": "nonpayable",
      "type": "function"
    },
    {
      "inputs": [
        {
          "internalType": "address",
          "name": "from",
          "type": "address"
        },
        {
          "internalType": "address",
          "name": "to",
          "type": "address"
        },
        {
          "internalType": "uint256",
          "name": "amount",
          "type": "uint256"
        }
      ],
      "name": "transferFrom",
      "outputs": [
        {
          "internalType": "bool",
          "name": "",
          "type": "bool"
        }
      ],
      "stateMutability": "nonpayable",
      "type": "function"
    },
    {
      "inputs": [],
      "name": "unpause",
      "outputs": [],
      "stateMutability": "nonpayable",
      "type": "function"
    },
    {
      "inputs": [
        {
          "internalType": "address",
          "name": "newImplementation",
          "type": "address"
        }
      ],
      "name": "upgradeTo",
      "outputs": [],
      "stateMutability": "nonpayable",
      "type": "function"
    },
    {
      "inputs": [
        {
          "internalType": "address",
          "name": "newImplementation",
          "type": "address"
        },
        {
          "internalType": "bytes",
          "name": "data",
          "type": "bytes"
        }
      ],
      "name": "upgradeToAndCall",
      "outputs": [],
      "stateMutability": "payable",
      "type": "function"
    }
  ],
  "bytecode": "0x60a06040523060805234801561001457600080fd5b506080516122a261004c60003960008181610745015281816107850152818161085001528181610890015261090801526122a26000f3fe60806040526004361061017e5760003560e01c806301ffc9a7146101835780630595c2a3146101b857806306fdde03146101e5578063095ea7b31461020757806318160ddd1461022757806323b872dd14610246578063248a9ca3146102665780632f2ff15d14610286578063313ce567146102a857806336568abe146102bc5780633659cfe6146102dc57806339509351146102fc5780633f4ba83a1461031c5780634f1ef2861461033157806352d1902d146103445780635c975abb146103595780636a6278421461037157806370a08231146103915780638456cb59146103c757806391d14854146103dc57806395d89b41146103fc5780639d46352014610411578063a217fddf14610428578063a457c2d71461043d578063a9059cbb1461045d578063c4d66de81461047d578063c914c3211461049d578063d5391393146104bd578063d547741f146104df578063dd62ed3e146104ff578063df6df3611461051f578063e63ab1e914610536578063f72c0d8b14610558575b600080fd5b34801561018f57600080fd5b506101a361019e366004611b9b565b61057a565b60405190151581526020015b60405180910390f35b3480156101c457600080fd5b50610161546101d39060ff1681565b60405160ff90911681526020016101af565b3480156101f157600080fd5b506101fa6105b1565b6040516101af9190611bf1565b34801561021357600080fd5b506101a3610222366004611c40565b610643565b34801561023357600080fd5b506035545b6040519081526020016101af565b34801561025257600080fd5b506101a3610261366004611c6a565b61065b565b34801561027257600080fd5b50610238610281366004611ca6565b610681565b34801561029257600080fd5b506102a66102a1366004611cbf565b610696565b005b3480156102b457600080fd5b5060126101d3565b3480156102c857600080fd5b506102a66102d7366004611cbf565b6106b7565b3480156102e857600080fd5b506102a66102f7366004611ceb565b61073a565b34801561030857600080fd5b506101a3610317366004611c40565b610803565b34801561032857600080fd5b506102a6610825565b6102a661033f366004611d1c565b610845565b34801561035057600080fd5b506102386108fb565b34801561036557600080fd5b5060655460ff166101a3565b34801561037d57600080fd5b506102a661038c366004611ceb565b6109a9565b34801561039d57600080fd5b506102386103ac366004611ceb565b6001600160a01b031660009081526033602052604090205490565b3480156103d357600080fd5b506102a6610a1e565b3480156103e857600080fd5b506101a36103f7366004611cbf565b610a3e565b34801561040857600080fd5b506101fa610a69565b34801561041d57600080fd5b5061023861015f5481565b34801561043457600080fd5b50610238600081565b34801561044957600080fd5b506101a3610458366004611c40565b610a78565b34801561046957600080fd5b506101a3610478366004611c40565b610afe565b34801561048957600080fd5b506102a6610498366004611ceb565b610b0c565b3480156104a957600080fd5b506102a66104b8366004611ceb565b610cf6565b3480156104c957600080fd5b5061023860008051602061222d83398151915281565b3480156104eb57600080fd5b506102a66104fa366004611cbf565b610db4565b34801561050b57600080fd5b5061023861051a366004611ddd565b610dd0565b34801561052b57600080fd5b506102386101605481565b34801561054257600080fd5b506102386000805160206121e683398151915281565b34801561056457600080fd5b506102386000805160206121a683398151915281565b60006001600160e01b03198216637965db0b60e01b14806105ab57506301ffc9a760e01b6001600160e01b03198316145b92915050565b6060603680546105c090611e07565b80601f01602080910402602001604051908101604052809291908181526020018280546105ec90611e07565b80156106395780601f1061060e57610100808354040283529160200191610639565b820191906000526020600020905b81548152906001019060200180831161061c57829003601f168201915b5050505050905090565b600033610651818585610dfb565b5060019392505050565b600033610669858285610f1f565b610674858585610f99565b60019150505b9392505050565b600090815260c9602052604090206001015490565b61069f82610681565b6106a88161113d565b6106b28383611147565b505050565b6001600160a01b038116331461072c5760405162461bcd60e51b815260206004820152602f60248201527f416363657373436f6e74726f6c3a2063616e206f6e6c792072656e6f756e636560448201526e103937b632b9903337b91039b2b63360891b60648201526084015b60405180910390fd5b61073682826111cd565b5050565b306001600160a01b037f00000000000000000000000000000000000000000000000000000000000000001614156107835760405162461bcd60e51b815260040161072390611e42565b7f00000000000000000000000000000000000000000000000000000000000000006001600160a01b03166107b5611234565b6001600160a01b0316146107db5760405162461bcd60e51b815260040161072390611e7c565b6107e481611250565b6040805160008082526020820190925261080091839190611268565b50565b6000336106518185856108168383610dd0565b6108209190611ecc565b610dfb565b6000805160206121e683398151915261083d8161113d565b6108006113d3565b306001600160a01b037f000000000000000000000000000000000000000000000000000000000000000016141561088e5760405162461bcd60e51b815260040161072390611e42565b7f00000000000000000000000000000000000000000000000000000000000000006001600160a01b03166108c0611234565b6001600160a01b0316146108e65760405162461bcd60e51b815260040161072390611e7c565b6108ef82611250565b61073682826001611268565b6000306001600160a01b037f000000000000000000000000000000000000000000000000000000000000000016146109965760405162461bcd60e51b815260206004820152603860248201527f555550535570677261646561626c653a206d757374206e6f742062652063616c6044820152771b1959081d1a1c9bdd59da0819195b1959d85d1958d85b1b60421b6064820152608401610723565b506000805160206121c683398151915290565b60008051602061222d8339815191526109c18161113d565b6301e1338061015f546109d49190611ecc565b4210156109f35760405162461bcd60e51b815260040161072390611ee4565b610a1582610a036012600a611ff9565b610a1090620f4240612008565b611425565b50504261015f55565b6000805160206121e6833981519152610a368161113d565b6108006114e0565b600091825260c9602090815260408084206001600160a01b0393909316845291905290205460ff1690565b6060603780546105c090611e07565b60003381610a868286610dd0565b905083811015610ae65760405162461bcd60e51b815260206004820152602560248201527f45524332303a2064656372656173656420616c6c6f77616e63652062656c6f77604482015264207a65726f60d81b6064820152608401610723565b610af38286868403610dfb565b506001949350505050565b600033610651818585610f99565b600054610100900460ff1615808015610b2c5750600054600160ff909116105b80610b4d5750610b3b3061151d565b158015610b4d575060005460ff166001145b610bb05760405162461bcd60e51b815260206004820152602e60248201527f496e697469616c697a61626c653a20636f6e747261637420697320616c72656160448201526d191e481a5b9a5d1a585b1a5e995960921b6064820152608401610723565b6000805460ff191660011790558015610bd3576000805461ff0019166101001790555b610c1a604051806040016040528060098152602001682232b334aa37b5b2b760b91b815250604051806040016040528060048152602001634445464960e01b81525061152c565b610c2261155d565b610c2a61158e565b610c3261158e565b610c3d600083611147565b610c556000805160206121e683398151915283611147565b610c7282610c656012600a611ff9565b610a1090621e8480612008565b610c8a60008051602061222d83398151915283611147565b610ca26000805160206121a683398151915283611147565b4261015f819055610160558015610736576000805461ff0019169055604051600181527f7f26b83ff96e1f2b6a682f133852f6798a09c465da95921460cefb38474024989060200160405180910390a15050565b60008051602061222d833981519152610d0e8161113d565b62278d0061016054610d209190611ecc565b421015610d3f5760405162461bcd60e51b815260040161072390611ee4565b61016154600c60ff9091161115610d5557600080fd5b610d7e82600c610d676012600a611ff9565b610d7490627a1200612008565b610a109190612027565b4261016055610161805460ff16906000610d9783612049565b91906101000a81548160ff021916908360ff160217905550505050565b610dbd82610681565b610dc68161113d565b6106b283836111cd565b6001600160a01b03918216600090815260346020908152604080832093909416825291909152205490565b6001600160a01b038316610e5d5760405162461bcd60e51b8152602060048201526024808201527f45524332303a20617070726f76652066726f6d20746865207a65726f206164646044820152637265737360e01b6064820152608401610723565b6001600160a01b038216610ebe5760405162461bcd60e51b815260206004820152602260248201527f45524332303a20617070726f766520746f20746865207a65726f206164647265604482015261737360f01b6064820152608401610723565b6001600160a01b0383811660008181526034602090815260408083209487168084529482529182902085905590518481527f8c5be1e5ebec7d5bd14f71427d1e84f3dd0314c0f7b2291e5b200ac8c7c3b925910160405180910390a3505050565b6000610f2b8484610dd0565b90506000198114610f935781811015610f865760405162461bcd60e51b815260206004820152601d60248201527f45524332303a20696e73756666696369656e7420616c6c6f77616e63650000006044820152606401610723565b610f938484848403610dfb565b50505050565b6001600160a01b038316610ffd5760405162461bcd60e51b815260206004820152602560248201527f45524332303a207472616e736665722066726f6d20746865207a65726f206164604482015264647265737360d81b6064820152608401610723565b6001600160a01b03821661105f5760405162461bcd60e51b815260206004820152602360248201527f45524332303a207472616e7366657220746f20746865207a65726f206164647260448201526265737360e81b6064820152608401610723565b61106a8383836115b5565b6001600160a01b038316600090815260336020526040902054818110156110e25760405162461bcd60e51b815260206004820152602660248201527f45524332303a207472616e7366657220616d6f756e7420657863656564732062604482015265616c616e636560d01b6064820152608401610723565b6001600160a01b03808516600081815260336020526040808220868603905592861680825290839020805486019055915160008051602061224d833981519152906111309086815260200190565b60405180910390a3610f93565b61080081336115bd565b6111518282610a3e565b61073657600082815260c9602090815260408083206001600160a01b03851684529091529020805460ff191660011790556111893390565b6001600160a01b0316816001600160a01b0316837f2f8788117e7eff1d82e926ec794901d17c78024a50270940304540a733656f0d60405160405180910390a45050565b6111d78282610a3e565b1561073657600082815260c9602090815260408083206001600160a01b0385168085529252808320805460ff1916905551339285917ff6391f5c32d9c69d2a47ea670b442974b53935d1edc7fd64eb21e047a839171b9190a45050565b6000805160206121c6833981519152546001600160a01b031690565b6000805160206121a68339815191526107368161113d565b7f4910fdfa16fed3260ed0e7147f7cc6da11a60208b5b9406d12a635614ffd91435460ff161561129b576106b283611616565b826001600160a01b03166352d1902d6040518163ffffffff1660e01b8152600401602060405180830381865afa9250505080156112f5575060408051601f3d908101601f191682019092526112f291810190612069565b60015b6113585760405162461bcd60e51b815260206004820152602e60248201527f45524331393637557067726164653a206e657720696d706c656d656e7461746960448201526d6f6e206973206e6f74205555505360901b6064820152608401610723565b6000805160206121c683398151915281146113c75760405162461bcd60e51b815260206004820152602960248201527f45524331393637557067726164653a20756e737570706f727465642070726f786044820152681a58589b195555525160ba1b6064820152608401610723565b506106b28383836116b0565b6113db6116d5565b6065805460ff191690557f5db9ee0a495bf2e6ff9c91a7834c1ba4fdd244a5e8aa4e537bd38aeae4b073aa335b6040516001600160a01b03909116815260200160405180910390a1565b6001600160a01b03821661147b5760405162461bcd60e51b815260206004820152601f60248201527f45524332303a206d696e7420746f20746865207a65726f2061646472657373006044820152606401610723565b611487600083836115b5565b80603560008282546114999190611ecc565b90915550506001600160a01b03821660008181526033602090815260408083208054860190555184815260008051602061224d833981519152910160405180910390a35050565b6114e861171e565b6065805460ff191660011790557f62e78cea01bee320cd4e420270b5ea74000d11b0c9f74754ebdbfc544b05a2586114083390565b6001600160a01b03163b151590565b600054610100900460ff166115535760405162461bcd60e51b815260040161072390612082565b6107368282611764565b600054610100900460ff166115845760405162461bcd60e51b815260040161072390612082565b61158c6117b2565b565b600054610100900460ff1661158c5760405162461bcd60e51b815260040161072390612082565b6106b261171e565b6115c78282610a3e565b610736576115d4816117e5565b6115df8360206117f7565b6040516020016115f09291906120cd565b60408051601f198184030181529082905262461bcd60e51b825261072391600401611bf1565b61161f8161151d565b6116815760405162461bcd60e51b815260206004820152602d60248201527f455243313936373a206e657720696d706c656d656e746174696f6e206973206e60448201526c1bdd08184818dbdb9d1c9858dd609a1b6064820152608401610723565b6000805160206121c683398151915280546001600160a01b0319166001600160a01b0392909216919091179055565b6116b983611992565b6000825111806116c65750805b156106b257610f9383836119d2565b60655460ff1661158c5760405162461bcd60e51b815260206004820152601460248201527314185d5cd8589b194e881b9bdd081c185d5cd95960621b6044820152606401610723565b60655460ff161561158c5760405162461bcd60e51b815260206004820152601060248201526f14185d5cd8589b194e881c185d5cd95960821b6044820152606401610723565b600054610100900460ff1661178b5760405162461bcd60e51b815260040161072390612082565b815161179e906036906020850190611b02565b5080516106b2906037906020840190611b02565b600054610100900460ff166117d95760405162461bcd60e51b815260040161072390612082565b6065805460ff19169055565b60606105ab6001600160a01b03831660145b60606000611806836002612008565b611811906002611ecc565b6001600160401b0381111561182857611828611d06565b6040519080825280601f01601f191660200182016040528015611852576020820181803683370190505b509050600360fc1b8160008151811061186d5761186d61213c565b60200101906001600160f81b031916908160001a905350600f60fb1b8160018151811061189c5761189c61213c565b60200101906001600160f81b031916908160001a90535060006118c0846002612008565b6118cb906001611ecc565b90505b6001811115611943576f181899199a1a9b1b9c1cb0b131b232b360811b85600f16601081106118ff576118ff61213c565b1a60f81b8282815181106119155761191561213c565b60200101906001600160f81b031916908160001a90535060049490941c9361193c81612152565b90506118ce565b50831561067a5760405162461bcd60e51b815260206004820181905260248201527f537472696e67733a20686578206c656e67746820696e73756666696369656e746044820152606401610723565b61199b81611616565b6040516001600160a01b038216907fbc7cd75a20ee27fd9adebab32041f755214dbc6bffa90cc0225b39da2e5c2d3b90600090a250565b60606119dd8361151d565b611a385760405162461bcd60e51b815260206004820152602660248201527f416464726573733a2064656c65676174652063616c6c20746f206e6f6e2d636f6044820152651b9d1c9858dd60d21b6064820152608401610723565b600080846001600160a01b031684604051611a539190612169565b600060405180830381855af49150503d8060008114611a8e576040519150601f19603f3d011682016040523d82523d6000602084013e611a93565b606091505b5091509150611abb828260405180606001604052806027815260200161220660279139611ac4565b95945050505050565b60608315611ad357508161067a565b61067a8383815115611ae85781518083602001fd5b8060405162461bcd60e51b81526004016107239190611bf1565b828054611b0e90611e07565b90600052602060002090601f016020900481019282611b305760008555611b76565b82601f10611b4957805160ff1916838001178555611b76565b82800160010185558215611b76579182015b82811115611b76578251825591602001919060010190611b5b565b50611b82929150611b86565b5090565b5b80821115611b825760008155600101611b87565b600060208284031215611bad57600080fd5b81356001600160e01b03198116811461067a57600080fd5b60005b83811015611be0578181015183820152602001611bc8565b83811115610f935750506000910152565b6020815260008251806020840152611c10816040850160208701611bc5565b601f01601f19169190910160400192915050565b80356001600160a01b0381168114611c3b57600080fd5b919050565b60008060408385031215611c5357600080fd5b611c5c83611c24565b946020939093013593505050565b600080600060608486031215611c7f57600080fd5b611c8884611c24565b9250611c9660208501611c24565b9150604084013590509250925092565b600060208284031215611cb857600080fd5b5035919050565b60008060408385031215611cd257600080fd5b82359150611ce260208401611c24565b90509250929050565b600060208284031215611cfd57600080fd5b61067a82611c24565b634e487b7160e01b600052604160045260246000fd5b60008060408385031215611d2f57600080fd5b611d3883611c24565b915060208301356001600160401b0380821115611d5457600080fd5b818501915085601f830112611d6857600080fd5b813581811115611d7a57611d7a611d06565b604051601f8201601f19908116603f01168101908382118183101715611da257611da2611d06565b81604052828152886020848701011115611dbb57600080fd5b8260208601602083013760006020848301015280955050505050509250929050565b60008060408385031215611df057600080fd5b611df983611c24565b9150611ce260208401611c24565b600181811c90821680611e1b57607f821691505b60208210811415611e3c57634e487b7160e01b600052602260045260246000fd5b50919050565b6020808252602c9082015260008051602061218683398151915260408201526b19195b1959d85d1958d85b1b60a21b606082015260800190565b6020808252602c9082015260008051602061218683398151915260408201526b6163746976652070726f787960a01b606082015260800190565b634e487b7160e01b600052601160045260246000fd5b60008219821115611edf57611edf611eb6565b500190565b602080825260179082015276135a5b9d1a5b99c81b9bdd08185b1b1bddd959081e595d604a1b604082015260600190565b600181815b80851115611f50578160001904821115611f3657611f36611eb6565b80851615611f4357918102915b93841c9390800290611f1a565b509250929050565b600082611f67575060016105ab565b81611f74575060006105ab565b8160018114611f8a5760028114611f9457611fb0565b60019150506105ab565b60ff841115611fa557611fa5611eb6565b50506001821b6105ab565b5060208310610133831016604e8410600b8410161715611fd3575081810a6105ab565b611fdd8383611f15565b8060001904821115611ff157611ff1611eb6565b029392505050565b600061067a60ff841683611f58565b600081600019048311821515161561202257612022611eb6565b500290565b60008261204457634e487b7160e01b600052601260045260246000fd5b500490565b600060ff821660ff81141561206057612060611eb6565b60010192915050565b60006020828403121561207b57600080fd5b5051919050565b6020808252602b908201527f496e697469616c697a61626c653a20636f6e7472616374206973206e6f74206960408201526a6e697469616c697a696e6760a81b606082015260800190565b76020b1b1b2b9b9a1b7b73a3937b61d1030b1b1b7bab73a1604d1b8152600083516120ff816017850160208801611bc5565b7001034b99036b4b9b9b4b733903937b6329607d1b6017918401918201528351612130816028840160208801611bc5565b01602801949350505050565b634e487b7160e01b600052603260045260246000fd5b60008161216157612161611eb6565b506000190190565b6000825161217b818460208701611bc5565b919091019291505056fe46756e6374696f6e206d7573742062652063616c6c6564207468726f75676820189ab7a9244df0848122154315af71fe140f3db0fe014031783b0946b8c9d2e3360894a13ba1a3210667c828492db98dca3e2076cc3735a920a3ca505d382bbc65d7a28e3265b37a6474929f336521b332c1681b933f6cb9f3376673440d862a416464726573733a206c6f772d6c6576656c2064656c65676174652063616c6c206661696c65649f2df0fed2c77648de5860a4cc508cd0818c85b8b8a1ab4ceeef8d981c8956a6ddf252ad1be2c89b69c2b068fc378daa952ba7f163c4a11628f55a4df523b3efa26469706673582212204c3ce66523505787d0834e7711c343428cd07eb54162207419c7bdd85883b26664736f6c634300080b0033",
  "linkReferences": {},
  "deployedLinkReferences": {}
}