{
  "_format": "hh-sol-artifact-1",
  "contractName": "EqzAdapter",
  "sourceName": "contracts/adapters/EqzAdapter.sol",
  "abi": [
    {
      "anonymous": false,
      "inputs": [
        {
          "indexed": false,
          "internalType": "address",
          "name": "previousAdmin",
          "type": "address"
        },
        {
          "indexed": false,
          "internalType": "address",
          "name": "newAdmin",
          "type": "address"
        }
      ],
      "name": "AdminChanged",
      "type": "event"
    },
    {
      "anonymous": false,
      "inputs": [
        {
          "indexed": true,
          "internalType": "address",
          "name": "beacon",
          "type": "address"
        }
      ],
      "name": "BeaconUpgraded",
      "type": "event"
    },
    {
      "anonymous": false,
      "inputs": [
        {
          "indexed": false,
          "internalType": "uint8",
          "name": "version",
          "type": "uint8"
        }
      ],
      "name": "Initialized",
      "type": "event"
    },
    {
      "anonymous": false,
      "inputs": [
        {
          "indexed": true,
          "internalType": "bytes32",
          "name": "role",
          "type": "bytes32"
        },
        {
          "indexed": true,
          "internalType": "bytes32",
          "name": "previousAdminRole",
          "type": "bytes32"
        },
        {
          "indexed": true,
          "internalType": "bytes32",
          "name": "newAdminRole",
          "type": "bytes32"
        }
      ],
      "name": "RoleAdminChanged",
      "type": "event"
    },
    {
      "anonymous": false,
      "inputs": [
        {
          "indexed": true,
          "internalType": "bytes32",
          "name": "role",
          "type": "bytes32"
        },
        {
          "indexed": true,
          "internalType": "address",
          "name": "account",
          "type": "address"
        },
        {
          "indexed": true,
          "internalType": "address",
          "name": "sender",
          "type": "address"
        }
      ],
      "name": "RoleGranted",
      "type": "event"
    },
    {
      "anonymous": false,
      "inputs": [
        {
          "indexed": true,
          "internalType": "bytes32",
          "name": "role",
          "type": "bytes32"
        },
        {
          "indexed": true,
          "internalType": "address",
          "name": "account",
          "type": "address"
        },
        {
          "indexed": true,
          "internalType": "address",
          "name": "sender",
          "type": "address"
        }
      ],
      "name": "RoleRevoked",
      "type": "event"
    },
    {
      "anonymous": false,
      "inputs": [
        {
          "indexed": true,
          "internalType": "address",
          "name": "implementation",
          "type": "address"
        }
      ],
      "name": "Upgraded",
      "type": "event"
    },
    {
      "anonymous": false,
      "inputs": [
        {
          "indexed": false,
          "internalType": "address",
          "name": "new_handler",
          "type": "address"
        }
      ],
      "name": "newLiquidityHandler",
      "type": "event"
    },
    {
      "anonymous": false,
      "inputs": [
        {
          "indexed": false,
          "internalType": "address",
          "name": "new_treasury",
          "type": "address"
        }
      ],
      "name": "newTreasury",
      "type": "event"
    },
    {
      "anonymous": false,
      "inputs": [
        {
          "indexed": true,
          "internalType": "address",
          "name": "user",
          "type": "address"
        },
        {
          "indexed": true,
          "internalType": "address",
          "name": "token",
          "type": "address"
        },
        {
          "indexed": false,
          "internalType": "uint256",
          "name": "amount",
          "type": "uint256"
        }
      ],
      "name": "removeToken",
      "type": "event"
    },
    {
      "stateMutability": "payable",
      "type": "fallback"
    },
    {
      "inputs": [],
      "name": "DEFAULT_ADMIN_ROLE",
      "outputs": [
        {
          "internalType": "bytes32",
          "name": "",
          "type": "bytes32"
        }
      ],
      "stateMutability": "view",
      "type": "function"
    },
    {
      "inputs": [],
      "name": "HANDLER_ROLE",
      "outputs": [
        {
          "internalType": "bytes32",
          "name": "",
          "type": "bytes32"
        }
      ],
      "stateMutability": "view",
      "type": "function"
    },
    {
      "inputs": [],
      "name": "UPGRADER_ROLE",
      "outputs": [
        {
          "internalType": "bytes32",
          "name": "",
          "type": "bytes32"
        }
      ],
      "stateMutability": "view",
      "type": "function"
    },
    {
      "inputs": [
        {
          "internalType": "bool",
          "name": "_status",
          "type": "bool"
        }
      ],
      "name": "changeUpgradeStatus",
      "outputs": [],
      "stateMutability": "nonpayable",
      "type": "function"
    },
    {
      "inputs": [],
      "name": "claimReward",
      "outputs": [],
      "stateMutability": "nonpayable",
      "type": "function"
    },
    {
      "inputs": [
        {
          "internalType": "address",
          "name": "_token",
          "type": "address"
        },
        {
          "internalType": "uint256",
          "name": "_amount",
          "type": "uint256"
        }
      ],
      "name": "deposit",
      "outputs": [],
      "stateMutability": "nonpayable",
      "type": "function"
    },
    {
      "inputs": [
        {
          "internalType": "uint256",
          "name": "_amount",
          "type": "uint256"
        }
      ],
      "name": "depositMLPVault",
      "outputs": [],
      "stateMutability": "nonpayable",
      "type": "function"
    },
    {
      "inputs": [],
      "name": "eqzGauge_address",
      "outputs": [
        {
          "internalType": "address",
          "name": "",
          "type": "address"
        }
      ],
      "stateMutability": "view",
      "type": "function"
    },
    {
      "inputs": [],
      "name": "gauge_tokenId",
      "outputs": [
        {
          "internalType": "uint256",
          "name": "",
          "type": "uint256"
        }
      ],
      "stateMutability": "view",
      "type": "function"
    },
    {
      "inputs": [],
      "name": "getAdapterAmount",
      "outputs": [
        {
          "internalType": "uint256[]",
          "name": "",
          "type": "uint256[]"
        }
      ],
      "stateMutability": "nonpayable",
      "type": "function"
    },
    {
      "inputs": [],
      "name": "getEqzTokenId",
      "outputs": [
        {
          "internalType": "uint256",
          "name": "",
          "type": "uint256"
        }
      ],
      "stateMutability": "nonpayable",
      "type": "function"
    },
    {
      "inputs": [
        {
          "internalType": "bytes32",
          "name": "role",
          "type": "bytes32"
        }
      ],
      "name": "getRoleAdmin",
      "outputs": [
        {
          "internalType": "bytes32",
          "name": "",
          "type": "bytes32"
        }
      ],
      "stateMutability": "view",
      "type": "function"
    },
    {
      "inputs": [
        {
          "internalType": "bytes32",
          "name": "role",
          "type": "bytes32"
        },
        {
          "internalType": "address",
          "name": "account",
          "type": "address"
        }
      ],
      "name": "grantRole",
      "outputs": [],
      "stateMutability": "nonpayable",
      "type": "function"
    },
    {
      "inputs": [
        {
          "internalType": "bytes32",
          "name": "role",
          "type": "bytes32"
        },
        {
          "internalType": "address",
          "name": "account",
          "type": "address"
        }
      ],
      "name": "hasRole",
      "outputs": [
        {
          "internalType": "bool",
          "name": "",
          "type": "bool"
        }
      ],
      "stateMutability": "view",
      "type": "function"
    },
    {
      "inputs": [
        {
          "internalType": "address",
          "name": "_treasury",
          "type": "address"
        },
        {
          "internalType": "address",
          "name": "_handlerAddress",
          "type": "address"
        },
        {
          "internalType": "address",
          "name": "_stacking_token",
          "type": "address"
        },
        {
          "internalType": "address",
          "name": "_multiSigWallet",
          "type": "address"
        },
        {
          "internalType": "address",
          "name": "_eqzGauge_address",
          "type": "address"
        }
      ],
      "name": "initialize",
      "outputs": [],
      "stateMutability": "nonpayable",
      "type": "function"
    },
    {
      "inputs": [],
      "name": "liquidity_handler",
      "outputs": [
        {
          "internalType": "address",
          "name": "",
          "type": "address"
        }
      ],
      "stateMutability": "view",
      "type": "function"
    },
    {
      "inputs": [],
      "name": "proxiableUUID",
      "outputs": [
        {
          "internalType": "bytes32",
          "name": "",
          "type": "bytes32"
        }
      ],
      "stateMutability": "view",
      "type": "function"
    },
    {
      "inputs": [
        {
          "internalType": "address",
          "name": "_address",
          "type": "address"
        },
        {
          "internalType": "address",
          "name": "_to",
          "type": "address"
        },
        {
          "internalType": "uint256",
          "name": "_amount",
          "type": "uint256"
        }
      ],
      "name": "removeTokenByAddress",
      "outputs": [],
      "stateMutability": "nonpayable",
      "type": "function"
    },
    {
      "inputs": [
        {
          "internalType": "bytes32",
          "name": "role",
          "type": "bytes32"
        },
        {
          "internalType": "address",
          "name": "account",
          "type": "address"
        }
      ],
      "name": "renounceRole",
      "outputs": [],
      "stateMutability": "nonpayable",
      "type": "function"
    },
    {
      "inputs": [
        {
          "internalType": "bytes32",
          "name": "role",
          "type": "bytes32"
        },
        {
          "internalType": "address",
          "name": "account",
          "type": "address"
        }
      ],
      "name": "revokeRole",
      "outputs": [],
      "stateMutability": "nonpayable",
      "type": "function"
    },
    {
      "inputs": [
        {
          "internalType": "bool",
          "name": "_status",
          "type": "bool"
        }
      ],
      "name": "setCompoundRewardStatus",
      "outputs": [],
      "stateMutability": "nonpayable",
      "type": "function"
    },
    {
      "inputs": [
        {
          "internalType": "address",
          "name": "_newHandler",
          "type": "address"
        }
      ],
      "name": "setLiquidityHandler",
      "outputs": [],
      "stateMutability": "nonpayable",
      "type": "function"
    },
    {
      "inputs": [
        {
          "internalType": "address",
          "name": "_newAddress",
          "type": "address"
        }
      ],
      "name": "setNewGaugeAddress",
      "outputs": [],
      "stateMutability": "nonpayable",
      "type": "function"
    },
    {
      "inputs": [],
      "name": "setNewGaugeTokenId",
      "outputs": [],
      "stateMutability": "nonpayable",
      "type": "function"
    },
    {
      "inputs": [
        {
          "internalType": "address",
          "name": "_newWallet",
          "type": "address"
        }
      ],
      "name": "setNewTreasury",
      "outputs": [],
      "stateMutability": "nonpayable",
      "type": "function"
    },
    {
      "inputs": [
        {
          "internalType": "uint64",
          "name": "_newSlippage",
          "type": "uint64"
        }
      ],
      "name": "setSlippage",
      "outputs": [],
      "stateMutability": "nonpayable",
      "type": "function"
    },
    {
      "inputs": [],
      "name": "stacking_token",
      "outputs": [
        {
          "internalType": "address",
          "name": "",
          "type": "address"
        }
      ],
      "stateMutability": "view",
      "type": "function"
    },
    {
      "inputs": [
        {
          "internalType": "bytes4",
          "name": "interfaceId",
          "type": "bytes4"
        }
      ],
      "name": "supportsInterface",
      "outputs": [
        {
          "internalType": "bool",
          "name": "",
          "type": "bool"
        }
      ],
      "stateMutability": "view",
      "type": "function"
    },
    {
      "inputs": [
        {
          "internalType": "uint256",
          "name": "_amount",
          "type": "uint256"
        }
      ],
      "name": "transferAdapterFTM",
      "outputs": [],
      "stateMutability": "nonpayable",
      "type": "function"
    },
    {
      "inputs": [],
      "name": "treasury",
      "outputs": [
        {
          "internalType": "address",
          "name": "",
          "type": "address"
        }
      ],
      "stateMutability": "view",
      "type": "function"
    },
    {
      "inputs": [],
      "name": "upgradeStatus",
      "outputs": [
        {
          "internalType": "bool",
          "name": "",
          "type": "bool"
        }
      ],
      "stateMutability": "view",
      "type": "function"
    },
    {
      "inputs": [
        {
          "internalType": "address",
          "name": "newImplementation",
          "type": "address"
        }
      ],
      "name": "upgradeTo",
      "outputs": [],
      "stateMutability": "nonpayable",
      "type": "function"
    },
    {
      "inputs": [
        {
          "internalType": "address",
          "name": "newImplementation",
          "type": "address"
        },
        {
          "internalType": "bytes",
          "name": "data",
          "type": "bytes"
        }
      ],
      "name": "upgradeToAndCall",
      "outputs": [],
      "stateMutability": "payable",
      "type": "function"
    },
    {
      "inputs": [
        {
          "internalType": "address",
          "name": "_user",
          "type": "address"
        },
        {
          "internalType": "address",
          "name": "_token",
          "type": "address"
        },
        {
          "internalType": "uint256",
          "name": "_full_amout",
          "type": "uint256"
        },
        {
          "internalType": "uint256",
          "name": "_deducted_amount",
          "type": "uint256"
        },
        {
          "internalType": "uint256",
          "name": "_fees",
          "type": "uint256"
        }
      ],
      "name": "withdraw",
      "outputs": [],
      "stateMutability": "nonpayable",
      "type": "function"
    },
    {
      "stateMutability": "payable",
      "type": "receive"
    }
  ],
  "bytecode": "0x60a06040523060805234801561001457600080fd5b5060805161239661004c600039600081816109f601528181610a3601528181610c2701528181610c670152610cdf01526123966000f3fe6080604052600436106101895760003560e01c8062fc40c21461019257806301ffc9a7146101c8578063024a8ec6146101f85780630c60661c146102185780631459457a1461023b5780631ddbddd61461025b578063248a9ca31461027b5780632f2ff15d1461029b57806331d99a64146102bb57806336568abe146102db5780633659cfe6146102fb57806340839f6a1461031b57806347e7ef24146103365780634db860a2146103565780634f1ef2861461037857806352d1902d1461038b5780635874adec146103a05780635e037de6146103c057806361d027b3146103db5780636465f04a146103fb57806372a30e301461041b578063762347591461043157806376ca2b8b146104515780637afa9e9c146104765780638f9a372d1461049857806391d14854146104b8578063a217fddf146104d8578063b88a802f146104ed578063d4d543c514610502578063d547741f1461051c578063d6bbb6be1461053c578063d701f5231461055c578063f605b8f71461057c578063f72c0d8b1461059157005b3661019057005b005b34801561019e57600080fd5b5060fe546101b2906001600160a01b031681565b6040516101bf9190611bef565b60405180910390f35b3480156101d457600080fd5b506101e86101e3366004611c03565b6105b3565b60405190151581526020016101bf565b34801561020457600080fd5b5060fc546101b2906001600160a01b031681565b34801561022457600080fd5b5061022d6105ea565b6040519081526020016101bf565b34801561024757600080fd5b50610190610256366004611c42565b61066b565b34801561026757600080fd5b50610190610276366004611cb3565b610855565b34801561028757600080fd5b5061022d610296366004611cd0565b61092c565b3480156102a757600080fd5b506101906102b6366004611ce9565b610941565b3480156102c757600080fd5b506101906102d6366004611d27565b610962565b3480156102e757600080fd5b506101906102f6366004611ce9565b610971565b34801561030757600080fd5b50610190610316366004611cb3565b6109eb565b34801561032757600080fd5b506101906102d6366004611cd0565b34801561034257600080fd5b50610190610351366004611d44565b610ab4565b34801561036257600080fd5b5061036b610b42565b6040516101bf9190611d70565b610190610386366004611dfa565b610c1c565b34801561039757600080fd5b5061022d610cd2565b3480156103ac57600080fd5b506101906103bb366004611cd0565b610d80565b3480156103cc57600080fd5b506101906102d6366004611ea1565b3480156103e757600080fd5b5060fd546101b2906001600160a01b031681565b34801561040757600080fd5b50610190610416366004611eca565b610dc5565b34801561042757600080fd5b5061022d60ff5481565b34801561043d57600080fd5b5061019061044c366004611f0b565b610e37565b34801561045d57600080fd5b5060fb546101b29061010090046001600160a01b031681565b34801561048257600080fd5b5061022d6000805160206122ba83398151915281565b3480156104a457600080fd5b506101906104b3366004611cb3565b610ef7565b3480156104c457600080fd5b506101e86104d3366004611ce9565b610f4d565b3480156104e457600080fd5b5061022d600081565b3480156104f957600080fd5b50610190610f78565b34801561050e57600080fd5b5060fb546101e89060ff1681565b34801561052857600080fd5b50610190610537366004611ce9565b61104d565b34801561054857600080fd5b50610190610557366004611cb3565b611069565b34801561056857600080fd5b50610190610577366004611d27565b611106565b34801561058857600080fd5b50610190611125565b34801561059d57600080fd5b5061022d6000805160206122fa83398151915281565b60006001600160e01b03198216637965db0b60e01b14806105e457506301ffc9a760e01b6001600160e01b03198316145b92915050565b60fe5460fc5460405163fc97a30360e01b81526000926001600160a01b0390811692839263fc97a30392610622921690600401611bef565b6020604051808303816000875af1158015610641573d6000803e3d6000fd5b505050506040513d601f19601f820116820180604052508101906106659190611f5c565b91505090565b600054610100900460ff161580801561068b5750600054600160ff909116105b806106ac575061069a306111ad565b1580156106ac575060005460ff166001145b6107145760405162461bcd60e51b815260206004820152602e60248201527f496e697469616c697a61626c653a20636f6e747261637420697320616c72656160448201526d191e481a5b9a5d1a585b1a5e995960921b60648201526084015b60405180910390fd5b6000805460ff191660011790558015610737576000805461ff0019166101001790555b61073f6111bc565b6107476111bc565b610759856001600160a01b03166111ad565b6107755760405162461bcd60e51b815260040161070b90611f75565b610780600084611229565b6107986000805160206122fa83398151915284611229565b6107b06000805160206122ba83398151915286611229565b60fd80546001600160a01b03199081166001600160a01b038981169190911790925560fb8054610100600160a81b0319166101008985160217905560fc8054821687841617905560fe8054909116918416919091179055801561084d576000805461ff0019169055604051600181527f7f26b83ff96e1f2b6a682f133852f6798a09c465da95921460cefb38474024989060200160405180910390a15b505050505050565b6000610860816112af565b610872826001600160a01b03166111ad565b61088e5760405162461bcd60e51b815260040161070b90611f75565b60fb546108b8906000805160206122ba8339815191529061010090046001600160a01b03166112b9565b6108d06000805160206122ba83398151915283611229565b60fb8054610100600160a81b0319166101006001600160a01b038516021790556040517f58caa9895063fc33d67854b32ed152147ad3a370ebf6f9f9c8b538bc039a87b290610920908490611bef565b60405180910390a15050565b60009081526065602052604090206001015490565b61094a8261092c565b610953816112af565b61095d8383611229565b505050565b600061096d816112af565b5050565b6001600160a01b03811633146109e15760405162461bcd60e51b815260206004820152602f60248201527f416363657373436f6e74726f6c3a2063616e206f6e6c792072656e6f756e636560448201526e103937b632b9903337b91039b2b63360891b606482015260840161070b565b61096d82826112b9565b306001600160a01b037f0000000000000000000000000000000000000000000000000000000000000000161415610a345760405162461bcd60e51b815260040161070b90611fb7565b7f00000000000000000000000000000000000000000000000000000000000000006001600160a01b0316610a66611320565b6001600160a01b031614610a8c5760405162461bcd60e51b815260040161070b90611ff1565b610a958161133c565b60408051600080825260208201909252610ab1918391906113b3565b50565b6000805160206122ba833981519152610acc816112af565b60fe5460ff54604051631c57762b60e31b81526001600160a01b0390921691829163e2bbb15891610b0a918791600401918252602082015260400190565b600060405180830381600087803b158015610b2457600080fd5b505af1158015610b38573d6000803e3d6000fd5b5050505050505050565b60408051600480825260a0820190925260609160009190602082016080803683370190505090504781600081518110610b7d57610b7d61202b565b602090810291909101015260fc546040516370a0823160e01b81526001600160a01b03909116906370a0823190610bb8903090600401611bef565b602060405180830381865afa158015610bd5573d6000803e3d6000fd5b505050506040513d601f19601f82011682018060405250810190610bf99190611f5c565b81600181518110610c0c57610c0c61202b565b6020908102919091010152919050565b306001600160a01b037f0000000000000000000000000000000000000000000000000000000000000000161415610c655760405162461bcd60e51b815260040161070b90611fb7565b7f00000000000000000000000000000000000000000000000000000000000000006001600160a01b0316610c97611320565b6001600160a01b031614610cbd5760405162461bcd60e51b815260040161070b90611ff1565b610cc68261133c565b61096d828260016113b3565b6000306001600160a01b037f00000000000000000000000000000000000000000000000000000000000000001614610d6d5760405162461bcd60e51b815260206004820152603860248201527f555550535570677261646561626c653a206d757374206e6f742062652063616c6044820152771b1959081d1a1c9bdd59da0819195b1959d85d1958d85b1b60421b606482015260840161070b565b5060008051602061231a83398151915290565b6000610d8b816112af565b60fd546040516001600160a01b039091169083156108fc029084906000818181858888f1935050505015801561095d573d6000803e3d6000fd5b6000610dd0816112af565b610de46001600160a01b038516848461151e565b836001600160a01b0316836001600160a01b03167f84f3859b7a4c4c1b17f558b22446c3394e48c551005072107bbbc4602235d5e784604051610e2991815260200190565b60405180910390a350505050565b6000805160206122ba833981519152610e4f816112af565b60fe5460ff5460405163fdb483c760e01b81526001600160a01b0390921691829163fdb483c791610e8d918991600401918252602082015260400190565b600060405180830381600087803b158015610ea757600080fd5b505af1158015610ebb573d6000803e3d6000fd5b50610ed4925050506001600160a01b038716888661151e565b60fd54610eee906001600160a01b0388811691168561151e565b50505050505050565b6000610f02816112af565b60fd80546001600160a01b0319166001600160a01b0384161790556040517f9718b5244d3f4d64362bafb32dbe20bedaaca6ba196703cbd27f8256959f278690610920908490611bef565b60009182526065602090815260408084206001600160a01b0393909316845291905290205460ff1690565b6000610f83816112af565b60fe54604080516327b16a2560e21b815290516001600160a01b039092169182916331279d3d9130918491639ec5a89491600480820192600092909190829003018183875af1158015610fda573d6000803e3d6000fd5b505050506040513d6000823e601f3d908101601f191682016040526110029190810190612041565b6040518363ffffffff1660e01b815260040161101f9291906120f2565b600060405180830381600087803b15801561103957600080fd5b505af115801561084d573d6000803e3d6000fd5b6110568261092c565b61105f816112af565b61095d83836112b9565b6000611074816112af565b611086826001600160a01b03166111ad565b6110e35760405162461bcd60e51b815260206004820152602860248201527f45515a2041646170746572203a2047617567652041646472657373204e6f742060448201526718dbdb9d1c9858dd60c21b606482015260840161070b565b5060fe80546001600160a01b0319166001600160a01b0392909216919091179055565b6000611111816112af565b5060fb805460ff1916911515919091179055565b6000611130816112af565b60fe5460fc5460405163fc97a30360e01b81526001600160a01b039283169263fc97a3039261116492911690600401611bef565b6020604051808303816000875af1158015611183573d6000803e3d6000fd5b505050506040513d601f19601f820116820180604052508101906111a79190611f5c565b60ff5550565b6001600160a01b03163b151590565b600054610100900460ff166112275760405162461bcd60e51b815260206004820152602b60248201527f496e697469616c697a61626c653a20636f6e7472616374206973206e6f74206960448201526a6e697469616c697a696e6760a81b606482015260840161070b565b565b6112338282610f4d565b61096d5760008281526065602090815260408083206001600160a01b03851684529091529020805460ff1916600117905561126b3390565b6001600160a01b0316816001600160a01b0316837f2f8788117e7eff1d82e926ec794901d17c78024a50270940304540a733656f0d60405160405180910390a45050565b610ab18133611570565b6112c38282610f4d565b1561096d5760008281526065602090815260408083206001600160a01b0385168085529252808320805460ff1916905551339285917ff6391f5c32d9c69d2a47ea670b442974b53935d1edc7fd64eb21e047a839171b9190a45050565b60008051602061231a833981519152546001600160a01b031690565b6000805160206122fa833981519152611354816112af565b60fb5460ff166113a55760405162461bcd60e51b815260206004820152601c60248201527b12185b991b195c8e88155c19dc985919481b9bdd08185b1b1bddd95960221b604482015260640161070b565b505060fb805460ff19169055565b7f4910fdfa16fed3260ed0e7147f7cc6da11a60208b5b9406d12a635614ffd91435460ff16156113e65761095d836115c9565b826001600160a01b03166352d1902d6040518163ffffffff1660e01b8152600401602060405180830381865afa925050508015611440575060408051601f3d908101601f1916820190925261143d91810190611f5c565b60015b6114a35760405162461bcd60e51b815260206004820152602e60248201527f45524331393637557067726164653a206e657720696d706c656d656e7461746960448201526d6f6e206973206e6f74205555505360901b606482015260840161070b565b60008051602061231a83398151915281146115125760405162461bcd60e51b815260206004820152602960248201527f45524331393637557067726164653a20756e737570706f727465642070726f786044820152681a58589b195555525160ba1b606482015260840161070b565b5061095d838383611663565b604080516001600160a01b038416602482015260448082018490528251808303909101815260649091019091526020810180516001600160e01b031663a9059cbb60e01b17905261095d90849061168e565b61157a8282610f4d565b61096d5761158781611760565b611592836020611772565b6040516020016115a392919061217a565b60408051601f198184030181529082905262461bcd60e51b825261070b916004016121e9565b6115d2816111ad565b6116345760405162461bcd60e51b815260206004820152602d60248201527f455243313936373a206e657720696d706c656d656e746174696f6e206973206e60448201526c1bdd08184818dbdb9d1c9858dd609a1b606482015260840161070b565b60008051602061231a83398151915280546001600160a01b0319166001600160a01b0392909216919091179055565b61166c83611914565b6000825111806116795750805b1561095d576116888383611954565b50505050565b60006116e3826040518060400160405280602081526020017f5361666545524332303a206c6f772d6c6576656c2063616c6c206661696c6564815250856001600160a01b0316611a469092919063ffffffff16565b80519091501561095d5780806020019051810190611701919061221c565b61095d5760405162461bcd60e51b815260206004820152602a60248201527f5361666545524332303a204552433230206f7065726174696f6e20646964206e6044820152691bdd081cdd58d8d9595960b21b606482015260840161070b565b60606105e46001600160a01b03831660145b6060600061178183600261224f565b61178c90600261226e565b6001600160401b038111156117a3576117a3611db4565b6040519080825280601f01601f1916602001820160405280156117cd576020820181803683370190505b509050600360fc1b816000815181106117e8576117e861202b565b60200101906001600160f81b031916908160001a905350600f60fb1b816001815181106118175761181761202b565b60200101906001600160f81b031916908160001a905350600061183b84600261224f565b61184690600161226e565b90505b60018111156118be576f181899199a1a9b1b9c1cb0b131b232b360811b85600f166010811061187a5761187a61202b565b1a60f81b8282815181106118905761189061202b565b60200101906001600160f81b031916908160001a90535060049490941c936118b781612286565b9050611849565b50831561190d5760405162461bcd60e51b815260206004820181905260248201527f537472696e67733a20686578206c656e67746820696e73756666696369656e74604482015260640161070b565b9392505050565b61191d816115c9565b6040516001600160a01b038216907fbc7cd75a20ee27fd9adebab32041f755214dbc6bffa90cc0225b39da2e5c2d3b90600090a250565b606061195f836111ad565b6119ba5760405162461bcd60e51b815260206004820152602660248201527f416464726573733a2064656c65676174652063616c6c20746f206e6f6e2d636f6044820152651b9d1c9858dd60d21b606482015260840161070b565b600080846001600160a01b0316846040516119d5919061229d565b600060405180830381855af49150503d8060008114611a10576040519150601f19603f3d011682016040523d82523d6000602084013e611a15565b606091505b5091509150611a3d828260405180606001604052806027815260200161233a60279139611a5d565b95945050505050565b6060611a558484600085611a76565b949350505050565b60608315611a6c57508161190d565b61190d8383611b51565b606082471015611ad75760405162461bcd60e51b815260206004820152602660248201527f416464726573733a20696e73756666696369656e742062616c616e636520666f6044820152651c8818d85b1b60d21b606482015260840161070b565b600080866001600160a01b03168587604051611af3919061229d565b60006040518083038185875af1925050503d8060008114611b30576040519150601f19603f3d011682016040523d82523d6000602084013e611b35565b606091505b5091509150611b4687838387611b7b565b979650505050505050565b815115611b615781518083602001fd5b8060405162461bcd60e51b815260040161070b91906121e9565b60608315611be5578251611bde57611b92856111ad565b611bde5760405162461bcd60e51b815260206004820152601d60248201527f416464726573733a2063616c6c20746f206e6f6e2d636f6e7472616374000000604482015260640161070b565b5081611a55565b611a558383611b51565b6001600160a01b0391909116815260200190565b600060208284031215611c1557600080fd5b81356001600160e01b03198116811461190d57600080fd5b6001600160a01b0381168114610ab157600080fd5b600080600080600060a08688031215611c5a57600080fd5b8535611c6581611c2d565b94506020860135611c7581611c2d565b93506040860135611c8581611c2d565b92506060860135611c9581611c2d565b91506080860135611ca581611c2d565b809150509295509295909350565b600060208284031215611cc557600080fd5b813561190d81611c2d565b600060208284031215611ce257600080fd5b5035919050565b60008060408385031215611cfc57600080fd5b823591506020830135611d0e81611c2d565b809150509250929050565b8015158114610ab157600080fd5b600060208284031215611d3957600080fd5b813561190d81611d19565b60008060408385031215611d5757600080fd5b8235611d6281611c2d565b946020939093013593505050565b6020808252825182820181905260009190848201906040850190845b81811015611da857835183529284019291840191600101611d8c565b50909695505050505050565b634e487b7160e01b600052604160045260246000fd5b604051601f8201601f191681016001600160401b0381118282101715611df257611df2611db4565b604052919050565b60008060408385031215611e0d57600080fd5b8235611e1881611c2d565b91506020838101356001600160401b0380821115611e3557600080fd5b818601915086601f830112611e4957600080fd5b813581811115611e5b57611e5b611db4565b611e6d601f8201601f19168501611dca565b91508082528784828501011115611e8357600080fd5b80848401858401376000848284010152508093505050509250929050565b600060208284031215611eb357600080fd5b81356001600160401b038116811461190d57600080fd5b600080600060608486031215611edf57600080fd5b8335611eea81611c2d565b92506020840135611efa81611c2d565b929592945050506040919091013590565b600080600080600060a08688031215611f2357600080fd5b8535611f2e81611c2d565b94506020860135611f3e81611c2d565b94979496505050506040830135926060810135926080909101359150565b600060208284031215611f6e57600080fd5b5051919050565b60208082526022908201527f45515a2041646170746572203a2048616e646c6572204e6f7420636f6e74726160408201526118dd60f21b606082015260800190565b6020808252602c908201526000805160206122da83398151915260408201526b19195b1959d85d1958d85b1b60a21b606082015260800190565b6020808252602c908201526000805160206122da83398151915260408201526b6163746976652070726f787960a01b606082015260800190565b634e487b7160e01b600052603260045260246000fd5b6000602080838503121561205457600080fd5b82516001600160401b038082111561206b57600080fd5b818501915085601f83011261207f57600080fd5b81518181111561209157612091611db4565b8060051b91506120a2848301611dca565b81815291830184019184810190888411156120bc57600080fd5b938501935b838510156120e657845192506120d683611c2d565b82825293850193908501906120c1565b98975050505050505050565b6001600160a01b038381168252604060208084018290528451918401829052600092858201929091906060860190855b81811015612140578551851683529483019491830191600101612122565b509098975050505050505050565b60005b83811015612169578181015183820152602001612151565b838111156116885750506000910152565b76020b1b1b2b9b9a1b7b73a3937b61d1030b1b1b7bab73a1604d1b8152600083516121ac81601785016020880161214e565b7001034b99036b4b9b9b4b733903937b6329607d1b60179184019182015283516121dd81602884016020880161214e565b01602801949350505050565b602081526000825180602084015261220881604085016020870161214e565b601f01601f19169190910160400192915050565b60006020828403121561222e57600080fd5b815161190d81611d19565b634e487b7160e01b600052601160045260246000fd5b600081600019048311821515161561226957612269612239565b500290565b6000821982111561228157612281612239565b500190565b60008161229557612295612239565b506000190190565b600082516122af81846020870161214e565b919091019291505056fe8ee6ed50dc250dbccf4d86bd88d4956ab55c7de37d1fed5508924b70da11fe8b46756e6374696f6e206d7573742062652063616c6c6564207468726f75676820189ab7a9244df0848122154315af71fe140f3db0fe014031783b0946b8c9d2e3360894a13ba1a3210667c828492db98dca3e2076cc3735a920a3ca505d382bbc416464726573733a206c6f772d6c6576656c2064656c65676174652063616c6c206661696c6564a2646970667358221220eb7463b4735965c20b020ded90f74d7d913c6ec78b9af0f42da4a1ea5fefcff864736f6c634300080b0033",
  "linkReferences": {},
  "deployedLinkReferences": {}
}