{
  "_format": "hh-sol-artifact-1",
  "contractName": "EqzAdapter",
  "sourceName": "contracts/adapters/EqzAdapter.sol",
  "abi": [
    {
      "anonymous": false,
      "inputs": [
        {
          "indexed": false,
          "internalType": "address",
          "name": "previousAdmin",
          "type": "address"
        },
        {
          "indexed": false,
          "internalType": "address",
          "name": "newAdmin",
          "type": "address"
        }
      ],
      "name": "AdminChanged",
      "type": "event"
    },
    {
      "anonymous": false,
      "inputs": [
        {
          "indexed": true,
          "internalType": "address",
          "name": "beacon",
          "type": "address"
        }
      ],
      "name": "BeaconUpgraded",
      "type": "event"
    },
    {
      "anonymous": false,
      "inputs": [
        {
          "indexed": false,
          "internalType": "uint8",
          "name": "version",
          "type": "uint8"
        }
      ],
      "name": "Initialized",
      "type": "event"
    },
    {
      "anonymous": false,
      "inputs": [
        {
          "indexed": true,
          "internalType": "bytes32",
          "name": "role",
          "type": "bytes32"
        },
        {
          "indexed": true,
          "internalType": "bytes32",
          "name": "previousAdminRole",
          "type": "bytes32"
        },
        {
          "indexed": true,
          "internalType": "bytes32",
          "name": "newAdminRole",
          "type": "bytes32"
        }
      ],
      "name": "RoleAdminChanged",
      "type": "event"
    },
    {
      "anonymous": false,
      "inputs": [
        {
          "indexed": true,
          "internalType": "bytes32",
          "name": "role",
          "type": "bytes32"
        },
        {
          "indexed": true,
          "internalType": "address",
          "name": "account",
          "type": "address"
        },
        {
          "indexed": true,
          "internalType": "address",
          "name": "sender",
          "type": "address"
        }
      ],
      "name": "RoleGranted",
      "type": "event"
    },
    {
      "anonymous": false,
      "inputs": [
        {
          "indexed": true,
          "internalType": "bytes32",
          "name": "role",
          "type": "bytes32"
        },
        {
          "indexed": true,
          "internalType": "address",
          "name": "account",
          "type": "address"
        },
        {
          "indexed": true,
          "internalType": "address",
          "name": "sender",
          "type": "address"
        }
      ],
      "name": "RoleRevoked",
      "type": "event"
    },
    {
      "anonymous": false,
      "inputs": [
        {
          "indexed": true,
          "internalType": "address",
          "name": "implementation",
          "type": "address"
        }
      ],
      "name": "Upgraded",
      "type": "event"
    },
    {
      "anonymous": false,
      "inputs": [
        {
          "indexed": false,
          "internalType": "address",
          "name": "new_handler",
          "type": "address"
        }
      ],
      "name": "newLiquidityHandler",
      "type": "event"
    },
    {
      "anonymous": false,
      "inputs": [
        {
          "indexed": false,
          "internalType": "address",
          "name": "new_treasury",
          "type": "address"
        }
      ],
      "name": "newTreasury",
      "type": "event"
    },
    {
      "anonymous": false,
      "inputs": [
        {
          "indexed": true,
          "internalType": "address",
          "name": "user",
          "type": "address"
        },
        {
          "indexed": true,
          "internalType": "address",
          "name": "token",
          "type": "address"
        },
        {
          "indexed": false,
          "internalType": "uint256",
          "name": "amount",
          "type": "uint256"
        }
      ],
      "name": "removeToken",
      "type": "event"
    },
    {
      "stateMutability": "payable",
      "type": "fallback"
    },
    {
      "inputs": [],
      "name": "DEFAULT_ADMIN_ROLE",
      "outputs": [
        {
          "internalType": "bytes32",
          "name": "",
          "type": "bytes32"
        }
      ],
      "stateMutability": "view",
      "type": "function"
    },
    {
      "inputs": [],
      "name": "HANDLER_ROLE",
      "outputs": [
        {
          "internalType": "bytes32",
          "name": "",
          "type": "bytes32"
        }
      ],
      "stateMutability": "view",
      "type": "function"
    },
    {
      "inputs": [],
      "name": "UPGRADER_ROLE",
      "outputs": [
        {
          "internalType": "bytes32",
          "name": "",
          "type": "bytes32"
        }
      ],
      "stateMutability": "view",
      "type": "function"
    },
    {
      "inputs": [
        {
          "internalType": "bool",
          "name": "_status",
          "type": "bool"
        }
      ],
      "name": "changeUpgradeStatus",
      "outputs": [],
      "stateMutability": "nonpayable",
      "type": "function"
    },
    {
      "inputs": [],
      "name": "claimReward",
      "outputs": [],
      "stateMutability": "nonpayable",
      "type": "function"
    },
    {
      "inputs": [],
      "name": "compoundRewardStatus",
      "outputs": [
        {
          "internalType": "bool",
          "name": "",
          "type": "bool"
        }
      ],
      "stateMutability": "view",
      "type": "function"
    },
    {
      "inputs": [
        {
          "internalType": "address",
          "name": "_token",
          "type": "address"
        },
        {
          "internalType": "uint256",
          "name": "_amount",
          "type": "uint256"
        }
      ],
      "name": "deposit",
      "outputs": [],
      "stateMutability": "nonpayable",
      "type": "function"
    },
    {
      "inputs": [],
      "name": "equal_token",
      "outputs": [
        {
          "internalType": "address",
          "name": "",
          "type": "address"
        }
      ],
      "stateMutability": "view",
      "type": "function"
    },
    {
      "inputs": [],
      "name": "eqzGauge_address",
      "outputs": [
        {
          "internalType": "address",
          "name": "",
          "type": "address"
        }
      ],
      "stateMutability": "view",
      "type": "function"
    },
    {
      "inputs": [],
      "name": "getAdapterAmount",
      "outputs": [
        {
          "internalType": "uint256[]",
          "name": "",
          "type": "uint256[]"
        }
      ],
      "stateMutability": "view",
      "type": "function"
    },
    {
      "inputs": [
        {
          "internalType": "bytes32",
          "name": "role",
          "type": "bytes32"
        }
      ],
      "name": "getRoleAdmin",
      "outputs": [
        {
          "internalType": "bytes32",
          "name": "",
          "type": "bytes32"
        }
      ],
      "stateMutability": "view",
      "type": "function"
    },
    {
      "inputs": [
        {
          "internalType": "bytes32",
          "name": "role",
          "type": "bytes32"
        },
        {
          "internalType": "address",
          "name": "account",
          "type": "address"
        }
      ],
      "name": "grantRole",
      "outputs": [],
      "stateMutability": "nonpayable",
      "type": "function"
    },
    {
      "inputs": [
        {
          "internalType": "bytes32",
          "name": "role",
          "type": "bytes32"
        },
        {
          "internalType": "address",
          "name": "account",
          "type": "address"
        }
      ],
      "name": "hasRole",
      "outputs": [
        {
          "internalType": "bool",
          "name": "",
          "type": "bool"
        }
      ],
      "stateMutability": "view",
      "type": "function"
    },
    {
      "inputs": [
        {
          "internalType": "address",
          "name": "_treasury",
          "type": "address"
        },
        {
          "internalType": "address",
          "name": "_handlerAddress",
          "type": "address"
        },
        {
          "internalType": "address",
          "name": "_stacking_token",
          "type": "address"
        },
        {
          "internalType": "address",
          "name": "_multiSigWallet",
          "type": "address"
        },
        {
          "internalType": "bool",
          "name": "_compoundStatus",
          "type": "bool"
        }
      ],
      "name": "initialize",
      "outputs": [],
      "stateMutability": "nonpayable",
      "type": "function"
    },
    {
      "inputs": [],
      "name": "liquidity_handler",
      "outputs": [
        {
          "internalType": "address",
          "name": "",
          "type": "address"
        }
      ],
      "stateMutability": "view",
      "type": "function"
    },
    {
      "inputs": [],
      "name": "proxiableUUID",
      "outputs": [
        {
          "internalType": "bytes32",
          "name": "",
          "type": "bytes32"
        }
      ],
      "stateMutability": "view",
      "type": "function"
    },
    {
      "inputs": [
        {
          "internalType": "address",
          "name": "_token",
          "type": "address"
        },
        {
          "internalType": "address",
          "name": "_to",
          "type": "address"
        },
        {
          "internalType": "uint256",
          "name": "_amount",
          "type": "uint256"
        }
      ],
      "name": "removeTokenByAddress",
      "outputs": [],
      "stateMutability": "nonpayable",
      "type": "function"
    },
    {
      "inputs": [
        {
          "internalType": "bytes32",
          "name": "role",
          "type": "bytes32"
        },
        {
          "internalType": "address",
          "name": "account",
          "type": "address"
        }
      ],
      "name": "renounceRole",
      "outputs": [],
      "stateMutability": "nonpayable",
      "type": "function"
    },
    {
      "inputs": [
        {
          "internalType": "bytes32",
          "name": "role",
          "type": "bytes32"
        },
        {
          "internalType": "address",
          "name": "account",
          "type": "address"
        }
      ],
      "name": "revokeRole",
      "outputs": [],
      "stateMutability": "nonpayable",
      "type": "function"
    },
    {
      "inputs": [
        {
          "internalType": "bool",
          "name": "_status",
          "type": "bool"
        }
      ],
      "name": "setCompoundRewardStatus",
      "outputs": [],
      "stateMutability": "nonpayable",
      "type": "function"
    },
    {
      "inputs": [
        {
          "internalType": "address",
          "name": "_newHandler",
          "type": "address"
        }
      ],
      "name": "setLiquidityHandler",
      "outputs": [],
      "stateMutability": "nonpayable",
      "type": "function"
    },
    {
      "inputs": [
        {
          "internalType": "address",
          "name": "_newAddress",
          "type": "address"
        }
      ],
      "name": "setNewGaugeAddress",
      "outputs": [],
      "stateMutability": "nonpayable",
      "type": "function"
    },
    {
      "inputs": [
        {
          "internalType": "address",
          "name": "_newWallet",
          "type": "address"
        }
      ],
      "name": "setNewTreasury",
      "outputs": [],
      "stateMutability": "nonpayable",
      "type": "function"
    },
    {
      "inputs": [
        {
          "internalType": "uint64",
          "name": "_newSlippage",
          "type": "uint64"
        }
      ],
      "name": "setSlippage",
      "outputs": [],
      "stateMutability": "nonpayable",
      "type": "function"
    },
    {
      "inputs": [],
      "name": "stacking_token",
      "outputs": [
        {
          "internalType": "address",
          "name": "",
          "type": "address"
        }
      ],
      "stateMutability": "view",
      "type": "function"
    },
    {
      "inputs": [
        {
          "internalType": "bytes4",
          "name": "interfaceId",
          "type": "bytes4"
        }
      ],
      "name": "supportsInterface",
      "outputs": [
        {
          "internalType": "bool",
          "name": "",
          "type": "bool"
        }
      ],
      "stateMutability": "view",
      "type": "function"
    },
    {
      "inputs": [
        {
          "internalType": "uint256",
          "name": "_amount",
          "type": "uint256"
        }
      ],
      "name": "transferAdapterRewards",
      "outputs": [],
      "stateMutability": "nonpayable",
      "type": "function"
    },
    {
      "inputs": [],
      "name": "treasury",
      "outputs": [
        {
          "internalType": "address",
          "name": "",
          "type": "address"
        }
      ],
      "stateMutability": "view",
      "type": "function"
    },
    {
      "inputs": [],
      "name": "upgradeStatus",
      "outputs": [
        {
          "internalType": "bool",
          "name": "",
          "type": "bool"
        }
      ],
      "stateMutability": "view",
      "type": "function"
    },
    {
      "inputs": [
        {
          "internalType": "address",
          "name": "newImplementation",
          "type": "address"
        }
      ],
      "name": "upgradeTo",
      "outputs": [],
      "stateMutability": "nonpayable",
      "type": "function"
    },
    {
      "inputs": [
        {
          "internalType": "address",
          "name": "newImplementation",
          "type": "address"
        },
        {
          "internalType": "bytes",
          "name": "data",
          "type": "bytes"
        }
      ],
      "name": "upgradeToAndCall",
      "outputs": [],
      "stateMutability": "payable",
      "type": "function"
    },
    {
      "inputs": [
        {
          "internalType": "address",
          "name": "_user",
          "type": "address"
        },
        {
          "internalType": "address",
          "name": "_token",
          "type": "address"
        },
        {
          "internalType": "uint256",
          "name": "_full_amout",
          "type": "uint256"
        },
        {
          "internalType": "uint256",
          "name": "_deducted_amount",
          "type": "uint256"
        },
        {
          "internalType": "uint256",
          "name": "_fees",
          "type": "uint256"
        }
      ],
      "name": "withdraw",
      "outputs": [],
      "stateMutability": "nonpayable",
      "type": "function"
    },
    {
      "stateMutability": "payable",
      "type": "receive"
    }
  ],
  "bytecode": "0x60a06040523060805234801561001457600080fd5b5060805161255461004c6000396000818161078b015281816107cb01528181610b7801528181610bb80152610c3001526125546000f3fe6080604052600436106101735760003560e01c8062fc40c21461017c57806301ffc9a7146101b3578063024a8ec6146101e35780631ddbddd614610203578063248a9ca3146102235780632f2ff15d1461025157806331d99a641461027157806336568abe146102915780633659cfe6146102b157806347e7ef24146102d1578063494e63d9146102f15780634db860a2146103135780634f1ef2861461033557806352d1902d146103485780635e037de61461035d57806361d027b31461037d5780636465f04a1461039d57806376234759146103bd57806376ca2b8b146103dd5780637afa9e9c146104025780638f9a372d1461042457806391d1485414610444578063a1e3379d14610464578063a217fddf14610484578063b88a802f14610499578063c3396492146104ae578063d4d543c5146104ce578063d547741f146104e8578063d6bbb6be14610508578063d701f52314610528578063f72c0d8b14610548578063fc5b5fda1461056a57005b3661017a57005b005b34801561018857600080fd5b506101005461019d906001600160a01b031681565b6040516101aa9190611eb2565b60405180910390f35b3480156101bf57600080fd5b506101d36101ce366004611ec6565b61058a565b60405190151581526020016101aa565b3480156101ef57600080fd5b5060fc5461019d906001600160a01b031681565b34801561020f57600080fd5b5061017a61021e366004611f0c565b6105c1565b34801561022f57600080fd5b5061024361023e366004611f27565b6106a1565b6040519081526020016101aa565b34801561025d57600080fd5b5061017a61026c366004611f40565b6106b6565b34801561027d57600080fd5b5061017a61028c366004611f7a565b6106d7565b34801561029d57600080fd5b5061017a6102ac366004611f40565b610702565b3480156102bd57600080fd5b5061017a6102cc366004611f0c565b610780565b3480156102dd57600080fd5b5061017a6102ec366004611f97565b610849565b3480156102fd57600080fd5b50610100546101d390600160a01b900460ff1681565b34801561031f57600080fd5b5061032861096a565b6040516101aa9190611fc1565b61017a61034336600461201b565b610b6d565b34801561035457600080fd5b50610243610c23565b34801561036957600080fd5b5061017a6103783660046120dc565b610cd1565b34801561038957600080fd5b5060fe5461019d906001600160a01b031681565b3480156103a957600080fd5b5061017a6103b8366004612105565b610cdc565b3480156103c957600080fd5b5061017a6103d8366004612141565b610ec4565b3480156103e957600080fd5b5060fb5461019d9061010090046001600160a01b031681565b34801561040e57600080fd5b5061024360008051602061247883398151915281565b34801561043057600080fd5b5061017a61043f366004611f0c565b610f9f565b34801561045057600080fd5b506101d361045f366004611f40565b610ff5565b34801561047057600080fd5b5061017a61047f366004611f27565b611020565b34801561049057600080fd5b50610243600081565b3480156104a557600080fd5b5061017a6110f6565b3480156104ba57600080fd5b5060fd5461019d906001600160a01b031681565b3480156104da57600080fd5b5060fb546101d39060ff1681565b3480156104f457600080fd5b5061017a610503366004611f40565b611165565b34801561051457600080fd5b5061017a610523366004611f0c565b611181565b34801561053457600080fd5b5061017a610543366004611f7a565b61121f565b34801561055457600080fd5b506102436000805160206124b883398151915281565b34801561057657600080fd5b5061017a61058536600461218e565b61123e565b60006001600160e01b03198216637965db0b60e01b14806105bb57506301ffc9a760e01b6001600160e01b03198316145b92915050565b60006105cc8161146c565b6105de826001600160a01b0316611476565b6106035760405162461bcd60e51b81526004016105fa906121f7565b60405180910390fd5b60fb5461062d906000805160206124788339815191529061010090046001600160a01b0316611485565b610645600080516020612478833981519152836114ec565b60fb8054610100600160a81b0319166101006001600160a01b038516021790556040517f58caa9895063fc33d67854b32ed152147ad3a370ebf6f9f9c8b538bc039a87b290610695908490611eb2565b60405180910390a15050565b60009081526065602052604090206001015490565b6106bf826106a1565b6106c88161146c565b6106d283836114ec565b505050565b60006106e28161146c565b506101008054911515600160a01b0260ff60a01b19909216919091179055565b6001600160a01b03811633146107725760405162461bcd60e51b815260206004820152602f60248201527f416363657373436f6e74726f6c3a2063616e206f6e6c792072656e6f756e636560448201526e103937b632b9903337b91039b2b63360891b60648201526084016105fa565b61077c8282611485565b5050565b306001600160a01b037f00000000000000000000000000000000000000000000000000000000000000001614156107c95760405162461bcd60e51b81526004016105fa90612239565b7f00000000000000000000000000000000000000000000000000000000000000006001600160a01b03166107fb611572565b6001600160a01b0316146108215760405162461bcd60e51b81526004016105fa90612273565b61082a8161158e565b6040805160008082526020820190925261084691839190611605565b50565b6000805160206124788339815191526108618161146c565b61010054600160a01b900460ff161561094e576101005460fc5460405163095ea7b360e01b81526001600160a01b03928316929091169063095ea7b3906108ae90849087906004016122ad565b6020604051808303816000875af11580156108cd573d6000803e3d6000fd5b505050506040513d601f19601f820116820180604052508101906108f191906122c6565b5060405163b6b55f2560e01b8152600481018490526001600160a01b0382169063b6b55f2590602401600060405180830381600087803b15801561093457600080fd5b505af1158015610948573d6000803e3d6000fd5b50505050505b8160ff600082825461096091906122f9565b9091555050505050565b6101005460408051600480825260a082019092526060926001600160a01b031691600091906020820160808036833701905050905047816000815181106109b3576109b3612311565b602090810291909101015260fc546040516370a0823160e01b81526001600160a01b03909116906370a08231906109ee903090600401611eb2565b602060405180830381865afa158015610a0b573d6000803e3d6000fd5b505050506040513d601f19601f82011682018060405250810190610a2f9190612327565b81600181518110610a4257610a42612311565b60209081029190910101526040516370a0823160e01b81526001600160a01b038316906370a0823190610a79903090600401611eb2565b602060405180830381865afa158015610a96573d6000803e3d6000fd5b505050506040513d601f19601f82011682018060405250810190610aba9190612327565b81600281518110610acd57610acd612311565b602090810291909101015260fd546040516370a0823160e01b81526001600160a01b03909116906370a0823190610b08903090600401611eb2565b602060405180830381865afa158015610b25573d6000803e3d6000fd5b505050506040513d601f19601f82011682018060405250810190610b499190612327565b81600381518110610b5c57610b5c612311565b602090810291909101015292915050565b306001600160a01b037f0000000000000000000000000000000000000000000000000000000000000000161415610bb65760405162461bcd60e51b81526004016105fa90612239565b7f00000000000000000000000000000000000000000000000000000000000000006001600160a01b0316610be8611572565b6001600160a01b031614610c0e5760405162461bcd60e51b81526004016105fa90612273565b610c178261158e565b61077c82826001611605565b6000306001600160a01b037f00000000000000000000000000000000000000000000000000000000000000001614610cbe5760405162461bcd60e51b815260206004820152603860248201527f555550535570677261646561626c653a206d757374206e6f742062652063616c6044820152771b1959081d1a1c9bdd59da0819195b1959d85d1958d85b1b60421b60648201526084016105fa565b506000805160206124d883398151915290565b600061077c8161146c565b6000610ce78161146c565b60fc546001600160a01b0385811691161415610e5d576101005460ff5460fc546040516370a0823160e01b81526001600160a01b03938416936000939216906370a0823190610d3a903090600401611eb2565b602060405180830381865afa158015610d57573d6000803e3d6000fd5b505050506040513d601f19601f82011682018060405250810190610d7b9190612327565b6040516370a0823160e01b81526001600160a01b038516906370a0823190610da7903090600401611eb2565b602060405180830381865afa158015610dc4573d6000803e3d6000fd5b505050506040513d601f19601f82011682018060405250810190610de89190612327565b610df291906122f9565b610dfc9190612340565b905080841115610e5a5760405162461bcd60e51b8152602060048201526024808201527f41646170746572203a2043616e6e6f7420776974686472617720757365722066604482015263756e647360e01b60648201526084016105fa565b50505b610e716001600160a01b0385168484611770565b836001600160a01b0316836001600160a01b03167f84f3859b7a4c4c1b17f558b22446c3394e48c551005072107bbbc4602235d5e784604051610eb691815260200190565b60405180910390a350505050565b600080516020612478833981519152610edc8161146c565b61010054600160a01b900460ff1615610f525761010054604051632e1a7d4d60e01b8152600481018690526001600160a01b03909116908190632e1a7d4d90602401600060405180830381600087803b158015610f3857600080fd5b505af1158015610f4c573d6000803e3d6000fd5b50505050505b610f666001600160a01b0386168785611770565b60fe54610f80906001600160a01b03878116911684611770565b8360ff6000828254610f929190612340565b9091555050505050505050565b6000610faa8161146c565b60fe80546001600160a01b0319166001600160a01b0384161790556040517f9718b5244d3f4d64362bafb32dbe20bedaaca6ba196703cbd27f8256959f278690610695908490611eb2565b60009182526065602090815260408084206001600160a01b0393909316845291905290205460ff1690565b600061102b8161146c565b60fd546040516370a0823160e01b81526000916001600160a01b0316906370a082319061105c903090600401611eb2565b602060405180830381865afa158015611079573d6000803e3d6000fd5b505050506040513d601f19601f8201168201806040525081019061109d9190612327565b60fe546040519192506001600160a01b03169084156108fc029085906000818181858888f193505050501580156110d8573d6000803e3d6000fd5b5060fe5460fd546106d2916001600160a01b03918216911683611770565b60006111018161146c565b6101005460408051631e8c5c8960e11b815290516001600160a01b03909216918291633d18b91291600480830192600092919082900301818387803b15801561114957600080fd5b505af115801561115d573d6000803e3d6000fd5b505050505050565b61116e826106a1565b6111778161146c565b6106d28383611485565b600061118c8161146c565b61119e826001600160a01b0316611476565b6111fb5760405162461bcd60e51b815260206004820152602860248201527f45515a2041646170746572203a2047617567652041646472657373204e6f742060448201526718dbdb9d1c9858dd60c21b60648201526084016105fa565b5061010080546001600160a01b0319166001600160a01b0392909216919091179055565b600061122a8161146c565b5060fb805460ff1916911515919091179055565b600054610100900460ff161580801561125e5750600054600160ff909116105b8061127f575061126d30611476565b15801561127f575060005460ff166001145b6112e25760405162461bcd60e51b815260206004820152602e60248201527f496e697469616c697a61626c653a20636f6e747261637420697320616c72656160448201526d191e481a5b9a5d1a585b1a5e995960921b60648201526084016105fa565b6000805460ff191660011790558015611305576000805461ff0019166101001790555b61130d6117c6565b6113156117c6565b611327856001600160a01b0316611476565b6113435760405162461bcd60e51b81526004016105fa906121f7565b61134e6000846114ec565b6113666000805160206124b8833981519152846114ec565b61137e600080516020612478833981519152866114ec565b60fe80546001600160a01b038089166001600160a01b03199283161790925560fb8054888416610100908102610100600160a81b03199092169190911790915560fc805493881693831693909317909255815460fd8054909216733fd3a0c85b70754efc07ac9ac0cbbdce664865a617909155831515600160a01b026001600160a81b0319909116177348afe4b50aadbc09d0bceb796d9e956ea90f15b4179055801561115d576000805461ff0019169055604051600181527f7f26b83ff96e1f2b6a682f133852f6798a09c465da95921460cefb38474024989060200160405180910390a1505050505050565b6108468133611833565b6001600160a01b03163b151590565b61148f8282610ff5565b1561077c5760008281526065602090815260408083206001600160a01b0385168085529252808320805460ff1916905551339285917ff6391f5c32d9c69d2a47ea670b442974b53935d1edc7fd64eb21e047a839171b9190a45050565b6114f68282610ff5565b61077c5760008281526065602090815260408083206001600160a01b03851684529091529020805460ff1916600117905561152e3390565b6001600160a01b0316816001600160a01b0316837f2f8788117e7eff1d82e926ec794901d17c78024a50270940304540a733656f0d60405160405180910390a45050565b6000805160206124d8833981519152546001600160a01b031690565b6000805160206124b88339815191526115a68161146c565b60fb5460ff166115f75760405162461bcd60e51b815260206004820152601c60248201527b12185b991b195c8e88155c19dc985919481b9bdd08185b1b1bddd95960221b60448201526064016105fa565b505060fb805460ff19169055565b7f4910fdfa16fed3260ed0e7147f7cc6da11a60208b5b9406d12a635614ffd91435460ff1615611638576106d28361188c565b826001600160a01b03166352d1902d6040518163ffffffff1660e01b8152600401602060405180830381865afa925050508015611692575060408051601f3d908101601f1916820190925261168f91810190612327565b60015b6116f55760405162461bcd60e51b815260206004820152602e60248201527f45524331393637557067726164653a206e657720696d706c656d656e7461746960448201526d6f6e206973206e6f74205555505360901b60648201526084016105fa565b6000805160206124d883398151915281146117645760405162461bcd60e51b815260206004820152602960248201527f45524331393637557067726164653a20756e737570706f727465642070726f786044820152681a58589b195555525160ba1b60648201526084016105fa565b506106d2838383611926565b6106d28363a9059cbb60e01b848460405160240161178f9291906122ad565b60408051601f198184030181529190526020810180516001600160e01b03166001600160e01b031990931692909217909152611951565b600054610100900460ff166118315760405162461bcd60e51b815260206004820152602b60248201527f496e697469616c697a61626c653a20636f6e7472616374206973206e6f74206960448201526a6e697469616c697a696e6760a81b60648201526084016105fa565b565b61183d8282610ff5565b61077c5761184a81611a23565b611855836020611a35565b604051602001611866929190612383565b60408051601f198184030181529082905262461bcd60e51b82526105fa916004016123f2565b61189581611476565b6118f75760405162461bcd60e51b815260206004820152602d60248201527f455243313936373a206e657720696d706c656d656e746174696f6e206973206e60448201526c1bdd08184818dbdb9d1c9858dd609a1b60648201526084016105fa565b6000805160206124d883398151915280546001600160a01b0319166001600160a01b0392909216919091179055565b61192f83611bd7565b60008251118061193c5750805b156106d25761194b8383611c17565b50505050565b60006119a6826040518060400160405280602081526020017f5361666545524332303a206c6f772d6c6576656c2063616c6c206661696c6564815250856001600160a01b0316611d099092919063ffffffff16565b8051909150156106d257808060200190518101906119c491906122c6565b6106d25760405162461bcd60e51b815260206004820152602a60248201527f5361666545524332303a204552433230206f7065726174696f6e20646964206e6044820152691bdd081cdd58d8d9595960b21b60648201526084016105fa565b60606105bb6001600160a01b03831660145b60606000611a44836002612425565b611a4f9060026122f9565b6001600160401b03811115611a6657611a66612005565b6040519080825280601f01601f191660200182016040528015611a90576020820181803683370190505b509050600360fc1b81600081518110611aab57611aab612311565b60200101906001600160f81b031916908160001a905350600f60fb1b81600181518110611ada57611ada612311565b60200101906001600160f81b031916908160001a9053506000611afe846002612425565b611b099060016122f9565b90505b6001811115611b81576f181899199a1a9b1b9c1cb0b131b232b360811b85600f1660108110611b3d57611b3d612311565b1a60f81b828281518110611b5357611b53612311565b60200101906001600160f81b031916908160001a90535060049490941c93611b7a81612444565b9050611b0c565b508315611bd05760405162461bcd60e51b815260206004820181905260248201527f537472696e67733a20686578206c656e67746820696e73756666696369656e7460448201526064016105fa565b9392505050565b611be08161188c565b6040516001600160a01b038216907fbc7cd75a20ee27fd9adebab32041f755214dbc6bffa90cc0225b39da2e5c2d3b90600090a250565b6060611c2283611476565b611c7d5760405162461bcd60e51b815260206004820152602660248201527f416464726573733a2064656c65676174652063616c6c20746f206e6f6e2d636f6044820152651b9d1c9858dd60d21b60648201526084016105fa565b600080846001600160a01b031684604051611c98919061245b565b600060405180830381855af49150503d8060008114611cd3576040519150601f19603f3d011682016040523d82523d6000602084013e611cd8565b606091505b5091509150611d0082826040518060600160405280602781526020016124f860279139611d20565b95945050505050565b6060611d188484600085611d39565b949350505050565b60608315611d2f575081611bd0565b611bd08383611e14565b606082471015611d9a5760405162461bcd60e51b815260206004820152602660248201527f416464726573733a20696e73756666696369656e742062616c616e636520666f6044820152651c8818d85b1b60d21b60648201526084016105fa565b600080866001600160a01b03168587604051611db6919061245b565b60006040518083038185875af1925050503d8060008114611df3576040519150601f19603f3d011682016040523d82523d6000602084013e611df8565b606091505b5091509150611e0987838387611e3e565b979650505050505050565b815115611e245781518083602001fd5b8060405162461bcd60e51b81526004016105fa91906123f2565b60608315611ea8578251611ea157611e5585611476565b611ea15760405162461bcd60e51b815260206004820152601d60248201527f416464726573733a2063616c6c20746f206e6f6e2d636f6e747261637400000060448201526064016105fa565b5081611d18565b611d188383611e14565b6001600160a01b0391909116815260200190565b600060208284031215611ed857600080fd5b81356001600160e01b031981168114611bd057600080fd5b80356001600160a01b0381168114611f0757600080fd5b919050565b600060208284031215611f1e57600080fd5b611bd082611ef0565b600060208284031215611f3957600080fd5b5035919050565b60008060408385031215611f5357600080fd5b82359150611f6360208401611ef0565b90509250929050565b801515811461084657600080fd5b600060208284031215611f8c57600080fd5b8135611bd081611f6c565b60008060408385031215611faa57600080fd5b611fb383611ef0565b946020939093013593505050565b6020808252825182820181905260009190848201906040850190845b81811015611ff957835183529284019291840191600101611fdd565b50909695505050505050565b634e487b7160e01b600052604160045260246000fd5b6000806040838503121561202e57600080fd5b61203783611ef0565b915060208301356001600160401b038082111561205357600080fd5b818501915085601f83011261206757600080fd5b81358181111561207957612079612005565b604051601f8201601f19908116603f011681019083821181831017156120a1576120a1612005565b816040528281528860208487010111156120ba57600080fd5b8260208601602083013760006020848301015280955050505050509250929050565b6000602082840312156120ee57600080fd5b81356001600160401b0381168114611bd057600080fd5b60008060006060848603121561211a57600080fd5b61212384611ef0565b925061213160208501611ef0565b9150604084013590509250925092565b600080600080600060a0868803121561215957600080fd5b61216286611ef0565b945061217060208701611ef0565b94979496505050506040830135926060810135926080909101359150565b600080600080600060a086880312156121a657600080fd5b6121af86611ef0565b94506121bd60208701611ef0565b93506121cb60408701611ef0565b92506121d960608701611ef0565b915060808601356121e981611f6c565b809150509295509295909350565b60208082526022908201527f45515a2041646170746572203a2048616e646c6572204e6f7420636f6e74726160408201526118dd60f21b606082015260800190565b6020808252602c9082015260008051602061249883398151915260408201526b19195b1959d85d1958d85b1b60a21b606082015260800190565b6020808252602c9082015260008051602061249883398151915260408201526b6163746976652070726f787960a01b606082015260800190565b6001600160a01b03929092168252602082015260400190565b6000602082840312156122d857600080fd5b8151611bd081611f6c565b634e487b7160e01b600052601160045260246000fd5b6000821982111561230c5761230c6122e3565b500190565b634e487b7160e01b600052603260045260246000fd5b60006020828403121561233957600080fd5b5051919050565b600082821015612352576123526122e3565b500390565b60005b8381101561237257818101518382015260200161235a565b8381111561194b5750506000910152565b76020b1b1b2b9b9a1b7b73a3937b61d1030b1b1b7bab73a1604d1b8152600083516123b5816017850160208801612357565b7001034b99036b4b9b9b4b733903937b6329607d1b60179184019182015283516123e6816028840160208801612357565b01602801949350505050565b6020815260008251806020840152612411816040850160208701612357565b601f01601f19169190910160400192915050565b600081600019048311821515161561243f5761243f6122e3565b500290565b600081612453576124536122e3565b506000190190565b6000825161246d818460208701612357565b919091019291505056fe8ee6ed50dc250dbccf4d86bd88d4956ab55c7de37d1fed5508924b70da11fe8b46756e6374696f6e206d7573742062652063616c6c6564207468726f75676820189ab7a9244df0848122154315af71fe140f3db0fe014031783b0946b8c9d2e3360894a13ba1a3210667c828492db98dca3e2076cc3735a920a3ca505d382bbc416464726573733a206c6f772d6c6576656c2064656c65676174652063616c6c206661696c6564a26469706673582212206316fa2f15e8f49b805da5a15ecf6237f55cc9cee7a6896df3c9cd354cb6e54a64736f6c634300080b0033",
  "linkReferences": {},
  "deployedLinkReferences": {}
}