{
  "_format": "hh-sol-artifact-1",
  "contractName": "FakeToken",
  "sourceName": "contracts/FakeToken.sol",
  "abi": [
    {
      "anonymous": false,
      "inputs": [
        {
          "indexed": false,
          "internalType": "address",
          "name": "previousAdmin",
          "type": "address"
        },
        {
          "indexed": false,
          "internalType": "address",
          "name": "newAdmin",
          "type": "address"
        }
      ],
      "name": "AdminChanged",
      "type": "event"
    },
    {
      "anonymous": false,
      "inputs": [
        {
          "indexed": true,
          "internalType": "address",
          "name": "owner",
          "type": "address"
        },
        {
          "indexed": true,
          "internalType": "address",
          "name": "spender",
          "type": "address"
        },
        {
          "indexed": false,
          "internalType": "uint256",
          "name": "value",
          "type": "uint256"
        }
      ],
      "name": "Approval",
      "type": "event"
    },
    {
      "anonymous": false,
      "inputs": [
        {
          "indexed": true,
          "internalType": "address",
          "name": "beacon",
          "type": "address"
        }
      ],
      "name": "BeaconUpgraded",
      "type": "event"
    },
    {
      "anonymous": false,
      "inputs": [
        {
          "indexed": false,
          "internalType": "uint8",
          "name": "version",
          "type": "uint8"
        }
      ],
      "name": "Initialized",
      "type": "event"
    },
    {
      "anonymous": false,
      "inputs": [
        {
          "indexed": false,
          "internalType": "address",
          "name": "account",
          "type": "address"
        }
      ],
      "name": "Paused",
      "type": "event"
    },
    {
      "anonymous": false,
      "inputs": [
        {
          "indexed": true,
          "internalType": "bytes32",
          "name": "role",
          "type": "bytes32"
        },
        {
          "indexed": true,
          "internalType": "bytes32",
          "name": "previousAdminRole",
          "type": "bytes32"
        },
        {
          "indexed": true,
          "internalType": "bytes32",
          "name": "newAdminRole",
          "type": "bytes32"
        }
      ],
      "name": "RoleAdminChanged",
      "type": "event"
    },
    {
      "anonymous": false,
      "inputs": [
        {
          "indexed": true,
          "internalType": "bytes32",
          "name": "role",
          "type": "bytes32"
        },
        {
          "indexed": true,
          "internalType": "address",
          "name": "account",
          "type": "address"
        },
        {
          "indexed": true,
          "internalType": "address",
          "name": "sender",
          "type": "address"
        }
      ],
      "name": "RoleGranted",
      "type": "event"
    },
    {
      "anonymous": false,
      "inputs": [
        {
          "indexed": true,
          "internalType": "bytes32",
          "name": "role",
          "type": "bytes32"
        },
        {
          "indexed": true,
          "internalType": "address",
          "name": "account",
          "type": "address"
        },
        {
          "indexed": true,
          "internalType": "address",
          "name": "sender",
          "type": "address"
        }
      ],
      "name": "RoleRevoked",
      "type": "event"
    },
    {
      "anonymous": false,
      "inputs": [
        {
          "indexed": true,
          "internalType": "address",
          "name": "from",
          "type": "address"
        },
        {
          "indexed": true,
          "internalType": "address",
          "name": "to",
          "type": "address"
        },
        {
          "indexed": false,
          "internalType": "uint256",
          "name": "value",
          "type": "uint256"
        }
      ],
      "name": "Transfer",
      "type": "event"
    },
    {
      "anonymous": false,
      "inputs": [
        {
          "indexed": false,
          "internalType": "address",
          "name": "account",
          "type": "address"
        }
      ],
      "name": "Unpaused",
      "type": "event"
    },
    {
      "anonymous": false,
      "inputs": [
        {
          "indexed": true,
          "internalType": "address",
          "name": "implementation",
          "type": "address"
        }
      ],
      "name": "Upgraded",
      "type": "event"
    },
    {
      "inputs": [],
      "name": "DEFAULT_ADMIN_ROLE",
      "outputs": [
        {
          "internalType": "bytes32",
          "name": "",
          "type": "bytes32"
        }
      ],
      "stateMutability": "view",
      "type": "function"
    },
    {
      "inputs": [],
      "name": "MINTER_ROLE",
      "outputs": [
        {
          "internalType": "bytes32",
          "name": "",
          "type": "bytes32"
        }
      ],
      "stateMutability": "view",
      "type": "function"
    },
    {
      "inputs": [],
      "name": "PAUSER_ROLE",
      "outputs": [
        {
          "internalType": "bytes32",
          "name": "",
          "type": "bytes32"
        }
      ],
      "stateMutability": "view",
      "type": "function"
    },
    {
      "inputs": [],
      "name": "UPGRADER_ROLE",
      "outputs": [
        {
          "internalType": "bytes32",
          "name": "",
          "type": "bytes32"
        }
      ],
      "stateMutability": "view",
      "type": "function"
    },
    {
      "inputs": [
        {
          "internalType": "address",
          "name": "owner",
          "type": "address"
        },
        {
          "internalType": "address",
          "name": "spender",
          "type": "address"
        }
      ],
      "name": "allowance",
      "outputs": [
        {
          "internalType": "uint256",
          "name": "",
          "type": "uint256"
        }
      ],
      "stateMutability": "view",
      "type": "function"
    },
    {
      "inputs": [
        {
          "internalType": "address",
          "name": "spender",
          "type": "address"
        },
        {
          "internalType": "uint256",
          "name": "amount",
          "type": "uint256"
        }
      ],
      "name": "approve",
      "outputs": [
        {
          "internalType": "bool",
          "name": "",
          "type": "bool"
        }
      ],
      "stateMutability": "nonpayable",
      "type": "function"
    },
    {
      "inputs": [
        {
          "internalType": "address",
          "name": "account",
          "type": "address"
        }
      ],
      "name": "balanceOf",
      "outputs": [
        {
          "internalType": "uint256",
          "name": "",
          "type": "uint256"
        }
      ],
      "stateMutability": "view",
      "type": "function"
    },
    {
      "inputs": [],
      "name": "decimals",
      "outputs": [
        {
          "internalType": "uint8",
          "name": "",
          "type": "uint8"
        }
      ],
      "stateMutability": "view",
      "type": "function"
    },
    {
      "inputs": [
        {
          "internalType": "address",
          "name": "spender",
          "type": "address"
        },
        {
          "internalType": "uint256",
          "name": "subtractedValue",
          "type": "uint256"
        }
      ],
      "name": "decreaseAllowance",
      "outputs": [
        {
          "internalType": "bool",
          "name": "",
          "type": "bool"
        }
      ],
      "stateMutability": "nonpayable",
      "type": "function"
    },
    {
      "inputs": [
        {
          "internalType": "bytes32",
          "name": "role",
          "type": "bytes32"
        }
      ],
      "name": "getRoleAdmin",
      "outputs": [
        {
          "internalType": "bytes32",
          "name": "",
          "type": "bytes32"
        }
      ],
      "stateMutability": "view",
      "type": "function"
    },
    {
      "inputs": [
        {
          "internalType": "bytes32",
          "name": "role",
          "type": "bytes32"
        },
        {
          "internalType": "address",
          "name": "account",
          "type": "address"
        }
      ],
      "name": "grantRole",
      "outputs": [],
      "stateMutability": "nonpayable",
      "type": "function"
    },
    {
      "inputs": [
        {
          "internalType": "bytes32",
          "name": "role",
          "type": "bytes32"
        },
        {
          "internalType": "address",
          "name": "account",
          "type": "address"
        }
      ],
      "name": "hasRole",
      "outputs": [
        {
          "internalType": "bool",
          "name": "",
          "type": "bool"
        }
      ],
      "stateMutability": "view",
      "type": "function"
    },
    {
      "inputs": [
        {
          "internalType": "address",
          "name": "spender",
          "type": "address"
        },
        {
          "internalType": "uint256",
          "name": "addedValue",
          "type": "uint256"
        }
      ],
      "name": "increaseAllowance",
      "outputs": [
        {
          "internalType": "bool",
          "name": "",
          "type": "bool"
        }
      ],
      "stateMutability": "nonpayable",
      "type": "function"
    },
    {
      "inputs": [
        {
          "internalType": "address",
          "name": "_admin",
          "type": "address"
        }
      ],
      "name": "initialize",
      "outputs": [],
      "stateMutability": "nonpayable",
      "type": "function"
    },
    {
      "inputs": [
        {
          "internalType": "address",
          "name": "to",
          "type": "address"
        },
        {
          "internalType": "uint256",
          "name": "amount",
          "type": "uint256"
        }
      ],
      "name": "mint",
      "outputs": [],
      "stateMutability": "nonpayable",
      "type": "function"
    },
    {
      "inputs": [],
      "name": "name",
      "outputs": [
        {
          "internalType": "string",
          "name": "",
          "type": "string"
        }
      ],
      "stateMutability": "view",
      "type": "function"
    },
    {
      "inputs": [],
      "name": "pause",
      "outputs": [],
      "stateMutability": "nonpayable",
      "type": "function"
    },
    {
      "inputs": [],
      "name": "paused",
      "outputs": [
        {
          "internalType": "bool",
          "name": "",
          "type": "bool"
        }
      ],
      "stateMutability": "view",
      "type": "function"
    },
    {
      "inputs": [],
      "name": "proxiableUUID",
      "outputs": [
        {
          "internalType": "bytes32",
          "name": "",
          "type": "bytes32"
        }
      ],
      "stateMutability": "view",
      "type": "function"
    },
    {
      "inputs": [
        {
          "internalType": "bytes32",
          "name": "role",
          "type": "bytes32"
        },
        {
          "internalType": "address",
          "name": "account",
          "type": "address"
        }
      ],
      "name": "renounceRole",
      "outputs": [],
      "stateMutability": "nonpayable",
      "type": "function"
    },
    {
      "inputs": [
        {
          "internalType": "bytes32",
          "name": "role",
          "type": "bytes32"
        },
        {
          "internalType": "address",
          "name": "account",
          "type": "address"
        }
      ],
      "name": "revokeRole",
      "outputs": [],
      "stateMutability": "nonpayable",
      "type": "function"
    },
    {
      "inputs": [
        {
          "internalType": "bytes4",
          "name": "interfaceId",
          "type": "bytes4"
        }
      ],
      "name": "supportsInterface",
      "outputs": [
        {
          "internalType": "bool",
          "name": "",
          "type": "bool"
        }
      ],
      "stateMutability": "view",
      "type": "function"
    },
    {
      "inputs": [],
      "name": "symbol",
      "outputs": [
        {
          "internalType": "string",
          "name": "",
          "type": "string"
        }
      ],
      "stateMutability": "view",
      "type": "function"
    },
    {
      "inputs": [],
      "name": "totalSupply",
      "outputs": [
        {
          "internalType": "uint256",
          "name": "",
          "type": "uint256"
        }
      ],
      "stateMutability": "view",
      "type": "function"
    },
    {
      "inputs": [
        {
          "internalType": "address",
          "name": "to",
          "type": "address"
        },
        {
          "internalType": "uint256",
          "name": "amount",
          "type": "uint256"
        }
      ],
      "name": "transfer",
      "outputs": [
        {
          "internalType": "bool",
          "name": "",
          "type": "bool"
        }
      ],
      "stateMutability": "nonpayable",
      "type": "function"
    },
    {
      "inputs": [
        {
          "internalType": "address",
          "name": "from",
          "type": "address"
        },
        {
          "internalType": "address",
          "name": "to",
          "type": "address"
        },
        {
          "internalType": "uint256",
          "name": "amount",
          "type": "uint256"
        }
      ],
      "name": "transferFrom",
      "outputs": [
        {
          "internalType": "bool",
          "name": "",
          "type": "bool"
        }
      ],
      "stateMutability": "nonpayable",
      "type": "function"
    },
    {
      "inputs": [],
      "name": "unpause",
      "outputs": [],
      "stateMutability": "nonpayable",
      "type": "function"
    },
    {
      "inputs": [
        {
          "internalType": "address",
          "name": "newImplementation",
          "type": "address"
        }
      ],
      "name": "upgradeTo",
      "outputs": [],
      "stateMutability": "nonpayable",
      "type": "function"
    },
    {
      "inputs": [
        {
          "internalType": "address",
          "name": "newImplementation",
          "type": "address"
        },
        {
          "internalType": "bytes",
          "name": "data",
          "type": "bytes"
        }
      ],
      "name": "upgradeToAndCall",
      "outputs": [],
      "stateMutability": "payable",
      "type": "function"
    }
  ],
  "bytecode": "0x60a06040523060805234801561001457600080fd5b5060805161206061004c600039600081816106a6015281816106e6015281816107bb015281816107fb015261087301526120606000f3fe6080604052600436106101525760003560e01c806301ffc9a71461015757806306fdde031461018c578063095ea7b3146101ae57806318160ddd146101ce57806323b872dd146101ed578063248a9ca31461020d5780632f2ff15d1461022d578063313ce5671461024f57806336568abe1461026b5780633659cfe61461028b57806339509351146102ab5780633f4ba83a146102cb57806340c10f19146102e05780634f1ef2861461030057806352d1902d146103135780635c975abb1461032857806370a08231146103405780638456cb591461037657806391d148541461038b57806395d89b41146103ab578063a217fddf146103c0578063a457c2d7146103d5578063a9059cbb146103f5578063c4d66de814610415578063d539139314610435578063d547741f14610457578063dd62ed3e14610477578063e63ab1e914610497578063f72c0d8b146104b9575b600080fd5b34801561016357600080fd5b506101776101723660046119cc565b6104db565b60405190151581526020015b60405180910390f35b34801561019857600080fd5b506101a1610512565b6040516101839190611a22565b3480156101ba57600080fd5b506101776101c9366004611a71565b6105a4565b3480156101da57600080fd5b506035545b604051908152602001610183565b3480156101f957600080fd5b50610177610208366004611a9b565b6105bc565b34801561021957600080fd5b506101df610228366004611ad7565b6105e2565b34801561023957600080fd5b5061024d610248366004611af0565b6105f7565b005b34801561025b57600080fd5b5060405160128152602001610183565b34801561027757600080fd5b5061024d610286366004611af0565b610618565b34801561029757600080fd5b5061024d6102a6366004611b1c565b61069b565b3480156102b757600080fd5b506101776102c6366004611a71565b610764565b3480156102d757600080fd5b5061024d610786565b3480156102ec57600080fd5b5061024d6102fb366004611a71565b6107a6565b61024d61030e366004611b4d565b6107b0565b34801561031f57600080fd5b506101df610866565b34801561033457600080fd5b5060655460ff16610177565b34801561034c57600080fd5b506101df61035b366004611b1c565b6001600160a01b031660009081526033602052604090205490565b34801561038257600080fd5b5061024d610914565b34801561039757600080fd5b506101776103a6366004611af0565b610934565b3480156103b757600080fd5b506101a161095f565b3480156103cc57600080fd5b506101df600081565b3480156103e157600080fd5b506101776103f0366004611a71565b61096e565b34801561040157600080fd5b50610177610410366004611a71565b6109f4565b34801561042157600080fd5b5061024d610430366004611b1c565b610a02565b34801561044157600080fd5b506101df600080516020611feb83398151915281565b34801561046357600080fd5b5061024d610472366004611af0565b610be5565b34801561048357600080fd5b506101df610492366004611c0e565b610c01565b3480156104a357600080fd5b506101df600080516020611fa483398151915281565b3480156104c557600080fd5b506101df600080516020611f6483398151915281565b60006001600160e01b03198216637965db0b60e01b148061050c57506301ffc9a760e01b6001600160e01b03198316145b92915050565b60606036805461052190611c38565b80601f016020809104026020016040519081016040528092919081815260200182805461054d90611c38565b801561059a5780601f1061056f5761010080835404028352916020019161059a565b820191906000526020600020905b81548152906001019060200180831161057d57829003601f168201915b5050505050905090565b6000336105b2818585610c2c565b5060019392505050565b6000336105ca858285610d50565b6105d5858585610dca565b60019150505b9392505050565b600090815260c9602052604090206001015490565b610600826105e2565b61060981610f6e565b6106138383610f78565b505050565b6001600160a01b038116331461068d5760405162461bcd60e51b815260206004820152602f60248201527f416363657373436f6e74726f6c3a2063616e206f6e6c792072656e6f756e636560448201526e103937b632b9903337b91039b2b63360891b60648201526084015b60405180910390fd5b6106978282610ffe565b5050565b306001600160a01b037f00000000000000000000000000000000000000000000000000000000000000001614156106e45760405162461bcd60e51b815260040161068490611c73565b7f00000000000000000000000000000000000000000000000000000000000000006001600160a01b0316610716611065565b6001600160a01b03161461073c5760405162461bcd60e51b815260040161068490611cad565b61074581611081565b6040805160008082526020820190925261076191839190611099565b50565b6000336105b28185856107778383610c01565b6107819190611cfd565b610c2c565b600080516020611fa483398151915261079e81610f6e565b610761611204565b6106978282611256565b306001600160a01b037f00000000000000000000000000000000000000000000000000000000000000001614156107f95760405162461bcd60e51b815260040161068490611c73565b7f00000000000000000000000000000000000000000000000000000000000000006001600160a01b031661082b611065565b6001600160a01b0316146108515760405162461bcd60e51b815260040161068490611cad565b61085a82611081565b61069782826001611099565b6000306001600160a01b037f000000000000000000000000000000000000000000000000000000000000000016146109015760405162461bcd60e51b815260206004820152603860248201527f555550535570677261646561626c653a206d757374206e6f742062652063616c6044820152771b1959081d1a1c9bdd59da0819195b1959d85d1958d85b1b60421b6064820152608401610684565b50600080516020611f8483398151915290565b600080516020611fa483398151915261092c81610f6e565b610761611311565b600091825260c9602090815260408084206001600160a01b0393909316845291905290205460ff1690565b60606037805461052190611c38565b6000338161097c8286610c01565b9050838110156109dc5760405162461bcd60e51b815260206004820152602560248201527f45524332303a2064656372656173656420616c6c6f77616e63652062656c6f77604482015264207a65726f60d81b6064820152608401610684565b6109e98286868403610c2c565b506001949350505050565b6000336105b2818585610dca565b600054610100900460ff1615808015610a225750600054600160ff909116105b80610a435750610a313061134e565b158015610a43575060005460ff166001145b610aa65760405162461bcd60e51b815260206004820152602e60248201527f496e697469616c697a61626c653a20636f6e747261637420697320616c72656160448201526d191e481a5b9a5d1a585b1a5e995960921b6064820152608401610684565b6000805460ff191660011790558015610ac9576000805461ff0019166101001790555b610b0f604051806040016040528060098152602001682a32b9ba2a37b5b2b760b91b8152506040518060400160405280600381526020016215195560ea1b81525061135d565b610b1761138e565b610b1f6113bf565b610b276113bf565b610b32600083610f78565b610b4a600080516020611fa483398151915283610f78565b610b6c82610b5a6012600a611df9565b610b6790620f4240611e08565b611256565b610b84600080516020611feb83398151915283610f78565b610b9c600080516020611f6483398151915283610f78565b8015610697576000805461ff0019169055604051600181527f7f26b83ff96e1f2b6a682f133852f6798a09c465da95921460cefb38474024989060200160405180910390a15050565b610bee826105e2565b610bf781610f6e565b6106138383610ffe565b6001600160a01b03918216600090815260346020908152604080832093909416825291909152205490565b6001600160a01b038316610c8e5760405162461bcd60e51b8152602060048201526024808201527f45524332303a20617070726f76652066726f6d20746865207a65726f206164646044820152637265737360e01b6064820152608401610684565b6001600160a01b038216610cef5760405162461bcd60e51b815260206004820152602260248201527f45524332303a20617070726f766520746f20746865207a65726f206164647265604482015261737360f01b6064820152608401610684565b6001600160a01b0383811660008181526034602090815260408083209487168084529482529182902085905590518481527f8c5be1e5ebec7d5bd14f71427d1e84f3dd0314c0f7b2291e5b200ac8c7c3b925910160405180910390a3505050565b6000610d5c8484610c01565b90506000198114610dc45781811015610db75760405162461bcd60e51b815260206004820152601d60248201527f45524332303a20696e73756666696369656e7420616c6c6f77616e63650000006044820152606401610684565b610dc48484848403610c2c565b50505050565b6001600160a01b038316610e2e5760405162461bcd60e51b815260206004820152602560248201527f45524332303a207472616e736665722066726f6d20746865207a65726f206164604482015264647265737360d81b6064820152608401610684565b6001600160a01b038216610e905760405162461bcd60e51b815260206004820152602360248201527f45524332303a207472616e7366657220746f20746865207a65726f206164647260448201526265737360e81b6064820152608401610684565b610e9b8383836113e6565b6001600160a01b03831660009081526033602052604090205481811015610f135760405162461bcd60e51b815260206004820152602660248201527f45524332303a207472616e7366657220616d6f756e7420657863656564732062604482015265616c616e636560d01b6064820152608401610684565b6001600160a01b03808516600081815260336020526040808220868603905592861680825290839020805486019055915160008051602061200b83398151915290610f619086815260200190565b60405180910390a3610dc4565b61076181336113ee565b610f828282610934565b61069757600082815260c9602090815260408083206001600160a01b03851684529091529020805460ff19166001179055610fba3390565b6001600160a01b0316816001600160a01b0316837f2f8788117e7eff1d82e926ec794901d17c78024a50270940304540a733656f0d60405160405180910390a45050565b6110088282610934565b1561069757600082815260c9602090815260408083206001600160a01b0385168085529252808320805460ff1916905551339285917ff6391f5c32d9c69d2a47ea670b442974b53935d1edc7fd64eb21e047a839171b9190a45050565b600080516020611f84833981519152546001600160a01b031690565b600080516020611f6483398151915261069781610f6e565b7f4910fdfa16fed3260ed0e7147f7cc6da11a60208b5b9406d12a635614ffd91435460ff16156110cc5761061383611447565b826001600160a01b03166352d1902d6040518163ffffffff1660e01b8152600401602060405180830381865afa925050508015611126575060408051601f3d908101601f1916820190925261112391810190611e27565b60015b6111895760405162461bcd60e51b815260206004820152602e60248201527f45524331393637557067726164653a206e657720696d706c656d656e7461746960448201526d6f6e206973206e6f74205555505360901b6064820152608401610684565b600080516020611f8483398151915281146111f85760405162461bcd60e51b815260206004820152602960248201527f45524331393637557067726164653a20756e737570706f727465642070726f786044820152681a58589b195555525160ba1b6064820152608401610684565b506106138383836114e1565b61120c611506565b6065805460ff191690557f5db9ee0a495bf2e6ff9c91a7834c1ba4fdd244a5e8aa4e537bd38aeae4b073aa335b6040516001600160a01b03909116815260200160405180910390a1565b6001600160a01b0382166112ac5760405162461bcd60e51b815260206004820152601f60248201527f45524332303a206d696e7420746f20746865207a65726f2061646472657373006044820152606401610684565b6112b8600083836113e6565b80603560008282546112ca9190611cfd565b90915550506001600160a01b03821660008181526033602090815260408083208054860190555184815260008051602061200b833981519152910160405180910390a35050565b61131961154f565b6065805460ff191660011790557f62e78cea01bee320cd4e420270b5ea74000d11b0c9f74754ebdbfc544b05a2586112393390565b6001600160a01b03163b151590565b600054610100900460ff166113845760405162461bcd60e51b815260040161068490611e40565b6106978282611595565b600054610100900460ff166113b55760405162461bcd60e51b815260040161068490611e40565b6113bd6115e3565b565b600054610100900460ff166113bd5760405162461bcd60e51b815260040161068490611e40565b61061361154f565b6113f88282610934565b6106975761140581611616565b611410836020611628565b604051602001611421929190611e8b565b60408051601f198184030181529082905262461bcd60e51b825261068491600401611a22565b6114508161134e565b6114b25760405162461bcd60e51b815260206004820152602d60248201527f455243313936373a206e657720696d706c656d656e746174696f6e206973206e60448201526c1bdd08184818dbdb9d1c9858dd609a1b6064820152608401610684565b600080516020611f8483398151915280546001600160a01b0319166001600160a01b0392909216919091179055565b6114ea836117c3565b6000825111806114f75750805b1561061357610dc48383611803565b60655460ff166113bd5760405162461bcd60e51b815260206004820152601460248201527314185d5cd8589b194e881b9bdd081c185d5cd95960621b6044820152606401610684565b60655460ff16156113bd5760405162461bcd60e51b815260206004820152601060248201526f14185d5cd8589b194e881c185d5cd95960821b6044820152606401610684565b600054610100900460ff166115bc5760405162461bcd60e51b815260040161068490611e40565b81516115cf906036906020850190611933565b508051610613906037906020840190611933565b600054610100900460ff1661160a5760405162461bcd60e51b815260040161068490611e40565b6065805460ff19169055565b606061050c6001600160a01b03831660145b60606000611637836002611e08565b611642906002611cfd565b6001600160401b0381111561165957611659611b37565b6040519080825280601f01601f191660200182016040528015611683576020820181803683370190505b509050600360fc1b8160008151811061169e5761169e611efa565b60200101906001600160f81b031916908160001a905350600f60fb1b816001815181106116cd576116cd611efa565b60200101906001600160f81b031916908160001a90535060006116f1846002611e08565b6116fc906001611cfd565b90505b6001811115611774576f181899199a1a9b1b9c1cb0b131b232b360811b85600f166010811061173057611730611efa565b1a60f81b82828151811061174657611746611efa565b60200101906001600160f81b031916908160001a90535060049490941c9361176d81611f10565b90506116ff565b5083156105db5760405162461bcd60e51b815260206004820181905260248201527f537472696e67733a20686578206c656e67746820696e73756666696369656e746044820152606401610684565b6117cc81611447565b6040516001600160a01b038216907fbc7cd75a20ee27fd9adebab32041f755214dbc6bffa90cc0225b39da2e5c2d3b90600090a250565b606061180e8361134e565b6118695760405162461bcd60e51b815260206004820152602660248201527f416464726573733a2064656c65676174652063616c6c20746f206e6f6e2d636f6044820152651b9d1c9858dd60d21b6064820152608401610684565b600080846001600160a01b0316846040516118849190611f27565b600060405180830381855af49150503d80600081146118bf576040519150601f19603f3d011682016040523d82523d6000602084013e6118c4565b606091505b50915091506118ec8282604051806060016040528060278152602001611fc4602791396118f5565b95945050505050565b606083156119045750816105db565b6105db83838151156119195781518083602001fd5b8060405162461bcd60e51b81526004016106849190611a22565b82805461193f90611c38565b90600052602060002090601f01602090048101928261196157600085556119a7565b82601f1061197a57805160ff19168380011785556119a7565b828001600101855582156119a7579182015b828111156119a757825182559160200191906001019061198c565b506119b39291506119b7565b5090565b5b808211156119b357600081556001016119b8565b6000602082840312156119de57600080fd5b81356001600160e01b0319811681146105db57600080fd5b60005b83811015611a115781810151838201526020016119f9565b83811115610dc45750506000910152565b6020815260008251806020840152611a418160408501602087016119f6565b601f01601f19169190910160400192915050565b80356001600160a01b0381168114611a6c57600080fd5b919050565b60008060408385031215611a8457600080fd5b611a8d83611a55565b946020939093013593505050565b600080600060608486031215611ab057600080fd5b611ab984611a55565b9250611ac760208501611a55565b9150604084013590509250925092565b600060208284031215611ae957600080fd5b5035919050565b60008060408385031215611b0357600080fd5b82359150611b1360208401611a55565b90509250929050565b600060208284031215611b2e57600080fd5b6105db82611a55565b634e487b7160e01b600052604160045260246000fd5b60008060408385031215611b6057600080fd5b611b6983611a55565b915060208301356001600160401b0380821115611b8557600080fd5b818501915085601f830112611b9957600080fd5b813581811115611bab57611bab611b37565b604051601f8201601f19908116603f01168101908382118183101715611bd357611bd3611b37565b81604052828152886020848701011115611bec57600080fd5b8260208601602083013760006020848301015280955050505050509250929050565b60008060408385031215611c2157600080fd5b611c2a83611a55565b9150611b1360208401611a55565b600181811c90821680611c4c57607f821691505b60208210811415611c6d57634e487b7160e01b600052602260045260246000fd5b50919050565b6020808252602c90820152600080516020611f4483398151915260408201526b19195b1959d85d1958d85b1b60a21b606082015260800190565b6020808252602c90820152600080516020611f4483398151915260408201526b6163746976652070726f787960a01b606082015260800190565b634e487b7160e01b600052601160045260246000fd5b60008219821115611d1057611d10611ce7565b500190565b600181815b80851115611d50578160001904821115611d3657611d36611ce7565b80851615611d4357918102915b93841c9390800290611d1a565b509250929050565b600082611d675750600161050c565b81611d745750600061050c565b8160018114611d8a5760028114611d9457611db0565b600191505061050c565b60ff841115611da557611da5611ce7565b50506001821b61050c565b5060208310610133831016604e8410600b8410161715611dd3575081810a61050c565b611ddd8383611d15565b8060001904821115611df157611df1611ce7565b029392505050565b60006105db60ff841683611d58565b6000816000190483118215151615611e2257611e22611ce7565b500290565b600060208284031215611e3957600080fd5b5051919050565b6020808252602b908201527f496e697469616c697a61626c653a20636f6e7472616374206973206e6f74206960408201526a6e697469616c697a696e6760a81b606082015260800190565b76020b1b1b2b9b9a1b7b73a3937b61d1030b1b1b7bab73a1604d1b815260008351611ebd8160178501602088016119f6565b7001034b99036b4b9b9b4b733903937b6329607d1b6017918401918201528351611eee8160288401602088016119f6565b01602801949350505050565b634e487b7160e01b600052603260045260246000fd5b600081611f1f57611f1f611ce7565b506000190190565b60008251611f398184602087016119f6565b919091019291505056fe46756e6374696f6e206d7573742062652063616c6c6564207468726f75676820189ab7a9244df0848122154315af71fe140f3db0fe014031783b0946b8c9d2e3360894a13ba1a3210667c828492db98dca3e2076cc3735a920a3ca505d382bbc65d7a28e3265b37a6474929f336521b332c1681b933f6cb9f3376673440d862a416464726573733a206c6f772d6c6576656c2064656c65676174652063616c6c206661696c65649f2df0fed2c77648de5860a4cc508cd0818c85b8b8a1ab4ceeef8d981c8956a6ddf252ad1be2c89b69c2b068fc378daa952ba7f163c4a11628f55a4df523b3efa2646970667358221220fac93a8d3396852319f7cd2383609f2954cc4c1ebf53c71d82b28e196da98b9364736f6c634300080b0033",
  "linkReferences": {},
  "deployedLinkReferences": {}
}