{
  "_format": "hh-sol-artifact-1",
  "contractName": "FakeToken",
  "sourceName": "contracts/FakeToken.sol",
  "abi": [
    {
      "anonymous": false,
      "inputs": [
        {
          "indexed": false,
          "internalType": "address",
          "name": "previousAdmin",
          "type": "address"
        },
        {
          "indexed": false,
          "internalType": "address",
          "name": "newAdmin",
          "type": "address"
        }
      ],
      "name": "AdminChanged",
      "type": "event"
    },
    {
      "anonymous": false,
      "inputs": [
        {
          "indexed": true,
          "internalType": "address",
          "name": "owner",
          "type": "address"
        },
        {
          "indexed": true,
          "internalType": "address",
          "name": "spender",
          "type": "address"
        },
        {
          "indexed": false,
          "internalType": "uint256",
          "name": "value",
          "type": "uint256"
        }
      ],
      "name": "Approval",
      "type": "event"
    },
    {
      "anonymous": false,
      "inputs": [
        {
          "indexed": true,
          "internalType": "address",
          "name": "beacon",
          "type": "address"
        }
      ],
      "name": "BeaconUpgraded",
      "type": "event"
    },
    {
      "anonymous": false,
      "inputs": [
        {
          "indexed": false,
          "internalType": "uint8",
          "name": "version",
          "type": "uint8"
        }
      ],
      "name": "Initialized",
      "type": "event"
    },
    {
      "anonymous": false,
      "inputs": [
        {
          "indexed": false,
          "internalType": "address",
          "name": "account",
          "type": "address"
        }
      ],
      "name": "Paused",
      "type": "event"
    },
    {
      "anonymous": false,
      "inputs": [
        {
          "indexed": true,
          "internalType": "bytes32",
          "name": "role",
          "type": "bytes32"
        },
        {
          "indexed": true,
          "internalType": "bytes32",
          "name": "previousAdminRole",
          "type": "bytes32"
        },
        {
          "indexed": true,
          "internalType": "bytes32",
          "name": "newAdminRole",
          "type": "bytes32"
        }
      ],
      "name": "RoleAdminChanged",
      "type": "event"
    },
    {
      "anonymous": false,
      "inputs": [
        {
          "indexed": true,
          "internalType": "bytes32",
          "name": "role",
          "type": "bytes32"
        },
        {
          "indexed": true,
          "internalType": "address",
          "name": "account",
          "type": "address"
        },
        {
          "indexed": true,
          "internalType": "address",
          "name": "sender",
          "type": "address"
        }
      ],
      "name": "RoleGranted",
      "type": "event"
    },
    {
      "anonymous": false,
      "inputs": [
        {
          "indexed": true,
          "internalType": "bytes32",
          "name": "role",
          "type": "bytes32"
        },
        {
          "indexed": true,
          "internalType": "address",
          "name": "account",
          "type": "address"
        },
        {
          "indexed": true,
          "internalType": "address",
          "name": "sender",
          "type": "address"
        }
      ],
      "name": "RoleRevoked",
      "type": "event"
    },
    {
      "anonymous": false,
      "inputs": [
        {
          "indexed": true,
          "internalType": "address",
          "name": "from",
          "type": "address"
        },
        {
          "indexed": true,
          "internalType": "address",
          "name": "to",
          "type": "address"
        },
        {
          "indexed": false,
          "internalType": "uint256",
          "name": "value",
          "type": "uint256"
        }
      ],
      "name": "Transfer",
      "type": "event"
    },
    {
      "anonymous": false,
      "inputs": [
        {
          "indexed": false,
          "internalType": "address",
          "name": "account",
          "type": "address"
        }
      ],
      "name": "Unpaused",
      "type": "event"
    },
    {
      "anonymous": false,
      "inputs": [
        {
          "indexed": true,
          "internalType": "address",
          "name": "implementation",
          "type": "address"
        }
      ],
      "name": "Upgraded",
      "type": "event"
    },
    {
      "inputs": [],
      "name": "DEFAULT_ADMIN_ROLE",
      "outputs": [
        {
          "internalType": "bytes32",
          "name": "",
          "type": "bytes32"
        }
      ],
      "stateMutability": "view",
      "type": "function"
    },
    {
      "inputs": [],
      "name": "MINTER_ROLE",
      "outputs": [
        {
          "internalType": "bytes32",
          "name": "",
          "type": "bytes32"
        }
      ],
      "stateMutability": "view",
      "type": "function"
    },
    {
      "inputs": [],
      "name": "PAUSER_ROLE",
      "outputs": [
        {
          "internalType": "bytes32",
          "name": "",
          "type": "bytes32"
        }
      ],
      "stateMutability": "view",
      "type": "function"
    },
    {
      "inputs": [],
      "name": "UPGRADER_ROLE",
      "outputs": [
        {
          "internalType": "bytes32",
          "name": "",
          "type": "bytes32"
        }
      ],
      "stateMutability": "view",
      "type": "function"
    },
    {
      "inputs": [
        {
          "internalType": "address",
          "name": "owner",
          "type": "address"
        },
        {
          "internalType": "address",
          "name": "spender",
          "type": "address"
        }
      ],
      "name": "allowance",
      "outputs": [
        {
          "internalType": "uint256",
          "name": "",
          "type": "uint256"
        }
      ],
      "stateMutability": "view",
      "type": "function"
    },
    {
      "inputs": [
        {
          "internalType": "address",
          "name": "spender",
          "type": "address"
        },
        {
          "internalType": "uint256",
          "name": "amount",
          "type": "uint256"
        }
      ],
      "name": "approve",
      "outputs": [
        {
          "internalType": "bool",
          "name": "",
          "type": "bool"
        }
      ],
      "stateMutability": "nonpayable",
      "type": "function"
    },
    {
      "inputs": [
        {
          "internalType": "address",
          "name": "account",
          "type": "address"
        }
      ],
      "name": "balanceOf",
      "outputs": [
        {
          "internalType": "uint256",
          "name": "",
          "type": "uint256"
        }
      ],
      "stateMutability": "view",
      "type": "function"
    },
    {
      "inputs": [],
      "name": "decimals",
      "outputs": [
        {
          "internalType": "uint8",
          "name": "",
          "type": "uint8"
        }
      ],
      "stateMutability": "view",
      "type": "function"
    },
    {
      "inputs": [
        {
          "internalType": "address",
          "name": "spender",
          "type": "address"
        },
        {
          "internalType": "uint256",
          "name": "subtractedValue",
          "type": "uint256"
        }
      ],
      "name": "decreaseAllowance",
      "outputs": [
        {
          "internalType": "bool",
          "name": "",
          "type": "bool"
        }
      ],
      "stateMutability": "nonpayable",
      "type": "function"
    },
    {
      "inputs": [
        {
          "internalType": "bytes32",
          "name": "role",
          "type": "bytes32"
        }
      ],
      "name": "getRoleAdmin",
      "outputs": [
        {
          "internalType": "bytes32",
          "name": "",
          "type": "bytes32"
        }
      ],
      "stateMutability": "view",
      "type": "function"
    },
    {
      "inputs": [
        {
          "internalType": "bytes32",
          "name": "role",
          "type": "bytes32"
        },
        {
          "internalType": "address",
          "name": "account",
          "type": "address"
        }
      ],
      "name": "grantRole",
      "outputs": [],
      "stateMutability": "nonpayable",
      "type": "function"
    },
    {
      "inputs": [
        {
          "internalType": "bytes32",
          "name": "role",
          "type": "bytes32"
        },
        {
          "internalType": "address",
          "name": "account",
          "type": "address"
        }
      ],
      "name": "hasRole",
      "outputs": [
        {
          "internalType": "bool",
          "name": "",
          "type": "bool"
        }
      ],
      "stateMutability": "view",
      "type": "function"
    },
    {
      "inputs": [
        {
          "internalType": "address",
          "name": "spender",
          "type": "address"
        },
        {
          "internalType": "uint256",
          "name": "addedValue",
          "type": "uint256"
        }
      ],
      "name": "increaseAllowance",
      "outputs": [
        {
          "internalType": "bool",
          "name": "",
          "type": "bool"
        }
      ],
      "stateMutability": "nonpayable",
      "type": "function"
    },
    {
      "inputs": [
        {
          "internalType": "address",
          "name": "_admin",
          "type": "address"
        },
        {
          "internalType": "uint8",
          "name": "_tokenDecimals",
          "type": "uint8"
        }
      ],
      "name": "initialize",
      "outputs": [],
      "stateMutability": "nonpayable",
      "type": "function"
    },
    {
      "inputs": [
        {
          "internalType": "address",
          "name": "to",
          "type": "address"
        },
        {
          "internalType": "uint256",
          "name": "amount",
          "type": "uint256"
        }
      ],
      "name": "mint",
      "outputs": [],
      "stateMutability": "nonpayable",
      "type": "function"
    },
    {
      "inputs": [],
      "name": "name",
      "outputs": [
        {
          "internalType": "string",
          "name": "",
          "type": "string"
        }
      ],
      "stateMutability": "view",
      "type": "function"
    },
    {
      "inputs": [],
      "name": "pause",
      "outputs": [],
      "stateMutability": "nonpayable",
      "type": "function"
    },
    {
      "inputs": [],
      "name": "paused",
      "outputs": [
        {
          "internalType": "bool",
          "name": "",
          "type": "bool"
        }
      ],
      "stateMutability": "view",
      "type": "function"
    },
    {
      "inputs": [],
      "name": "proxiableUUID",
      "outputs": [
        {
          "internalType": "bytes32",
          "name": "",
          "type": "bytes32"
        }
      ],
      "stateMutability": "view",
      "type": "function"
    },
    {
      "inputs": [
        {
          "internalType": "bytes32",
          "name": "role",
          "type": "bytes32"
        },
        {
          "internalType": "address",
          "name": "account",
          "type": "address"
        }
      ],
      "name": "renounceRole",
      "outputs": [],
      "stateMutability": "nonpayable",
      "type": "function"
    },
    {
      "inputs": [
        {
          "internalType": "bytes32",
          "name": "role",
          "type": "bytes32"
        },
        {
          "internalType": "address",
          "name": "account",
          "type": "address"
        }
      ],
      "name": "revokeRole",
      "outputs": [],
      "stateMutability": "nonpayable",
      "type": "function"
    },
    {
      "inputs": [
        {
          "internalType": "bytes4",
          "name": "interfaceId",
          "type": "bytes4"
        }
      ],
      "name": "supportsInterface",
      "outputs": [
        {
          "internalType": "bool",
          "name": "",
          "type": "bool"
        }
      ],
      "stateMutability": "view",
      "type": "function"
    },
    {
      "inputs": [],
      "name": "symbol",
      "outputs": [
        {
          "internalType": "string",
          "name": "",
          "type": "string"
        }
      ],
      "stateMutability": "view",
      "type": "function"
    },
    {
      "inputs": [],
      "name": "tokenDecimals",
      "outputs": [
        {
          "internalType": "uint8",
          "name": "",
          "type": "uint8"
        }
      ],
      "stateMutability": "view",
      "type": "function"
    },
    {
      "inputs": [],
      "name": "totalSupply",
      "outputs": [
        {
          "internalType": "uint256",
          "name": "",
          "type": "uint256"
        }
      ],
      "stateMutability": "view",
      "type": "function"
    },
    {
      "inputs": [
        {
          "internalType": "address",
          "name": "to",
          "type": "address"
        },
        {
          "internalType": "uint256",
          "name": "amount",
          "type": "uint256"
        }
      ],
      "name": "transfer",
      "outputs": [
        {
          "internalType": "bool",
          "name": "",
          "type": "bool"
        }
      ],
      "stateMutability": "nonpayable",
      "type": "function"
    },
    {
      "inputs": [
        {
          "internalType": "address",
          "name": "from",
          "type": "address"
        },
        {
          "internalType": "address",
          "name": "to",
          "type": "address"
        },
        {
          "internalType": "uint256",
          "name": "amount",
          "type": "uint256"
        }
      ],
      "name": "transferFrom",
      "outputs": [
        {
          "internalType": "bool",
          "name": "",
          "type": "bool"
        }
      ],
      "stateMutability": "nonpayable",
      "type": "function"
    },
    {
      "inputs": [],
      "name": "unpause",
      "outputs": [],
      "stateMutability": "nonpayable",
      "type": "function"
    },
    {
      "inputs": [
        {
          "internalType": "address",
          "name": "newImplementation",
          "type": "address"
        }
      ],
      "name": "upgradeTo",
      "outputs": [],
      "stateMutability": "nonpayable",
      "type": "function"
    },
    {
      "inputs": [
        {
          "internalType": "address",
          "name": "newImplementation",
          "type": "address"
        },
        {
          "internalType": "bytes",
          "name": "data",
          "type": "bytes"
        }
      ],
      "name": "upgradeToAndCall",
      "outputs": [],
      "stateMutability": "payable",
      "type": "function"
    }
  ],
  "bytecode": "0x60a06040523060805234801561001457600080fd5b506080516120e361004c600039600081816106d701528181610717015281816107ec0152818161082c01526108a401526120e36000f3fe60806040526004361061015d5760003560e01c806301ffc9a71461016257806306fdde0314610197578063095ea7b3146101b957806318160ddd146101d957806323b872dd146101f8578063248a9ca3146102185780632f2ff15d14610238578063313ce5671461025a57806336568abe146102815780633659cfe6146102a157806339509351146102c15780633b97e856146102e15780633f4ba83a146102fc57806340c10f19146103115780634f1ef2861461033157806352d1902d146103445780635c975abb1461035957806370a08231146103715780638456cb59146103a757806391d14854146103bc578063943b24b2146103dc57806395d89b41146103fc578063a217fddf14610411578063a457c2d714610426578063a9059cbb14610446578063d539139314610466578063d547741f14610488578063dd62ed3e146104a8578063e63ab1e9146104c8578063f72c0d8b146104ea575b600080fd5b34801561016e57600080fd5b5061018261017d366004611a12565b61050c565b60405190151581526020015b60405180910390f35b3480156101a357600080fd5b506101ac610543565b60405161018e9190611a68565b3480156101c557600080fd5b506101826101d4366004611ab7565b6105d5565b3480156101e557600080fd5b506035545b60405190815260200161018e565b34801561020457600080fd5b50610182610213366004611ae1565b6105ed565b34801561022457600080fd5b506101ea610233366004611b1d565b610613565b34801561024457600080fd5b50610258610253366004611b36565b610628565b005b34801561026657600080fd5b5061015f5460ff165b60405160ff909116815260200161018e565b34801561028d57600080fd5b5061025861029c366004611b36565b610649565b3480156102ad57600080fd5b506102586102bc366004611b62565b6106cc565b3480156102cd57600080fd5b506101826102dc366004611ab7565b610795565b3480156102ed57600080fd5b5061015f5461026f9060ff1681565b34801561030857600080fd5b506102586107b7565b34801561031d57600080fd5b5061025861032c366004611ab7565b6107d7565b61025861033f366004611b93565b6107e1565b34801561035057600080fd5b506101ea610897565b34801561036557600080fd5b5060655460ff16610182565b34801561037d57600080fd5b506101ea61038c366004611b62565b6001600160a01b031660009081526033602052604090205490565b3480156103b357600080fd5b50610258610945565b3480156103c857600080fd5b506101826103d7366004611b36565b610965565b3480156103e857600080fd5b506102586103f7366004611c54565b610990565b34801561040857600080fd5b506101ac610b88565b34801561041d57600080fd5b506101ea600081565b34801561043257600080fd5b50610182610441366004611ab7565b610b97565b34801561045257600080fd5b50610182610461366004611ab7565b610c1d565b34801561047257600080fd5b506101ea60008051602061206e83398151915281565b34801561049457600080fd5b506102586104a3366004611b36565b610c2b565b3480156104b457600080fd5b506101ea6104c3366004611c91565b610c47565b3480156104d457600080fd5b506101ea60008051602061202783398151915281565b3480156104f657600080fd5b506101ea600080516020611fe783398151915281565b60006001600160e01b03198216637965db0b60e01b148061053d57506301ffc9a760e01b6001600160e01b03198316145b92915050565b60606036805461055290611cbb565b80601f016020809104026020016040519081016040528092919081815260200182805461057e90611cbb565b80156105cb5780601f106105a0576101008083540402835291602001916105cb565b820191906000526020600020905b8154815290600101906020018083116105ae57829003601f168201915b5050505050905090565b6000336105e3818585610c72565b5060019392505050565b6000336105fb858285610d96565b610606858585610e10565b60019150505b9392505050565b600090815260c9602052604090206001015490565b61063182610613565b61063a81610fb4565b6106448383610fbe565b505050565b6001600160a01b03811633146106be5760405162461bcd60e51b815260206004820152602f60248201527f416363657373436f6e74726f6c3a2063616e206f6e6c792072656e6f756e636560448201526e103937b632b9903337b91039b2b63360891b60648201526084015b60405180910390fd5b6106c88282611044565b5050565b306001600160a01b037f00000000000000000000000000000000000000000000000000000000000000001614156107155760405162461bcd60e51b81526004016106b590611cf6565b7f00000000000000000000000000000000000000000000000000000000000000006001600160a01b03166107476110ab565b6001600160a01b03161461076d5760405162461bcd60e51b81526004016106b590611d30565b610776816110c7565b60408051600080825260208201909252610792918391906110df565b50565b6000336105e38185856107a88383610c47565b6107b29190611d80565b610c72565b6000805160206120278339815191526107cf81610fb4565b61079261124a565b6106c8828261129c565b306001600160a01b037f000000000000000000000000000000000000000000000000000000000000000016141561082a5760405162461bcd60e51b81526004016106b590611cf6565b7f00000000000000000000000000000000000000000000000000000000000000006001600160a01b031661085c6110ab565b6001600160a01b0316146108825760405162461bcd60e51b81526004016106b590611d30565b61088b826110c7565b6106c8828260016110df565b6000306001600160a01b037f000000000000000000000000000000000000000000000000000000000000000016146109325760405162461bcd60e51b815260206004820152603860248201527f555550535570677261646561626c653a206d757374206e6f742062652063616c6044820152771b1959081d1a1c9bdd59da0819195b1959d85d1958d85b1b60421b60648201526084016106b5565b5060008051602061200783398151915290565b60008051602061202783398151915261095d81610fb4565b610792611357565b600091825260c9602090815260408084206001600160a01b0393909316845291905290205460ff1690565b600054610100900460ff16158080156109b05750600054600160ff909116105b806109d157506109bf30611394565b1580156109d1575060005460ff166001145b610a345760405162461bcd60e51b815260206004820152602e60248201527f496e697469616c697a61626c653a20636f6e747261637420697320616c72656160448201526d191e481a5b9a5d1a585b1a5e995960921b60648201526084016106b5565b6000805460ff191660011790558015610a57576000805461ff0019166101001790555b610a9d604051806040016040528060098152602001682a32b9ba2a37b5b2b760b91b8152506040518060400160405280600381526020016215195560ea1b8152506113a3565b610aa56113d4565b610aad611405565b610ab5611405565b610ac0600084610fbe565b610ad860008051602061202783398151915284610fbe565b610af060008051602061206e83398151915284610fbe565b610b08600080516020611fe783398151915284610fbe565b61015f805460ff191660ff8416908117909155610b3e908490610b2c90600a611e7c565b610b399062989680611e8b565b61129c565b8015610644576000805461ff0019169055604051600181527f7f26b83ff96e1f2b6a682f133852f6798a09c465da95921460cefb38474024989060200160405180910390a1505050565b60606037805461055290611cbb565b60003381610ba58286610c47565b905083811015610c055760405162461bcd60e51b815260206004820152602560248201527f45524332303a2064656372656173656420616c6c6f77616e63652062656c6f77604482015264207a65726f60d81b60648201526084016106b5565b610c128286868403610c72565b506001949350505050565b6000336105e3818585610e10565b610c3482610613565b610c3d81610fb4565b6106448383611044565b6001600160a01b03918216600090815260346020908152604080832093909416825291909152205490565b6001600160a01b038316610cd45760405162461bcd60e51b8152602060048201526024808201527f45524332303a20617070726f76652066726f6d20746865207a65726f206164646044820152637265737360e01b60648201526084016106b5565b6001600160a01b038216610d355760405162461bcd60e51b815260206004820152602260248201527f45524332303a20617070726f766520746f20746865207a65726f206164647265604482015261737360f01b60648201526084016106b5565b6001600160a01b0383811660008181526034602090815260408083209487168084529482529182902085905590518481527f8c5be1e5ebec7d5bd14f71427d1e84f3dd0314c0f7b2291e5b200ac8c7c3b925910160405180910390a3505050565b6000610da28484610c47565b90506000198114610e0a5781811015610dfd5760405162461bcd60e51b815260206004820152601d60248201527f45524332303a20696e73756666696369656e7420616c6c6f77616e636500000060448201526064016106b5565b610e0a8484848403610c72565b50505050565b6001600160a01b038316610e745760405162461bcd60e51b815260206004820152602560248201527f45524332303a207472616e736665722066726f6d20746865207a65726f206164604482015264647265737360d81b60648201526084016106b5565b6001600160a01b038216610ed65760405162461bcd60e51b815260206004820152602360248201527f45524332303a207472616e7366657220746f20746865207a65726f206164647260448201526265737360e81b60648201526084016106b5565b610ee183838361142c565b6001600160a01b03831660009081526033602052604090205481811015610f595760405162461bcd60e51b815260206004820152602660248201527f45524332303a207472616e7366657220616d6f756e7420657863656564732062604482015265616c616e636560d01b60648201526084016106b5565b6001600160a01b03808516600081815260336020526040808220868603905592861680825290839020805486019055915160008051602061208e83398151915290610fa79086815260200190565b60405180910390a3610e0a565b6107928133611434565b610fc88282610965565b6106c857600082815260c9602090815260408083206001600160a01b03851684529091529020805460ff191660011790556110003390565b6001600160a01b0316816001600160a01b0316837f2f8788117e7eff1d82e926ec794901d17c78024a50270940304540a733656f0d60405160405180910390a45050565b61104e8282610965565b156106c857600082815260c9602090815260408083206001600160a01b0385168085529252808320805460ff1916905551339285917ff6391f5c32d9c69d2a47ea670b442974b53935d1edc7fd64eb21e047a839171b9190a45050565b600080516020612007833981519152546001600160a01b031690565b600080516020611fe78339815191526106c881610fb4565b7f4910fdfa16fed3260ed0e7147f7cc6da11a60208b5b9406d12a635614ffd91435460ff1615611112576106448361148d565b826001600160a01b03166352d1902d6040518163ffffffff1660e01b8152600401602060405180830381865afa92505050801561116c575060408051601f3d908101601f1916820190925261116991810190611eaa565b60015b6111cf5760405162461bcd60e51b815260206004820152602e60248201527f45524331393637557067726164653a206e657720696d706c656d656e7461746960448201526d6f6e206973206e6f74205555505360901b60648201526084016106b5565b600080516020612007833981519152811461123e5760405162461bcd60e51b815260206004820152602960248201527f45524331393637557067726164653a20756e737570706f727465642070726f786044820152681a58589b195555525160ba1b60648201526084016106b5565b50610644838383611527565b61125261154c565b6065805460ff191690557f5db9ee0a495bf2e6ff9c91a7834c1ba4fdd244a5e8aa4e537bd38aeae4b073aa335b6040516001600160a01b03909116815260200160405180910390a1565b6001600160a01b0382166112f25760405162461bcd60e51b815260206004820152601f60248201527f45524332303a206d696e7420746f20746865207a65726f20616464726573730060448201526064016106b5565b6112fe6000838361142c565b80603560008282546113109190611d80565b90915550506001600160a01b03821660008181526033602090815260408083208054860190555184815260008051602061208e833981519152910160405180910390a35050565b61135f611595565b6065805460ff191660011790557f62e78cea01bee320cd4e420270b5ea74000d11b0c9f74754ebdbfc544b05a25861127f3390565b6001600160a01b03163b151590565b600054610100900460ff166113ca5760405162461bcd60e51b81526004016106b590611ec3565b6106c882826115db565b600054610100900460ff166113fb5760405162461bcd60e51b81526004016106b590611ec3565b611403611629565b565b600054610100900460ff166114035760405162461bcd60e51b81526004016106b590611ec3565b610644611595565b61143e8282610965565b6106c85761144b8161165c565b61145683602061166e565b604051602001611467929190611f0e565b60408051601f198184030181529082905262461bcd60e51b82526106b591600401611a68565b61149681611394565b6114f85760405162461bcd60e51b815260206004820152602d60248201527f455243313936373a206e657720696d706c656d656e746174696f6e206973206e60448201526c1bdd08184818dbdb9d1c9858dd609a1b60648201526084016106b5565b60008051602061200783398151915280546001600160a01b0319166001600160a01b0392909216919091179055565b61153083611809565b60008251118061153d5750805b1561064457610e0a8383611849565b60655460ff166114035760405162461bcd60e51b815260206004820152601460248201527314185d5cd8589b194e881b9bdd081c185d5cd95960621b60448201526064016106b5565b60655460ff16156114035760405162461bcd60e51b815260206004820152601060248201526f14185d5cd8589b194e881c185d5cd95960821b60448201526064016106b5565b600054610100900460ff166116025760405162461bcd60e51b81526004016106b590611ec3565b8151611615906036906020850190611979565b508051610644906037906020840190611979565b600054610100900460ff166116505760405162461bcd60e51b81526004016106b590611ec3565b6065805460ff19169055565b606061053d6001600160a01b03831660145b6060600061167d836002611e8b565b611688906002611d80565b6001600160401b0381111561169f5761169f611b7d565b6040519080825280601f01601f1916602001820160405280156116c9576020820181803683370190505b509050600360fc1b816000815181106116e4576116e4611f7d565b60200101906001600160f81b031916908160001a905350600f60fb1b8160018151811061171357611713611f7d565b60200101906001600160f81b031916908160001a9053506000611737846002611e8b565b611742906001611d80565b90505b60018111156117ba576f181899199a1a9b1b9c1cb0b131b232b360811b85600f166010811061177657611776611f7d565b1a60f81b82828151811061178c5761178c611f7d565b60200101906001600160f81b031916908160001a90535060049490941c936117b381611f93565b9050611745565b50831561060c5760405162461bcd60e51b815260206004820181905260248201527f537472696e67733a20686578206c656e67746820696e73756666696369656e7460448201526064016106b5565b6118128161148d565b6040516001600160a01b038216907fbc7cd75a20ee27fd9adebab32041f755214dbc6bffa90cc0225b39da2e5c2d3b90600090a250565b606061185483611394565b6118af5760405162461bcd60e51b815260206004820152602660248201527f416464726573733a2064656c65676174652063616c6c20746f206e6f6e2d636f6044820152651b9d1c9858dd60d21b60648201526084016106b5565b600080846001600160a01b0316846040516118ca9190611faa565b600060405180830381855af49150503d8060008114611905576040519150601f19603f3d011682016040523d82523d6000602084013e61190a565b606091505b509150915061193282826040518060600160405280602781526020016120476027913961193b565b95945050505050565b6060831561194a57508161060c565b61060c838381511561195f5781518083602001fd5b8060405162461bcd60e51b81526004016106b59190611a68565b82805461198590611cbb565b90600052602060002090601f0160209004810192826119a757600085556119ed565b82601f106119c057805160ff19168380011785556119ed565b828001600101855582156119ed579182015b828111156119ed5782518255916020019190600101906119d2565b506119f99291506119fd565b5090565b5b808211156119f957600081556001016119fe565b600060208284031215611a2457600080fd5b81356001600160e01b03198116811461060c57600080fd5b60005b83811015611a57578181015183820152602001611a3f565b83811115610e0a5750506000910152565b6020815260008251806020840152611a87816040850160208701611a3c565b601f01601f19169190910160400192915050565b80356001600160a01b0381168114611ab257600080fd5b919050565b60008060408385031215611aca57600080fd5b611ad383611a9b565b946020939093013593505050565b600080600060608486031215611af657600080fd5b611aff84611a9b565b9250611b0d60208501611a9b565b9150604084013590509250925092565b600060208284031215611b2f57600080fd5b5035919050565b60008060408385031215611b4957600080fd5b82359150611b5960208401611a9b565b90509250929050565b600060208284031215611b7457600080fd5b61060c82611a9b565b634e487b7160e01b600052604160045260246000fd5b60008060408385031215611ba657600080fd5b611baf83611a9b565b915060208301356001600160401b0380821115611bcb57600080fd5b818501915085601f830112611bdf57600080fd5b813581811115611bf157611bf1611b7d565b604051601f8201601f19908116603f01168101908382118183101715611c1957611c19611b7d565b81604052828152886020848701011115611c3257600080fd5b8260208601602083013760006020848301015280955050505050509250929050565b60008060408385031215611c6757600080fd5b611c7083611a9b565b9150602083013560ff81168114611c8657600080fd5b809150509250929050565b60008060408385031215611ca457600080fd5b611cad83611a9b565b9150611b5960208401611a9b565b600181811c90821680611ccf57607f821691505b60208210811415611cf057634e487b7160e01b600052602260045260246000fd5b50919050565b6020808252602c90820152600080516020611fc783398151915260408201526b19195b1959d85d1958d85b1b60a21b606082015260800190565b6020808252602c90820152600080516020611fc783398151915260408201526b6163746976652070726f787960a01b606082015260800190565b634e487b7160e01b600052601160045260246000fd5b60008219821115611d9357611d93611d6a565b500190565b600181815b80851115611dd3578160001904821115611db957611db9611d6a565b80851615611dc657918102915b93841c9390800290611d9d565b509250929050565b600082611dea5750600161053d565b81611df75750600061053d565b8160018114611e0d5760028114611e1757611e33565b600191505061053d565b60ff841115611e2857611e28611d6a565b50506001821b61053d565b5060208310610133831016604e8410600b8410161715611e56575081810a61053d565b611e608383611d98565b8060001904821115611e7457611e74611d6a565b029392505050565b600061060c60ff841683611ddb565b6000816000190483118215151615611ea557611ea5611d6a565b500290565b600060208284031215611ebc57600080fd5b5051919050565b6020808252602b908201527f496e697469616c697a61626c653a20636f6e7472616374206973206e6f74206960408201526a6e697469616c697a696e6760a81b606082015260800190565b76020b1b1b2b9b9a1b7b73a3937b61d1030b1b1b7bab73a1604d1b815260008351611f40816017850160208801611a3c565b7001034b99036b4b9b9b4b733903937b6329607d1b6017918401918201528351611f71816028840160208801611a3c565b01602801949350505050565b634e487b7160e01b600052603260045260246000fd5b600081611fa257611fa2611d6a565b506000190190565b60008251611fbc818460208701611a3c565b919091019291505056fe46756e6374696f6e206d7573742062652063616c6c6564207468726f75676820189ab7a9244df0848122154315af71fe140f3db0fe014031783b0946b8c9d2e3360894a13ba1a3210667c828492db98dca3e2076cc3735a920a3ca505d382bbc65d7a28e3265b37a6474929f336521b332c1681b933f6cb9f3376673440d862a416464726573733a206c6f772d6c6576656c2064656c65676174652063616c6c206661696c65649f2df0fed2c77648de5860a4cc508cd0818c85b8b8a1ab4ceeef8d981c8956a6ddf252ad1be2c89b69c2b068fc378daa952ba7f163c4a11628f55a4df523b3efa26469706673582212203737ca354c5fd87bdca891720bb15417a75d178353a6e9b3cc9f4448155eee0664736f6c634300080b0033",
  "linkReferences": {},
  "deployedLinkReferences": {}
}