{
  "_format": "hh-sol-artifact-1",
  "contractName": "LiquidityHandler",
  "sourceName": "contracts/LiquidityHandler.sol",
  "abi": [
    {
      "anonymous": false,
      "inputs": [
        {
          "indexed": false,
          "internalType": "address",
          "name": "previousAdmin",
          "type": "address"
        },
        {
          "indexed": false,
          "internalType": "address",
          "name": "newAdmin",
          "type": "address"
        }
      ],
      "name": "AdminChanged",
      "type": "event"
    },
    {
      "anonymous": false,
      "inputs": [
        {
          "indexed": true,
          "internalType": "address",
          "name": "beacon",
          "type": "address"
        }
      ],
      "name": "BeaconUpgraded",
      "type": "event"
    },
    {
      "anonymous": false,
      "inputs": [
        {
          "indexed": false,
          "internalType": "uint8",
          "name": "version",
          "type": "uint8"
        }
      ],
      "name": "Initialized",
      "type": "event"
    },
    {
      "anonymous": false,
      "inputs": [
        {
          "indexed": false,
          "internalType": "address",
          "name": "account",
          "type": "address"
        }
      ],
      "name": "Paused",
      "type": "event"
    },
    {
      "anonymous": false,
      "inputs": [
        {
          "indexed": true,
          "internalType": "bytes32",
          "name": "role",
          "type": "bytes32"
        },
        {
          "indexed": true,
          "internalType": "bytes32",
          "name": "previousAdminRole",
          "type": "bytes32"
        },
        {
          "indexed": true,
          "internalType": "bytes32",
          "name": "newAdminRole",
          "type": "bytes32"
        }
      ],
      "name": "RoleAdminChanged",
      "type": "event"
    },
    {
      "anonymous": false,
      "inputs": [
        {
          "indexed": true,
          "internalType": "bytes32",
          "name": "role",
          "type": "bytes32"
        },
        {
          "indexed": true,
          "internalType": "address",
          "name": "account",
          "type": "address"
        },
        {
          "indexed": true,
          "internalType": "address",
          "name": "sender",
          "type": "address"
        }
      ],
      "name": "RoleGranted",
      "type": "event"
    },
    {
      "anonymous": false,
      "inputs": [
        {
          "indexed": true,
          "internalType": "bytes32",
          "name": "role",
          "type": "bytes32"
        },
        {
          "indexed": true,
          "internalType": "address",
          "name": "account",
          "type": "address"
        },
        {
          "indexed": true,
          "internalType": "address",
          "name": "sender",
          "type": "address"
        }
      ],
      "name": "RoleRevoked",
      "type": "event"
    },
    {
      "anonymous": false,
      "inputs": [
        {
          "indexed": false,
          "internalType": "address",
          "name": "account",
          "type": "address"
        }
      ],
      "name": "Unpaused",
      "type": "event"
    },
    {
      "anonymous": false,
      "inputs": [
        {
          "indexed": true,
          "internalType": "address",
          "name": "implementation",
          "type": "address"
        }
      ],
      "name": "Upgraded",
      "type": "event"
    },
    {
      "inputs": [],
      "name": "DEFAULT_ADMIN_ROLE",
      "outputs": [
        {
          "internalType": "bytes32",
          "name": "",
          "type": "bytes32"
        }
      ],
      "stateMutability": "view",
      "type": "function"
    },
    {
      "inputs": [],
      "name": "UPGRADER_ROLE",
      "outputs": [
        {
          "internalType": "bytes32",
          "name": "",
          "type": "bytes32"
        }
      ],
      "stateMutability": "view",
      "type": "function"
    },
    {
      "inputs": [
        {
          "internalType": "uint256",
          "name": "",
          "type": "uint256"
        }
      ],
      "name": "adapterIdsToAdapterInfo",
      "outputs": [
        {
          "internalType": "string",
          "name": "name",
          "type": "string"
        },
        {
          "internalType": "uint256",
          "name": "percentage",
          "type": "uint256"
        },
        {
          "internalType": "address",
          "name": "adapterAddress",
          "type": "address"
        },
        {
          "internalType": "bool",
          "name": "status",
          "type": "bool"
        }
      ],
      "stateMutability": "view",
      "type": "function"
    },
    {
      "inputs": [
        {
          "internalType": "uint256",
          "name": "_adapterId",
          "type": "uint256"
        },
        {
          "components": [
            {
              "internalType": "string",
              "name": "name",
              "type": "string"
            },
            {
              "internalType": "string",
              "name": "description",
              "type": "string"
            },
            {
              "internalType": "string",
              "name": "link",
              "type": "string"
            }
          ],
          "internalType": "struct LiquidityHandler.ContractsInfo",
          "name": "_newContractInfo",
          "type": "tuple"
        }
      ],
      "name": "addContractInfoToAdapterInfo",
      "outputs": [],
      "stateMutability": "nonpayable",
      "type": "function"
    },
    {
      "inputs": [
        {
          "internalType": "uint256",
          "name": "_id",
          "type": "uint256"
        },
        {
          "internalType": "bool",
          "name": "_status",
          "type": "bool"
        }
      ],
      "name": "changeAdapterStatus",
      "outputs": [],
      "stateMutability": "nonpayable",
      "type": "function"
    },
    {
      "inputs": [
        {
          "internalType": "bool",
          "name": "_status",
          "type": "bool"
        }
      ],
      "name": "changeUpgradeStatus",
      "outputs": [],
      "stateMutability": "nonpayable",
      "type": "function"
    },
    {
      "inputs": [
        {
          "internalType": "uint256",
          "name": "adapterId",
          "type": "uint256"
        },
        {
          "internalType": "uint256",
          "name": "contractIndex",
          "type": "uint256"
        }
      ],
      "name": "deleteContractInfoFromAdapterInfo",
      "outputs": [],
      "stateMutability": "nonpayable",
      "type": "function"
    },
    {
      "inputs": [
        {
          "internalType": "address",
          "name": "_token",
          "type": "address"
        },
        {
          "internalType": "uint256",
          "name": "_amount",
          "type": "uint256"
        }
      ],
      "name": "deposit",
      "outputs": [],
      "stateMutability": "nonpayable",
      "type": "function"
    },
    {
      "inputs": [],
      "name": "getActiveAdapters",
      "outputs": [
        {
          "components": [
            {
              "internalType": "string",
              "name": "name",
              "type": "string"
            },
            {
              "internalType": "uint256",
              "name": "percentage",
              "type": "uint256"
            },
            {
              "internalType": "address",
              "name": "adapterAddress",
              "type": "address"
            },
            {
              "components": [
                {
                  "internalType": "string",
                  "name": "name",
                  "type": "string"
                },
                {
                  "internalType": "string",
                  "name": "description",
                  "type": "string"
                },
                {
                  "internalType": "string",
                  "name": "link",
                  "type": "string"
                }
              ],
              "internalType": "struct LiquidityHandler.ContractsInfo[]",
              "name": "contracts",
              "type": "tuple[]"
            },
            {
              "internalType": "bool",
              "name": "status",
              "type": "bool"
            }
          ],
          "internalType": "struct LiquidityHandler.AdapterInfo[]",
          "name": "",
          "type": "tuple[]"
        },
        {
          "internalType": "address[]",
          "name": "",
          "type": "address[]"
        }
      ],
      "stateMutability": "view",
      "type": "function"
    },
    {
      "inputs": [
        {
          "internalType": "address",
          "name": "_pool",
          "type": "address"
        }
      ],
      "name": "getAdapterId",
      "outputs": [
        {
          "internalType": "uint256",
          "name": "",
          "type": "uint256"
        }
      ],
      "stateMutability": "view",
      "type": "function"
    },
    {
      "inputs": [
        {
          "internalType": "uint256",
          "name": "_adapterId",
          "type": "uint256"
        }
      ],
      "name": "getAdapterInfo",
      "outputs": [
        {
          "components": [
            {
              "internalType": "string",
              "name": "name",
              "type": "string"
            },
            {
              "internalType": "uint256",
              "name": "percentage",
              "type": "uint256"
            },
            {
              "internalType": "address",
              "name": "adapterAddress",
              "type": "address"
            },
            {
              "components": [
                {
                  "internalType": "string",
                  "name": "name",
                  "type": "string"
                },
                {
                  "internalType": "string",
                  "name": "description",
                  "type": "string"
                },
                {
                  "internalType": "string",
                  "name": "link",
                  "type": "string"
                }
              ],
              "internalType": "struct LiquidityHandler.ContractsInfo[]",
              "name": "contracts",
              "type": "tuple[]"
            },
            {
              "internalType": "bool",
              "name": "status",
              "type": "bool"
            }
          ],
          "internalType": "struct LiquidityHandler.AdapterInfo",
          "name": "data_",
          "type": "tuple"
        }
      ],
      "stateMutability": "view",
      "type": "function"
    },
    {
      "inputs": [],
      "name": "getAllAdapters",
      "outputs": [
        {
          "components": [
            {
              "internalType": "string",
              "name": "name",
              "type": "string"
            },
            {
              "internalType": "uint256",
              "name": "percentage",
              "type": "uint256"
            },
            {
              "internalType": "address",
              "name": "adapterAddress",
              "type": "address"
            },
            {
              "components": [
                {
                  "internalType": "string",
                  "name": "name",
                  "type": "string"
                },
                {
                  "internalType": "string",
                  "name": "description",
                  "type": "string"
                },
                {
                  "internalType": "string",
                  "name": "link",
                  "type": "string"
                }
              ],
              "internalType": "struct LiquidityHandler.ContractsInfo[]",
              "name": "contracts",
              "type": "tuple[]"
            },
            {
              "internalType": "bool",
              "name": "status",
              "type": "bool"
            }
          ],
          "internalType": "struct LiquidityHandler.AdapterInfo[]",
          "name": "",
          "type": "tuple[]"
        },
        {
          "internalType": "address[]",
          "name": "",
          "type": "address[]"
        }
      ],
      "stateMutability": "view",
      "type": "function"
    },
    {
      "inputs": [],
      "name": "getLastAdapterIndex",
      "outputs": [
        {
          "internalType": "uint256",
          "name": "",
          "type": "uint256"
        }
      ],
      "stateMutability": "view",
      "type": "function"
    },
    {
      "inputs": [],
      "name": "getListOfPools",
      "outputs": [
        {
          "internalType": "address[]",
          "name": "",
          "type": "address[]"
        }
      ],
      "stateMutability": "view",
      "type": "function"
    },
    {
      "inputs": [
        {
          "internalType": "uint256",
          "name": "_adapterId",
          "type": "uint256"
        }
      ],
      "name": "getPoolByAdapterId",
      "outputs": [
        {
          "internalType": "address",
          "name": "",
          "type": "address"
        }
      ],
      "stateMutability": "view",
      "type": "function"
    },
    {
      "inputs": [
        {
          "internalType": "bytes32",
          "name": "role",
          "type": "bytes32"
        }
      ],
      "name": "getRoleAdmin",
      "outputs": [
        {
          "internalType": "bytes32",
          "name": "",
          "type": "bytes32"
        }
      ],
      "stateMutability": "view",
      "type": "function"
    },
    {
      "inputs": [
        {
          "internalType": "bytes32",
          "name": "role",
          "type": "bytes32"
        },
        {
          "internalType": "address",
          "name": "account",
          "type": "address"
        }
      ],
      "name": "grantRole",
      "outputs": [],
      "stateMutability": "nonpayable",
      "type": "function"
    },
    {
      "inputs": [
        {
          "internalType": "bytes32",
          "name": "role",
          "type": "bytes32"
        },
        {
          "internalType": "address",
          "name": "account",
          "type": "address"
        }
      ],
      "name": "hasRole",
      "outputs": [
        {
          "internalType": "bool",
          "name": "",
          "type": "bool"
        }
      ],
      "stateMutability": "view",
      "type": "function"
    },
    {
      "inputs": [
        {
          "internalType": "address",
          "name": "_multiSigWallet",
          "type": "address"
        }
      ],
      "name": "initialize",
      "outputs": [],
      "stateMutability": "nonpayable",
      "type": "function"
    },
    {
      "inputs": [],
      "name": "pause",
      "outputs": [],
      "stateMutability": "nonpayable",
      "type": "function"
    },
    {
      "inputs": [],
      "name": "paused",
      "outputs": [
        {
          "internalType": "bool",
          "name": "",
          "type": "bool"
        }
      ],
      "stateMutability": "view",
      "type": "function"
    },
    {
      "inputs": [],
      "name": "proxiableUUID",
      "outputs": [
        {
          "internalType": "bytes32",
          "name": "",
          "type": "bytes32"
        }
      ],
      "stateMutability": "view",
      "type": "function"
    },
    {
      "inputs": [
        {
          "internalType": "address",
          "name": "_address",
          "type": "address"
        },
        {
          "internalType": "address",
          "name": "_to",
          "type": "address"
        },
        {
          "internalType": "uint256",
          "name": "_amount",
          "type": "uint256"
        }
      ],
      "name": "removeTokenByAddress",
      "outputs": [],
      "stateMutability": "nonpayable",
      "type": "function"
    },
    {
      "inputs": [
        {
          "internalType": "bytes32",
          "name": "role",
          "type": "bytes32"
        },
        {
          "internalType": "address",
          "name": "account",
          "type": "address"
        }
      ],
      "name": "renounceRole",
      "outputs": [],
      "stateMutability": "nonpayable",
      "type": "function"
    },
    {
      "inputs": [
        {
          "internalType": "bytes32",
          "name": "role",
          "type": "bytes32"
        },
        {
          "internalType": "address",
          "name": "account",
          "type": "address"
        }
      ],
      "name": "revokeRole",
      "outputs": [],
      "stateMutability": "nonpayable",
      "type": "function"
    },
    {
      "inputs": [
        {
          "internalType": "uint256",
          "name": "_id",
          "type": "uint256"
        },
        {
          "internalType": "string",
          "name": "_name",
          "type": "string"
        },
        {
          "internalType": "uint256",
          "name": "_percentage",
          "type": "uint256"
        },
        {
          "internalType": "address",
          "name": "_adapterAddress",
          "type": "address"
        },
        {
          "internalType": "bool",
          "name": "_status",
          "type": "bool"
        }
      ],
      "name": "setAdapter",
      "outputs": [],
      "stateMutability": "nonpayable",
      "type": "function"
    },
    {
      "inputs": [
        {
          "internalType": "address",
          "name": "_pool",
          "type": "address"
        },
        {
          "internalType": "uint256",
          "name": "_adapterId",
          "type": "uint256"
        }
      ],
      "name": "setPoolToAdapterId",
      "outputs": [],
      "stateMutability": "nonpayable",
      "type": "function"
    },
    {
      "inputs": [
        {
          "internalType": "bytes4",
          "name": "interfaceId",
          "type": "bytes4"
        }
      ],
      "name": "supportsInterface",
      "outputs": [
        {
          "internalType": "bool",
          "name": "",
          "type": "bool"
        }
      ],
      "stateMutability": "view",
      "type": "function"
    },
    {
      "inputs": [],
      "name": "unpause",
      "outputs": [],
      "stateMutability": "nonpayable",
      "type": "function"
    },
    {
      "inputs": [],
      "name": "upgradeStatus",
      "outputs": [
        {
          "internalType": "bool",
          "name": "",
          "type": "bool"
        }
      ],
      "stateMutability": "view",
      "type": "function"
    },
    {
      "inputs": [
        {
          "internalType": "address",
          "name": "newImplementation",
          "type": "address"
        }
      ],
      "name": "upgradeTo",
      "outputs": [],
      "stateMutability": "nonpayable",
      "type": "function"
    },
    {
      "inputs": [
        {
          "internalType": "address",
          "name": "newImplementation",
          "type": "address"
        },
        {
          "internalType": "bytes",
          "name": "data",
          "type": "bytes"
        }
      ],
      "name": "upgradeToAndCall",
      "outputs": [],
      "stateMutability": "payable",
      "type": "function"
    },
    {
      "inputs": [
        {
          "internalType": "address",
          "name": "_user",
          "type": "address"
        },
        {
          "internalType": "address",
          "name": "_token",
          "type": "address"
        },
        {
          "internalType": "uint256",
          "name": "_full_amout",
          "type": "uint256"
        },
        {
          "internalType": "uint256",
          "name": "_deducted_amount",
          "type": "uint256"
        },
        {
          "internalType": "uint256",
          "name": "_fees",
          "type": "uint256"
        }
      ],
      "name": "withdraw",
      "outputs": [],
      "stateMutability": "nonpayable",
      "type": "function"
    }
  ],
  "bytecode": "0x60a06040523060805234801561001457600080fd5b506080516137e161004c600039600081816108d80152818161091801528181610ba201528181610be20152610c5a01526137e16000f3fe60806040526004361061017e5760003560e01c806301ffc9a71461018357806308713981146101b85780631a0e346e146101da57806321058e2f14610208578063248a9ca314610228578063249875c91461024857806325f80397146102755780632f2ff15d1461029757806336568abe146102b75780633659cfe6146102d75780633a48f1ad146102f75780633f4ba83a1461031757806347e7ef241461032c5780634f1ef2861461034c57806352d1902d1461035f5780635c975abb146103745780636465f04a1461038c5780636575076f146103ac57806370bd22ff146103d957806376234759146103ee5780638456cb591461040e57806391d148541461042357806392e79403146104435780639ddf2cbc14610473578063a217fddf14610493578063c4d66de8146104a8578063d4d543c5146104c8578063d547741f146104e3578063d701f52314610503578063e31ada9714610523578063f51ff47f14610546578063f72c0d8b14610566578063facb34e714610588575b600080fd5b34801561018f57600080fd5b506101a361019e366004612da0565b61059d565b60405190151581526020015b60405180910390f35b3480156101c457600080fd5b506101d86101d3366004612dd8565b6105d4565b005b3480156101e657600080fd5b506101fa6101f5366004612e24565b610604565b6040519081526020016101af565b34801561021457600080fd5b506101d8610223366004612f12565b610612565b34801561023457600080fd5b506101fa610243366004612fd2565b610702565b34801561025457600080fd5b50610268610263366004612fd2565b610717565b6040516101af9190612feb565b34801561028157600080fd5b5061028a610775565b6040516101af9190613043565b3480156102a357600080fd5b506101d86102b2366004613056565b61082e565b3480156102c357600080fd5b506101d86102d2366004613056565b61084f565b3480156102e357600080fd5b506101d86102f2366004612e24565b6108cd565b34801561030357600080fd5b506101d8610312366004613082565b610996565b34801561032357600080fd5b506101d8610a50565b34801561033857600080fd5b506101d86103473660046130f7565b610a63565b6101d861035a366004613121565b610b97565b34801561036b57600080fd5b506101fa610c4d565b34801561038057600080fd5b5060335460ff166101a3565b34801561039857600080fd5b506101d86103a7366004613182565b610cfb565b3480156103b857600080fd5b506103cc6103c7366004612fd2565b610d20565b6040516101af91906132fe565b3480156103e557600080fd5b506101fa611038565b3480156103fa57600080fd5b506101d8610409366004613311565b611080565b34801561041a57600080fd5b506101d861115a565b34801561042f57600080fd5b506101a361043e366004613056565b61116d565b34801561044f57600080fd5b5061046361045e366004612fd2565b611198565b6040516101af949392919061335e565b34801561047f57600080fd5b506101d861048e3660046130f7565b611258565b34801561049f57600080fd5b506101fa600081565b3480156104b457600080fd5b506101d86104c3366004612e24565b611270565b3480156104d457600080fd5b5061012d546101a39060ff1681565b3480156104ef57600080fd5b506101d86104fe366004613056565b6113bb565b34801561050f57600080fd5b506101d861051e366004613398565b6113d7565b34801561052f57600080fd5b506105386113f7565b6040516101af9291906133b5565b34801561055257600080fd5b506101d8610561366004613422565b61183b565b34801561057257600080fd5b506101fa60008051602061374583398151915281565b34801561059457600080fd5b506105386119fb565b60006001600160e01b03198216637965db0b60e01b14806105ce57506301ffc9a760e01b6001600160e01b03198316145b92915050565b60006105df81611ebb565b5060009182526101316020526040909120600401805460ff1916911515919091179055565b60006105ce61012e83611ec5565b600061061d81611ebb565b6000838152610131602052604090206004015460ff166106845760405162461bcd60e51b815260206004820152601f60248201527f48616e646c6572203a2041646170746572206973206e6f74206163746976650060448201526064015b60405180910390fd5b60008381526101316020908152604082206003908101805460018101825590845292829020855180518795909302909101926106c592849290910190612c1c565b5060208281015180516106de9260018501920190612c1c565b50604082015180516106fa916002840191602090910190612c1c565b505050505050565b60009081526097602052604090206001015490565b600080600061072761012e611eda565b905060005b8181101561076c5760008061074361012e84611ee5565b91509150868114156107575750925061076c565b505080806107649061345a565b91505061072c565b50909392505050565b6060600061078461012e611eda565b90506000816001600160401b038111156107a0576107a0612e3f565b6040519080825280602002602001820160405280156107c9578160200160208202803683370190505b50905060005b82811015610827576107e361012e82611ee5565b508282815181106107f6576107f6613475565b60200260200101816001600160a01b03166001600160a01b031681525050808061081f9061345a565b9150506107cf565b5092915050565b61083782610702565b61084081611ebb565b61084a8383611f01565b505050565b6001600160a01b03811633146108bf5760405162461bcd60e51b815260206004820152602f60248201527f416363657373436f6e74726f6c3a2063616e206f6e6c792072656e6f756e636560448201526e103937b632b9903337b91039b2b63360891b606482015260840161067b565b6108c98282611f87565b5050565b306001600160a01b037f00000000000000000000000000000000000000000000000000000000000000001614156109165760405162461bcd60e51b815260040161067b9061348b565b7f00000000000000000000000000000000000000000000000000000000000000006001600160a01b0316610948611fee565b6001600160a01b03161461096e5760405162461bcd60e51b815260040161067b906134c5565b6109778161200a565b6040805160008082526020820190925261099391839190612083565b50565b60006109a181611ebb565b856109e75760405162461bcd60e51b815260206004820152601660248201527512185b991b195c8e8808585b1b1bddd959080c081a5960521b604482015260640161067b565b60008681526101316020908152604090912086519091610a0b918391890190612c1c565b506001810194909455506002830180546001600160a01b0319166001600160a01b0393909316929092179091556004909101805460ff19169115159190911790555050565b6000610a5b81611ebb565b6109936121ee565b610a6b61223a565b33610a7861012e82612282565b610a945760405162461bcd60e51b815260040161067b906134ff565b6000610aa261012e33611ec5565b6000818152610131602052604090206004015490915060ff16610b045760405162461bcd60e51b815260206004820152601a60248201527948616e646c6572203a204164617074657220496e61637469766560301b604482015260640161067b565b600081815261013160205260409020600201546001600160a01b0390811690610b309086168286612297565b6040516311f9fbc960e21b81526001600160a01b038216906347e7ef2490610b5e9088908890600401613536565b600060405180830381600087803b158015610b7857600080fd5b505af1158015610b8c573d6000803e3d6000fd5b505050505050505050565b306001600160a01b037f0000000000000000000000000000000000000000000000000000000000000000161415610be05760405162461bcd60e51b815260040161067b9061348b565b7f00000000000000000000000000000000000000000000000000000000000000006001600160a01b0316610c12611fee565b6001600160a01b031614610c385760405162461bcd60e51b815260040161067b906134c5565b610c418261200a565b6108c982826001612083565b6000306001600160a01b037f00000000000000000000000000000000000000000000000000000000000000001614610ce85760405162461bcd60e51b815260206004820152603860248201527f555550535570677261646561626c653a206d757374206e6f742062652063616c6044820152771b1959081d1a1c9bdd59da0819195b1959d85d1958d85b1b60421b606482015260840161067b565b5060008051602061376583398151915290565b6000610d0681611ebb565b610d1a6001600160a01b0385168484612297565b50505050565b610d28612ca0565b6000828152610131602052604090819020815160a08101909252805482908290610d519061354f565b80601f0160208091040260200160405190810160405280929190818152602001828054610d7d9061354f565b8015610dca5780601f10610d9f57610100808354040283529160200191610dca565b820191906000526020600020905b815481529060010190602001808311610dad57829003601f168201915b50505050508152602001600182015481526020016002820160009054906101000a90046001600160a01b03166001600160a01b03166001600160a01b0316815260200160038201805480602002602001604051908101604052809291908181526020016000905b828210156110195783829060005260206000209060030201604051806060016040529081600082018054610e649061354f565b80601f0160208091040260200160405190810160405280929190818152602001828054610e909061354f565b8015610edd5780601f10610eb257610100808354040283529160200191610edd565b820191906000526020600020905b815481529060010190602001808311610ec057829003601f168201915b50505050508152602001600182018054610ef69061354f565b80601f0160208091040260200160405190810160405280929190818152602001828054610f229061354f565b8015610f6f5780601f10610f4457610100808354040283529160200191610f6f565b820191906000526020600020905b815481529060010190602001808311610f5257829003601f168201915b50505050508152602001600282018054610f889061354f565b80601f0160208091040260200160405190810160405280929190818152602001828054610fb49061354f565b80156110015780601f10610fd657610100808354040283529160200191611001565b820191906000526020600020905b815481529060010190602001808311610fe457829003601f168201915b50505050508152505081526020019060010190610e31565b505050908252506004919091015460ff16151560209091015292915050565b600060015b600081815261013160205260409020600201546001600160a01b031661106e57806110678161358a565b9392505050565b806110788161345a565b91505061103d565b61108861223a565b3361109561012e82612282565b6110b15760405162461bcd60e51b815260040161067b906134ff565b60006110bf61012e33611ec5565b6000818152610131602052604090819020600201549051637623475960e01b81526001600160a01b038a811660048301528981166024830152604482018990526064820188905260848201879052929350911690819063762347599060a401600060405180830381600087803b15801561113857600080fd5b505af115801561114c573d6000803e3d6000fd5b505050505050505050505050565b600061116581611ebb565b6109936122ed565b60009182526097602090815260408084206001600160a01b0393909316845291905290205460ff1690565b610131602052600090815260409020805481906111b49061354f565b80601f01602080910402602001604051908101604052809291908181526020018280546111e09061354f565b801561122d5780601f106112025761010080835404028352916020019161122d565b820191906000526020600020905b81548152906001019060200180831161121057829003601f168201915b5050505060018301546002840154600490940154929390926001600160a01b03909116915060ff1684565b600061126381611ebb565b610d1a61012e848461232a565b600054610100900460ff16158080156112905750600054600160ff909116105b806112b1575061129f30612348565b1580156112b1575060005460ff166001145b6113145760405162461bcd60e51b815260206004820152602e60248201527f496e697469616c697a61626c653a20636f6e747261637420697320616c72656160448201526d191e481a5b9a5d1a585b1a5e995960921b606482015260840161067b565b6000805460ff191660011790558015611337576000805461ff0019166101001790555b61133f612357565b611347612386565b61134f612386565b61135a600083611f01565b61137260008051602061374583398151915283611f01565b80156108c9576000805461ff0019169055604051600181527f7f26b83ff96e1f2b6a682f133852f6798a09c465da95921460cefb38474024989060200160405180910390a15050565b6113c482610702565b6113cd81611ebb565b61084a8383611f87565b60006113e281611ebb565b5061012d805460ff1916911515919091179055565b6060806000611404611038565b90506000816001600160401b0381111561142057611420612e3f565b60405190808252806020026020018201604052801561145957816020015b611446612ca0565b81526020019060019003908161143e5790505b5090506000826001600160401b0381111561147657611476612e3f565b60405190808252806020026020018201604052801561149f578160200160208202803683370190505b50905060005b838110156118305761013160006114bd8360016135a1565b81526020019081526020016000206040518060a00160405290816000820180546114e69061354f565b80601f01602080910402602001604051908101604052809291908181526020018280546115129061354f565b801561155f5780601f106115345761010080835404028352916020019161155f565b820191906000526020600020905b81548152906001019060200180831161154257829003601f168201915b50505050508152602001600182015481526020016002820160009054906101000a90046001600160a01b03166001600160a01b03166001600160a01b0316815260200160038201805480602002602001604051908101604052809291908181526020016000905b828210156117ae57838290600052602060002090600302016040518060600160405290816000820180546115f99061354f565b80601f01602080910402602001604051908101604052809291908181526020018280546116259061354f565b80156116725780601f1061164757610100808354040283529160200191611672565b820191906000526020600020905b81548152906001019060200180831161165557829003601f168201915b5050505050815260200160018201805461168b9061354f565b80601f01602080910402602001604051908101604052809291908181526020018280546116b79061354f565b80156117045780601f106116d957610100808354040283529160200191611704565b820191906000526020600020905b8154815290600101906020018083116116e757829003601f168201915b5050505050815260200160028201805461171d9061354f565b80601f01602080910402602001604051908101604052809291908181526020018280546117499061354f565b80156117965780601f1061176b57610100808354040283529160200191611796565b820191906000526020600020905b81548152906001019060200180831161177957829003601f168201915b505050505081525050815260200190600101906115c6565b505050908252506004919091015460ff16151560209091015283518490839081106117db576117db613475565b60209081029190910101526117f46102638260016135a1565b82828151811061180657611806613475565b6001600160a01b0390921660209283029190910190910152806118288161345a565b9150506114a5565b509094909350915050565b600061184681611ebb565b6000838152610131602052604090206003015482106118a75760405162461bcd60e51b815260206004820181905260248201527f48616e646c6572203a20496e76616c696420636f6e747261637420696e646578604482015260640161067b565b600083815261013160205260408120600301546118c6906001906135b9565b600085815261013160205260409020600301805491925090829081106118ee576118ee613475565b90600052602060002090600302016101316000868152602001908152602001600020600301848154811061192457611924613475565b906000526020600020906003020160008201816000019080546119469061354f565b611951929190612cda565b5060018201816001019080546119669061354f565b611971929190612cda565b5060028201816002019080546119869061354f565b611991929190612cda565b5050506000848152610131602052604090206003018054806119b5576119b56135d0565b600082815260208120600019909201916003830201906119d58282612d55565b6119e3600183016000612d55565b6119f1600283016000612d55565b5050905550505050565b6060806000611a0b61012e611eda565b90506000816001600160401b03811115611a2757611a27612e3f565b604051908082528060200260200182016040528015611a50578160200160208202803683370190505b5090506000826001600160401b03811115611a6d57611a6d612e3f565b604051908082528060200260200182016040528015611a96578160200160208202803683370190505b5090506000836001600160401b03811115611ab357611ab3612e3f565b604051908082528060200260200182016040528015611aec57816020015b611ad9612ca0565b815260200190600190039081611ad15790505b50905060005b84811015611eaf57611b0661012e82611ee5565b858381518110611b1857611b18613475565b60200260200101858481518110611b3157611b31613475565b6020026020010182815250826001600160a01b03166001600160a01b031681525050506101316000848381518110611b6b57611b6b613475565b602002602001015181526020019081526020016000206040518060a0016040529081600082018054611b9c9061354f565b80601f0160208091040260200160405190810160405280929190818152602001828054611bc89061354f565b8015611c155780601f10611bea57610100808354040283529160200191611c15565b820191906000526020600020905b815481529060010190602001808311611bf857829003601f168201915b50505050508152602001600182015481526020016002820160009054906101000a90046001600160a01b03166001600160a01b03166001600160a01b0316815260200160038201805480602002602001604051908101604052809291908181526020016000905b82821015611e645783829060005260206000209060030201604051806060016040529081600082018054611caf9061354f565b80601f0160208091040260200160405190810160405280929190818152602001828054611cdb9061354f565b8015611d285780601f10611cfd57610100808354040283529160200191611d28565b820191906000526020600020905b815481529060010190602001808311611d0b57829003601f168201915b50505050508152602001600182018054611d419061354f565b80601f0160208091040260200160405190810160405280929190818152602001828054611d6d9061354f565b8015611dba5780601f10611d8f57610100808354040283529160200191611dba565b820191906000526020600020905b815481529060010190602001808311611d9d57829003601f168201915b50505050508152602001600282018054611dd39061354f565b80601f0160208091040260200160405190810160405280929190818152602001828054611dff9061354f565b8015611e4c5780601f10611e2157610100808354040283529160200191611e4c565b820191906000526020600020905b815481529060010190602001808311611e2f57829003601f168201915b50505050508152505081526020019060010190611c7c565b505050908252506004919091015460ff1615156020909101528251839083908110611e9157611e91613475565b60200260200101819052508080611ea79061345a565b915050611af2565b50959194509092505050565b61099381336123ad565b6000611067836001600160a01b038416612406565b60006105ce82612476565b6000808080611ef48686612481565b9097909650945050505050565b611f0b828261116d565b6108c95760008281526097602090815260408083206001600160a01b03851684529091529020805460ff19166001179055611f433390565b6001600160a01b0316816001600160a01b0316837f2f8788117e7eff1d82e926ec794901d17c78024a50270940304540a733656f0d60405160405180910390a45050565b611f91828261116d565b156108c95760008281526097602090815260408083206001600160a01b0385168085529252808320805460ff1916905551339285917ff6391f5c32d9c69d2a47ea670b442974b53935d1edc7fd64eb21e047a839171b9190a45050565b600080516020613765833981519152546001600160a01b031690565b60008051602061374583398151915261202281611ebb565b61012d5460ff166120745760405162461bcd60e51b815260206004820152601c60248201527b12185b991b195c8e88155c19dc985919481b9bdd08185b1b1bddd95960221b604482015260640161067b565b505061012d805460ff19169055565b7f4910fdfa16fed3260ed0e7147f7cc6da11a60208b5b9406d12a635614ffd91435460ff16156120b65761084a836124ac565b826001600160a01b03166352d1902d6040518163ffffffff1660e01b8152600401602060405180830381865afa925050508015612110575060408051601f3d908101601f1916820190925261210d918101906135e6565b60015b6121735760405162461bcd60e51b815260206004820152602e60248201527f45524331393637557067726164653a206e657720696d706c656d656e7461746960448201526d6f6e206973206e6f74205555505360901b606482015260840161067b565b60008051602061376583398151915281146121e25760405162461bcd60e51b815260206004820152602960248201527f45524331393637557067726164653a20756e737570706f727465642070726f786044820152681a58589b195555525160ba1b606482015260840161067b565b5061084a838383612546565b6121f661256b565b6033805460ff191690557f5db9ee0a495bf2e6ff9c91a7834c1ba4fdd244a5e8aa4e537bd38aeae4b073aa335b6040516122309190612feb565b60405180910390a1565b60335460ff16156122805760405162461bcd60e51b815260206004820152601060248201526f14185d5cd8589b194e881c185d5cd95960821b604482015260640161067b565b565b6000611067836001600160a01b0384166125b4565b61084a8363a9059cbb60e01b84846040516024016122b6929190613536565b60408051601f198184030181529190526020810180516001600160e01b03166001600160e01b0319909316929092179091526125c0565b6122f561223a565b6033805460ff191660011790557f62e78cea01bee320cd4e420270b5ea74000d11b0c9f74754ebdbfc544b05a2586122233390565b6000612340846001600160a01b03851684612692565b949350505050565b6001600160a01b03163b151590565b600054610100900460ff1661237e5760405162461bcd60e51b815260040161067b906135ff565b6122806126af565b600054610100900460ff166122805760405162461bcd60e51b815260040161067b906135ff565b6123b7828261116d565b6108c9576123c4816126e2565b6123cf8360206126f4565b6040516020016123e092919061364a565b60408051601f198184030181529082905262461bcd60e51b825261067b916004016136b9565b60008181526002830160205260408120548015158061242a575061242a84846125b4565b6110675760405162461bcd60e51b815260206004820152601e60248201527f456e756d657261626c654d61703a206e6f6e6578697374656e74206b65790000604482015260640161067b565b60006105ce8261288f565b6000808061248f8585612899565b600081815260029690960160205260409095205494959350505050565b6124b581612348565b6125175760405162461bcd60e51b815260206004820152602d60248201527f455243313936373a206e657720696d706c656d656e746174696f6e206973206e60448201526c1bdd08184818dbdb9d1c9858dd609a1b606482015260840161067b565b60008051602061376583398151915280546001600160a01b0319166001600160a01b0392909216919091179055565b61254f836128a5565b60008251118061255c5750805b1561084a57610d1a83836128e5565b60335460ff166122805760405162461bcd60e51b815260206004820152601460248201527314185d5cd8589b194e881b9bdd081c185d5cd95960621b604482015260640161067b565b600061106783836129d7565b6000612615826040518060400160405280602081526020017f5361666545524332303a206c6f772d6c6576656c2063616c6c206661696c6564815250856001600160a01b03166129e39092919063ffffffff16565b80519091501561084a578080602001905181019061263391906136cc565b61084a5760405162461bcd60e51b815260206004820152602a60248201527f5361666545524332303a204552433230206f7065726174696f6e20646964206e6044820152691bdd081cdd58d8d9595960b21b606482015260840161067b565b6000828152600284016020526040812082905561234084846129f2565b600054610100900460ff166126d65760405162461bcd60e51b815260040161067b906135ff565b6033805460ff19169055565b60606105ce6001600160a01b03831660145b606060006127038360026136e9565b61270e9060026135a1565b6001600160401b0381111561272557612725612e3f565b6040519080825280601f01601f19166020018201604052801561274f576020820181803683370190505b509050600360fc1b8160008151811061276a5761276a613475565b60200101906001600160f81b031916908160001a905350600f60fb1b8160018151811061279957612799613475565b60200101906001600160f81b031916908160001a90535060006127bd8460026136e9565b6127c89060016135a1565b90505b6001811115612840576f181899199a1a9b1b9c1cb0b131b232b360811b85600f16601081106127fc576127fc613475565b1a60f81b82828151811061281257612812613475565b60200101906001600160f81b031916908160001a90535060049490941c936128398161358a565b90506127cb565b5083156110675760405162461bcd60e51b815260206004820181905260248201527f537472696e67733a20686578206c656e67746820696e73756666696369656e74604482015260640161067b565b60006105ce825490565b600061106783836129fe565b6128ae816124ac565b6040516001600160a01b038216907fbc7cd75a20ee27fd9adebab32041f755214dbc6bffa90cc0225b39da2e5c2d3b90600090a250565b60606128f083612348565b61294b5760405162461bcd60e51b815260206004820152602660248201527f416464726573733a2064656c65676174652063616c6c20746f206e6f6e2d636f6044820152651b9d1c9858dd60d21b606482015260840161067b565b600080846001600160a01b0316846040516129669190613708565b600060405180830381855af49150503d80600081146129a1576040519150601f19603f3d011682016040523d82523d6000602084013e6129a6565b606091505b50915091506129ce828260405180606001604052806027815260200161378560279139612a28565b95945050505050565b60006110678383612a41565b60606123408484600085612a59565b60006110678383612b34565b6000826000018281548110612a1557612a15613475565b9060005260206000200154905092915050565b60608315612a37575081611067565b6110678383612b7e565b60009081526001919091016020526040902054151590565b606082471015612aba5760405162461bcd60e51b815260206004820152602660248201527f416464726573733a20696e73756666696369656e742062616c616e636520666f6044820152651c8818d85b1b60d21b606482015260840161067b565b600080866001600160a01b03168587604051612ad69190613708565b60006040518083038185875af1925050503d8060008114612b13576040519150601f19603f3d011682016040523d82523d6000602084013e612b18565b606091505b5091509150612b2987838387612ba8565b979650505050505050565b6000612b408383612a41565b612b76575081546001818101845560008481526020808220909301849055845484825282860190935260409020919091556105ce565b5060006105ce565b815115612b8e5781518083602001fd5b8060405162461bcd60e51b815260040161067b91906136b9565b60608315612c12578251612c0b57612bbf85612348565b612c0b5760405162461bcd60e51b815260206004820152601d60248201527f416464726573733a2063616c6c20746f206e6f6e2d636f6e7472616374000000604482015260640161067b565b5081612340565b6123408383612b7e565b828054612c289061354f565b90600052602060002090601f016020900481019282612c4a5760008555612c90565b82601f10612c6357805160ff1916838001178555612c90565b82800160010185558215612c90579182015b82811115612c90578251825591602001919060010190612c75565b50612c9c929150612d8b565b5090565b6040518060a00160405280606081526020016000815260200160006001600160a01b03168152602001606081526020016000151581525090565b828054612ce69061354f565b90600052602060002090601f016020900481019282612d085760008555612c90565b82601f10612d195780548555612c90565b82800160010185558215612c9057600052602060002091601f016020900482015b82811115612c90578254825591600101919060010190612d3a565b508054612d619061354f565b6000825580601f10612d71575050565b601f01602090049060005260206000209081019061099391905b5b80821115612c9c5760008155600101612d8c565b600060208284031215612db257600080fd5b81356001600160e01b03198116811461106757600080fd5b801515811461099357600080fd5b60008060408385031215612deb57600080fd5b823591506020830135612dfd81612dca565b809150509250929050565b80356001600160a01b0381168114612e1f57600080fd5b919050565b600060208284031215612e3657600080fd5b61106782612e08565b634e487b7160e01b600052604160045260246000fd5b604051606081016001600160401b0381118282101715612e7757612e77612e3f565b60405290565b60006001600160401b0380841115612e9757612e97612e3f565b604051601f8501601f19908116603f01168101908282118183101715612ebf57612ebf612e3f565b81604052809350858152868686011115612ed857600080fd5b858560208301376000602087830101525050509392505050565b600082601f830112612f0357600080fd5b61106783833560208501612e7d565b60008060408385031215612f2557600080fd5b8235915060208301356001600160401b0380821115612f4357600080fd5b9084019060608287031215612f5757600080fd5b612f5f612e55565b823582811115612f6e57600080fd5b612f7a88828601612ef2565b825250602083013582811115612f8f57600080fd5b612f9b88828601612ef2565b602083015250604083013582811115612fb357600080fd5b612fbf88828601612ef2565b6040830152508093505050509250929050565b600060208284031215612fe457600080fd5b5035919050565b6001600160a01b0391909116815260200190565b600081518084526020808501945080840160005b838110156130385781516001600160a01b031687529582019590820190600101613013565b509495945050505050565b6020815260006110676020830184612fff565b6000806040838503121561306957600080fd5b8235915061307960208401612e08565b90509250929050565b600080600080600060a0868803121561309a57600080fd5b8535945060208601356001600160401b038111156130b757600080fd5b6130c388828901612ef2565b945050604086013592506130d960608701612e08565b915060808601356130e981612dca565b809150509295509295909350565b6000806040838503121561310a57600080fd5b61311383612e08565b946020939093013593505050565b6000806040838503121561313457600080fd5b61313d83612e08565b915060208301356001600160401b0381111561315857600080fd5b8301601f8101851361316957600080fd5b61317885823560208401612e7d565b9150509250929050565b60008060006060848603121561319757600080fd5b6131a084612e08565b92506131ae60208501612e08565b9150604084013590509250925092565b60005b838110156131d95781810151838201526020016131c1565b83811115610d1a5750506000910152565b600081518084526132028160208601602086016131be565b601f01601f19169290920160200192915050565b6000815160a0845261322b60a08501826131ea565b905060208084015181860152604060018060a01b03818601511681870152606080860151878503828901528481518087528587019150858160051b880101868401935060005b828110156132da57888203601f1901845284518051878452613295888501826131ea565b9050898201518482038b8601526132ac82826131ea565b915050888201519150838103898501526132c681836131ea565b968a0196958a019593505050600101613271565b5060808a015197506132f060808c018915159052565b9a9950505050505050505050565b6020815260006110676020830184613216565b600080600080600060a0868803121561332957600080fd5b61333286612e08565b945061334060208701612e08565b94979496505050506040830135926060810135926080909101359150565b60808152600061337160808301876131ea565b6020830195909552506001600160a01b039290921660408301521515606090910152919050565b6000602082840312156133aa57600080fd5b813561106781612dca565b6000604082016040835280855180835260608501915060608160051b8601019250602080880160005b8381101561340c57605f198887030185526133fa868351613216565b955093820193908201906001016133de565b5050858403818701525050506129ce8185612fff565b6000806040838503121561343557600080fd5b50508035926020909101359150565b634e487b7160e01b600052601160045260246000fd5b600060001982141561346e5761346e613444565b5060010190565b634e487b7160e01b600052603260045260246000fd5b6020808252602c9082015260008051602061372583398151915260408201526b19195b1959d85d1958d85b1b60a21b606082015260800190565b6020808252602c9082015260008051602061372583398151915260408201526b6163746976652070726f787960a01b606082015260800190565b6020808252601f908201527f48616e646c6572203a2073656e6465722073686f756c6420626520706f6f6c00604082015260600190565b6001600160a01b03929092168252602082015260400190565b600181811c9082168061356357607f821691505b6020821081141561358457634e487b7160e01b600052602260045260246000fd5b50919050565b60008161359957613599613444565b506000190190565b600082198211156135b4576135b4613444565b500190565b6000828210156135cb576135cb613444565b500390565b634e487b7160e01b600052603160045260246000fd5b6000602082840312156135f857600080fd5b5051919050565b6020808252602b908201527f496e697469616c697a61626c653a20636f6e7472616374206973206e6f74206960408201526a6e697469616c697a696e6760a81b606082015260800190565b76020b1b1b2b9b9a1b7b73a3937b61d1030b1b1b7bab73a1604d1b81526000835161367c8160178501602088016131be565b7001034b99036b4b9b9b4b733903937b6329607d1b60179184019182015283516136ad8160288401602088016131be565b01602801949350505050565b60208152600061106760208301846131ea565b6000602082840312156136de57600080fd5b815161106781612dca565b600081600019048311821515161561370357613703613444565b500290565b6000825161371a8184602087016131be565b919091019291505056fe46756e6374696f6e206d7573742062652063616c6c6564207468726f75676820189ab7a9244df0848122154315af71fe140f3db0fe014031783b0946b8c9d2e3360894a13ba1a3210667c828492db98dca3e2076cc3735a920a3ca505d382bbc416464726573733a206c6f772d6c6576656c2064656c65676174652063616c6c206661696c6564a2646970667358221220c04ab5182debf2ee2497d91a2f3b3867f3ba8b98bb298cb6ecce1ab85117e2f164736f6c634300080b0033",
  "linkReferences": {},
  "deployedLinkReferences": {}
}