{
  "_format": "hh-sol-artifact-1",
  "contractName": "LiquidityHandler",
  "sourceName": "contracts/LiquidityHandler.sol",
  "abi": [
    {
      "anonymous": false,
      "inputs": [
        {
          "indexed": false,
          "internalType": "address",
          "name": "previousAdmin",
          "type": "address"
        },
        {
          "indexed": false,
          "internalType": "address",
          "name": "newAdmin",
          "type": "address"
        }
      ],
      "name": "AdminChanged",
      "type": "event"
    },
    {
      "anonymous": false,
      "inputs": [
        {
          "indexed": true,
          "internalType": "address",
          "name": "beacon",
          "type": "address"
        }
      ],
      "name": "BeaconUpgraded",
      "type": "event"
    },
    {
      "anonymous": false,
      "inputs": [
        {
          "indexed": false,
          "internalType": "uint8",
          "name": "version",
          "type": "uint8"
        }
      ],
      "name": "Initialized",
      "type": "event"
    },
    {
      "anonymous": false,
      "inputs": [
        {
          "indexed": false,
          "internalType": "address",
          "name": "account",
          "type": "address"
        }
      ],
      "name": "Paused",
      "type": "event"
    },
    {
      "anonymous": false,
      "inputs": [
        {
          "indexed": true,
          "internalType": "bytes32",
          "name": "role",
          "type": "bytes32"
        },
        {
          "indexed": true,
          "internalType": "bytes32",
          "name": "previousAdminRole",
          "type": "bytes32"
        },
        {
          "indexed": true,
          "internalType": "bytes32",
          "name": "newAdminRole",
          "type": "bytes32"
        }
      ],
      "name": "RoleAdminChanged",
      "type": "event"
    },
    {
      "anonymous": false,
      "inputs": [
        {
          "indexed": true,
          "internalType": "bytes32",
          "name": "role",
          "type": "bytes32"
        },
        {
          "indexed": true,
          "internalType": "address",
          "name": "account",
          "type": "address"
        },
        {
          "indexed": true,
          "internalType": "address",
          "name": "sender",
          "type": "address"
        }
      ],
      "name": "RoleGranted",
      "type": "event"
    },
    {
      "anonymous": false,
      "inputs": [
        {
          "indexed": true,
          "internalType": "bytes32",
          "name": "role",
          "type": "bytes32"
        },
        {
          "indexed": true,
          "internalType": "address",
          "name": "account",
          "type": "address"
        },
        {
          "indexed": true,
          "internalType": "address",
          "name": "sender",
          "type": "address"
        }
      ],
      "name": "RoleRevoked",
      "type": "event"
    },
    {
      "anonymous": false,
      "inputs": [
        {
          "indexed": false,
          "internalType": "address",
          "name": "account",
          "type": "address"
        }
      ],
      "name": "Unpaused",
      "type": "event"
    },
    {
      "anonymous": false,
      "inputs": [
        {
          "indexed": true,
          "internalType": "address",
          "name": "implementation",
          "type": "address"
        }
      ],
      "name": "Upgraded",
      "type": "event"
    },
    {
      "inputs": [],
      "name": "DEFAULT_ADMIN_ROLE",
      "outputs": [
        {
          "internalType": "bytes32",
          "name": "",
          "type": "bytes32"
        }
      ],
      "stateMutability": "view",
      "type": "function"
    },
    {
      "inputs": [],
      "name": "UPGRADER_ROLE",
      "outputs": [
        {
          "internalType": "bytes32",
          "name": "",
          "type": "bytes32"
        }
      ],
      "stateMutability": "view",
      "type": "function"
    },
    {
      "inputs": [
        {
          "internalType": "uint256",
          "name": "",
          "type": "uint256"
        }
      ],
      "name": "adapterIdsToAdapterInfo",
      "outputs": [
        {
          "internalType": "string",
          "name": "name",
          "type": "string"
        },
        {
          "internalType": "uint256",
          "name": "percentage",
          "type": "uint256"
        },
        {
          "internalType": "address",
          "name": "adapterAddress",
          "type": "address"
        },
        {
          "internalType": "bool",
          "name": "status",
          "type": "bool"
        }
      ],
      "stateMutability": "view",
      "type": "function"
    },
    {
      "inputs": [
        {
          "internalType": "uint256",
          "name": "_id",
          "type": "uint256"
        },
        {
          "internalType": "bool",
          "name": "_status",
          "type": "bool"
        }
      ],
      "name": "changeAdapterStatus",
      "outputs": [],
      "stateMutability": "nonpayable",
      "type": "function"
    },
    {
      "inputs": [
        {
          "internalType": "bool",
          "name": "_status",
          "type": "bool"
        }
      ],
      "name": "changeUpgradeStatus",
      "outputs": [],
      "stateMutability": "nonpayable",
      "type": "function"
    },
    {
      "inputs": [],
      "name": "defiToken",
      "outputs": [
        {
          "internalType": "address",
          "name": "",
          "type": "address"
        }
      ],
      "stateMutability": "view",
      "type": "function"
    },
    {
      "inputs": [
        {
          "internalType": "address",
          "name": "_token",
          "type": "address"
        },
        {
          "internalType": "uint256",
          "name": "_amount",
          "type": "uint256"
        }
      ],
      "name": "deposit",
      "outputs": [],
      "stateMutability": "nonpayable",
      "type": "function"
    },
    {
      "inputs": [],
      "name": "getActiveAdapters",
      "outputs": [
        {
          "components": [
            {
              "internalType": "string",
              "name": "name",
              "type": "string"
            },
            {
              "internalType": "uint256",
              "name": "percentage",
              "type": "uint256"
            },
            {
              "internalType": "address",
              "name": "adapterAddress",
              "type": "address"
            },
            {
              "internalType": "bool",
              "name": "status",
              "type": "bool"
            }
          ],
          "internalType": "struct LiquidityHandler.AdapterInfo[]",
          "name": "",
          "type": "tuple[]"
        },
        {
          "internalType": "address[]",
          "name": "",
          "type": "address[]"
        }
      ],
      "stateMutability": "view",
      "type": "function"
    },
    {
      "inputs": [
        {
          "internalType": "address",
          "name": "_pool",
          "type": "address"
        }
      ],
      "name": "getAdapterId",
      "outputs": [
        {
          "internalType": "uint256",
          "name": "",
          "type": "uint256"
        }
      ],
      "stateMutability": "view",
      "type": "function"
    },
    {
      "inputs": [],
      "name": "getAllAdapters",
      "outputs": [
        {
          "components": [
            {
              "internalType": "string",
              "name": "name",
              "type": "string"
            },
            {
              "internalType": "uint256",
              "name": "percentage",
              "type": "uint256"
            },
            {
              "internalType": "address",
              "name": "adapterAddress",
              "type": "address"
            },
            {
              "internalType": "bool",
              "name": "status",
              "type": "bool"
            }
          ],
          "internalType": "struct LiquidityHandler.AdapterInfo[]",
          "name": "",
          "type": "tuple[]"
        },
        {
          "internalType": "address[]",
          "name": "",
          "type": "address[]"
        }
      ],
      "stateMutability": "view",
      "type": "function"
    },
    {
      "inputs": [],
      "name": "getLastAdapterIndex",
      "outputs": [
        {
          "internalType": "uint256",
          "name": "",
          "type": "uint256"
        }
      ],
      "stateMutability": "view",
      "type": "function"
    },
    {
      "inputs": [],
      "name": "getListOfPools",
      "outputs": [
        {
          "internalType": "address[]",
          "name": "",
          "type": "address[]"
        }
      ],
      "stateMutability": "view",
      "type": "function"
    },
    {
      "inputs": [
        {
          "internalType": "uint256",
          "name": "_adapterId",
          "type": "uint256"
        }
      ],
      "name": "getPoolByAdapterId",
      "outputs": [
        {
          "internalType": "address",
          "name": "",
          "type": "address"
        }
      ],
      "stateMutability": "view",
      "type": "function"
    },
    {
      "inputs": [
        {
          "internalType": "bytes32",
          "name": "role",
          "type": "bytes32"
        }
      ],
      "name": "getRoleAdmin",
      "outputs": [
        {
          "internalType": "bytes32",
          "name": "",
          "type": "bytes32"
        }
      ],
      "stateMutability": "view",
      "type": "function"
    },
    {
      "inputs": [
        {
          "internalType": "bytes32",
          "name": "role",
          "type": "bytes32"
        },
        {
          "internalType": "address",
          "name": "account",
          "type": "address"
        }
      ],
      "name": "grantRole",
      "outputs": [],
      "stateMutability": "nonpayable",
      "type": "function"
    },
    {
      "inputs": [
        {
          "internalType": "bytes32",
          "name": "role",
          "type": "bytes32"
        },
        {
          "internalType": "address",
          "name": "account",
          "type": "address"
        }
      ],
      "name": "hasRole",
      "outputs": [
        {
          "internalType": "bool",
          "name": "",
          "type": "bool"
        }
      ],
      "stateMutability": "view",
      "type": "function"
    },
    {
      "inputs": [
        {
          "internalType": "address",
          "name": "_multiSigWallet",
          "type": "address"
        },
        {
          "internalType": "address",
          "name": "_deepfiToken",
          "type": "address"
        }
      ],
      "name": "initialize",
      "outputs": [],
      "stateMutability": "nonpayable",
      "type": "function"
    },
    {
      "inputs": [],
      "name": "pause",
      "outputs": [],
      "stateMutability": "nonpayable",
      "type": "function"
    },
    {
      "inputs": [],
      "name": "paused",
      "outputs": [
        {
          "internalType": "bool",
          "name": "",
          "type": "bool"
        }
      ],
      "stateMutability": "view",
      "type": "function"
    },
    {
      "inputs": [],
      "name": "proxiableUUID",
      "outputs": [
        {
          "internalType": "bytes32",
          "name": "",
          "type": "bytes32"
        }
      ],
      "stateMutability": "view",
      "type": "function"
    },
    {
      "inputs": [
        {
          "internalType": "address",
          "name": "_address",
          "type": "address"
        },
        {
          "internalType": "address",
          "name": "_to",
          "type": "address"
        },
        {
          "internalType": "uint256",
          "name": "_amount",
          "type": "uint256"
        }
      ],
      "name": "removeTokenByAddress",
      "outputs": [],
      "stateMutability": "nonpayable",
      "type": "function"
    },
    {
      "inputs": [
        {
          "internalType": "bytes32",
          "name": "role",
          "type": "bytes32"
        },
        {
          "internalType": "address",
          "name": "account",
          "type": "address"
        }
      ],
      "name": "renounceRole",
      "outputs": [],
      "stateMutability": "nonpayable",
      "type": "function"
    },
    {
      "inputs": [
        {
          "internalType": "bytes32",
          "name": "role",
          "type": "bytes32"
        },
        {
          "internalType": "address",
          "name": "account",
          "type": "address"
        }
      ],
      "name": "revokeRole",
      "outputs": [],
      "stateMutability": "nonpayable",
      "type": "function"
    },
    {
      "inputs": [
        {
          "internalType": "uint256",
          "name": "_id",
          "type": "uint256"
        },
        {
          "internalType": "string",
          "name": "_name",
          "type": "string"
        },
        {
          "internalType": "uint256",
          "name": "_percentage",
          "type": "uint256"
        },
        {
          "internalType": "address",
          "name": "_adapterAddress",
          "type": "address"
        },
        {
          "internalType": "bool",
          "name": "_status",
          "type": "bool"
        }
      ],
      "name": "setAdapter",
      "outputs": [],
      "stateMutability": "nonpayable",
      "type": "function"
    },
    {
      "inputs": [
        {
          "internalType": "address",
          "name": "_pool",
          "type": "address"
        },
        {
          "internalType": "uint256",
          "name": "_adapterId",
          "type": "uint256"
        }
      ],
      "name": "setPoolToAdapterId",
      "outputs": [],
      "stateMutability": "nonpayable",
      "type": "function"
    },
    {
      "inputs": [
        {
          "internalType": "bytes4",
          "name": "interfaceId",
          "type": "bytes4"
        }
      ],
      "name": "supportsInterface",
      "outputs": [
        {
          "internalType": "bool",
          "name": "",
          "type": "bool"
        }
      ],
      "stateMutability": "view",
      "type": "function"
    },
    {
      "inputs": [],
      "name": "unpause",
      "outputs": [],
      "stateMutability": "nonpayable",
      "type": "function"
    },
    {
      "inputs": [],
      "name": "upgradeStatus",
      "outputs": [
        {
          "internalType": "bool",
          "name": "",
          "type": "bool"
        }
      ],
      "stateMutability": "view",
      "type": "function"
    },
    {
      "inputs": [
        {
          "internalType": "address",
          "name": "newImplementation",
          "type": "address"
        }
      ],
      "name": "upgradeTo",
      "outputs": [],
      "stateMutability": "nonpayable",
      "type": "function"
    },
    {
      "inputs": [
        {
          "internalType": "address",
          "name": "newImplementation",
          "type": "address"
        },
        {
          "internalType": "bytes",
          "name": "data",
          "type": "bytes"
        }
      ],
      "name": "upgradeToAndCall",
      "outputs": [],
      "stateMutability": "payable",
      "type": "function"
    },
    {
      "inputs": [
        {
          "internalType": "address",
          "name": "_user",
          "type": "address"
        },
        {
          "internalType": "address",
          "name": "_token",
          "type": "address"
        },
        {
          "internalType": "uint256",
          "name": "_amount",
          "type": "uint256"
        }
      ],
      "name": "withdraw",
      "outputs": [],
      "stateMutability": "nonpayable",
      "type": "function"
    }
  ],
  "bytecode": "0x60a06040523060805234801561001457600080fd5b50608051612a9061004c600039600081816107f60152818161083601528181610bc801528181610c080152610c800152612a906000f3fe6080604052600436106101685760003560e01c806301ffc9a71461016d57806308713981146101a25780631a0e346e146101c4578063248a9ca3146101f2578063249875c91461021257806325f803971461023f5780632f2ff15d1461026157806336568abe146102815780633659cfe6146102a15780633a48f1ad146102c15780633f4ba83a146102e157806347e7ef24146102f6578063485cc955146103165780634f1ef2861461033657806352d1902d146103495780635c975abb1461035e5780636465f04a1461037657806370bd22ff146103965780638456cb59146103ab57806391d14854146103c057806392e79403146103e05780639ddf2cbc14610410578063a217fddf14610430578063d4d543c514610445578063d547741f14610460578063d701f52314610480578063d9caed12146104a0578063e31ada97146104c0578063ea987a1e146104e3578063f72c0d8b14610509578063facb34e71461052b575b600080fd5b34801561017957600080fd5b5061018d61018836600461227d565b610540565b60405190151581526020015b60405180910390f35b3480156101ae57600080fd5b506101c26101bd3660046122b5565b610577565b005b3480156101d057600080fd5b506101e46101df366004612301565b6105b2565b604051908152602001610199565b3480156101fe57600080fd5b506101e461020d36600461231c565b6105c0565b34801561021e57600080fd5b5061023261022d36600461231c565b6105d5565b6040516101999190612335565b34801561024b57600080fd5b50610254610633565b604051610199919061238d565b34801561026d57600080fd5b506101c261027c3660046123a0565b6106ec565b34801561028d57600080fd5b506101c261029c3660046123a0565b61076d565b3480156102ad57600080fd5b506101c26102bc366004612301565b6107eb565b3480156102cd57600080fd5b506101c26102dc366004612457565b6108b4565b3480156102ed57600080fd5b506101c2610968565b34801561030257600080fd5b506101c26103113660046124e0565b61097b565b34801561032257600080fd5b506101c261033136600461250a565b610a50565b6101c2610344366004612534565b610bbd565b34801561035557600080fd5b506101e4610c73565b34801561036a57600080fd5b5060335460ff1661018d565b34801561038257600080fd5b506101c2610391366004612595565b610d21565b3480156103a257600080fd5b506101e4610d46565b3480156103b757600080fd5b506101c2610d8e565b3480156103cc57600080fd5b5061018d6103db3660046123a0565b610da1565b3480156103ec57600080fd5b506104006103fb36600461231c565b610dcc565b6040516101999493929190612629565b34801561041c57600080fd5b506101c261042b3660046124e0565b610e8c565b34801561043c57600080fd5b506101e4600081565b34801561045157600080fd5b5061012d5461018d9060ff1681565b34801561046c57600080fd5b506101c261047b3660046123a0565b610ea4565b34801561048c57600080fd5b506101c261049b366004612663565b610ec0565b3480156104ac57600080fd5b506101c26104bb366004612595565b610ee0565b3480156104cc57600080fd5b506104d5610faa565b604051610199929190612680565b3480156104ef57600080fd5b5061012d546102329061010090046001600160a01b031681565b34801561051557600080fd5b506101e46000805160206129f483398151915281565b34801561053757600080fd5b506104d56111bf565b60006001600160e01b03198216637965db0b60e01b148061057157506301ffc9a760e01b6001600160e01b03198316145b92915050565b600061058281611450565b50600091825261013160205260409091206002018054911515600160a01b0260ff60a01b19909216919091179055565b600061057161012e8361145a565b60009081526097602052604090206001015490565b60008060006105e561012e61146f565b905060005b8181101561062a5760008061060161012e8461147a565b91509150868114156106155750925061062a565b505080806106229061273e565b9150506105ea565b50909392505050565b6060600061064261012e61146f565b90506000816001600160401b0381111561065e5761065e6123cc565b604051908082528060200260200182016040528015610687578160200160208202803683370190505b50905060005b828110156106e5576106a161012e8261147a565b508282815181106106b4576106b4612759565b60200260200101816001600160a01b03166001600160a01b03168152505080806106dd9061273e565b91505061068d565b5092915050565b6106f5826105c0565b6106fe81611450565b8261075e57610715826001600160a01b0316611496565b61075e5760405162461bcd60e51b815260206004820152601560248201527412185b991b195c8e88139bdd0818dbdb9d1c9858dd605a1b60448201526064015b60405180910390fd5b61076883836114a5565b505050565b6001600160a01b03811633146107dd5760405162461bcd60e51b815260206004820152602f60248201527f416363657373436f6e74726f6c3a2063616e206f6e6c792072656e6f756e636560448201526e103937b632b9903337b91039b2b63360891b6064820152608401610755565b6107e7828261152b565b5050565b306001600160a01b037f00000000000000000000000000000000000000000000000000000000000000001614156108345760405162461bcd60e51b81526004016107559061276f565b7f00000000000000000000000000000000000000000000000000000000000000006001600160a01b0316610866611592565b6001600160a01b03161461088c5760405162461bcd60e51b8152600401610755906127a9565b610895816115ae565b604080516000808252602082019092526108b191839190611627565b50565b60006108bf81611450565b856109055760405162461bcd60e51b815260206004820152601660248201527512185b991b195c8e8808585b1b1bddd959080c081a5960521b6044820152606401610755565b600086815261013160209081526040909120865190916109299183918901906121b1565b5060018101949094555060029092018054921515600160a01b026001600160a81b03199093166001600160a01b03909216919091179190911790555050565b600061097381611450565b6108b1611792565b6109836117de565b3361099061012e82611826565b6109ac5760405162461bcd60e51b8152600401610755906127e3565b60006109ba61012e3361145a565b600081815261013160205260409020600201549091506001600160a01b03908116906109e9908616828661183b565b6040516311f9fbc960e21b81526001600160a01b038216906347e7ef2490610a179088908890600401612812565b600060405180830381600087803b158015610a3157600080fd5b505af1158015610a45573d6000803e3d6000fd5b505050505050505050565b600054610100900460ff1615808015610a705750600054600160ff909116105b80610a915750610a7f30611496565b158015610a91575060005460ff166001145b610af45760405162461bcd60e51b815260206004820152602e60248201527f496e697469616c697a61626c653a20636f6e747261637420697320616c72656160448201526d191e481a5b9a5d1a585b1a5e995960921b6064820152608401610755565b6000805460ff191660011790558015610b17576000805461ff0019166101001790555b610b1f611891565b610b276118c0565b610b2f6118c0565b610b3a6000846114a5565b610b526000805160206129f4833981519152846114a5565b61012d8054610100600160a81b0319166101006001600160a01b038516021790558015610768576000805461ff0019169055604051600181527f7f26b83ff96e1f2b6a682f133852f6798a09c465da95921460cefb38474024989060200160405180910390a1505050565b306001600160a01b037f0000000000000000000000000000000000000000000000000000000000000000161415610c065760405162461bcd60e51b81526004016107559061276f565b7f00000000000000000000000000000000000000000000000000000000000000006001600160a01b0316610c38611592565b6001600160a01b031614610c5e5760405162461bcd60e51b8152600401610755906127a9565b610c67826115ae565b6107e782826001611627565b6000306001600160a01b037f00000000000000000000000000000000000000000000000000000000000000001614610d0e5760405162461bcd60e51b815260206004820152603860248201527f555550535570677261646561626c653a206d757374206e6f742062652063616c6044820152771b1959081d1a1c9bdd59da0819195b1959d85d1958d85b1b60421b6064820152608401610755565b50600080516020612a1483398151915290565b6000610d2c81611450565b610d406001600160a01b038516848461183b565b50505050565b600060015b600081815261013160205260409020600201546001600160a01b0316610d7c5780610d758161282b565b9392505050565b80610d868161273e565b915050610d4b565b6000610d9981611450565b6108b16118e7565b60009182526097602090815260408084206001600160a01b0393909316845291905290205460ff1690565b61013160205260009081526040902080548190610de890612842565b80601f0160208091040260200160405190810160405280929190818152602001828054610e1490612842565b8015610e615780601f10610e3657610100808354040283529160200191610e61565b820191906000526020600020905b815481529060010190602001808311610e4457829003601f168201915b5050505060018301546002909301549192916001600160a01b0381169150600160a01b900460ff1684565b6000610e9781611450565b610d4061012e8484611924565b610ead826105c0565b610eb681611450565b610768838361152b565b6000610ecb81611450565b5061012d805460ff1916911515919091179055565b610ee86117de565b33610ef561012e82611826565b610f115760405162461bcd60e51b8152600401610755906127e3565b6000610f1f61012e3361145a565b6000818152610131602052604090819020600201549051636ce5768960e11b81526001600160a01b038881166004830152878116602483015260448201879052929350911690819063d9caed1290606401600060405180830381600087803b158015610f8a57600080fd5b505af1158015610f9e573d6000803e3d6000fd5b50505050505050505050565b6060806000610fb7610d46565b90506000816001600160401b03811115610fd357610fd36123cc565b60405190808252806020026020018201604052801561100c57816020015b610ff9612235565b815260200190600190039081610ff15790505b5090506000826001600160401b03811115611029576110296123cc565b604051908082528060200260200182016040528015611052578160200160208202803683370190505b50905060005b838110156111b457610131600061107083600161287d565b815260200190815260200160002060405180608001604052908160008201805461109990612842565b80601f01602080910402602001604051908101604052809291908181526020018280546110c590612842565b80156111125780601f106110e757610100808354040283529160200191611112565b820191906000526020600020905b8154815290600101906020018083116110f557829003601f168201915b5050509183525050600182015460208201526002909101546001600160a01b0381166040830152600160a01b900460ff161515606090910152835184908390811061115f5761115f612759565b602090810291909101015261117861022d82600161287d565b82828151811061118a5761118a612759565b6001600160a01b0390921660209283029190910190910152806111ac8161273e565b915050611058565b509094909350915050565b60608060006111cf61012e61146f565b90506000816001600160401b038111156111eb576111eb6123cc565b604051908082528060200260200182016040528015611214578160200160208202803683370190505b5090506000826001600160401b03811115611231576112316123cc565b60405190808252806020026020018201604052801561125a578160200160208202803683370190505b5090506000836001600160401b03811115611277576112776123cc565b6040519080825280602002602001820160405280156112b057816020015b61129d612235565b8152602001906001900390816112955790505b50905060005b84811015611444576112ca61012e8261147a565b8583815181106112dc576112dc612759565b602002602001018584815181106112f5576112f5612759565b6020026020010182815250826001600160a01b03166001600160a01b03168152505050610131600084838151811061132f5761132f612759565b6020026020010151815260200190815260200160002060405180608001604052908160008201805461136090612842565b80601f016020809104026020016040519081016040528092919081815260200182805461138c90612842565b80156113d95780601f106113ae576101008083540402835291602001916113d9565b820191906000526020600020905b8154815290600101906020018083116113bc57829003601f168201915b5050509183525050600182015460208201526002909101546001600160a01b0381166040830152600160a01b900460ff161515606090910152825183908390811061142657611426612759565b6020026020010181905250808061143c9061273e565b9150506112b6565b50959194509092505050565b6108b18133611942565b6000610d75836001600160a01b03841661199b565b600061057182611a0b565b60008080806114898686611a16565b9097909650945050505050565b6001600160a01b03163b151590565b6114af8282610da1565b6107e75760008281526097602090815260408083206001600160a01b03851684529091529020805460ff191660011790556114e73390565b6001600160a01b0316816001600160a01b0316837f2f8788117e7eff1d82e926ec794901d17c78024a50270940304540a733656f0d60405160405180910390a45050565b6115358282610da1565b156107e75760008281526097602090815260408083206001600160a01b0385168085529252808320805460ff1916905551339285917ff6391f5c32d9c69d2a47ea670b442974b53935d1edc7fd64eb21e047a839171b9190a45050565b600080516020612a14833981519152546001600160a01b031690565b6000805160206129f48339815191526115c681611450565b61012d5460ff166116185760405162461bcd60e51b815260206004820152601c60248201527b12185b991b195c8e88155c19dc985919481b9bdd08185b1b1bddd95960221b6044820152606401610755565b505061012d805460ff19169055565b7f4910fdfa16fed3260ed0e7147f7cc6da11a60208b5b9406d12a635614ffd91435460ff161561165a5761076883611a41565b826001600160a01b03166352d1902d6040518163ffffffff1660e01b8152600401602060405180830381865afa9250505080156116b4575060408051601f3d908101601f191682019092526116b191810190612895565b60015b6117175760405162461bcd60e51b815260206004820152602e60248201527f45524331393637557067726164653a206e657720696d706c656d656e7461746960448201526d6f6e206973206e6f74205555505360901b6064820152608401610755565b600080516020612a1483398151915281146117865760405162461bcd60e51b815260206004820152602960248201527f45524331393637557067726164653a20756e737570706f727465642070726f786044820152681a58589b195555525160ba1b6064820152608401610755565b50610768838383611adb565b61179a611b00565b6033805460ff191690557f5db9ee0a495bf2e6ff9c91a7834c1ba4fdd244a5e8aa4e537bd38aeae4b073aa335b6040516117d49190612335565b60405180910390a1565b60335460ff16156118245760405162461bcd60e51b815260206004820152601060248201526f14185d5cd8589b194e881c185d5cd95960821b6044820152606401610755565b565b6000610d75836001600160a01b038416611b49565b6107688363a9059cbb60e01b848460405160240161185a929190612812565b60408051601f198184030181529190526020810180516001600160e01b03166001600160e01b031990931692909217909152611b55565b600054610100900460ff166118b85760405162461bcd60e51b8152600401610755906128ae565b611824611c27565b600054610100900460ff166118245760405162461bcd60e51b8152600401610755906128ae565b6118ef6117de565b6033805460ff191660011790557f62e78cea01bee320cd4e420270b5ea74000d11b0c9f74754ebdbfc544b05a2586117c73390565b600061193a846001600160a01b03851684611c5a565b949350505050565b61194c8282610da1565b6107e75761195981611c77565b611964836020611c89565b6040516020016119759291906128f9565b60408051601f198184030181529082905262461bcd60e51b825261075591600401612968565b6000818152600283016020526040812054801515806119bf57506119bf8484611b49565b610d755760405162461bcd60e51b815260206004820152601e60248201527f456e756d657261626c654d61703a206e6f6e6578697374656e74206b657900006044820152606401610755565b600061057182611e24565b60008080611a248585611e2e565b600081815260029690960160205260409095205494959350505050565b611a4a81611496565b611aac5760405162461bcd60e51b815260206004820152602d60248201527f455243313936373a206e657720696d706c656d656e746174696f6e206973206e60448201526c1bdd08184818dbdb9d1c9858dd609a1b6064820152608401610755565b600080516020612a1483398151915280546001600160a01b0319166001600160a01b0392909216919091179055565b611ae483611e3a565b600082511180611af15750805b1561076857610d408383611e7a565b60335460ff166118245760405162461bcd60e51b815260206004820152601460248201527314185d5cd8589b194e881b9bdd081c185d5cd95960621b6044820152606401610755565b6000610d758383611f6c565b6000611baa826040518060400160405280602081526020017f5361666545524332303a206c6f772d6c6576656c2063616c6c206661696c6564815250856001600160a01b0316611f789092919063ffffffff16565b8051909150156107685780806020019051810190611bc8919061297b565b6107685760405162461bcd60e51b815260206004820152602a60248201527f5361666545524332303a204552433230206f7065726174696f6e20646964206e6044820152691bdd081cdd58d8d9595960b21b6064820152608401610755565b600054610100900460ff16611c4e5760405162461bcd60e51b8152600401610755906128ae565b6033805460ff19169055565b6000828152600284016020526040812082905561193a8484611f87565b60606105716001600160a01b03831660145b60606000611c98836002612998565b611ca390600261287d565b6001600160401b03811115611cba57611cba6123cc565b6040519080825280601f01601f191660200182016040528015611ce4576020820181803683370190505b509050600360fc1b81600081518110611cff57611cff612759565b60200101906001600160f81b031916908160001a905350600f60fb1b81600181518110611d2e57611d2e612759565b60200101906001600160f81b031916908160001a9053506000611d52846002612998565b611d5d90600161287d565b90505b6001811115611dd5576f181899199a1a9b1b9c1cb0b131b232b360811b85600f1660108110611d9157611d91612759565b1a60f81b828281518110611da757611da7612759565b60200101906001600160f81b031916908160001a90535060049490941c93611dce8161282b565b9050611d60565b508315610d755760405162461bcd60e51b815260206004820181905260248201527f537472696e67733a20686578206c656e67746820696e73756666696369656e746044820152606401610755565b6000610571825490565b6000610d758383611f93565b611e4381611a41565b6040516001600160a01b038216907fbc7cd75a20ee27fd9adebab32041f755214dbc6bffa90cc0225b39da2e5c2d3b90600090a250565b6060611e8583611496565b611ee05760405162461bcd60e51b815260206004820152602660248201527f416464726573733a2064656c65676174652063616c6c20746f206e6f6e2d636f6044820152651b9d1c9858dd60d21b6064820152608401610755565b600080846001600160a01b031684604051611efb91906129b7565b600060405180830381855af49150503d8060008114611f36576040519150601f19603f3d011682016040523d82523d6000602084013e611f3b565b606091505b5091509150611f638282604051806060016040528060278152602001612a3460279139611fbd565b95945050505050565b6000610d758383611fd6565b606061193a8484600085611fee565b6000610d7583836120c9565b6000826000018281548110611faa57611faa612759565b9060005260206000200154905092915050565b60608315611fcc575081610d75565b610d758383612113565b60009081526001919091016020526040902054151590565b60608247101561204f5760405162461bcd60e51b815260206004820152602660248201527f416464726573733a20696e73756666696369656e742062616c616e636520666f6044820152651c8818d85b1b60d21b6064820152608401610755565b600080866001600160a01b0316858760405161206b91906129b7565b60006040518083038185875af1925050503d80600081146120a8576040519150601f19603f3d011682016040523d82523d6000602084013e6120ad565b606091505b50915091506120be8783838761213d565b979650505050505050565b60006120d58383611fd6565b61210b57508154600181810184556000848152602080822090930184905584548482528286019093526040902091909155610571565b506000610571565b8151156121235781518083602001fd5b8060405162461bcd60e51b81526004016107559190612968565b606083156121a75782516121a05761215485611496565b6121a05760405162461bcd60e51b815260206004820152601d60248201527f416464726573733a2063616c6c20746f206e6f6e2d636f6e74726163740000006044820152606401610755565b508161193a565b61193a8383612113565b8280546121bd90612842565b90600052602060002090601f0160209004810192826121df5760008555612225565b82601f106121f857805160ff1916838001178555612225565b82800160010185558215612225579182015b8281111561222557825182559160200191906001019061220a565b50612231929150612268565b5090565b6040518060800160405280606081526020016000815260200160006001600160a01b031681526020016000151581525090565b5b808211156122315760008155600101612269565b60006020828403121561228f57600080fd5b81356001600160e01b031981168114610d7557600080fd5b80151581146108b157600080fd5b600080604083850312156122c857600080fd5b8235915060208301356122da816122a7565b809150509250929050565b80356001600160a01b03811681146122fc57600080fd5b919050565b60006020828403121561231357600080fd5b610d75826122e5565b60006020828403121561232e57600080fd5b5035919050565b6001600160a01b0391909116815260200190565b600081518084526020808501945080840160005b838110156123825781516001600160a01b03168752958201959082019060010161235d565b509495945050505050565b602081526000610d756020830184612349565b600080604083850312156123b357600080fd5b823591506123c3602084016122e5565b90509250929050565b634e487b7160e01b600052604160045260246000fd5b60006001600160401b03808411156123fc576123fc6123cc565b604051601f8501601f19908116603f01168101908282118183101715612424576124246123cc565b8160405280935085815286868601111561243d57600080fd5b858560208301376000602087830101525050509392505050565b600080600080600060a0868803121561246f57600080fd5b8535945060208601356001600160401b0381111561248c57600080fd5b8601601f8101881361249d57600080fd5b6124ac888235602084016123e2565b945050604086013592506124c2606087016122e5565b915060808601356124d2816122a7565b809150509295509295909350565b600080604083850312156124f357600080fd5b6124fc836122e5565b946020939093013593505050565b6000806040838503121561251d57600080fd5b612526836122e5565b91506123c3602084016122e5565b6000806040838503121561254757600080fd5b612550836122e5565b915060208301356001600160401b0381111561256b57600080fd5b8301601f8101851361257c57600080fd5b61258b858235602084016123e2565b9150509250929050565b6000806000606084860312156125aa57600080fd5b6125b3846122e5565b92506125c1602085016122e5565b9150604084013590509250925092565b60005b838110156125ec5781810151838201526020016125d4565b83811115610d405750506000910152565b600081518084526126158160208601602086016125d1565b601f01601f19169290920160200192915050565b60808152600061263c60808301876125fd565b6020830195909552506001600160a01b039290921660408301521515606090910152919050565b60006020828403121561267557600080fd5b8135610d75816122a7565b60006040808301818452808651808352606092508286019150828160051b8701016020808a0160005b8481101561270857605f198a85030186528151608081518187526126cf828801826125fd565b83870151888801528b8401516001600160a01b03168c890152928a01511515968a019690965250958301959350908201906001016126a9565b50508782039088015261271b8189612349565b9998505050505050505050565b634e487b7160e01b600052601160045260246000fd5b600060001982141561275257612752612728565b5060010190565b634e487b7160e01b600052603260045260246000fd5b6020808252602c908201526000805160206129d483398151915260408201526b19195b1959d85d1958d85b1b60a21b606082015260800190565b6020808252602c908201526000805160206129d483398151915260408201526b6163746976652070726f787960a01b606082015260800190565b6020808252601590820152741cd95b99195c881cda1bdd5b19081899481c1bdbdb605a1b604082015260600190565b6001600160a01b03929092168252602082015260400190565b60008161283a5761283a612728565b506000190190565b600181811c9082168061285657607f821691505b6020821081141561287757634e487b7160e01b600052602260045260246000fd5b50919050565b6000821982111561289057612890612728565b500190565b6000602082840312156128a757600080fd5b5051919050565b6020808252602b908201527f496e697469616c697a61626c653a20636f6e7472616374206973206e6f74206960408201526a6e697469616c697a696e6760a81b606082015260800190565b76020b1b1b2b9b9a1b7b73a3937b61d1030b1b1b7bab73a1604d1b81526000835161292b8160178501602088016125d1565b7001034b99036b4b9b9b4b733903937b6329607d1b601791840191820152835161295c8160288401602088016125d1565b01602801949350505050565b602081526000610d7560208301846125fd565b60006020828403121561298d57600080fd5b8151610d75816122a7565b60008160001904831182151516156129b2576129b2612728565b500290565b600082516129c98184602087016125d1565b919091019291505056fe46756e6374696f6e206d7573742062652063616c6c6564207468726f75676820189ab7a9244df0848122154315af71fe140f3db0fe014031783b0946b8c9d2e3360894a13ba1a3210667c828492db98dca3e2076cc3735a920a3ca505d382bbc416464726573733a206c6f772d6c6576656c2064656c65676174652063616c6c206661696c6564a2646970667358221220fcae99c595ec332027fa8664c88c41171efb44f0833b03bdd36186b52a11930664736f6c634300080b0033",
  "linkReferences": {},
  "deployedLinkReferences": {}
}