{
  "_format": "hh-sol-artifact-1",
  "contractName": "LiquidityHandler",
  "sourceName": "contracts/LiquidityHandler.sol",
  "abi": [
    {
      "anonymous": false,
      "inputs": [
        {
          "indexed": false,
          "internalType": "address",
          "name": "previousAdmin",
          "type": "address"
        },
        {
          "indexed": false,
          "internalType": "address",
          "name": "newAdmin",
          "type": "address"
        }
      ],
      "name": "AdminChanged",
      "type": "event"
    },
    {
      "anonymous": false,
      "inputs": [
        {
          "indexed": true,
          "internalType": "address",
          "name": "beacon",
          "type": "address"
        }
      ],
      "name": "BeaconUpgraded",
      "type": "event"
    },
    {
      "anonymous": false,
      "inputs": [
        {
          "indexed": false,
          "internalType": "uint8",
          "name": "version",
          "type": "uint8"
        }
      ],
      "name": "Initialized",
      "type": "event"
    },
    {
      "anonymous": false,
      "inputs": [
        {
          "indexed": false,
          "internalType": "address",
          "name": "account",
          "type": "address"
        }
      ],
      "name": "Paused",
      "type": "event"
    },
    {
      "anonymous": false,
      "inputs": [
        {
          "indexed": true,
          "internalType": "bytes32",
          "name": "role",
          "type": "bytes32"
        },
        {
          "indexed": true,
          "internalType": "bytes32",
          "name": "previousAdminRole",
          "type": "bytes32"
        },
        {
          "indexed": true,
          "internalType": "bytes32",
          "name": "newAdminRole",
          "type": "bytes32"
        }
      ],
      "name": "RoleAdminChanged",
      "type": "event"
    },
    {
      "anonymous": false,
      "inputs": [
        {
          "indexed": true,
          "internalType": "bytes32",
          "name": "role",
          "type": "bytes32"
        },
        {
          "indexed": true,
          "internalType": "address",
          "name": "account",
          "type": "address"
        },
        {
          "indexed": true,
          "internalType": "address",
          "name": "sender",
          "type": "address"
        }
      ],
      "name": "RoleGranted",
      "type": "event"
    },
    {
      "anonymous": false,
      "inputs": [
        {
          "indexed": true,
          "internalType": "bytes32",
          "name": "role",
          "type": "bytes32"
        },
        {
          "indexed": true,
          "internalType": "address",
          "name": "account",
          "type": "address"
        },
        {
          "indexed": true,
          "internalType": "address",
          "name": "sender",
          "type": "address"
        }
      ],
      "name": "RoleRevoked",
      "type": "event"
    },
    {
      "anonymous": false,
      "inputs": [
        {
          "indexed": false,
          "internalType": "address",
          "name": "account",
          "type": "address"
        }
      ],
      "name": "Unpaused",
      "type": "event"
    },
    {
      "anonymous": false,
      "inputs": [
        {
          "indexed": true,
          "internalType": "address",
          "name": "implementation",
          "type": "address"
        }
      ],
      "name": "Upgraded",
      "type": "event"
    },
    {
      "inputs": [],
      "name": "DEFAULT_ADMIN_ROLE",
      "outputs": [
        {
          "internalType": "bytes32",
          "name": "",
          "type": "bytes32"
        }
      ],
      "stateMutability": "view",
      "type": "function"
    },
    {
      "inputs": [],
      "name": "UPGRADER_ROLE",
      "outputs": [
        {
          "internalType": "bytes32",
          "name": "",
          "type": "bytes32"
        }
      ],
      "stateMutability": "view",
      "type": "function"
    },
    {
      "inputs": [
        {
          "internalType": "uint256",
          "name": "",
          "type": "uint256"
        }
      ],
      "name": "adapterIdsToAdapterInfo",
      "outputs": [
        {
          "internalType": "string",
          "name": "name",
          "type": "string"
        },
        {
          "internalType": "uint256",
          "name": "percentage",
          "type": "uint256"
        },
        {
          "internalType": "address",
          "name": "adapterAddress",
          "type": "address"
        },
        {
          "internalType": "bool",
          "name": "status",
          "type": "bool"
        }
      ],
      "stateMutability": "view",
      "type": "function"
    },
    {
      "inputs": [
        {
          "internalType": "uint256",
          "name": "_adapterId",
          "type": "uint256"
        },
        {
          "components": [
            {
              "internalType": "string",
              "name": "name",
              "type": "string"
            },
            {
              "internalType": "string",
              "name": "description",
              "type": "string"
            },
            {
              "internalType": "string",
              "name": "link",
              "type": "string"
            }
          ],
          "internalType": "struct LiquidityHandler.ContractsInfo",
          "name": "_newContractInfo",
          "type": "tuple"
        }
      ],
      "name": "addContractInfoToAdapterInfo",
      "outputs": [],
      "stateMutability": "nonpayable",
      "type": "function"
    },
    {
      "inputs": [
        {
          "internalType": "uint256",
          "name": "_id",
          "type": "uint256"
        },
        {
          "internalType": "bool",
          "name": "_status",
          "type": "bool"
        }
      ],
      "name": "changeAdapterStatus",
      "outputs": [],
      "stateMutability": "nonpayable",
      "type": "function"
    },
    {
      "inputs": [
        {
          "internalType": "bool",
          "name": "_status",
          "type": "bool"
        }
      ],
      "name": "changeUpgradeStatus",
      "outputs": [],
      "stateMutability": "nonpayable",
      "type": "function"
    },
    {
      "inputs": [
        {
          "internalType": "uint256",
          "name": "adapterId",
          "type": "uint256"
        },
        {
          "internalType": "uint256",
          "name": "contractIndex",
          "type": "uint256"
        }
      ],
      "name": "deleteContractInfoFromAdapterInfo",
      "outputs": [],
      "stateMutability": "nonpayable",
      "type": "function"
    },
    {
      "inputs": [
        {
          "internalType": "address",
          "name": "_token",
          "type": "address"
        },
        {
          "internalType": "uint256",
          "name": "_amount",
          "type": "uint256"
        }
      ],
      "name": "deposit",
      "outputs": [],
      "stateMutability": "nonpayable",
      "type": "function"
    },
    {
      "inputs": [],
      "name": "getActiveAdapters",
      "outputs": [
        {
          "components": [
            {
              "internalType": "string",
              "name": "name",
              "type": "string"
            },
            {
              "internalType": "uint256",
              "name": "percentage",
              "type": "uint256"
            },
            {
              "internalType": "address",
              "name": "adapterAddress",
              "type": "address"
            },
            {
              "components": [
                {
                  "internalType": "string",
                  "name": "name",
                  "type": "string"
                },
                {
                  "internalType": "string",
                  "name": "description",
                  "type": "string"
                },
                {
                  "internalType": "string",
                  "name": "link",
                  "type": "string"
                }
              ],
              "internalType": "struct LiquidityHandler.ContractsInfo[]",
              "name": "contracts",
              "type": "tuple[]"
            },
            {
              "internalType": "bool",
              "name": "status",
              "type": "bool"
            }
          ],
          "internalType": "struct LiquidityHandler.AdapterInfo[]",
          "name": "",
          "type": "tuple[]"
        },
        {
          "internalType": "address[]",
          "name": "",
          "type": "address[]"
        }
      ],
      "stateMutability": "view",
      "type": "function"
    },
    {
      "inputs": [
        {
          "internalType": "address",
          "name": "_pool",
          "type": "address"
        }
      ],
      "name": "getAdapterId",
      "outputs": [
        {
          "internalType": "uint256",
          "name": "",
          "type": "uint256"
        }
      ],
      "stateMutability": "view",
      "type": "function"
    },
    {
      "inputs": [
        {
          "internalType": "uint256",
          "name": "_adapterId",
          "type": "uint256"
        }
      ],
      "name": "getAdapterInfo",
      "outputs": [
        {
          "components": [
            {
              "internalType": "string",
              "name": "name",
              "type": "string"
            },
            {
              "internalType": "uint256",
              "name": "percentage",
              "type": "uint256"
            },
            {
              "internalType": "address",
              "name": "adapterAddress",
              "type": "address"
            },
            {
              "components": [
                {
                  "internalType": "string",
                  "name": "name",
                  "type": "string"
                },
                {
                  "internalType": "string",
                  "name": "description",
                  "type": "string"
                },
                {
                  "internalType": "string",
                  "name": "link",
                  "type": "string"
                }
              ],
              "internalType": "struct LiquidityHandler.ContractsInfo[]",
              "name": "contracts",
              "type": "tuple[]"
            },
            {
              "internalType": "bool",
              "name": "status",
              "type": "bool"
            }
          ],
          "internalType": "struct LiquidityHandler.AdapterInfo",
          "name": "data_",
          "type": "tuple"
        }
      ],
      "stateMutability": "view",
      "type": "function"
    },
    {
      "inputs": [
        {
          "internalType": "address",
          "name": "_vault",
          "type": "address"
        }
      ],
      "name": "getAdapterInfoByAddress",
      "outputs": [
        {
          "components": [
            {
              "internalType": "string",
              "name": "name",
              "type": "string"
            },
            {
              "internalType": "uint256",
              "name": "percentage",
              "type": "uint256"
            },
            {
              "internalType": "address",
              "name": "adapterAddress",
              "type": "address"
            },
            {
              "components": [
                {
                  "internalType": "string",
                  "name": "name",
                  "type": "string"
                },
                {
                  "internalType": "string",
                  "name": "description",
                  "type": "string"
                },
                {
                  "internalType": "string",
                  "name": "link",
                  "type": "string"
                }
              ],
              "internalType": "struct LiquidityHandler.ContractsInfo[]",
              "name": "contracts",
              "type": "tuple[]"
            },
            {
              "internalType": "bool",
              "name": "status",
              "type": "bool"
            }
          ],
          "internalType": "struct LiquidityHandler.AdapterInfo",
          "name": "data_",
          "type": "tuple"
        }
      ],
      "stateMutability": "view",
      "type": "function"
    },
    {
      "inputs": [],
      "name": "getAllAdapters",
      "outputs": [
        {
          "components": [
            {
              "internalType": "string",
              "name": "name",
              "type": "string"
            },
            {
              "internalType": "uint256",
              "name": "percentage",
              "type": "uint256"
            },
            {
              "internalType": "address",
              "name": "adapterAddress",
              "type": "address"
            },
            {
              "components": [
                {
                  "internalType": "string",
                  "name": "name",
                  "type": "string"
                },
                {
                  "internalType": "string",
                  "name": "description",
                  "type": "string"
                },
                {
                  "internalType": "string",
                  "name": "link",
                  "type": "string"
                }
              ],
              "internalType": "struct LiquidityHandler.ContractsInfo[]",
              "name": "contracts",
              "type": "tuple[]"
            },
            {
              "internalType": "bool",
              "name": "status",
              "type": "bool"
            }
          ],
          "internalType": "struct LiquidityHandler.AdapterInfo[]",
          "name": "",
          "type": "tuple[]"
        },
        {
          "internalType": "address[]",
          "name": "",
          "type": "address[]"
        }
      ],
      "stateMutability": "view",
      "type": "function"
    },
    {
      "inputs": [],
      "name": "getLastAdapterIndex",
      "outputs": [
        {
          "internalType": "uint256",
          "name": "",
          "type": "uint256"
        }
      ],
      "stateMutability": "view",
      "type": "function"
    },
    {
      "inputs": [],
      "name": "getListOfPools",
      "outputs": [
        {
          "internalType": "address[]",
          "name": "",
          "type": "address[]"
        }
      ],
      "stateMutability": "view",
      "type": "function"
    },
    {
      "inputs": [
        {
          "internalType": "uint256",
          "name": "_adapterId",
          "type": "uint256"
        }
      ],
      "name": "getPoolByAdapterId",
      "outputs": [
        {
          "internalType": "address",
          "name": "",
          "type": "address"
        }
      ],
      "stateMutability": "view",
      "type": "function"
    },
    {
      "inputs": [
        {
          "internalType": "bytes32",
          "name": "role",
          "type": "bytes32"
        }
      ],
      "name": "getRoleAdmin",
      "outputs": [
        {
          "internalType": "bytes32",
          "name": "",
          "type": "bytes32"
        }
      ],
      "stateMutability": "view",
      "type": "function"
    },
    {
      "inputs": [
        {
          "internalType": "bytes32",
          "name": "role",
          "type": "bytes32"
        },
        {
          "internalType": "address",
          "name": "account",
          "type": "address"
        }
      ],
      "name": "grantRole",
      "outputs": [],
      "stateMutability": "nonpayable",
      "type": "function"
    },
    {
      "inputs": [
        {
          "internalType": "bytes32",
          "name": "role",
          "type": "bytes32"
        },
        {
          "internalType": "address",
          "name": "account",
          "type": "address"
        }
      ],
      "name": "hasRole",
      "outputs": [
        {
          "internalType": "bool",
          "name": "",
          "type": "bool"
        }
      ],
      "stateMutability": "view",
      "type": "function"
    },
    {
      "inputs": [
        {
          "internalType": "address",
          "name": "_multiSigWallet",
          "type": "address"
        }
      ],
      "name": "initialize",
      "outputs": [],
      "stateMutability": "nonpayable",
      "type": "function"
    },
    {
      "inputs": [],
      "name": "pause",
      "outputs": [],
      "stateMutability": "nonpayable",
      "type": "function"
    },
    {
      "inputs": [],
      "name": "paused",
      "outputs": [
        {
          "internalType": "bool",
          "name": "",
          "type": "bool"
        }
      ],
      "stateMutability": "view",
      "type": "function"
    },
    {
      "inputs": [],
      "name": "proxiableUUID",
      "outputs": [
        {
          "internalType": "bytes32",
          "name": "",
          "type": "bytes32"
        }
      ],
      "stateMutability": "view",
      "type": "function"
    },
    {
      "inputs": [
        {
          "internalType": "address",
          "name": "_address",
          "type": "address"
        },
        {
          "internalType": "address",
          "name": "_to",
          "type": "address"
        },
        {
          "internalType": "uint256",
          "name": "_amount",
          "type": "uint256"
        }
      ],
      "name": "removeTokenByAddress",
      "outputs": [],
      "stateMutability": "nonpayable",
      "type": "function"
    },
    {
      "inputs": [
        {
          "internalType": "bytes32",
          "name": "role",
          "type": "bytes32"
        },
        {
          "internalType": "address",
          "name": "account",
          "type": "address"
        }
      ],
      "name": "renounceRole",
      "outputs": [],
      "stateMutability": "nonpayable",
      "type": "function"
    },
    {
      "inputs": [
        {
          "internalType": "bytes32",
          "name": "role",
          "type": "bytes32"
        },
        {
          "internalType": "address",
          "name": "account",
          "type": "address"
        }
      ],
      "name": "revokeRole",
      "outputs": [],
      "stateMutability": "nonpayable",
      "type": "function"
    },
    {
      "inputs": [
        {
          "internalType": "uint256",
          "name": "_id",
          "type": "uint256"
        },
        {
          "internalType": "string",
          "name": "_name",
          "type": "string"
        },
        {
          "internalType": "uint256",
          "name": "_percentage",
          "type": "uint256"
        },
        {
          "internalType": "address",
          "name": "_adapterAddress",
          "type": "address"
        },
        {
          "internalType": "bool",
          "name": "_status",
          "type": "bool"
        }
      ],
      "name": "setAdapter",
      "outputs": [],
      "stateMutability": "nonpayable",
      "type": "function"
    },
    {
      "inputs": [
        {
          "internalType": "address",
          "name": "_pool",
          "type": "address"
        },
        {
          "internalType": "uint256",
          "name": "_adapterId",
          "type": "uint256"
        }
      ],
      "name": "setPoolToAdapterId",
      "outputs": [],
      "stateMutability": "nonpayable",
      "type": "function"
    },
    {
      "inputs": [
        {
          "internalType": "bytes4",
          "name": "interfaceId",
          "type": "bytes4"
        }
      ],
      "name": "supportsInterface",
      "outputs": [
        {
          "internalType": "bool",
          "name": "",
          "type": "bool"
        }
      ],
      "stateMutability": "view",
      "type": "function"
    },
    {
      "inputs": [],
      "name": "unpause",
      "outputs": [],
      "stateMutability": "nonpayable",
      "type": "function"
    },
    {
      "inputs": [],
      "name": "upgradeStatus",
      "outputs": [
        {
          "internalType": "bool",
          "name": "",
          "type": "bool"
        }
      ],
      "stateMutability": "view",
      "type": "function"
    },
    {
      "inputs": [
        {
          "internalType": "address",
          "name": "newImplementation",
          "type": "address"
        }
      ],
      "name": "upgradeTo",
      "outputs": [],
      "stateMutability": "nonpayable",
      "type": "function"
    },
    {
      "inputs": [
        {
          "internalType": "address",
          "name": "newImplementation",
          "type": "address"
        },
        {
          "internalType": "bytes",
          "name": "data",
          "type": "bytes"
        }
      ],
      "name": "upgradeToAndCall",
      "outputs": [],
      "stateMutability": "payable",
      "type": "function"
    },
    {
      "inputs": [
        {
          "internalType": "address",
          "name": "_user",
          "type": "address"
        },
        {
          "internalType": "address",
          "name": "_token",
          "type": "address"
        },
        {
          "internalType": "uint256",
          "name": "_full_amout",
          "type": "uint256"
        },
        {
          "internalType": "uint256",
          "name": "_deducted_amount",
          "type": "uint256"
        },
        {
          "internalType": "uint256",
          "name": "_fees",
          "type": "uint256"
        }
      ],
      "name": "withdraw",
      "outputs": [],
      "stateMutability": "nonpayable",
      "type": "function"
    }
  ],
  "bytecode": "0x60a06040523060805234801561001457600080fd5b50608051613b3b61004c600039600081816109030152818161094301528181610bcd01528181610c0d0152610c850152613b3b6000f3fe6080604052600436106101895760003560e01c806301ffc9a71461018e57806308713981146101c35780631a0e346e146101e557806321058e2f14610213578063248a9ca314610233578063249875c91461025357806325f80397146102805780632f2ff15d146102a257806336568abe146102c25780633659cfe6146102e25780633a48f1ad146103025780633f4ba83a1461032257806347e7ef24146103375780634f1ef2861461035757806352d1902d1461036a5780635c975abb1461037f5780636465f04a146103975780636575076f146103b757806370bd22ff146103e457806376234759146103f95780638456cb5914610419578063903e3a241461042e57806391d148541461044e57806392e794031461046e5780639ddf2cbc1461049e578063a217fddf146104be578063c4d66de8146104d3578063d4d543c5146104f3578063d547741f1461050e578063d701f5231461052e578063e31ada971461054e578063f51ff47f14610571578063f72c0d8b14610591578063facb34e7146105b3575b600080fd5b34801561019a57600080fd5b506101ae6101a93660046130fa565b6105c8565b60405190151581526020015b60405180910390f35b3480156101cf57600080fd5b506101e36101de366004613132565b6105ff565b005b3480156101f157600080fd5b5061020561020036600461317e565b61062f565b6040519081526020016101ba565b34801561021f57600080fd5b506101e361022e36600461326c565b61063d565b34801561023f57600080fd5b5061020561024e36600461332c565b61072d565b34801561025f57600080fd5b5061027361026e36600461332c565b610742565b6040516101ba9190613345565b34801561028c57600080fd5b506102956107a0565b6040516101ba919061339d565b3480156102ae57600080fd5b506101e36102bd3660046133b0565b610859565b3480156102ce57600080fd5b506101e36102dd3660046133b0565b61087a565b3480156102ee57600080fd5b506101e36102fd36600461317e565b6108f8565b34801561030e57600080fd5b506101e361031d3660046133dc565b6109c1565b34801561032e57600080fd5b506101e3610a7b565b34801561034357600080fd5b506101e3610352366004613451565b610a8e565b6101e361036536600461347b565b610bc2565b34801561037657600080fd5b50610205610c78565b34801561038b57600080fd5b5060335460ff166101ae565b3480156103a357600080fd5b506101e36103b23660046134dc565b610d26565b3480156103c357600080fd5b506103d76103d236600461332c565b610d4b565b6040516101ba9190613658565b3480156103f057600080fd5b50610205611063565b34801561040557600080fd5b506101e361041436600461366b565b6110ab565b34801561042557600080fd5b506101e3611185565b34801561043a57600080fd5b506103d761044936600461317e565b611198565b34801561045a57600080fd5b506101ae6104693660046133b0565b6114c7565b34801561047a57600080fd5b5061048e61048936600461332c565b6114f2565b6040516101ba94939291906136b8565b3480156104aa57600080fd5b506101e36104b9366004613451565b6115b2565b3480156104ca57600080fd5b50610205600081565b3480156104df57600080fd5b506101e36104ee36600461317e565b6115ca565b3480156104ff57600080fd5b5061012d546101ae9060ff1681565b34801561051a57600080fd5b506101e36105293660046133b0565b611715565b34801561053a57600080fd5b506101e36105493660046136f2565b611731565b34801561055a57600080fd5b50610563611751565b6040516101ba92919061370f565b34801561057d57600080fd5b506101e361058c36600461377c565b611b95565b34801561059d57600080fd5b50610205600080516020613a9f83398151915281565b3480156105bf57600080fd5b50610563611d55565b60006001600160e01b03198216637965db0b60e01b14806105f957506301ffc9a760e01b6001600160e01b03198316145b92915050565b600061060a81612215565b5060009182526101316020526040909120600401805460ff1916911515919091179055565b60006105f961012e8361221f565b600061064881612215565b6000838152610131602052604090206004015460ff166106af5760405162461bcd60e51b815260206004820152601f60248201527f48616e646c6572203a2041646170746572206973206e6f74206163746976650060448201526064015b60405180910390fd5b60008381526101316020908152604082206003908101805460018101825590845292829020855180518795909302909101926106f092849290910190612f76565b5060208281015180516107099260018501920190612f76565b5060408201518051610725916002840191602090910190612f76565b505050505050565b60009081526097602052604090206001015490565b600080600061075261012e612234565b905060005b818110156107975760008061076e61012e8461223f565b915091508681141561078257509250610797565b5050808061078f906137b4565b915050610757565b50909392505050565b606060006107af61012e612234565b90506000816001600160401b038111156107cb576107cb613199565b6040519080825280602002602001820160405280156107f4578160200160208202803683370190505b50905060005b828110156108525761080e61012e8261223f565b50828281518110610821576108216137cf565b60200260200101816001600160a01b03166001600160a01b031681525050808061084a906137b4565b9150506107fa565b5092915050565b6108628261072d565b61086b81612215565b610875838361225b565b505050565b6001600160a01b03811633146108ea5760405162461bcd60e51b815260206004820152602f60248201527f416363657373436f6e74726f6c3a2063616e206f6e6c792072656e6f756e636560448201526e103937b632b9903337b91039b2b63360891b60648201526084016106a6565b6108f482826122e1565b5050565b306001600160a01b037f00000000000000000000000000000000000000000000000000000000000000001614156109415760405162461bcd60e51b81526004016106a6906137e5565b7f00000000000000000000000000000000000000000000000000000000000000006001600160a01b0316610973612348565b6001600160a01b0316146109995760405162461bcd60e51b81526004016106a69061381f565b6109a281612364565b604080516000808252602082019092526109be918391906123dd565b50565b60006109cc81612215565b85610a125760405162461bcd60e51b815260206004820152601660248201527512185b991b195c8e8808585b1b1bddd959080c081a5960521b60448201526064016106a6565b60008681526101316020908152604090912086519091610a36918391890190612f76565b506001810194909455506002830180546001600160a01b0319166001600160a01b0393909316929092179091556004909101805460ff19169115159190911790555050565b6000610a8681612215565b6109be612548565b610a96612594565b33610aa361012e826125dc565b610abf5760405162461bcd60e51b81526004016106a690613859565b6000610acd61012e3361221f565b6000818152610131602052604090206004015490915060ff16610b2f5760405162461bcd60e51b815260206004820152601a60248201527948616e646c6572203a204164617074657220496e61637469766560301b60448201526064016106a6565b600081815261013160205260409020600201546001600160a01b0390811690610b5b90861682866125f1565b6040516311f9fbc960e21b81526001600160a01b038216906347e7ef2490610b899088908890600401613890565b600060405180830381600087803b158015610ba357600080fd5b505af1158015610bb7573d6000803e3d6000fd5b505050505050505050565b306001600160a01b037f0000000000000000000000000000000000000000000000000000000000000000161415610c0b5760405162461bcd60e51b81526004016106a6906137e5565b7f00000000000000000000000000000000000000000000000000000000000000006001600160a01b0316610c3d612348565b6001600160a01b031614610c635760405162461bcd60e51b81526004016106a69061381f565b610c6c82612364565b6108f4828260016123dd565b6000306001600160a01b037f00000000000000000000000000000000000000000000000000000000000000001614610d135760405162461bcd60e51b815260206004820152603860248201527f555550535570677261646561626c653a206d757374206e6f742062652063616c6044820152771b1959081d1a1c9bdd59da0819195b1959d85d1958d85b1b60421b60648201526084016106a6565b50600080516020613abf83398151915290565b6000610d3181612215565b610d456001600160a01b03851684846125f1565b50505050565b610d53612ffa565b6000828152610131602052604090819020815160a08101909252805482908290610d7c906138a9565b80601f0160208091040260200160405190810160405280929190818152602001828054610da8906138a9565b8015610df55780601f10610dca57610100808354040283529160200191610df5565b820191906000526020600020905b815481529060010190602001808311610dd857829003601f168201915b50505050508152602001600182015481526020016002820160009054906101000a90046001600160a01b03166001600160a01b03166001600160a01b0316815260200160038201805480602002602001604051908101604052809291908181526020016000905b828210156110445783829060005260206000209060030201604051806060016040529081600082018054610e8f906138a9565b80601f0160208091040260200160405190810160405280929190818152602001828054610ebb906138a9565b8015610f085780601f10610edd57610100808354040283529160200191610f08565b820191906000526020600020905b815481529060010190602001808311610eeb57829003601f168201915b50505050508152602001600182018054610f21906138a9565b80601f0160208091040260200160405190810160405280929190818152602001828054610f4d906138a9565b8015610f9a5780601f10610f6f57610100808354040283529160200191610f9a565b820191906000526020600020905b815481529060010190602001808311610f7d57829003601f168201915b50505050508152602001600282018054610fb3906138a9565b80601f0160208091040260200160405190810160405280929190818152602001828054610fdf906138a9565b801561102c5780601f106110015761010080835404028352916020019161102c565b820191906000526020600020905b81548152906001019060200180831161100f57829003601f168201915b50505050508152505081526020019060010190610e5c565b505050908252506004919091015460ff16151560209091015292915050565b600060015b600081815261013160205260409020600201546001600160a01b03166110995780611092816138e4565b9392505050565b806110a3816137b4565b915050611068565b6110b3612594565b336110c061012e826125dc565b6110dc5760405162461bcd60e51b81526004016106a690613859565b60006110ea61012e3361221f565b6000818152610131602052604090819020600201549051637623475960e01b81526001600160a01b038a811660048301528981166024830152604482018990526064820188905260848201879052929350911690819063762347599060a401600060405180830381600087803b15801561116357600080fd5b505af1158015611177573d6000803e3d6000fd5b505050505050505050505050565b600061119081612215565b6109be612647565b6111a0612ffa565b60006111ae61012e8461221f565b905061013160008281526020019081526020016000206040518060a00160405290816000820180546111df906138a9565b80601f016020809104026020016040519081016040528092919081815260200182805461120b906138a9565b80156112585780601f1061122d57610100808354040283529160200191611258565b820191906000526020600020905b81548152906001019060200180831161123b57829003601f168201915b50505050508152602001600182015481526020016002820160009054906101000a90046001600160a01b03166001600160a01b03166001600160a01b0316815260200160038201805480602002602001604051908101604052809291908181526020016000905b828210156114a757838290600052602060002090600302016040518060600160405290816000820180546112f2906138a9565b80601f016020809104026020016040519081016040528092919081815260200182805461131e906138a9565b801561136b5780601f106113405761010080835404028352916020019161136b565b820191906000526020600020905b81548152906001019060200180831161134e57829003601f168201915b50505050508152602001600182018054611384906138a9565b80601f01602080910402602001604051908101604052809291908181526020018280546113b0906138a9565b80156113fd5780601f106113d2576101008083540402835291602001916113fd565b820191906000526020600020905b8154815290600101906020018083116113e057829003601f168201915b50505050508152602001600282018054611416906138a9565b80601f0160208091040260200160405190810160405280929190818152602001828054611442906138a9565b801561148f5780601f106114645761010080835404028352916020019161148f565b820191906000526020600020905b81548152906001019060200180831161147257829003601f168201915b505050505081525050815260200190600101906112bf565b505050908252506004919091015460ff1615156020909101529392505050565b60009182526097602090815260408084206001600160a01b0393909316845291905290205460ff1690565b6101316020526000908152604090208054819061150e906138a9565b80601f016020809104026020016040519081016040528092919081815260200182805461153a906138a9565b80156115875780601f1061155c57610100808354040283529160200191611587565b820191906000526020600020905b81548152906001019060200180831161156a57829003601f168201915b5050505060018301546002840154600490940154929390926001600160a01b03909116915060ff1684565b60006115bd81612215565b610d4561012e8484612684565b600054610100900460ff16158080156115ea5750600054600160ff909116105b8061160b57506115f9306126a2565b15801561160b575060005460ff166001145b61166e5760405162461bcd60e51b815260206004820152602e60248201527f496e697469616c697a61626c653a20636f6e747261637420697320616c72656160448201526d191e481a5b9a5d1a585b1a5e995960921b60648201526084016106a6565b6000805460ff191660011790558015611691576000805461ff0019166101001790555b6116996126b1565b6116a16126e0565b6116a96126e0565b6116b460008361225b565b6116cc600080516020613a9f8339815191528361225b565b80156108f4576000805461ff0019169055604051600181527f7f26b83ff96e1f2b6a682f133852f6798a09c465da95921460cefb38474024989060200160405180910390a15050565b61171e8261072d565b61172781612215565b61087583836122e1565b600061173c81612215565b5061012d805460ff1916911515919091179055565b606080600061175e611063565b90506000816001600160401b0381111561177a5761177a613199565b6040519080825280602002602001820160405280156117b357816020015b6117a0612ffa565b8152602001906001900390816117985790505b5090506000826001600160401b038111156117d0576117d0613199565b6040519080825280602002602001820160405280156117f9578160200160208202803683370190505b50905060005b83811015611b8a5761013160006118178360016138fb565b81526020019081526020016000206040518060a0016040529081600082018054611840906138a9565b80601f016020809104026020016040519081016040528092919081815260200182805461186c906138a9565b80156118b95780601f1061188e576101008083540402835291602001916118b9565b820191906000526020600020905b81548152906001019060200180831161189c57829003601f168201915b50505050508152602001600182015481526020016002820160009054906101000a90046001600160a01b03166001600160a01b03166001600160a01b0316815260200160038201805480602002602001604051908101604052809291908181526020016000905b82821015611b085783829060005260206000209060030201604051806060016040529081600082018054611953906138a9565b80601f016020809104026020016040519081016040528092919081815260200182805461197f906138a9565b80156119cc5780601f106119a1576101008083540402835291602001916119cc565b820191906000526020600020905b8154815290600101906020018083116119af57829003601f168201915b505050505081526020016001820180546119e5906138a9565b80601f0160208091040260200160405190810160405280929190818152602001828054611a11906138a9565b8015611a5e5780601f10611a3357610100808354040283529160200191611a5e565b820191906000526020600020905b815481529060010190602001808311611a4157829003601f168201915b50505050508152602001600282018054611a77906138a9565b80601f0160208091040260200160405190810160405280929190818152602001828054611aa3906138a9565b8015611af05780601f10611ac557610100808354040283529160200191611af0565b820191906000526020600020905b815481529060010190602001808311611ad357829003601f168201915b50505050508152505081526020019060010190611920565b505050908252506004919091015460ff1615156020909101528351849083908110611b3557611b356137cf565b6020908102919091010152611b4e61026e8260016138fb565b828281518110611b6057611b606137cf565b6001600160a01b039092166020928302919091019091015280611b82816137b4565b9150506117ff565b509094909350915050565b6000611ba081612215565b600083815261013160205260409020600301548210611c015760405162461bcd60e51b815260206004820181905260248201527f48616e646c6572203a20496e76616c696420636f6e747261637420696e64657860448201526064016106a6565b60008381526101316020526040812060030154611c2090600190613913565b60008581526101316020526040902060030180549192509082908110611c4857611c486137cf565b906000526020600020906003020161013160008681526020019081526020016000206003018481548110611c7e57611c7e6137cf565b90600052602060002090600302016000820181600001908054611ca0906138a9565b611cab929190613034565b506001820181600101908054611cc0906138a9565b611ccb929190613034565b506002820181600201908054611ce0906138a9565b611ceb929190613034565b505050600084815261013160205260409020600301805480611d0f57611d0f61392a565b60008281526020812060001990920191600383020190611d2f82826130af565b611d3d6001830160006130af565b611d4b6002830160006130af565b5050905550505050565b6060806000611d6561012e612234565b90506000816001600160401b03811115611d8157611d81613199565b604051908082528060200260200182016040528015611daa578160200160208202803683370190505b5090506000826001600160401b03811115611dc757611dc7613199565b604051908082528060200260200182016040528015611df0578160200160208202803683370190505b5090506000836001600160401b03811115611e0d57611e0d613199565b604051908082528060200260200182016040528015611e4657816020015b611e33612ffa565b815260200190600190039081611e2b5790505b50905060005b8481101561220957611e6061012e8261223f565b858381518110611e7257611e726137cf565b60200260200101858481518110611e8b57611e8b6137cf565b6020026020010182815250826001600160a01b03166001600160a01b031681525050506101316000848381518110611ec557611ec56137cf565b602002602001015181526020019081526020016000206040518060a0016040529081600082018054611ef6906138a9565b80601f0160208091040260200160405190810160405280929190818152602001828054611f22906138a9565b8015611f6f5780601f10611f4457610100808354040283529160200191611f6f565b820191906000526020600020905b815481529060010190602001808311611f5257829003601f168201915b50505050508152602001600182015481526020016002820160009054906101000a90046001600160a01b03166001600160a01b03166001600160a01b0316815260200160038201805480602002602001604051908101604052809291908181526020016000905b828210156121be5783829060005260206000209060030201604051806060016040529081600082018054612009906138a9565b80601f0160208091040260200160405190810160405280929190818152602001828054612035906138a9565b80156120825780601f1061205757610100808354040283529160200191612082565b820191906000526020600020905b81548152906001019060200180831161206557829003601f168201915b5050505050815260200160018201805461209b906138a9565b80601f01602080910402602001604051908101604052809291908181526020018280546120c7906138a9565b80156121145780601f106120e957610100808354040283529160200191612114565b820191906000526020600020905b8154815290600101906020018083116120f757829003601f168201915b5050505050815260200160028201805461212d906138a9565b80601f0160208091040260200160405190810160405280929190818152602001828054612159906138a9565b80156121a65780601f1061217b576101008083540402835291602001916121a6565b820191906000526020600020905b81548152906001019060200180831161218957829003601f168201915b50505050508152505081526020019060010190611fd6565b505050908252506004919091015460ff16151560209091015282518390839081106121eb576121eb6137cf565b60200260200101819052508080612201906137b4565b915050611e4c565b50959194509092505050565b6109be8133612707565b6000611092836001600160a01b038416612760565b60006105f9826127d0565b600080808061224e86866127db565b9097909650945050505050565b61226582826114c7565b6108f45760008281526097602090815260408083206001600160a01b03851684529091529020805460ff1916600117905561229d3390565b6001600160a01b0316816001600160a01b0316837f2f8788117e7eff1d82e926ec794901d17c78024a50270940304540a733656f0d60405160405180910390a45050565b6122eb82826114c7565b156108f45760008281526097602090815260408083206001600160a01b0385168085529252808320805460ff1916905551339285917ff6391f5c32d9c69d2a47ea670b442974b53935d1edc7fd64eb21e047a839171b9190a45050565b600080516020613abf833981519152546001600160a01b031690565b600080516020613a9f83398151915261237c81612215565b61012d5460ff166123ce5760405162461bcd60e51b815260206004820152601c60248201527b12185b991b195c8e88155c19dc985919481b9bdd08185b1b1bddd95960221b60448201526064016106a6565b505061012d805460ff19169055565b7f4910fdfa16fed3260ed0e7147f7cc6da11a60208b5b9406d12a635614ffd91435460ff16156124105761087583612806565b826001600160a01b03166352d1902d6040518163ffffffff1660e01b8152600401602060405180830381865afa92505050801561246a575060408051601f3d908101601f1916820190925261246791810190613940565b60015b6124cd5760405162461bcd60e51b815260206004820152602e60248201527f45524331393637557067726164653a206e657720696d706c656d656e7461746960448201526d6f6e206973206e6f74205555505360901b60648201526084016106a6565b600080516020613abf833981519152811461253c5760405162461bcd60e51b815260206004820152602960248201527f45524331393637557067726164653a20756e737570706f727465642070726f786044820152681a58589b195555525160ba1b60648201526084016106a6565b506108758383836128a0565b6125506128c5565b6033805460ff191690557f5db9ee0a495bf2e6ff9c91a7834c1ba4fdd244a5e8aa4e537bd38aeae4b073aa335b60405161258a9190613345565b60405180910390a1565b60335460ff16156125da5760405162461bcd60e51b815260206004820152601060248201526f14185d5cd8589b194e881c185d5cd95960821b60448201526064016106a6565b565b6000611092836001600160a01b03841661290e565b6108758363a9059cbb60e01b8484604051602401612610929190613890565b60408051601f198184030181529190526020810180516001600160e01b03166001600160e01b03199093169290921790915261291a565b61264f612594565b6033805460ff191660011790557f62e78cea01bee320cd4e420270b5ea74000d11b0c9f74754ebdbfc544b05a25861257d3390565b600061269a846001600160a01b038516846129ec565b949350505050565b6001600160a01b03163b151590565b600054610100900460ff166126d85760405162461bcd60e51b81526004016106a690613959565b6125da612a09565b600054610100900460ff166125da5760405162461bcd60e51b81526004016106a690613959565b61271182826114c7565b6108f45761271e81612a3c565b612729836020612a4e565b60405160200161273a9291906139a4565b60408051601f198184030181529082905262461bcd60e51b82526106a691600401613a13565b6000818152600283016020526040812054801515806127845750612784848461290e565b6110925760405162461bcd60e51b815260206004820152601e60248201527f456e756d657261626c654d61703a206e6f6e6578697374656e74206b6579000060448201526064016106a6565b60006105f982612be9565b600080806127e98585612bf3565b600081815260029690960160205260409095205494959350505050565b61280f816126a2565b6128715760405162461bcd60e51b815260206004820152602d60248201527f455243313936373a206e657720696d706c656d656e746174696f6e206973206e60448201526c1bdd08184818dbdb9d1c9858dd609a1b60648201526084016106a6565b600080516020613abf83398151915280546001600160a01b0319166001600160a01b0392909216919091179055565b6128a983612bff565b6000825111806128b65750805b1561087557610d458383612c3f565b60335460ff166125da5760405162461bcd60e51b815260206004820152601460248201527314185d5cd8589b194e881b9bdd081c185d5cd95960621b60448201526064016106a6565b60006110928383612d31565b600061296f826040518060400160405280602081526020017f5361666545524332303a206c6f772d6c6576656c2063616c6c206661696c6564815250856001600160a01b0316612d3d9092919063ffffffff16565b805190915015610875578080602001905181019061298d9190613a26565b6108755760405162461bcd60e51b815260206004820152602a60248201527f5361666545524332303a204552433230206f7065726174696f6e20646964206e6044820152691bdd081cdd58d8d9595960b21b60648201526084016106a6565b6000828152600284016020526040812082905561269a8484612d4c565b600054610100900460ff16612a305760405162461bcd60e51b81526004016106a690613959565b6033805460ff19169055565b60606105f96001600160a01b03831660145b60606000612a5d836002613a43565b612a689060026138fb565b6001600160401b03811115612a7f57612a7f613199565b6040519080825280601f01601f191660200182016040528015612aa9576020820181803683370190505b509050600360fc1b81600081518110612ac457612ac46137cf565b60200101906001600160f81b031916908160001a905350600f60fb1b81600181518110612af357612af36137cf565b60200101906001600160f81b031916908160001a9053506000612b17846002613a43565b612b229060016138fb565b90505b6001811115612b9a576f181899199a1a9b1b9c1cb0b131b232b360811b85600f1660108110612b5657612b566137cf565b1a60f81b828281518110612b6c57612b6c6137cf565b60200101906001600160f81b031916908160001a90535060049490941c93612b93816138e4565b9050612b25565b5083156110925760405162461bcd60e51b815260206004820181905260248201527f537472696e67733a20686578206c656e67746820696e73756666696369656e7460448201526064016106a6565b60006105f9825490565b60006110928383612d58565b612c0881612806565b6040516001600160a01b038216907fbc7cd75a20ee27fd9adebab32041f755214dbc6bffa90cc0225b39da2e5c2d3b90600090a250565b6060612c4a836126a2565b612ca55760405162461bcd60e51b815260206004820152602660248201527f416464726573733a2064656c65676174652063616c6c20746f206e6f6e2d636f6044820152651b9d1c9858dd60d21b60648201526084016106a6565b600080846001600160a01b031684604051612cc09190613a62565b600060405180830381855af49150503d8060008114612cfb576040519150601f19603f3d011682016040523d82523d6000602084013e612d00565b606091505b5091509150612d288282604051806060016040528060278152602001613adf60279139612d82565b95945050505050565b60006110928383612d9b565b606061269a8484600085612db3565b60006110928383612e8e565b6000826000018281548110612d6f57612d6f6137cf565b9060005260206000200154905092915050565b60608315612d91575081611092565b6110928383612ed8565b60009081526001919091016020526040902054151590565b606082471015612e145760405162461bcd60e51b815260206004820152602660248201527f416464726573733a20696e73756666696369656e742062616c616e636520666f6044820152651c8818d85b1b60d21b60648201526084016106a6565b600080866001600160a01b03168587604051612e309190613a62565b60006040518083038185875af1925050503d8060008114612e6d576040519150601f19603f3d011682016040523d82523d6000602084013e612e72565b606091505b5091509150612e8387838387612f02565b979650505050505050565b6000612e9a8383612d9b565b612ed0575081546001818101845560008481526020808220909301849055845484825282860190935260409020919091556105f9565b5060006105f9565b815115612ee85781518083602001fd5b8060405162461bcd60e51b81526004016106a69190613a13565b60608315612f6c578251612f6557612f19856126a2565b612f655760405162461bcd60e51b815260206004820152601d60248201527f416464726573733a2063616c6c20746f206e6f6e2d636f6e747261637400000060448201526064016106a6565b508161269a565b61269a8383612ed8565b828054612f82906138a9565b90600052602060002090601f016020900481019282612fa45760008555612fea565b82601f10612fbd57805160ff1916838001178555612fea565b82800160010185558215612fea579182015b82811115612fea578251825591602001919060010190612fcf565b50612ff69291506130e5565b5090565b6040518060a00160405280606081526020016000815260200160006001600160a01b03168152602001606081526020016000151581525090565b828054613040906138a9565b90600052602060002090601f0160209004810192826130625760008555612fea565b82601f106130735780548555612fea565b82800160010185558215612fea57600052602060002091601f016020900482015b82811115612fea578254825591600101919060010190613094565b5080546130bb906138a9565b6000825580601f106130cb575050565b601f0160209004906000526020600020908101906109be91905b5b80821115612ff657600081556001016130e6565b60006020828403121561310c57600080fd5b81356001600160e01b03198116811461109257600080fd5b80151581146109be57600080fd5b6000806040838503121561314557600080fd5b82359150602083013561315781613124565b809150509250929050565b80356001600160a01b038116811461317957600080fd5b919050565b60006020828403121561319057600080fd5b61109282613162565b634e487b7160e01b600052604160045260246000fd5b604051606081016001600160401b03811182821017156131d1576131d1613199565b60405290565b60006001600160401b03808411156131f1576131f1613199565b604051601f8501601f19908116603f0116810190828211818310171561321957613219613199565b8160405280935085815286868601111561323257600080fd5b858560208301376000602087830101525050509392505050565b600082601f83011261325d57600080fd5b611092838335602085016131d7565b6000806040838503121561327f57600080fd5b8235915060208301356001600160401b038082111561329d57600080fd5b90840190606082870312156132b157600080fd5b6132b96131af565b8235828111156132c857600080fd5b6132d48882860161324c565b8252506020830135828111156132e957600080fd5b6132f58882860161324c565b60208301525060408301358281111561330d57600080fd5b6133198882860161324c565b6040830152508093505050509250929050565b60006020828403121561333e57600080fd5b5035919050565b6001600160a01b0391909116815260200190565b600081518084526020808501945080840160005b838110156133925781516001600160a01b03168752958201959082019060010161336d565b509495945050505050565b6020815260006110926020830184613359565b600080604083850312156133c357600080fd5b823591506133d360208401613162565b90509250929050565b600080600080600060a086880312156133f457600080fd5b8535945060208601356001600160401b0381111561341157600080fd5b61341d8882890161324c565b9450506040860135925061343360608701613162565b9150608086013561344381613124565b809150509295509295909350565b6000806040838503121561346457600080fd5b61346d83613162565b946020939093013593505050565b6000806040838503121561348e57600080fd5b61349783613162565b915060208301356001600160401b038111156134b257600080fd5b8301601f810185136134c357600080fd5b6134d2858235602084016131d7565b9150509250929050565b6000806000606084860312156134f157600080fd5b6134fa84613162565b925061350860208501613162565b9150604084013590509250925092565b60005b8381101561353357818101518382015260200161351b565b83811115610d455750506000910152565b6000815180845261355c816020860160208601613518565b601f01601f19169290920160200192915050565b6000815160a0845261358560a0850182613544565b905060208084015181860152604060018060a01b03818601511681870152606080860151878503828901528481518087528587019150858160051b880101868401935060005b8281101561363457888203601f19018452845180518784526135ef88850182613544565b9050898201518482038b8601526136068282613544565b915050888201519150838103898501526136208183613544565b968a0196958a0195935050506001016135cb565b5060808a0151975061364a60808c018915159052565b9a9950505050505050505050565b6020815260006110926020830184613570565b600080600080600060a0868803121561368357600080fd5b61368c86613162565b945061369a60208701613162565b94979496505050506040830135926060810135926080909101359150565b6080815260006136cb6080830187613544565b6020830195909552506001600160a01b039290921660408301521515606090910152919050565b60006020828403121561370457600080fd5b813561109281613124565b6000604082016040835280855180835260608501915060608160051b8601019250602080880160005b8381101561376657605f19888703018552613754868351613570565b95509382019390820190600101613738565b505085840381870152505050612d288185613359565b6000806040838503121561378f57600080fd5b50508035926020909101359150565b634e487b7160e01b600052601160045260246000fd5b60006000198214156137c8576137c861379e565b5060010190565b634e487b7160e01b600052603260045260246000fd5b6020808252602c90820152600080516020613a7f83398151915260408201526b19195b1959d85d1958d85b1b60a21b606082015260800190565b6020808252602c90820152600080516020613a7f83398151915260408201526b6163746976652070726f787960a01b606082015260800190565b6020808252601f908201527f48616e646c6572203a2073656e6465722073686f756c6420626520706f6f6c00604082015260600190565b6001600160a01b03929092168252602082015260400190565b600181811c908216806138bd57607f821691505b602082108114156138de57634e487b7160e01b600052602260045260246000fd5b50919050565b6000816138f3576138f361379e565b506000190190565b6000821982111561390e5761390e61379e565b500190565b6000828210156139255761392561379e565b500390565b634e487b7160e01b600052603160045260246000fd5b60006020828403121561395257600080fd5b5051919050565b6020808252602b908201527f496e697469616c697a61626c653a20636f6e7472616374206973206e6f74206960408201526a6e697469616c697a696e6760a81b606082015260800190565b76020b1b1b2b9b9a1b7b73a3937b61d1030b1b1b7bab73a1604d1b8152600083516139d6816017850160208801613518565b7001034b99036b4b9b9b4b733903937b6329607d1b6017918401918201528351613a07816028840160208801613518565b01602801949350505050565b6020815260006110926020830184613544565b600060208284031215613a3857600080fd5b815161109281613124565b6000816000190483118215151615613a5d57613a5d61379e565b500290565b60008251613a74818460208701613518565b919091019291505056fe46756e6374696f6e206d7573742062652063616c6c6564207468726f75676820189ab7a9244df0848122154315af71fe140f3db0fe014031783b0946b8c9d2e3360894a13ba1a3210667c828492db98dca3e2076cc3735a920a3ca505d382bbc416464726573733a206c6f772d6c6576656c2064656c65676174652063616c6c206661696c6564a2646970667358221220f995bb7f63c2e2509e2640f03a80341635f30328e7748fdbf904a0bb1e05c65064736f6c634300080b0033",
  "linkReferences": {},
  "deployedLinkReferences": {}
}