{
  "_format": "hh-sol-artifact-1",
  "contractName": "LiquidityHandler",
  "sourceName": "contracts/LiquidityHandler.sol",
  "abi": [
    {
      "anonymous": false,
      "inputs": [
        {
          "indexed": false,
          "internalType": "address",
          "name": "previousAdmin",
          "type": "address"
        },
        {
          "indexed": false,
          "internalType": "address",
          "name": "newAdmin",
          "type": "address"
        }
      ],
      "name": "AdminChanged",
      "type": "event"
    },
    {
      "anonymous": false,
      "inputs": [
        {
          "indexed": true,
          "internalType": "address",
          "name": "beacon",
          "type": "address"
        }
      ],
      "name": "BeaconUpgraded",
      "type": "event"
    },
    {
      "anonymous": false,
      "inputs": [
        {
          "indexed": false,
          "internalType": "uint8",
          "name": "version",
          "type": "uint8"
        }
      ],
      "name": "Initialized",
      "type": "event"
    },
    {
      "anonymous": false,
      "inputs": [
        {
          "indexed": false,
          "internalType": "address",
          "name": "account",
          "type": "address"
        }
      ],
      "name": "Paused",
      "type": "event"
    },
    {
      "anonymous": false,
      "inputs": [
        {
          "indexed": true,
          "internalType": "bytes32",
          "name": "role",
          "type": "bytes32"
        },
        {
          "indexed": true,
          "internalType": "bytes32",
          "name": "previousAdminRole",
          "type": "bytes32"
        },
        {
          "indexed": true,
          "internalType": "bytes32",
          "name": "newAdminRole",
          "type": "bytes32"
        }
      ],
      "name": "RoleAdminChanged",
      "type": "event"
    },
    {
      "anonymous": false,
      "inputs": [
        {
          "indexed": true,
          "internalType": "bytes32",
          "name": "role",
          "type": "bytes32"
        },
        {
          "indexed": true,
          "internalType": "address",
          "name": "account",
          "type": "address"
        },
        {
          "indexed": true,
          "internalType": "address",
          "name": "sender",
          "type": "address"
        }
      ],
      "name": "RoleGranted",
      "type": "event"
    },
    {
      "anonymous": false,
      "inputs": [
        {
          "indexed": true,
          "internalType": "bytes32",
          "name": "role",
          "type": "bytes32"
        },
        {
          "indexed": true,
          "internalType": "address",
          "name": "account",
          "type": "address"
        },
        {
          "indexed": true,
          "internalType": "address",
          "name": "sender",
          "type": "address"
        }
      ],
      "name": "RoleRevoked",
      "type": "event"
    },
    {
      "anonymous": false,
      "inputs": [
        {
          "indexed": false,
          "internalType": "address",
          "name": "account",
          "type": "address"
        }
      ],
      "name": "Unpaused",
      "type": "event"
    },
    {
      "anonymous": false,
      "inputs": [
        {
          "indexed": true,
          "internalType": "address",
          "name": "implementation",
          "type": "address"
        }
      ],
      "name": "Upgraded",
      "type": "event"
    },
    {
      "inputs": [],
      "name": "DEFAULT_ADMIN_ROLE",
      "outputs": [
        {
          "internalType": "bytes32",
          "name": "",
          "type": "bytes32"
        }
      ],
      "stateMutability": "view",
      "type": "function"
    },
    {
      "inputs": [],
      "name": "UPGRADER_ROLE",
      "outputs": [
        {
          "internalType": "bytes32",
          "name": "",
          "type": "bytes32"
        }
      ],
      "stateMutability": "view",
      "type": "function"
    },
    {
      "inputs": [
        {
          "internalType": "uint256",
          "name": "",
          "type": "uint256"
        }
      ],
      "name": "adapterIdsToAdapterInfo",
      "outputs": [
        {
          "internalType": "string",
          "name": "name",
          "type": "string"
        },
        {
          "internalType": "uint256",
          "name": "percentage",
          "type": "uint256"
        },
        {
          "internalType": "address",
          "name": "adapterAddress",
          "type": "address"
        },
        {
          "internalType": "bool",
          "name": "status",
          "type": "bool"
        }
      ],
      "stateMutability": "view",
      "type": "function"
    },
    {
      "inputs": [
        {
          "internalType": "uint256",
          "name": "_adapterId",
          "type": "uint256"
        },
        {
          "components": [
            {
              "internalType": "string",
              "name": "name",
              "type": "string"
            },
            {
              "internalType": "string",
              "name": "description",
              "type": "string"
            },
            {
              "internalType": "string",
              "name": "link",
              "type": "string"
            }
          ],
          "internalType": "struct LiquidityHandler.ContractsInfo",
          "name": "_newContractInfo",
          "type": "tuple"
        }
      ],
      "name": "addContractInfoToAdapterInfo",
      "outputs": [],
      "stateMutability": "nonpayable",
      "type": "function"
    },
    {
      "inputs": [
        {
          "internalType": "uint256",
          "name": "_id",
          "type": "uint256"
        },
        {
          "internalType": "bool",
          "name": "_status",
          "type": "bool"
        }
      ],
      "name": "changeAdapterStatus",
      "outputs": [],
      "stateMutability": "nonpayable",
      "type": "function"
    },
    {
      "inputs": [
        {
          "internalType": "bool",
          "name": "_status",
          "type": "bool"
        }
      ],
      "name": "changeUpgradeStatus",
      "outputs": [],
      "stateMutability": "nonpayable",
      "type": "function"
    },
    {
      "inputs": [],
      "name": "defiToken",
      "outputs": [
        {
          "internalType": "address",
          "name": "",
          "type": "address"
        }
      ],
      "stateMutability": "view",
      "type": "function"
    },
    {
      "inputs": [
        {
          "internalType": "uint256",
          "name": "adapterId",
          "type": "uint256"
        },
        {
          "internalType": "uint256",
          "name": "contractIndex",
          "type": "uint256"
        }
      ],
      "name": "deleteContractInfoFromAdapterInfo",
      "outputs": [],
      "stateMutability": "nonpayable",
      "type": "function"
    },
    {
      "inputs": [
        {
          "internalType": "address",
          "name": "_token",
          "type": "address"
        },
        {
          "internalType": "uint256",
          "name": "_amount",
          "type": "uint256"
        }
      ],
      "name": "deposit",
      "outputs": [],
      "stateMutability": "nonpayable",
      "type": "function"
    },
    {
      "inputs": [],
      "name": "getActiveAdapters",
      "outputs": [
        {
          "components": [
            {
              "internalType": "string",
              "name": "name",
              "type": "string"
            },
            {
              "internalType": "uint256",
              "name": "percentage",
              "type": "uint256"
            },
            {
              "internalType": "address",
              "name": "adapterAddress",
              "type": "address"
            },
            {
              "components": [
                {
                  "internalType": "string",
                  "name": "name",
                  "type": "string"
                },
                {
                  "internalType": "string",
                  "name": "description",
                  "type": "string"
                },
                {
                  "internalType": "string",
                  "name": "link",
                  "type": "string"
                }
              ],
              "internalType": "struct LiquidityHandler.ContractsInfo[]",
              "name": "contracts",
              "type": "tuple[]"
            },
            {
              "internalType": "bool",
              "name": "status",
              "type": "bool"
            }
          ],
          "internalType": "struct LiquidityHandler.AdapterInfo[]",
          "name": "",
          "type": "tuple[]"
        },
        {
          "internalType": "address[]",
          "name": "",
          "type": "address[]"
        }
      ],
      "stateMutability": "view",
      "type": "function"
    },
    {
      "inputs": [
        {
          "internalType": "address",
          "name": "_pool",
          "type": "address"
        }
      ],
      "name": "getAdapterId",
      "outputs": [
        {
          "internalType": "uint256",
          "name": "",
          "type": "uint256"
        }
      ],
      "stateMutability": "view",
      "type": "function"
    },
    {
      "inputs": [
        {
          "internalType": "uint256",
          "name": "_adapterId",
          "type": "uint256"
        }
      ],
      "name": "getAdapterInfo",
      "outputs": [
        {
          "components": [
            {
              "internalType": "string",
              "name": "name",
              "type": "string"
            },
            {
              "internalType": "uint256",
              "name": "percentage",
              "type": "uint256"
            },
            {
              "internalType": "address",
              "name": "adapterAddress",
              "type": "address"
            },
            {
              "components": [
                {
                  "internalType": "string",
                  "name": "name",
                  "type": "string"
                },
                {
                  "internalType": "string",
                  "name": "description",
                  "type": "string"
                },
                {
                  "internalType": "string",
                  "name": "link",
                  "type": "string"
                }
              ],
              "internalType": "struct LiquidityHandler.ContractsInfo[]",
              "name": "contracts",
              "type": "tuple[]"
            },
            {
              "internalType": "bool",
              "name": "status",
              "type": "bool"
            }
          ],
          "internalType": "struct LiquidityHandler.AdapterInfo",
          "name": "data_",
          "type": "tuple"
        }
      ],
      "stateMutability": "view",
      "type": "function"
    },
    {
      "inputs": [],
      "name": "getAllAdapters",
      "outputs": [
        {
          "components": [
            {
              "internalType": "string",
              "name": "name",
              "type": "string"
            },
            {
              "internalType": "uint256",
              "name": "percentage",
              "type": "uint256"
            },
            {
              "internalType": "address",
              "name": "adapterAddress",
              "type": "address"
            },
            {
              "components": [
                {
                  "internalType": "string",
                  "name": "name",
                  "type": "string"
                },
                {
                  "internalType": "string",
                  "name": "description",
                  "type": "string"
                },
                {
                  "internalType": "string",
                  "name": "link",
                  "type": "string"
                }
              ],
              "internalType": "struct LiquidityHandler.ContractsInfo[]",
              "name": "contracts",
              "type": "tuple[]"
            },
            {
              "internalType": "bool",
              "name": "status",
              "type": "bool"
            }
          ],
          "internalType": "struct LiquidityHandler.AdapterInfo[]",
          "name": "",
          "type": "tuple[]"
        },
        {
          "internalType": "address[]",
          "name": "",
          "type": "address[]"
        }
      ],
      "stateMutability": "view",
      "type": "function"
    },
    {
      "inputs": [],
      "name": "getLastAdapterIndex",
      "outputs": [
        {
          "internalType": "uint256",
          "name": "",
          "type": "uint256"
        }
      ],
      "stateMutability": "view",
      "type": "function"
    },
    {
      "inputs": [],
      "name": "getListOfPools",
      "outputs": [
        {
          "internalType": "address[]",
          "name": "",
          "type": "address[]"
        }
      ],
      "stateMutability": "view",
      "type": "function"
    },
    {
      "inputs": [
        {
          "internalType": "uint256",
          "name": "_adapterId",
          "type": "uint256"
        }
      ],
      "name": "getPoolByAdapterId",
      "outputs": [
        {
          "internalType": "address",
          "name": "",
          "type": "address"
        }
      ],
      "stateMutability": "view",
      "type": "function"
    },
    {
      "inputs": [
        {
          "internalType": "bytes32",
          "name": "role",
          "type": "bytes32"
        }
      ],
      "name": "getRoleAdmin",
      "outputs": [
        {
          "internalType": "bytes32",
          "name": "",
          "type": "bytes32"
        }
      ],
      "stateMutability": "view",
      "type": "function"
    },
    {
      "inputs": [
        {
          "internalType": "bytes32",
          "name": "role",
          "type": "bytes32"
        },
        {
          "internalType": "address",
          "name": "account",
          "type": "address"
        }
      ],
      "name": "grantRole",
      "outputs": [],
      "stateMutability": "nonpayable",
      "type": "function"
    },
    {
      "inputs": [
        {
          "internalType": "bytes32",
          "name": "role",
          "type": "bytes32"
        },
        {
          "internalType": "address",
          "name": "account",
          "type": "address"
        }
      ],
      "name": "hasRole",
      "outputs": [
        {
          "internalType": "bool",
          "name": "",
          "type": "bool"
        }
      ],
      "stateMutability": "view",
      "type": "function"
    },
    {
      "inputs": [
        {
          "internalType": "address",
          "name": "_multiSigWallet",
          "type": "address"
        },
        {
          "internalType": "address",
          "name": "_deepfiToken",
          "type": "address"
        }
      ],
      "name": "initialize",
      "outputs": [],
      "stateMutability": "nonpayable",
      "type": "function"
    },
    {
      "inputs": [],
      "name": "pause",
      "outputs": [],
      "stateMutability": "nonpayable",
      "type": "function"
    },
    {
      "inputs": [],
      "name": "paused",
      "outputs": [
        {
          "internalType": "bool",
          "name": "",
          "type": "bool"
        }
      ],
      "stateMutability": "view",
      "type": "function"
    },
    {
      "inputs": [],
      "name": "proxiableUUID",
      "outputs": [
        {
          "internalType": "bytes32",
          "name": "",
          "type": "bytes32"
        }
      ],
      "stateMutability": "view",
      "type": "function"
    },
    {
      "inputs": [
        {
          "internalType": "address",
          "name": "_address",
          "type": "address"
        },
        {
          "internalType": "address",
          "name": "_to",
          "type": "address"
        },
        {
          "internalType": "uint256",
          "name": "_amount",
          "type": "uint256"
        }
      ],
      "name": "removeTokenByAddress",
      "outputs": [],
      "stateMutability": "nonpayable",
      "type": "function"
    },
    {
      "inputs": [
        {
          "internalType": "bytes32",
          "name": "role",
          "type": "bytes32"
        },
        {
          "internalType": "address",
          "name": "account",
          "type": "address"
        }
      ],
      "name": "renounceRole",
      "outputs": [],
      "stateMutability": "nonpayable",
      "type": "function"
    },
    {
      "inputs": [
        {
          "internalType": "bytes32",
          "name": "role",
          "type": "bytes32"
        },
        {
          "internalType": "address",
          "name": "account",
          "type": "address"
        }
      ],
      "name": "revokeRole",
      "outputs": [],
      "stateMutability": "nonpayable",
      "type": "function"
    },
    {
      "inputs": [
        {
          "internalType": "uint256",
          "name": "_id",
          "type": "uint256"
        },
        {
          "internalType": "string",
          "name": "_name",
          "type": "string"
        },
        {
          "internalType": "uint256",
          "name": "_percentage",
          "type": "uint256"
        },
        {
          "internalType": "address",
          "name": "_adapterAddress",
          "type": "address"
        },
        {
          "internalType": "bool",
          "name": "_status",
          "type": "bool"
        }
      ],
      "name": "setAdapter",
      "outputs": [],
      "stateMutability": "nonpayable",
      "type": "function"
    },
    {
      "inputs": [
        {
          "internalType": "address",
          "name": "_pool",
          "type": "address"
        },
        {
          "internalType": "uint256",
          "name": "_adapterId",
          "type": "uint256"
        }
      ],
      "name": "setPoolToAdapterId",
      "outputs": [],
      "stateMutability": "nonpayable",
      "type": "function"
    },
    {
      "inputs": [
        {
          "internalType": "bytes4",
          "name": "interfaceId",
          "type": "bytes4"
        }
      ],
      "name": "supportsInterface",
      "outputs": [
        {
          "internalType": "bool",
          "name": "",
          "type": "bool"
        }
      ],
      "stateMutability": "view",
      "type": "function"
    },
    {
      "inputs": [],
      "name": "unpause",
      "outputs": [],
      "stateMutability": "nonpayable",
      "type": "function"
    },
    {
      "inputs": [],
      "name": "upgradeStatus",
      "outputs": [
        {
          "internalType": "bool",
          "name": "",
          "type": "bool"
        }
      ],
      "stateMutability": "view",
      "type": "function"
    },
    {
      "inputs": [
        {
          "internalType": "address",
          "name": "newImplementation",
          "type": "address"
        }
      ],
      "name": "upgradeTo",
      "outputs": [],
      "stateMutability": "nonpayable",
      "type": "function"
    },
    {
      "inputs": [
        {
          "internalType": "address",
          "name": "newImplementation",
          "type": "address"
        },
        {
          "internalType": "bytes",
          "name": "data",
          "type": "bytes"
        }
      ],
      "name": "upgradeToAndCall",
      "outputs": [],
      "stateMutability": "payable",
      "type": "function"
    },
    {
      "inputs": [
        {
          "internalType": "address",
          "name": "_user",
          "type": "address"
        },
        {
          "internalType": "address",
          "name": "_token",
          "type": "address"
        },
        {
          "internalType": "uint256",
          "name": "_amount",
          "type": "uint256"
        }
      ],
      "name": "withdraw",
      "outputs": [],
      "stateMutability": "nonpayable",
      "type": "function"
    }
  ],
  "bytecode": "0x60a06040523060805234801561001457600080fd5b506080516137ce61004c600039600081816109500152818161099001528181610d2801528181610d680152610de001526137ce6000f3fe6080604052600436106101895760003560e01c806301ffc9a71461018e57806308713981146101c35780631a0e346e146101e557806321058e2f14610213578063248a9ca314610233578063249875c91461025357806325f80397146102805780632f2ff15d146102a257806336568abe146102c25780633659cfe6146102e25780633a48f1ad146103025780633f4ba83a1461032257806347e7ef2414610337578063485cc955146103575780634f1ef2861461037757806352d1902d1461038a5780635c975abb1461039f5780636465f04a146103b75780636575076f146103d757806370bd22ff146104045780638456cb591461041957806391d148541461042e57806392e794031461044e5780639ddf2cbc1461047e578063a217fddf1461049e578063d4d543c5146104b3578063d547741f146104ce578063d701f523146104ee578063d9caed121461050e578063e31ada971461052e578063ea987a1e14610551578063f51ff47f14610577578063f72c0d8b14610597578063facb34e7146105b9575b600080fd5b34801561019a57600080fd5b506101ae6101a9366004612db8565b6105ce565b60405190151581526020015b60405180910390f35b3480156101cf57600080fd5b506101e36101de366004612df0565b610605565b005b3480156101f157600080fd5b50610205610200366004612e3c565b610635565b6040519081526020016101ba565b34801561021f57600080fd5b506101e361022e366004612f2a565b610643565b34801561023f57600080fd5b5061020561024e366004612fea565b61071f565b34801561025f57600080fd5b5061027361026e366004612fea565b610734565b6040516101ba9190613003565b34801561028c57600080fd5b50610295610792565b6040516101ba919061305b565b3480156102ae57600080fd5b506101e36102bd36600461306e565b61084b565b3480156102ce57600080fd5b506101e36102dd36600461306e565b6108c7565b3480156102ee57600080fd5b506101e36102fd366004612e3c565b610945565b34801561030e57600080fd5b506101e361031d36600461309a565b610a0e565b34801561032e57600080fd5b506101e3610ac8565b34801561034357600080fd5b506101e361035236600461310f565b610adb565b34801561036357600080fd5b506101e3610372366004613139565b610bb0565b6101e3610385366004613163565b610d1d565b34801561039657600080fd5b50610205610dd3565b3480156103ab57600080fd5b5060335460ff166101ae565b3480156103c357600080fd5b506101e36103d23660046131c4565b610e81565b3480156103e357600080fd5b506103f76103f2366004612fea565b610ea6565b6040516101ba9190613340565b34801561041057600080fd5b506102056111be565b34801561042557600080fd5b506101e3611206565b34801561043a57600080fd5b506101ae61044936600461306e565b611219565b34801561045a57600080fd5b5061046e610469366004612fea565b611244565b6040516101ba9493929190613353565b34801561048a57600080fd5b506101e361049936600461310f565b611304565b3480156104aa57600080fd5b50610205600081565b3480156104bf57600080fd5b5061012d546101ae9060ff1681565b3480156104da57600080fd5b506101e36104e936600461306e565b61131c565b3480156104fa57600080fd5b506101e361050936600461338d565b611338565b34801561051a57600080fd5b506101e36105293660046131c4565b611358565b34801561053a57600080fd5b50610543611422565b6040516101ba9291906133aa565b34801561055d57600080fd5b5061012d546102739061010090046001600160a01b031681565b34801561058357600080fd5b506101e3610592366004613417565b611866565b3480156105a357600080fd5b5061020560008051602061373283398151915281565b3480156105c557600080fd5b50610543611a13565b60006001600160e01b03198216637965db0b60e01b14806105ff57506301ffc9a760e01b6001600160e01b03198316145b92915050565b600061061081611ed3565b5060009182526101316020526040909120600401805460ff1916911515919091179055565b60006105ff61012e83611edd565b6000828152610131602052604090206004015460ff166106a25760405162461bcd60e51b815260206004820152601560248201527441646170746572206973206e6f742061637469766560581b60448201526064015b60405180910390fd5b60008281526101316020908152604082206003908101805460018101825590845292829020845180518695909302909101926106e392849290910190612c34565b5060208281015180516106fc9260018501920190612c34565b5060408201518051610718916002840191602090910190612c34565b5050505050565b60009081526097602052604090206001015490565b600080600061074461012e611ef2565b905060005b818110156107895760008061076061012e84611efd565b915091508681141561077457509250610789565b505080806107819061344f565b915050610749565b50909392505050565b606060006107a161012e611ef2565b90506000816001600160401b038111156107bd576107bd612e57565b6040519080825280602002602001820160405280156107e6578160200160208202803683370190505b50905060005b828110156108445761080061012e82611efd565b508282815181106108135761081361346a565b60200260200101816001600160a01b03166001600160a01b031681525050808061083c9061344f565b9150506107ec565b5092915050565b6108548261071f565b61085d81611ed3565b826108b857610874826001600160a01b0316611f19565b6108b85760405162461bcd60e51b815260206004820152601560248201527412185b991b195c8e88139bdd0818dbdb9d1c9858dd605a1b6044820152606401610699565b6108c28383611f28565b505050565b6001600160a01b03811633146109375760405162461bcd60e51b815260206004820152602f60248201527f416363657373436f6e74726f6c3a2063616e206f6e6c792072656e6f756e636560448201526e103937b632b9903337b91039b2b63360891b6064820152608401610699565b6109418282611fae565b5050565b306001600160a01b037f000000000000000000000000000000000000000000000000000000000000000016141561098e5760405162461bcd60e51b815260040161069990613480565b7f00000000000000000000000000000000000000000000000000000000000000006001600160a01b03166109c0612015565b6001600160a01b0316146109e65760405162461bcd60e51b8152600401610699906134ba565b6109ef81612031565b60408051600080825260208201909252610a0b918391906120aa565b50565b6000610a1981611ed3565b85610a5f5760405162461bcd60e51b815260206004820152601660248201527512185b991b195c8e8808585b1b1bddd959080c081a5960521b6044820152606401610699565b60008681526101316020908152604090912086519091610a83918391890190612c34565b506001810194909455506002830180546001600160a01b0319166001600160a01b0393909316929092179091556004909101805460ff19169115159190911790555050565b6000610ad381611ed3565b610a0b612215565b610ae3612261565b33610af061012e826122a9565b610b0c5760405162461bcd60e51b8152600401610699906134f4565b6000610b1a61012e33611edd565b600081815261013160205260409020600201549091506001600160a01b0390811690610b4990861682866122be565b6040516311f9fbc960e21b81526001600160a01b038216906347e7ef2490610b779088908890600401613523565b600060405180830381600087803b158015610b9157600080fd5b505af1158015610ba5573d6000803e3d6000fd5b505050505050505050565b600054610100900460ff1615808015610bd05750600054600160ff909116105b80610bf15750610bdf30611f19565b158015610bf1575060005460ff166001145b610c545760405162461bcd60e51b815260206004820152602e60248201527f496e697469616c697a61626c653a20636f6e747261637420697320616c72656160448201526d191e481a5b9a5d1a585b1a5e995960921b6064820152608401610699565b6000805460ff191660011790558015610c77576000805461ff0019166101001790555b610c7f612314565b610c87612343565b610c8f612343565b610c9a600084611f28565b610cb260008051602061373283398151915284611f28565b61012d8054610100600160a81b0319166101006001600160a01b0385160217905580156108c2576000805461ff0019169055604051600181527f7f26b83ff96e1f2b6a682f133852f6798a09c465da95921460cefb38474024989060200160405180910390a1505050565b306001600160a01b037f0000000000000000000000000000000000000000000000000000000000000000161415610d665760405162461bcd60e51b815260040161069990613480565b7f00000000000000000000000000000000000000000000000000000000000000006001600160a01b0316610d98612015565b6001600160a01b031614610dbe5760405162461bcd60e51b8152600401610699906134ba565b610dc782612031565b610941828260016120aa565b6000306001600160a01b037f00000000000000000000000000000000000000000000000000000000000000001614610e6e5760405162461bcd60e51b815260206004820152603860248201527f555550535570677261646561626c653a206d757374206e6f742062652063616c6044820152771b1959081d1a1c9bdd59da0819195b1959d85d1958d85b1b60421b6064820152608401610699565b5060008051602061375283398151915290565b6000610e8c81611ed3565b610ea06001600160a01b03851684846122be565b50505050565b610eae612cb8565b6000828152610131602052604090819020815160a08101909252805482908290610ed79061353c565b80601f0160208091040260200160405190810160405280929190818152602001828054610f039061353c565b8015610f505780601f10610f2557610100808354040283529160200191610f50565b820191906000526020600020905b815481529060010190602001808311610f3357829003601f168201915b50505050508152602001600182015481526020016002820160009054906101000a90046001600160a01b03166001600160a01b03166001600160a01b0316815260200160038201805480602002602001604051908101604052809291908181526020016000905b8282101561119f5783829060005260206000209060030201604051806060016040529081600082018054610fea9061353c565b80601f01602080910402602001604051908101604052809291908181526020018280546110169061353c565b80156110635780601f1061103857610100808354040283529160200191611063565b820191906000526020600020905b81548152906001019060200180831161104657829003601f168201915b5050505050815260200160018201805461107c9061353c565b80601f01602080910402602001604051908101604052809291908181526020018280546110a89061353c565b80156110f55780601f106110ca576101008083540402835291602001916110f5565b820191906000526020600020905b8154815290600101906020018083116110d857829003601f168201915b5050505050815260200160028201805461110e9061353c565b80601f016020809104026020016040519081016040528092919081815260200182805461113a9061353c565b80156111875780601f1061115c57610100808354040283529160200191611187565b820191906000526020600020905b81548152906001019060200180831161116a57829003601f168201915b50505050508152505081526020019060010190610fb7565b505050908252506004919091015460ff16151560209091015292915050565b600060015b600081815261013160205260409020600201546001600160a01b03166111f457806111ed81613577565b9392505050565b806111fe8161344f565b9150506111c3565b600061121181611ed3565b610a0b61236a565b60009182526097602090815260408084206001600160a01b0393909316845291905290205460ff1690565b610131602052600090815260409020805481906112609061353c565b80601f016020809104026020016040519081016040528092919081815260200182805461128c9061353c565b80156112d95780601f106112ae576101008083540402835291602001916112d9565b820191906000526020600020905b8154815290600101906020018083116112bc57829003601f168201915b5050505060018301546002840154600490940154929390926001600160a01b03909116915060ff1684565b600061130f81611ed3565b610ea061012e84846123a7565b6113258261071f565b61132e81611ed3565b6108c28383611fae565b600061134381611ed3565b5061012d805460ff1916911515919091179055565b611360612261565b3361136d61012e826122a9565b6113895760405162461bcd60e51b8152600401610699906134f4565b600061139761012e33611edd565b6000818152610131602052604090819020600201549051636ce5768960e11b81526001600160a01b038881166004830152878116602483015260448201879052929350911690819063d9caed1290606401600060405180830381600087803b15801561140257600080fd5b505af1158015611416573d6000803e3d6000fd5b50505050505050505050565b606080600061142f6111be565b90506000816001600160401b0381111561144b5761144b612e57565b60405190808252806020026020018201604052801561148457816020015b611471612cb8565b8152602001906001900390816114695790505b5090506000826001600160401b038111156114a1576114a1612e57565b6040519080825280602002602001820160405280156114ca578160200160208202803683370190505b50905060005b8381101561185b5761013160006114e883600161358e565b81526020019081526020016000206040518060a00160405290816000820180546115119061353c565b80601f016020809104026020016040519081016040528092919081815260200182805461153d9061353c565b801561158a5780601f1061155f5761010080835404028352916020019161158a565b820191906000526020600020905b81548152906001019060200180831161156d57829003601f168201915b50505050508152602001600182015481526020016002820160009054906101000a90046001600160a01b03166001600160a01b03166001600160a01b0316815260200160038201805480602002602001604051908101604052809291908181526020016000905b828210156117d957838290600052602060002090600302016040518060600160405290816000820180546116249061353c565b80601f01602080910402602001604051908101604052809291908181526020018280546116509061353c565b801561169d5780601f106116725761010080835404028352916020019161169d565b820191906000526020600020905b81548152906001019060200180831161168057829003601f168201915b505050505081526020016001820180546116b69061353c565b80601f01602080910402602001604051908101604052809291908181526020018280546116e29061353c565b801561172f5780601f106117045761010080835404028352916020019161172f565b820191906000526020600020905b81548152906001019060200180831161171257829003601f168201915b505050505081526020016002820180546117489061353c565b80601f01602080910402602001604051908101604052809291908181526020018280546117749061353c565b80156117c15780601f10611796576101008083540402835291602001916117c1565b820191906000526020600020905b8154815290600101906020018083116117a457829003601f168201915b505050505081525050815260200190600101906115f1565b505050908252506004919091015460ff16151560209091015283518490839081106118065761180661346a565b602090810291909101015261181f61026e82600161358e565b8282815181106118315761183161346a565b6001600160a01b0390921660209283029190910190910152806118538161344f565b9150506114d0565b509094909350915050565b6000828152610131602052604090206003015481106118c05760405162461bcd60e51b8152602060048201526016602482015275092dcecc2d8d2c840c6dedce8e4c2c6e840d2dcc8caf60531b6044820152606401610699565b600082815261013160205260408120600301546118df906001906135a6565b600084815261013160205260409020600301805491925090829081106119075761190761346a565b90600052602060002090600302016101316000858152602001908152602001600020600301838154811061193d5761193d61346a565b9060005260206000209060030201600082018160000190805461195f9061353c565b61196a929190612cf2565b50600182018160010190805461197f9061353c565b61198a929190612cf2565b50600282018160020190805461199f9061353c565b6119aa929190612cf2565b5050506000838152610131602052604090206003018054806119ce576119ce6135bd565b600082815260208120600019909201916003830201906119ee8282612d6d565b6119fc600183016000612d6d565b611a0a600283016000612d6d565b50509055505050565b6060806000611a2361012e611ef2565b90506000816001600160401b03811115611a3f57611a3f612e57565b604051908082528060200260200182016040528015611a68578160200160208202803683370190505b5090506000826001600160401b03811115611a8557611a85612e57565b604051908082528060200260200182016040528015611aae578160200160208202803683370190505b5090506000836001600160401b03811115611acb57611acb612e57565b604051908082528060200260200182016040528015611b0457816020015b611af1612cb8565b815260200190600190039081611ae95790505b50905060005b84811015611ec757611b1e61012e82611efd565b858381518110611b3057611b3061346a565b60200260200101858481518110611b4957611b4961346a565b6020026020010182815250826001600160a01b03166001600160a01b031681525050506101316000848381518110611b8357611b8361346a565b602002602001015181526020019081526020016000206040518060a0016040529081600082018054611bb49061353c565b80601f0160208091040260200160405190810160405280929190818152602001828054611be09061353c565b8015611c2d5780601f10611c0257610100808354040283529160200191611c2d565b820191906000526020600020905b815481529060010190602001808311611c1057829003601f168201915b50505050508152602001600182015481526020016002820160009054906101000a90046001600160a01b03166001600160a01b03166001600160a01b0316815260200160038201805480602002602001604051908101604052809291908181526020016000905b82821015611e7c5783829060005260206000209060030201604051806060016040529081600082018054611cc79061353c565b80601f0160208091040260200160405190810160405280929190818152602001828054611cf39061353c565b8015611d405780601f10611d1557610100808354040283529160200191611d40565b820191906000526020600020905b815481529060010190602001808311611d2357829003601f168201915b50505050508152602001600182018054611d599061353c565b80601f0160208091040260200160405190810160405280929190818152602001828054611d859061353c565b8015611dd25780601f10611da757610100808354040283529160200191611dd2565b820191906000526020600020905b815481529060010190602001808311611db557829003601f168201915b50505050508152602001600282018054611deb9061353c565b80601f0160208091040260200160405190810160405280929190818152602001828054611e179061353c565b8015611e645780601f10611e3957610100808354040283529160200191611e64565b820191906000526020600020905b815481529060010190602001808311611e4757829003601f168201915b50505050508152505081526020019060010190611c94565b505050908252506004919091015460ff1615156020909101528251839083908110611ea957611ea961346a565b60200260200101819052508080611ebf9061344f565b915050611b0a565b50959194509092505050565b610a0b81336123c5565b60006111ed836001600160a01b03841661241e565b60006105ff8261248e565b6000808080611f0c8686612499565b9097909650945050505050565b6001600160a01b03163b151590565b611f328282611219565b6109415760008281526097602090815260408083206001600160a01b03851684529091529020805460ff19166001179055611f6a3390565b6001600160a01b0316816001600160a01b0316837f2f8788117e7eff1d82e926ec794901d17c78024a50270940304540a733656f0d60405160405180910390a45050565b611fb88282611219565b156109415760008281526097602090815260408083206001600160a01b0385168085529252808320805460ff1916905551339285917ff6391f5c32d9c69d2a47ea670b442974b53935d1edc7fd64eb21e047a839171b9190a45050565b600080516020613752833981519152546001600160a01b031690565b60008051602061373283398151915261204981611ed3565b61012d5460ff1661209b5760405162461bcd60e51b815260206004820152601c60248201527b12185b991b195c8e88155c19dc985919481b9bdd08185b1b1bddd95960221b6044820152606401610699565b505061012d805460ff19169055565b7f4910fdfa16fed3260ed0e7147f7cc6da11a60208b5b9406d12a635614ffd91435460ff16156120dd576108c2836124c4565b826001600160a01b03166352d1902d6040518163ffffffff1660e01b8152600401602060405180830381865afa925050508015612137575060408051601f3d908101601f19168201909252612134918101906135d3565b60015b61219a5760405162461bcd60e51b815260206004820152602e60248201527f45524331393637557067726164653a206e657720696d706c656d656e7461746960448201526d6f6e206973206e6f74205555505360901b6064820152608401610699565b60008051602061375283398151915281146122095760405162461bcd60e51b815260206004820152602960248201527f45524331393637557067726164653a20756e737570706f727465642070726f786044820152681a58589b195555525160ba1b6064820152608401610699565b506108c283838361255e565b61221d612583565b6033805460ff191690557f5db9ee0a495bf2e6ff9c91a7834c1ba4fdd244a5e8aa4e537bd38aeae4b073aa335b6040516122579190613003565b60405180910390a1565b60335460ff16156122a75760405162461bcd60e51b815260206004820152601060248201526f14185d5cd8589b194e881c185d5cd95960821b6044820152606401610699565b565b60006111ed836001600160a01b0384166125cc565b6108c28363a9059cbb60e01b84846040516024016122dd929190613523565b60408051601f198184030181529190526020810180516001600160e01b03166001600160e01b0319909316929092179091526125d8565b600054610100900460ff1661233b5760405162461bcd60e51b8152600401610699906135ec565b6122a76126aa565b600054610100900460ff166122a75760405162461bcd60e51b8152600401610699906135ec565b612372612261565b6033805460ff191660011790557f62e78cea01bee320cd4e420270b5ea74000d11b0c9f74754ebdbfc544b05a25861224a3390565b60006123bd846001600160a01b038516846126dd565b949350505050565b6123cf8282611219565b610941576123dc816126fa565b6123e783602061270c565b6040516020016123f8929190613637565b60408051601f198184030181529082905262461bcd60e51b8252610699916004016136a6565b600081815260028301602052604081205480151580612442575061244284846125cc565b6111ed5760405162461bcd60e51b815260206004820152601e60248201527f456e756d657261626c654d61703a206e6f6e6578697374656e74206b657900006044820152606401610699565b60006105ff826128a7565b600080806124a785856128b1565b600081815260029690960160205260409095205494959350505050565b6124cd81611f19565b61252f5760405162461bcd60e51b815260206004820152602d60248201527f455243313936373a206e657720696d706c656d656e746174696f6e206973206e60448201526c1bdd08184818dbdb9d1c9858dd609a1b6064820152608401610699565b60008051602061375283398151915280546001600160a01b0319166001600160a01b0392909216919091179055565b612567836128bd565b6000825111806125745750805b156108c257610ea083836128fd565b60335460ff166122a75760405162461bcd60e51b815260206004820152601460248201527314185d5cd8589b194e881b9bdd081c185d5cd95960621b6044820152606401610699565b60006111ed83836129ef565b600061262d826040518060400160405280602081526020017f5361666545524332303a206c6f772d6c6576656c2063616c6c206661696c6564815250856001600160a01b03166129fb9092919063ffffffff16565b8051909150156108c2578080602001905181019061264b91906136b9565b6108c25760405162461bcd60e51b815260206004820152602a60248201527f5361666545524332303a204552433230206f7065726174696f6e20646964206e6044820152691bdd081cdd58d8d9595960b21b6064820152608401610699565b600054610100900460ff166126d15760405162461bcd60e51b8152600401610699906135ec565b6033805460ff19169055565b600082815260028401602052604081208290556123bd8484612a0a565b60606105ff6001600160a01b03831660145b6060600061271b8360026136d6565b61272690600261358e565b6001600160401b0381111561273d5761273d612e57565b6040519080825280601f01601f191660200182016040528015612767576020820181803683370190505b509050600360fc1b816000815181106127825761278261346a565b60200101906001600160f81b031916908160001a905350600f60fb1b816001815181106127b1576127b161346a565b60200101906001600160f81b031916908160001a90535060006127d58460026136d6565b6127e090600161358e565b90505b6001811115612858576f181899199a1a9b1b9c1cb0b131b232b360811b85600f16601081106128145761281461346a565b1a60f81b82828151811061282a5761282a61346a565b60200101906001600160f81b031916908160001a90535060049490941c9361285181613577565b90506127e3565b5083156111ed5760405162461bcd60e51b815260206004820181905260248201527f537472696e67733a20686578206c656e67746820696e73756666696369656e746044820152606401610699565b60006105ff825490565b60006111ed8383612a16565b6128c6816124c4565b6040516001600160a01b038216907fbc7cd75a20ee27fd9adebab32041f755214dbc6bffa90cc0225b39da2e5c2d3b90600090a250565b606061290883611f19565b6129635760405162461bcd60e51b815260206004820152602660248201527f416464726573733a2064656c65676174652063616c6c20746f206e6f6e2d636f6044820152651b9d1c9858dd60d21b6064820152608401610699565b600080846001600160a01b03168460405161297e91906136f5565b600060405180830381855af49150503d80600081146129b9576040519150601f19603f3d011682016040523d82523d6000602084013e6129be565b606091505b50915091506129e6828260405180606001604052806027815260200161377260279139612a40565b95945050505050565b60006111ed8383612a59565b60606123bd8484600085612a71565b60006111ed8383612b4c565b6000826000018281548110612a2d57612a2d61346a565b9060005260206000200154905092915050565b60608315612a4f5750816111ed565b6111ed8383612b96565b60009081526001919091016020526040902054151590565b606082471015612ad25760405162461bcd60e51b815260206004820152602660248201527f416464726573733a20696e73756666696369656e742062616c616e636520666f6044820152651c8818d85b1b60d21b6064820152608401610699565b600080866001600160a01b03168587604051612aee91906136f5565b60006040518083038185875af1925050503d8060008114612b2b576040519150601f19603f3d011682016040523d82523d6000602084013e612b30565b606091505b5091509150612b4187838387612bc0565b979650505050505050565b6000612b588383612a59565b612b8e575081546001818101845560008481526020808220909301849055845484825282860190935260409020919091556105ff565b5060006105ff565b815115612ba65781518083602001fd5b8060405162461bcd60e51b815260040161069991906136a6565b60608315612c2a578251612c2357612bd785611f19565b612c235760405162461bcd60e51b815260206004820152601d60248201527f416464726573733a2063616c6c20746f206e6f6e2d636f6e74726163740000006044820152606401610699565b50816123bd565b6123bd8383612b96565b828054612c409061353c565b90600052602060002090601f016020900481019282612c625760008555612ca8565b82601f10612c7b57805160ff1916838001178555612ca8565b82800160010185558215612ca8579182015b82811115612ca8578251825591602001919060010190612c8d565b50612cb4929150612da3565b5090565b6040518060a00160405280606081526020016000815260200160006001600160a01b03168152602001606081526020016000151581525090565b828054612cfe9061353c565b90600052602060002090601f016020900481019282612d205760008555612ca8565b82601f10612d315780548555612ca8565b82800160010185558215612ca857600052602060002091601f016020900482015b82811115612ca8578254825591600101919060010190612d52565b508054612d799061353c565b6000825580601f10612d89575050565b601f016020900490600052602060002090810190610a0b91905b5b80821115612cb45760008155600101612da4565b600060208284031215612dca57600080fd5b81356001600160e01b0319811681146111ed57600080fd5b8015158114610a0b57600080fd5b60008060408385031215612e0357600080fd5b823591506020830135612e1581612de2565b809150509250929050565b80356001600160a01b0381168114612e3757600080fd5b919050565b600060208284031215612e4e57600080fd5b6111ed82612e20565b634e487b7160e01b600052604160045260246000fd5b604051606081016001600160401b0381118282101715612e8f57612e8f612e57565b60405290565b60006001600160401b0380841115612eaf57612eaf612e57565b604051601f8501601f19908116603f01168101908282118183101715612ed757612ed7612e57565b81604052809350858152868686011115612ef057600080fd5b858560208301376000602087830101525050509392505050565b600082601f830112612f1b57600080fd5b6111ed83833560208501612e95565b60008060408385031215612f3d57600080fd5b8235915060208301356001600160401b0380821115612f5b57600080fd5b9084019060608287031215612f6f57600080fd5b612f77612e6d565b823582811115612f8657600080fd5b612f9288828601612f0a565b825250602083013582811115612fa757600080fd5b612fb388828601612f0a565b602083015250604083013582811115612fcb57600080fd5b612fd788828601612f0a565b6040830152508093505050509250929050565b600060208284031215612ffc57600080fd5b5035919050565b6001600160a01b0391909116815260200190565b600081518084526020808501945080840160005b838110156130505781516001600160a01b03168752958201959082019060010161302b565b509495945050505050565b6020815260006111ed6020830184613017565b6000806040838503121561308157600080fd5b8235915061309160208401612e20565b90509250929050565b600080600080600060a086880312156130b257600080fd5b8535945060208601356001600160401b038111156130cf57600080fd5b6130db88828901612f0a565b945050604086013592506130f160608701612e20565b9150608086013561310181612de2565b809150509295509295909350565b6000806040838503121561312257600080fd5b61312b83612e20565b946020939093013593505050565b6000806040838503121561314c57600080fd5b61315583612e20565b915061309160208401612e20565b6000806040838503121561317657600080fd5b61317f83612e20565b915060208301356001600160401b0381111561319a57600080fd5b8301601f810185136131ab57600080fd5b6131ba85823560208401612e95565b9150509250929050565b6000806000606084860312156131d957600080fd5b6131e284612e20565b92506131f060208501612e20565b9150604084013590509250925092565b60005b8381101561321b578181015183820152602001613203565b83811115610ea05750506000910152565b60008151808452613244816020860160208601613200565b601f01601f19169290920160200192915050565b6000815160a0845261326d60a085018261322c565b905060208084015181860152604060018060a01b03818601511681870152606080860151878503828901528481518087528587019150858160051b880101868401935060005b8281101561331c57888203601f19018452845180518784526132d78885018261322c565b9050898201518482038b8601526132ee828261322c565b91505088820151915083810389850152613308818361322c565b968a0196958a0195935050506001016132b3565b5060808a0151975061333260808c018915159052565b9a9950505050505050505050565b6020815260006111ed6020830184613258565b608081526000613366608083018761322c565b6020830195909552506001600160a01b039290921660408301521515606090910152919050565b60006020828403121561339f57600080fd5b81356111ed81612de2565b6000604082016040835280855180835260608501915060608160051b8601019250602080880160005b8381101561340157605f198887030185526133ef868351613258565b955093820193908201906001016133d3565b5050858403818701525050506129e68185613017565b6000806040838503121561342a57600080fd5b50508035926020909101359150565b634e487b7160e01b600052601160045260246000fd5b600060001982141561346357613463613439565b5060010190565b634e487b7160e01b600052603260045260246000fd5b6020808252602c9082015260008051602061371283398151915260408201526b19195b1959d85d1958d85b1b60a21b606082015260800190565b6020808252602c9082015260008051602061371283398151915260408201526b6163746976652070726f787960a01b606082015260800190565b6020808252601590820152741cd95b99195c881cda1bdd5b19081899481c1bdbdb605a1b604082015260600190565b6001600160a01b03929092168252602082015260400190565b600181811c9082168061355057607f821691505b6020821081141561357157634e487b7160e01b600052602260045260246000fd5b50919050565b60008161358657613586613439565b506000190190565b600082198211156135a1576135a1613439565b500190565b6000828210156135b8576135b8613439565b500390565b634e487b7160e01b600052603160045260246000fd5b6000602082840312156135e557600080fd5b5051919050565b6020808252602b908201527f496e697469616c697a61626c653a20636f6e7472616374206973206e6f74206960408201526a6e697469616c697a696e6760a81b606082015260800190565b76020b1b1b2b9b9a1b7b73a3937b61d1030b1b1b7bab73a1604d1b815260008351613669816017850160208801613200565b7001034b99036b4b9b9b4b733903937b6329607d1b601791840191820152835161369a816028840160208801613200565b01602801949350505050565b6020815260006111ed602083018461322c565b6000602082840312156136cb57600080fd5b81516111ed81612de2565b60008160001904831182151516156136f0576136f0613439565b500290565b60008251613707818460208701613200565b919091019291505056fe46756e6374696f6e206d7573742062652063616c6c6564207468726f75676820189ab7a9244df0848122154315af71fe140f3db0fe014031783b0946b8c9d2e3360894a13ba1a3210667c828492db98dca3e2076cc3735a920a3ca505d382bbc416464726573733a206c6f772d6c6576656c2064656c65676174652063616c6c206661696c6564a264697066735822122075c1e13f6bacfcdea03abbce9b82913f2a72f3185dc537049ecd19b81e62ddf564736f6c634300080b0033",
  "linkReferences": {},
  "deployedLinkReferences": {}
}