{
  "_format": "hh-sol-artifact-1",
  "contractName": "LiquidityHandler",
  "sourceName": "contracts/LiquidityHandler.sol",
  "abi": [
    {
      "anonymous": false,
      "inputs": [
        {
          "indexed": false,
          "internalType": "address",
          "name": "previousAdmin",
          "type": "address"
        },
        {
          "indexed": false,
          "internalType": "address",
          "name": "newAdmin",
          "type": "address"
        }
      ],
      "name": "AdminChanged",
      "type": "event"
    },
    {
      "anonymous": false,
      "inputs": [
        {
          "indexed": true,
          "internalType": "address",
          "name": "beacon",
          "type": "address"
        }
      ],
      "name": "BeaconUpgraded",
      "type": "event"
    },
    {
      "anonymous": false,
      "inputs": [
        {
          "indexed": false,
          "internalType": "uint8",
          "name": "version",
          "type": "uint8"
        }
      ],
      "name": "Initialized",
      "type": "event"
    },
    {
      "anonymous": false,
      "inputs": [
        {
          "indexed": false,
          "internalType": "address",
          "name": "account",
          "type": "address"
        }
      ],
      "name": "Paused",
      "type": "event"
    },
    {
      "anonymous": false,
      "inputs": [
        {
          "indexed": true,
          "internalType": "bytes32",
          "name": "role",
          "type": "bytes32"
        },
        {
          "indexed": true,
          "internalType": "bytes32",
          "name": "previousAdminRole",
          "type": "bytes32"
        },
        {
          "indexed": true,
          "internalType": "bytes32",
          "name": "newAdminRole",
          "type": "bytes32"
        }
      ],
      "name": "RoleAdminChanged",
      "type": "event"
    },
    {
      "anonymous": false,
      "inputs": [
        {
          "indexed": true,
          "internalType": "bytes32",
          "name": "role",
          "type": "bytes32"
        },
        {
          "indexed": true,
          "internalType": "address",
          "name": "account",
          "type": "address"
        },
        {
          "indexed": true,
          "internalType": "address",
          "name": "sender",
          "type": "address"
        }
      ],
      "name": "RoleGranted",
      "type": "event"
    },
    {
      "anonymous": false,
      "inputs": [
        {
          "indexed": true,
          "internalType": "bytes32",
          "name": "role",
          "type": "bytes32"
        },
        {
          "indexed": true,
          "internalType": "address",
          "name": "account",
          "type": "address"
        },
        {
          "indexed": true,
          "internalType": "address",
          "name": "sender",
          "type": "address"
        }
      ],
      "name": "RoleRevoked",
      "type": "event"
    },
    {
      "anonymous": false,
      "inputs": [
        {
          "indexed": false,
          "internalType": "address",
          "name": "account",
          "type": "address"
        }
      ],
      "name": "Unpaused",
      "type": "event"
    },
    {
      "anonymous": false,
      "inputs": [
        {
          "indexed": true,
          "internalType": "address",
          "name": "implementation",
          "type": "address"
        }
      ],
      "name": "Upgraded",
      "type": "event"
    },
    {
      "inputs": [],
      "name": "DEFAULT_ADMIN_ROLE",
      "outputs": [
        {
          "internalType": "bytes32",
          "name": "",
          "type": "bytes32"
        }
      ],
      "stateMutability": "view",
      "type": "function"
    },
    {
      "inputs": [],
      "name": "UPGRADER_ROLE",
      "outputs": [
        {
          "internalType": "bytes32",
          "name": "",
          "type": "bytes32"
        }
      ],
      "stateMutability": "view",
      "type": "function"
    },
    {
      "inputs": [
        {
          "internalType": "uint256",
          "name": "",
          "type": "uint256"
        }
      ],
      "name": "adapterIdsToAdapterInfo",
      "outputs": [
        {
          "internalType": "string",
          "name": "name",
          "type": "string"
        },
        {
          "internalType": "uint256",
          "name": "percentage",
          "type": "uint256"
        },
        {
          "internalType": "address",
          "name": "adapterAddress",
          "type": "address"
        },
        {
          "internalType": "bool",
          "name": "status",
          "type": "bool"
        }
      ],
      "stateMutability": "view",
      "type": "function"
    },
    {
      "inputs": [
        {
          "internalType": "uint256",
          "name": "_adapterId",
          "type": "uint256"
        },
        {
          "components": [
            {
              "internalType": "string",
              "name": "name",
              "type": "string"
            },
            {
              "internalType": "string",
              "name": "description",
              "type": "string"
            },
            {
              "internalType": "string",
              "name": "link",
              "type": "string"
            }
          ],
          "internalType": "struct LiquidityHandler.ContractsInfo",
          "name": "_newContractInfo",
          "type": "tuple"
        }
      ],
      "name": "addContractInfoToAdapterInfo",
      "outputs": [],
      "stateMutability": "nonpayable",
      "type": "function"
    },
    {
      "inputs": [
        {
          "internalType": "uint256",
          "name": "_id",
          "type": "uint256"
        },
        {
          "internalType": "bool",
          "name": "_status",
          "type": "bool"
        }
      ],
      "name": "changeAdapterStatus",
      "outputs": [],
      "stateMutability": "nonpayable",
      "type": "function"
    },
    {
      "inputs": [
        {
          "internalType": "bool",
          "name": "_status",
          "type": "bool"
        }
      ],
      "name": "changeUpgradeStatus",
      "outputs": [],
      "stateMutability": "nonpayable",
      "type": "function"
    },
    {
      "inputs": [],
      "name": "defiToken",
      "outputs": [
        {
          "internalType": "address",
          "name": "",
          "type": "address"
        }
      ],
      "stateMutability": "view",
      "type": "function"
    },
    {
      "inputs": [
        {
          "internalType": "uint256",
          "name": "adapterId",
          "type": "uint256"
        },
        {
          "internalType": "uint256",
          "name": "contractIndex",
          "type": "uint256"
        }
      ],
      "name": "deleteContractInfoFromAdapterInfo",
      "outputs": [],
      "stateMutability": "nonpayable",
      "type": "function"
    },
    {
      "inputs": [
        {
          "internalType": "address",
          "name": "_token",
          "type": "address"
        },
        {
          "internalType": "uint256",
          "name": "_amount",
          "type": "uint256"
        }
      ],
      "name": "deposit",
      "outputs": [],
      "stateMutability": "nonpayable",
      "type": "function"
    },
    {
      "inputs": [],
      "name": "getActiveAdapters",
      "outputs": [
        {
          "components": [
            {
              "internalType": "string",
              "name": "name",
              "type": "string"
            },
            {
              "internalType": "uint256",
              "name": "percentage",
              "type": "uint256"
            },
            {
              "internalType": "address",
              "name": "adapterAddress",
              "type": "address"
            },
            {
              "components": [
                {
                  "internalType": "string",
                  "name": "name",
                  "type": "string"
                },
                {
                  "internalType": "string",
                  "name": "description",
                  "type": "string"
                },
                {
                  "internalType": "string",
                  "name": "link",
                  "type": "string"
                }
              ],
              "internalType": "struct LiquidityHandler.ContractsInfo[]",
              "name": "contracts",
              "type": "tuple[]"
            },
            {
              "internalType": "bool",
              "name": "status",
              "type": "bool"
            }
          ],
          "internalType": "struct LiquidityHandler.AdapterInfo[]",
          "name": "",
          "type": "tuple[]"
        },
        {
          "internalType": "address[]",
          "name": "",
          "type": "address[]"
        }
      ],
      "stateMutability": "view",
      "type": "function"
    },
    {
      "inputs": [
        {
          "internalType": "address",
          "name": "_pool",
          "type": "address"
        }
      ],
      "name": "getAdapterId",
      "outputs": [
        {
          "internalType": "uint256",
          "name": "",
          "type": "uint256"
        }
      ],
      "stateMutability": "view",
      "type": "function"
    },
    {
      "inputs": [
        {
          "internalType": "uint256",
          "name": "_adapterId",
          "type": "uint256"
        }
      ],
      "name": "getAdapterInfo",
      "outputs": [
        {
          "components": [
            {
              "internalType": "string",
              "name": "name",
              "type": "string"
            },
            {
              "internalType": "uint256",
              "name": "percentage",
              "type": "uint256"
            },
            {
              "internalType": "address",
              "name": "adapterAddress",
              "type": "address"
            },
            {
              "components": [
                {
                  "internalType": "string",
                  "name": "name",
                  "type": "string"
                },
                {
                  "internalType": "string",
                  "name": "description",
                  "type": "string"
                },
                {
                  "internalType": "string",
                  "name": "link",
                  "type": "string"
                }
              ],
              "internalType": "struct LiquidityHandler.ContractsInfo[]",
              "name": "contracts",
              "type": "tuple[]"
            },
            {
              "internalType": "bool",
              "name": "status",
              "type": "bool"
            }
          ],
          "internalType": "struct LiquidityHandler.AdapterInfo",
          "name": "data_",
          "type": "tuple"
        }
      ],
      "stateMutability": "view",
      "type": "function"
    },
    {
      "inputs": [],
      "name": "getAllAdapters",
      "outputs": [
        {
          "components": [
            {
              "internalType": "string",
              "name": "name",
              "type": "string"
            },
            {
              "internalType": "uint256",
              "name": "percentage",
              "type": "uint256"
            },
            {
              "internalType": "address",
              "name": "adapterAddress",
              "type": "address"
            },
            {
              "components": [
                {
                  "internalType": "string",
                  "name": "name",
                  "type": "string"
                },
                {
                  "internalType": "string",
                  "name": "description",
                  "type": "string"
                },
                {
                  "internalType": "string",
                  "name": "link",
                  "type": "string"
                }
              ],
              "internalType": "struct LiquidityHandler.ContractsInfo[]",
              "name": "contracts",
              "type": "tuple[]"
            },
            {
              "internalType": "bool",
              "name": "status",
              "type": "bool"
            }
          ],
          "internalType": "struct LiquidityHandler.AdapterInfo[]",
          "name": "",
          "type": "tuple[]"
        },
        {
          "internalType": "address[]",
          "name": "",
          "type": "address[]"
        }
      ],
      "stateMutability": "view",
      "type": "function"
    },
    {
      "inputs": [],
      "name": "getLastAdapterIndex",
      "outputs": [
        {
          "internalType": "uint256",
          "name": "",
          "type": "uint256"
        }
      ],
      "stateMutability": "view",
      "type": "function"
    },
    {
      "inputs": [],
      "name": "getListOfPools",
      "outputs": [
        {
          "internalType": "address[]",
          "name": "",
          "type": "address[]"
        }
      ],
      "stateMutability": "view",
      "type": "function"
    },
    {
      "inputs": [
        {
          "internalType": "uint256",
          "name": "_adapterId",
          "type": "uint256"
        }
      ],
      "name": "getPoolByAdapterId",
      "outputs": [
        {
          "internalType": "address",
          "name": "",
          "type": "address"
        }
      ],
      "stateMutability": "view",
      "type": "function"
    },
    {
      "inputs": [
        {
          "internalType": "bytes32",
          "name": "role",
          "type": "bytes32"
        }
      ],
      "name": "getRoleAdmin",
      "outputs": [
        {
          "internalType": "bytes32",
          "name": "",
          "type": "bytes32"
        }
      ],
      "stateMutability": "view",
      "type": "function"
    },
    {
      "inputs": [
        {
          "internalType": "bytes32",
          "name": "role",
          "type": "bytes32"
        },
        {
          "internalType": "address",
          "name": "account",
          "type": "address"
        }
      ],
      "name": "grantRole",
      "outputs": [],
      "stateMutability": "nonpayable",
      "type": "function"
    },
    {
      "inputs": [
        {
          "internalType": "bytes32",
          "name": "role",
          "type": "bytes32"
        },
        {
          "internalType": "address",
          "name": "account",
          "type": "address"
        }
      ],
      "name": "hasRole",
      "outputs": [
        {
          "internalType": "bool",
          "name": "",
          "type": "bool"
        }
      ],
      "stateMutability": "view",
      "type": "function"
    },
    {
      "inputs": [
        {
          "internalType": "address",
          "name": "_multiSigWallet",
          "type": "address"
        },
        {
          "internalType": "address",
          "name": "_deepfiToken",
          "type": "address"
        }
      ],
      "name": "initialize",
      "outputs": [],
      "stateMutability": "nonpayable",
      "type": "function"
    },
    {
      "inputs": [],
      "name": "pause",
      "outputs": [],
      "stateMutability": "nonpayable",
      "type": "function"
    },
    {
      "inputs": [],
      "name": "paused",
      "outputs": [
        {
          "internalType": "bool",
          "name": "",
          "type": "bool"
        }
      ],
      "stateMutability": "view",
      "type": "function"
    },
    {
      "inputs": [],
      "name": "proxiableUUID",
      "outputs": [
        {
          "internalType": "bytes32",
          "name": "",
          "type": "bytes32"
        }
      ],
      "stateMutability": "view",
      "type": "function"
    },
    {
      "inputs": [
        {
          "internalType": "address",
          "name": "_address",
          "type": "address"
        },
        {
          "internalType": "address",
          "name": "_to",
          "type": "address"
        },
        {
          "internalType": "uint256",
          "name": "_amount",
          "type": "uint256"
        }
      ],
      "name": "removeTokenByAddress",
      "outputs": [],
      "stateMutability": "nonpayable",
      "type": "function"
    },
    {
      "inputs": [
        {
          "internalType": "bytes32",
          "name": "role",
          "type": "bytes32"
        },
        {
          "internalType": "address",
          "name": "account",
          "type": "address"
        }
      ],
      "name": "renounceRole",
      "outputs": [],
      "stateMutability": "nonpayable",
      "type": "function"
    },
    {
      "inputs": [
        {
          "internalType": "bytes32",
          "name": "role",
          "type": "bytes32"
        },
        {
          "internalType": "address",
          "name": "account",
          "type": "address"
        }
      ],
      "name": "revokeRole",
      "outputs": [],
      "stateMutability": "nonpayable",
      "type": "function"
    },
    {
      "inputs": [
        {
          "internalType": "uint256",
          "name": "_id",
          "type": "uint256"
        },
        {
          "internalType": "string",
          "name": "_name",
          "type": "string"
        },
        {
          "internalType": "uint256",
          "name": "_percentage",
          "type": "uint256"
        },
        {
          "internalType": "address",
          "name": "_adapterAddress",
          "type": "address"
        },
        {
          "internalType": "bool",
          "name": "_status",
          "type": "bool"
        }
      ],
      "name": "setAdapter",
      "outputs": [],
      "stateMutability": "nonpayable",
      "type": "function"
    },
    {
      "inputs": [
        {
          "internalType": "address",
          "name": "_pool",
          "type": "address"
        },
        {
          "internalType": "uint256",
          "name": "_adapterId",
          "type": "uint256"
        }
      ],
      "name": "setPoolToAdapterId",
      "outputs": [],
      "stateMutability": "nonpayable",
      "type": "function"
    },
    {
      "inputs": [
        {
          "internalType": "bytes4",
          "name": "interfaceId",
          "type": "bytes4"
        }
      ],
      "name": "supportsInterface",
      "outputs": [
        {
          "internalType": "bool",
          "name": "",
          "type": "bool"
        }
      ],
      "stateMutability": "view",
      "type": "function"
    },
    {
      "inputs": [],
      "name": "unpause",
      "outputs": [],
      "stateMutability": "nonpayable",
      "type": "function"
    },
    {
      "inputs": [],
      "name": "upgradeStatus",
      "outputs": [
        {
          "internalType": "bool",
          "name": "",
          "type": "bool"
        }
      ],
      "stateMutability": "view",
      "type": "function"
    },
    {
      "inputs": [
        {
          "internalType": "address",
          "name": "newImplementation",
          "type": "address"
        }
      ],
      "name": "upgradeTo",
      "outputs": [],
      "stateMutability": "nonpayable",
      "type": "function"
    },
    {
      "inputs": [
        {
          "internalType": "address",
          "name": "newImplementation",
          "type": "address"
        },
        {
          "internalType": "bytes",
          "name": "data",
          "type": "bytes"
        }
      ],
      "name": "upgradeToAndCall",
      "outputs": [],
      "stateMutability": "payable",
      "type": "function"
    },
    {
      "inputs": [
        {
          "internalType": "address",
          "name": "_user",
          "type": "address"
        },
        {
          "internalType": "address",
          "name": "_token",
          "type": "address"
        },
        {
          "internalType": "uint256",
          "name": "_amount",
          "type": "uint256"
        }
      ],
      "name": "withdraw",
      "outputs": [],
      "stateMutability": "nonpayable",
      "type": "function"
    }
  ],
  "bytecode": "0x60a06040523060805234801561001457600080fd5b5060805161377361004c600039600081816108f50152818161093501528181610ccd01528181610d0d0152610d8501526137736000f3fe6080604052600436106101895760003560e01c806301ffc9a71461018e57806308713981146101c35780631a0e346e146101e557806321058e2f14610213578063248a9ca314610233578063249875c91461025357806325f80397146102805780632f2ff15d146102a257806336568abe146102c25780633659cfe6146102e25780633a48f1ad146103025780633f4ba83a1461032257806347e7ef2414610337578063485cc955146103575780634f1ef2861461037757806352d1902d1461038a5780635c975abb1461039f5780636465f04a146103b75780636575076f146103d757806370bd22ff146104045780638456cb591461041957806391d148541461042e57806392e794031461044e5780639ddf2cbc1461047e578063a217fddf1461049e578063d4d543c5146104b3578063d547741f146104ce578063d701f523146104ee578063d9caed121461050e578063e31ada971461052e578063ea987a1e14610551578063f51ff47f14610577578063f72c0d8b14610597578063facb34e7146105b9575b600080fd5b34801561019a57600080fd5b506101ae6101a9366004612d5d565b6105ce565b60405190151581526020015b60405180910390f35b3480156101cf57600080fd5b506101e36101de366004612d95565b610605565b005b3480156101f157600080fd5b50610205610200366004612de1565b610635565b6040519081526020016101ba565b34801561021f57600080fd5b506101e361022e366004612ecf565b610643565b34801561023f57600080fd5b5061020561024e366004612f8f565b61071f565b34801561025f57600080fd5b5061027361026e366004612f8f565b610734565b6040516101ba9190612fa8565b34801561028c57600080fd5b50610295610792565b6040516101ba9190613000565b3480156102ae57600080fd5b506101e36102bd366004613013565b61084b565b3480156102ce57600080fd5b506101e36102dd366004613013565b61086c565b3480156102ee57600080fd5b506101e36102fd366004612de1565b6108ea565b34801561030e57600080fd5b506101e361031d36600461303f565b6109b3565b34801561032e57600080fd5b506101e3610a6d565b34801561034357600080fd5b506101e36103523660046130b4565b610a80565b34801561036357600080fd5b506101e36103723660046130de565b610b55565b6101e3610385366004613108565b610cc2565b34801561039657600080fd5b50610205610d78565b3480156103ab57600080fd5b5060335460ff166101ae565b3480156103c357600080fd5b506101e36103d2366004613169565b610e26565b3480156103e357600080fd5b506103f76103f2366004612f8f565b610e4b565b6040516101ba91906132e5565b34801561041057600080fd5b50610205611163565b34801561042557600080fd5b506101e36111ab565b34801561043a57600080fd5b506101ae610449366004613013565b6111be565b34801561045a57600080fd5b5061046e610469366004612f8f565b6111e9565b6040516101ba94939291906132f8565b34801561048a57600080fd5b506101e36104993660046130b4565b6112a9565b3480156104aa57600080fd5b50610205600081565b3480156104bf57600080fd5b5061012d546101ae9060ff1681565b3480156104da57600080fd5b506101e36104e9366004613013565b6112c1565b3480156104fa57600080fd5b506101e3610509366004613332565b6112dd565b34801561051a57600080fd5b506101e3610529366004613169565b6112fd565b34801561053a57600080fd5b506105436113c7565b6040516101ba92919061334f565b34801561055d57600080fd5b5061012d546102739061010090046001600160a01b031681565b34801561058357600080fd5b506101e36105923660046133bc565b61180b565b3480156105a357600080fd5b506102056000805160206136d783398151915281565b3480156105c557600080fd5b506105436119b8565b60006001600160e01b03198216637965db0b60e01b14806105ff57506301ffc9a760e01b6001600160e01b03198316145b92915050565b600061061081611e78565b5060009182526101316020526040909120600401805460ff1916911515919091179055565b60006105ff61012e83611e82565b6000828152610131602052604090206004015460ff166106a25760405162461bcd60e51b815260206004820152601560248201527441646170746572206973206e6f742061637469766560581b60448201526064015b60405180910390fd5b60008281526101316020908152604082206003908101805460018101825590845292829020845180518695909302909101926106e392849290910190612bd9565b5060208281015180516106fc9260018501920190612bd9565b5060408201518051610718916002840191602090910190612bd9565b5050505050565b60009081526097602052604090206001015490565b600080600061074461012e611e97565b905060005b818110156107895760008061076061012e84611ea2565b915091508681141561077457509250610789565b50508080610781906133f4565b915050610749565b50909392505050565b606060006107a161012e611e97565b90506000816001600160401b038111156107bd576107bd612dfc565b6040519080825280602002602001820160405280156107e6578160200160208202803683370190505b50905060005b828110156108445761080061012e82611ea2565b508282815181106108135761081361340f565b60200260200101816001600160a01b03166001600160a01b031681525050808061083c906133f4565b9150506107ec565b5092915050565b6108548261071f565b61085d81611e78565b6108678383611ebe565b505050565b6001600160a01b03811633146108dc5760405162461bcd60e51b815260206004820152602f60248201527f416363657373436f6e74726f6c3a2063616e206f6e6c792072656e6f756e636560448201526e103937b632b9903337b91039b2b63360891b6064820152608401610699565b6108e68282611f44565b5050565b306001600160a01b037f00000000000000000000000000000000000000000000000000000000000000001614156109335760405162461bcd60e51b815260040161069990613425565b7f00000000000000000000000000000000000000000000000000000000000000006001600160a01b0316610965611fab565b6001600160a01b03161461098b5760405162461bcd60e51b81526004016106999061345f565b61099481611fc7565b604080516000808252602082019092526109b091839190612040565b50565b60006109be81611e78565b85610a045760405162461bcd60e51b815260206004820152601660248201527512185b991b195c8e8808585b1b1bddd959080c081a5960521b6044820152606401610699565b60008681526101316020908152604090912086519091610a28918391890190612bd9565b506001810194909455506002830180546001600160a01b0319166001600160a01b0393909316929092179091556004909101805460ff19169115159190911790555050565b6000610a7881611e78565b6109b06121ab565b610a886121f7565b33610a9561012e8261223f565b610ab15760405162461bcd60e51b815260040161069990613499565b6000610abf61012e33611e82565b600081815261013160205260409020600201549091506001600160a01b0390811690610aee9086168286612254565b6040516311f9fbc960e21b81526001600160a01b038216906347e7ef2490610b1c90889088906004016134c8565b600060405180830381600087803b158015610b3657600080fd5b505af1158015610b4a573d6000803e3d6000fd5b505050505050505050565b600054610100900460ff1615808015610b755750600054600160ff909116105b80610b965750610b84306122aa565b158015610b96575060005460ff166001145b610bf95760405162461bcd60e51b815260206004820152602e60248201527f496e697469616c697a61626c653a20636f6e747261637420697320616c72656160448201526d191e481a5b9a5d1a585b1a5e995960921b6064820152608401610699565b6000805460ff191660011790558015610c1c576000805461ff0019166101001790555b610c246122b9565b610c2c6122e8565b610c346122e8565b610c3f600084611ebe565b610c576000805160206136d783398151915284611ebe565b61012d8054610100600160a81b0319166101006001600160a01b038516021790558015610867576000805461ff0019169055604051600181527f7f26b83ff96e1f2b6a682f133852f6798a09c465da95921460cefb38474024989060200160405180910390a1505050565b306001600160a01b037f0000000000000000000000000000000000000000000000000000000000000000161415610d0b5760405162461bcd60e51b815260040161069990613425565b7f00000000000000000000000000000000000000000000000000000000000000006001600160a01b0316610d3d611fab565b6001600160a01b031614610d635760405162461bcd60e51b81526004016106999061345f565b610d6c82611fc7565b6108e682826001612040565b6000306001600160a01b037f00000000000000000000000000000000000000000000000000000000000000001614610e135760405162461bcd60e51b815260206004820152603860248201527f555550535570677261646561626c653a206d757374206e6f742062652063616c6044820152771b1959081d1a1c9bdd59da0819195b1959d85d1958d85b1b60421b6064820152608401610699565b506000805160206136f783398151915290565b6000610e3181611e78565b610e456001600160a01b0385168484612254565b50505050565b610e53612c5d565b6000828152610131602052604090819020815160a08101909252805482908290610e7c906134e1565b80601f0160208091040260200160405190810160405280929190818152602001828054610ea8906134e1565b8015610ef55780601f10610eca57610100808354040283529160200191610ef5565b820191906000526020600020905b815481529060010190602001808311610ed857829003601f168201915b50505050508152602001600182015481526020016002820160009054906101000a90046001600160a01b03166001600160a01b03166001600160a01b0316815260200160038201805480602002602001604051908101604052809291908181526020016000905b828210156111445783829060005260206000209060030201604051806060016040529081600082018054610f8f906134e1565b80601f0160208091040260200160405190810160405280929190818152602001828054610fbb906134e1565b80156110085780601f10610fdd57610100808354040283529160200191611008565b820191906000526020600020905b815481529060010190602001808311610feb57829003601f168201915b50505050508152602001600182018054611021906134e1565b80601f016020809104026020016040519081016040528092919081815260200182805461104d906134e1565b801561109a5780601f1061106f5761010080835404028352916020019161109a565b820191906000526020600020905b81548152906001019060200180831161107d57829003601f168201915b505050505081526020016002820180546110b3906134e1565b80601f01602080910402602001604051908101604052809291908181526020018280546110df906134e1565b801561112c5780601f106111015761010080835404028352916020019161112c565b820191906000526020600020905b81548152906001019060200180831161110f57829003601f168201915b50505050508152505081526020019060010190610f5c565b505050908252506004919091015460ff16151560209091015292915050565b600060015b600081815261013160205260409020600201546001600160a01b031661119957806111928161351c565b9392505050565b806111a3816133f4565b915050611168565b60006111b681611e78565b6109b061230f565b60009182526097602090815260408084206001600160a01b0393909316845291905290205460ff1690565b61013160205260009081526040902080548190611205906134e1565b80601f0160208091040260200160405190810160405280929190818152602001828054611231906134e1565b801561127e5780601f106112535761010080835404028352916020019161127e565b820191906000526020600020905b81548152906001019060200180831161126157829003601f168201915b5050505060018301546002840154600490940154929390926001600160a01b03909116915060ff1684565b60006112b481611e78565b610e4561012e848461234c565b6112ca8261071f565b6112d381611e78565b6108678383611f44565b60006112e881611e78565b5061012d805460ff1916911515919091179055565b6113056121f7565b3361131261012e8261223f565b61132e5760405162461bcd60e51b815260040161069990613499565b600061133c61012e33611e82565b6000818152610131602052604090819020600201549051636ce5768960e11b81526001600160a01b038881166004830152878116602483015260448201879052929350911690819063d9caed1290606401600060405180830381600087803b1580156113a757600080fd5b505af11580156113bb573d6000803e3d6000fd5b50505050505050505050565b60608060006113d4611163565b90506000816001600160401b038111156113f0576113f0612dfc565b60405190808252806020026020018201604052801561142957816020015b611416612c5d565b81526020019060019003908161140e5790505b5090506000826001600160401b0381111561144657611446612dfc565b60405190808252806020026020018201604052801561146f578160200160208202803683370190505b50905060005b8381101561180057610131600061148d836001613533565b81526020019081526020016000206040518060a00160405290816000820180546114b6906134e1565b80601f01602080910402602001604051908101604052809291908181526020018280546114e2906134e1565b801561152f5780601f106115045761010080835404028352916020019161152f565b820191906000526020600020905b81548152906001019060200180831161151257829003601f168201915b50505050508152602001600182015481526020016002820160009054906101000a90046001600160a01b03166001600160a01b03166001600160a01b0316815260200160038201805480602002602001604051908101604052809291908181526020016000905b8282101561177e57838290600052602060002090600302016040518060600160405290816000820180546115c9906134e1565b80601f01602080910402602001604051908101604052809291908181526020018280546115f5906134e1565b80156116425780601f1061161757610100808354040283529160200191611642565b820191906000526020600020905b81548152906001019060200180831161162557829003601f168201915b5050505050815260200160018201805461165b906134e1565b80601f0160208091040260200160405190810160405280929190818152602001828054611687906134e1565b80156116d45780601f106116a9576101008083540402835291602001916116d4565b820191906000526020600020905b8154815290600101906020018083116116b757829003601f168201915b505050505081526020016002820180546116ed906134e1565b80601f0160208091040260200160405190810160405280929190818152602001828054611719906134e1565b80156117665780601f1061173b57610100808354040283529160200191611766565b820191906000526020600020905b81548152906001019060200180831161174957829003601f168201915b50505050508152505081526020019060010190611596565b505050908252506004919091015460ff16151560209091015283518490839081106117ab576117ab61340f565b60209081029190910101526117c461026e826001613533565b8282815181106117d6576117d661340f565b6001600160a01b0390921660209283029190910190910152806117f8816133f4565b915050611475565b509094909350915050565b6000828152610131602052604090206003015481106118655760405162461bcd60e51b8152602060048201526016602482015275092dcecc2d8d2c840c6dedce8e4c2c6e840d2dcc8caf60531b6044820152606401610699565b600082815261013160205260408120600301546118849060019061354b565b600084815261013160205260409020600301805491925090829081106118ac576118ac61340f565b9060005260206000209060030201610131600085815260200190815260200160002060030183815481106118e2576118e261340f565b90600052602060002090600302016000820181600001908054611904906134e1565b61190f929190612c97565b506001820181600101908054611924906134e1565b61192f929190612c97565b506002820181600201908054611944906134e1565b61194f929190612c97565b50505060008381526101316020526040902060030180548061197357611973613562565b600082815260208120600019909201916003830201906119938282612d12565b6119a1600183016000612d12565b6119af600283016000612d12565b50509055505050565b60608060006119c861012e611e97565b90506000816001600160401b038111156119e4576119e4612dfc565b604051908082528060200260200182016040528015611a0d578160200160208202803683370190505b5090506000826001600160401b03811115611a2a57611a2a612dfc565b604051908082528060200260200182016040528015611a53578160200160208202803683370190505b5090506000836001600160401b03811115611a7057611a70612dfc565b604051908082528060200260200182016040528015611aa957816020015b611a96612c5d565b815260200190600190039081611a8e5790505b50905060005b84811015611e6c57611ac361012e82611ea2565b858381518110611ad557611ad561340f565b60200260200101858481518110611aee57611aee61340f565b6020026020010182815250826001600160a01b03166001600160a01b031681525050506101316000848381518110611b2857611b2861340f565b602002602001015181526020019081526020016000206040518060a0016040529081600082018054611b59906134e1565b80601f0160208091040260200160405190810160405280929190818152602001828054611b85906134e1565b8015611bd25780601f10611ba757610100808354040283529160200191611bd2565b820191906000526020600020905b815481529060010190602001808311611bb557829003601f168201915b50505050508152602001600182015481526020016002820160009054906101000a90046001600160a01b03166001600160a01b03166001600160a01b0316815260200160038201805480602002602001604051908101604052809291908181526020016000905b82821015611e215783829060005260206000209060030201604051806060016040529081600082018054611c6c906134e1565b80601f0160208091040260200160405190810160405280929190818152602001828054611c98906134e1565b8015611ce55780601f10611cba57610100808354040283529160200191611ce5565b820191906000526020600020905b815481529060010190602001808311611cc857829003601f168201915b50505050508152602001600182018054611cfe906134e1565b80601f0160208091040260200160405190810160405280929190818152602001828054611d2a906134e1565b8015611d775780601f10611d4c57610100808354040283529160200191611d77565b820191906000526020600020905b815481529060010190602001808311611d5a57829003601f168201915b50505050508152602001600282018054611d90906134e1565b80601f0160208091040260200160405190810160405280929190818152602001828054611dbc906134e1565b8015611e095780601f10611dde57610100808354040283529160200191611e09565b820191906000526020600020905b815481529060010190602001808311611dec57829003601f168201915b50505050508152505081526020019060010190611c39565b505050908252506004919091015460ff1615156020909101528251839083908110611e4e57611e4e61340f565b60200260200101819052508080611e64906133f4565b915050611aaf565b50959194509092505050565b6109b0813361236a565b6000611192836001600160a01b0384166123c3565b60006105ff82612433565b6000808080611eb1868661243e565b9097909650945050505050565b611ec882826111be565b6108e65760008281526097602090815260408083206001600160a01b03851684529091529020805460ff19166001179055611f003390565b6001600160a01b0316816001600160a01b0316837f2f8788117e7eff1d82e926ec794901d17c78024a50270940304540a733656f0d60405160405180910390a45050565b611f4e82826111be565b156108e65760008281526097602090815260408083206001600160a01b0385168085529252808320805460ff1916905551339285917ff6391f5c32d9c69d2a47ea670b442974b53935d1edc7fd64eb21e047a839171b9190a45050565b6000805160206136f7833981519152546001600160a01b031690565b6000805160206136d7833981519152611fdf81611e78565b61012d5460ff166120315760405162461bcd60e51b815260206004820152601c60248201527b12185b991b195c8e88155c19dc985919481b9bdd08185b1b1bddd95960221b6044820152606401610699565b505061012d805460ff19169055565b7f4910fdfa16fed3260ed0e7147f7cc6da11a60208b5b9406d12a635614ffd91435460ff16156120735761086783612469565b826001600160a01b03166352d1902d6040518163ffffffff1660e01b8152600401602060405180830381865afa9250505080156120cd575060408051601f3d908101601f191682019092526120ca91810190613578565b60015b6121305760405162461bcd60e51b815260206004820152602e60248201527f45524331393637557067726164653a206e657720696d706c656d656e7461746960448201526d6f6e206973206e6f74205555505360901b6064820152608401610699565b6000805160206136f7833981519152811461219f5760405162461bcd60e51b815260206004820152602960248201527f45524331393637557067726164653a20756e737570706f727465642070726f786044820152681a58589b195555525160ba1b6064820152608401610699565b50610867838383612503565b6121b3612528565b6033805460ff191690557f5db9ee0a495bf2e6ff9c91a7834c1ba4fdd244a5e8aa4e537bd38aeae4b073aa335b6040516121ed9190612fa8565b60405180910390a1565b60335460ff161561223d5760405162461bcd60e51b815260206004820152601060248201526f14185d5cd8589b194e881c185d5cd95960821b6044820152606401610699565b565b6000611192836001600160a01b038416612571565b6108678363a9059cbb60e01b84846040516024016122739291906134c8565b60408051601f198184030181529190526020810180516001600160e01b03166001600160e01b03199093169290921790915261257d565b6001600160a01b03163b151590565b600054610100900460ff166122e05760405162461bcd60e51b815260040161069990613591565b61223d61264f565b600054610100900460ff1661223d5760405162461bcd60e51b815260040161069990613591565b6123176121f7565b6033805460ff191660011790557f62e78cea01bee320cd4e420270b5ea74000d11b0c9f74754ebdbfc544b05a2586121e03390565b6000612362846001600160a01b03851684612682565b949350505050565b61237482826111be565b6108e6576123818161269f565b61238c8360206126b1565b60405160200161239d9291906135dc565b60408051601f198184030181529082905262461bcd60e51b82526106999160040161364b565b6000818152600283016020526040812054801515806123e757506123e78484612571565b6111925760405162461bcd60e51b815260206004820152601e60248201527f456e756d657261626c654d61703a206e6f6e6578697374656e74206b657900006044820152606401610699565b60006105ff8261284c565b6000808061244c8585612856565b600081815260029690960160205260409095205494959350505050565b612472816122aa565b6124d45760405162461bcd60e51b815260206004820152602d60248201527f455243313936373a206e657720696d706c656d656e746174696f6e206973206e60448201526c1bdd08184818dbdb9d1c9858dd609a1b6064820152608401610699565b6000805160206136f783398151915280546001600160a01b0319166001600160a01b0392909216919091179055565b61250c83612862565b6000825111806125195750805b1561086757610e4583836128a2565b60335460ff1661223d5760405162461bcd60e51b815260206004820152601460248201527314185d5cd8589b194e881b9bdd081c185d5cd95960621b6044820152606401610699565b60006111928383612994565b60006125d2826040518060400160405280602081526020017f5361666545524332303a206c6f772d6c6576656c2063616c6c206661696c6564815250856001600160a01b03166129a09092919063ffffffff16565b80519091501561086757808060200190518101906125f0919061365e565b6108675760405162461bcd60e51b815260206004820152602a60248201527f5361666545524332303a204552433230206f7065726174696f6e20646964206e6044820152691bdd081cdd58d8d9595960b21b6064820152608401610699565b600054610100900460ff166126765760405162461bcd60e51b815260040161069990613591565b6033805460ff19169055565b6000828152600284016020526040812082905561236284846129af565b60606105ff6001600160a01b03831660145b606060006126c083600261367b565b6126cb906002613533565b6001600160401b038111156126e2576126e2612dfc565b6040519080825280601f01601f19166020018201604052801561270c576020820181803683370190505b509050600360fc1b816000815181106127275761272761340f565b60200101906001600160f81b031916908160001a905350600f60fb1b816001815181106127565761275661340f565b60200101906001600160f81b031916908160001a905350600061277a84600261367b565b612785906001613533565b90505b60018111156127fd576f181899199a1a9b1b9c1cb0b131b232b360811b85600f16601081106127b9576127b961340f565b1a60f81b8282815181106127cf576127cf61340f565b60200101906001600160f81b031916908160001a90535060049490941c936127f68161351c565b9050612788565b5083156111925760405162461bcd60e51b815260206004820181905260248201527f537472696e67733a20686578206c656e67746820696e73756666696369656e746044820152606401610699565b60006105ff825490565b600061119283836129bb565b61286b81612469565b6040516001600160a01b038216907fbc7cd75a20ee27fd9adebab32041f755214dbc6bffa90cc0225b39da2e5c2d3b90600090a250565b60606128ad836122aa565b6129085760405162461bcd60e51b815260206004820152602660248201527f416464726573733a2064656c65676174652063616c6c20746f206e6f6e2d636f6044820152651b9d1c9858dd60d21b6064820152608401610699565b600080846001600160a01b031684604051612923919061369a565b600060405180830381855af49150503d806000811461295e576040519150601f19603f3d011682016040523d82523d6000602084013e612963565b606091505b509150915061298b8282604051806060016040528060278152602001613717602791396129e5565b95945050505050565b600061119283836129fe565b60606123628484600085612a16565b60006111928383612af1565b60008260000182815481106129d2576129d261340f565b9060005260206000200154905092915050565b606083156129f4575081611192565b6111928383612b3b565b60009081526001919091016020526040902054151590565b606082471015612a775760405162461bcd60e51b815260206004820152602660248201527f416464726573733a20696e73756666696369656e742062616c616e636520666f6044820152651c8818d85b1b60d21b6064820152608401610699565b600080866001600160a01b03168587604051612a93919061369a565b60006040518083038185875af1925050503d8060008114612ad0576040519150601f19603f3d011682016040523d82523d6000602084013e612ad5565b606091505b5091509150612ae687838387612b65565b979650505050505050565b6000612afd83836129fe565b612b33575081546001818101845560008481526020808220909301849055845484825282860190935260409020919091556105ff565b5060006105ff565b815115612b4b5781518083602001fd5b8060405162461bcd60e51b8152600401610699919061364b565b60608315612bcf578251612bc857612b7c856122aa565b612bc85760405162461bcd60e51b815260206004820152601d60248201527f416464726573733a2063616c6c20746f206e6f6e2d636f6e74726163740000006044820152606401610699565b5081612362565b6123628383612b3b565b828054612be5906134e1565b90600052602060002090601f016020900481019282612c075760008555612c4d565b82601f10612c2057805160ff1916838001178555612c4d565b82800160010185558215612c4d579182015b82811115612c4d578251825591602001919060010190612c32565b50612c59929150612d48565b5090565b6040518060a00160405280606081526020016000815260200160006001600160a01b03168152602001606081526020016000151581525090565b828054612ca3906134e1565b90600052602060002090601f016020900481019282612cc55760008555612c4d565b82601f10612cd65780548555612c4d565b82800160010185558215612c4d57600052602060002091601f016020900482015b82811115612c4d578254825591600101919060010190612cf7565b508054612d1e906134e1565b6000825580601f10612d2e575050565b601f0160209004906000526020600020908101906109b091905b5b80821115612c595760008155600101612d49565b600060208284031215612d6f57600080fd5b81356001600160e01b03198116811461119257600080fd5b80151581146109b057600080fd5b60008060408385031215612da857600080fd5b823591506020830135612dba81612d87565b809150509250929050565b80356001600160a01b0381168114612ddc57600080fd5b919050565b600060208284031215612df357600080fd5b61119282612dc5565b634e487b7160e01b600052604160045260246000fd5b604051606081016001600160401b0381118282101715612e3457612e34612dfc565b60405290565b60006001600160401b0380841115612e5457612e54612dfc565b604051601f8501601f19908116603f01168101908282118183101715612e7c57612e7c612dfc565b81604052809350858152868686011115612e9557600080fd5b858560208301376000602087830101525050509392505050565b600082601f830112612ec057600080fd5b61119283833560208501612e3a565b60008060408385031215612ee257600080fd5b8235915060208301356001600160401b0380821115612f0057600080fd5b9084019060608287031215612f1457600080fd5b612f1c612e12565b823582811115612f2b57600080fd5b612f3788828601612eaf565b825250602083013582811115612f4c57600080fd5b612f5888828601612eaf565b602083015250604083013582811115612f7057600080fd5b612f7c88828601612eaf565b6040830152508093505050509250929050565b600060208284031215612fa157600080fd5b5035919050565b6001600160a01b0391909116815260200190565b600081518084526020808501945080840160005b83811015612ff55781516001600160a01b031687529582019590820190600101612fd0565b509495945050505050565b6020815260006111926020830184612fbc565b6000806040838503121561302657600080fd5b8235915061303660208401612dc5565b90509250929050565b600080600080600060a0868803121561305757600080fd5b8535945060208601356001600160401b0381111561307457600080fd5b61308088828901612eaf565b9450506040860135925061309660608701612dc5565b915060808601356130a681612d87565b809150509295509295909350565b600080604083850312156130c757600080fd5b6130d083612dc5565b946020939093013593505050565b600080604083850312156130f157600080fd5b6130fa83612dc5565b915061303660208401612dc5565b6000806040838503121561311b57600080fd5b61312483612dc5565b915060208301356001600160401b0381111561313f57600080fd5b8301601f8101851361315057600080fd5b61315f85823560208401612e3a565b9150509250929050565b60008060006060848603121561317e57600080fd5b61318784612dc5565b925061319560208501612dc5565b9150604084013590509250925092565b60005b838110156131c05781810151838201526020016131a8565b83811115610e455750506000910152565b600081518084526131e98160208601602086016131a5565b601f01601f19169290920160200192915050565b6000815160a0845261321260a08501826131d1565b905060208084015181860152604060018060a01b03818601511681870152606080860151878503828901528481518087528587019150858160051b880101868401935060005b828110156132c157888203601f190184528451805187845261327c888501826131d1565b9050898201518482038b86015261329382826131d1565b915050888201519150838103898501526132ad81836131d1565b968a0196958a019593505050600101613258565b5060808a015197506132d760808c018915159052565b9a9950505050505050505050565b60208152600061119260208301846131fd565b60808152600061330b60808301876131d1565b6020830195909552506001600160a01b039290921660408301521515606090910152919050565b60006020828403121561334457600080fd5b813561119281612d87565b6000604082016040835280855180835260608501915060608160051b8601019250602080880160005b838110156133a657605f198887030185526133948683516131fd565b95509382019390820190600101613378565b50508584038187015250505061298b8185612fbc565b600080604083850312156133cf57600080fd5b50508035926020909101359150565b634e487b7160e01b600052601160045260246000fd5b6000600019821415613408576134086133de565b5060010190565b634e487b7160e01b600052603260045260246000fd5b6020808252602c908201526000805160206136b783398151915260408201526b19195b1959d85d1958d85b1b60a21b606082015260800190565b6020808252602c908201526000805160206136b783398151915260408201526b6163746976652070726f787960a01b606082015260800190565b6020808252601590820152741cd95b99195c881cda1bdd5b19081899481c1bdbdb605a1b604082015260600190565b6001600160a01b03929092168252602082015260400190565b600181811c908216806134f557607f821691505b6020821081141561351657634e487b7160e01b600052602260045260246000fd5b50919050565b60008161352b5761352b6133de565b506000190190565b60008219821115613546576135466133de565b500190565b60008282101561355d5761355d6133de565b500390565b634e487b7160e01b600052603160045260246000fd5b60006020828403121561358a57600080fd5b5051919050565b6020808252602b908201527f496e697469616c697a61626c653a20636f6e7472616374206973206e6f74206960408201526a6e697469616c697a696e6760a81b606082015260800190565b76020b1b1b2b9b9a1b7b73a3937b61d1030b1b1b7bab73a1604d1b81526000835161360e8160178501602088016131a5565b7001034b99036b4b9b9b4b733903937b6329607d1b601791840191820152835161363f8160288401602088016131a5565b01602801949350505050565b60208152600061119260208301846131d1565b60006020828403121561367057600080fd5b815161119281612d87565b6000816000190483118215151615613695576136956133de565b500290565b600082516136ac8184602087016131a5565b919091019291505056fe46756e6374696f6e206d7573742062652063616c6c6564207468726f75676820189ab7a9244df0848122154315af71fe140f3db0fe014031783b0946b8c9d2e3360894a13ba1a3210667c828492db98dca3e2076cc3735a920a3ca505d382bbc416464726573733a206c6f772d6c6576656c2064656c65676174652063616c6c206661696c6564a26469706673582212206f4115a926883fdddc6a8b2ddeae46e275f6a16644687a2eaedd87372aa8abc964736f6c634300080b0033",
  "linkReferences": {},
  "deployedLinkReferences": {}
}