{
  "_format": "hh-sol-artifact-1",
  "contractName": "MlpAdapter",
  "sourceName": "contracts/adapters/MlpAdapter.sol",
  "abi": [
    {
      "anonymous": false,
      "inputs": [
        {
          "indexed": false,
          "internalType": "address",
          "name": "previousAdmin",
          "type": "address"
        },
        {
          "indexed": false,
          "internalType": "address",
          "name": "newAdmin",
          "type": "address"
        }
      ],
      "name": "AdminChanged",
      "type": "event"
    },
    {
      "anonymous": false,
      "inputs": [
        {
          "indexed": true,
          "internalType": "address",
          "name": "beacon",
          "type": "address"
        }
      ],
      "name": "BeaconUpgraded",
      "type": "event"
    },
    {
      "anonymous": false,
      "inputs": [
        {
          "indexed": false,
          "internalType": "uint8",
          "name": "version",
          "type": "uint8"
        }
      ],
      "name": "Initialized",
      "type": "event"
    },
    {
      "anonymous": false,
      "inputs": [
        {
          "indexed": true,
          "internalType": "bytes32",
          "name": "role",
          "type": "bytes32"
        },
        {
          "indexed": true,
          "internalType": "bytes32",
          "name": "previousAdminRole",
          "type": "bytes32"
        },
        {
          "indexed": true,
          "internalType": "bytes32",
          "name": "newAdminRole",
          "type": "bytes32"
        }
      ],
      "name": "RoleAdminChanged",
      "type": "event"
    },
    {
      "anonymous": false,
      "inputs": [
        {
          "indexed": true,
          "internalType": "bytes32",
          "name": "role",
          "type": "bytes32"
        },
        {
          "indexed": true,
          "internalType": "address",
          "name": "account",
          "type": "address"
        },
        {
          "indexed": true,
          "internalType": "address",
          "name": "sender",
          "type": "address"
        }
      ],
      "name": "RoleGranted",
      "type": "event"
    },
    {
      "anonymous": false,
      "inputs": [
        {
          "indexed": true,
          "internalType": "bytes32",
          "name": "role",
          "type": "bytes32"
        },
        {
          "indexed": true,
          "internalType": "address",
          "name": "account",
          "type": "address"
        },
        {
          "indexed": true,
          "internalType": "address",
          "name": "sender",
          "type": "address"
        }
      ],
      "name": "RoleRevoked",
      "type": "event"
    },
    {
      "anonymous": false,
      "inputs": [
        {
          "indexed": true,
          "internalType": "address",
          "name": "implementation",
          "type": "address"
        }
      ],
      "name": "Upgraded",
      "type": "event"
    },
    {
      "anonymous": false,
      "inputs": [
        {
          "indexed": false,
          "internalType": "address",
          "name": "new_handler",
          "type": "address"
        }
      ],
      "name": "newLiquidityHandler",
      "type": "event"
    },
    {
      "anonymous": false,
      "inputs": [
        {
          "indexed": false,
          "internalType": "address",
          "name": "new_treasury",
          "type": "address"
        }
      ],
      "name": "newTreasury",
      "type": "event"
    },
    {
      "anonymous": false,
      "inputs": [
        {
          "indexed": true,
          "internalType": "address",
          "name": "user",
          "type": "address"
        },
        {
          "indexed": true,
          "internalType": "address",
          "name": "token",
          "type": "address"
        },
        {
          "indexed": false,
          "internalType": "uint256",
          "name": "amount",
          "type": "uint256"
        }
      ],
      "name": "removeToken",
      "type": "event"
    },
    {
      "anonymous": false,
      "inputs": [
        {
          "indexed": false,
          "internalType": "address",
          "name": "_newAddress",
          "type": "address"
        }
      ],
      "name": "transferMummyFinanceAccount",
      "type": "event"
    },
    {
      "stateMutability": "payable",
      "type": "fallback"
    },
    {
      "inputs": [],
      "name": "DEFAULT_ADMIN_ROLE",
      "outputs": [
        {
          "internalType": "bytes32",
          "name": "",
          "type": "bytes32"
        }
      ],
      "stateMutability": "view",
      "type": "function"
    },
    {
      "inputs": [],
      "name": "HANDLER_ROLE",
      "outputs": [
        {
          "internalType": "bytes32",
          "name": "",
          "type": "bytes32"
        }
      ],
      "stateMutability": "view",
      "type": "function"
    },
    {
      "inputs": [],
      "name": "MLPVester_address",
      "outputs": [
        {
          "internalType": "address",
          "name": "",
          "type": "address"
        }
      ],
      "stateMutability": "view",
      "type": "function"
    },
    {
      "inputs": [],
      "name": "MMYVester_address",
      "outputs": [
        {
          "internalType": "address",
          "name": "",
          "type": "address"
        }
      ],
      "stateMutability": "view",
      "type": "function"
    },
    {
      "inputs": [],
      "name": "UPGRADER_ROLE",
      "outputs": [
        {
          "internalType": "bytes32",
          "name": "",
          "type": "bytes32"
        }
      ],
      "stateMutability": "view",
      "type": "function"
    },
    {
      "inputs": [],
      "name": "actualSupply",
      "outputs": [
        {
          "internalType": "uint256",
          "name": "",
          "type": "uint256"
        }
      ],
      "stateMutability": "view",
      "type": "function"
    },
    {
      "inputs": [
        {
          "internalType": "bool",
          "name": "_status",
          "type": "bool"
        }
      ],
      "name": "changeUpgradeStatus",
      "outputs": [],
      "stateMutability": "nonpayable",
      "type": "function"
    },
    {
      "inputs": [],
      "name": "claimReward",
      "outputs": [],
      "stateMutability": "nonpayable",
      "type": "function"
    },
    {
      "inputs": [],
      "name": "compoundRewardStatus",
      "outputs": [
        {
          "internalType": "bool",
          "name": "",
          "type": "bool"
        }
      ],
      "stateMutability": "view",
      "type": "function"
    },
    {
      "inputs": [
        {
          "internalType": "address",
          "name": "_token",
          "type": "address"
        },
        {
          "internalType": "uint256",
          "name": "_amount",
          "type": "uint256"
        }
      ],
      "name": "deposit",
      "outputs": [],
      "stateMutability": "nonpayable",
      "type": "function"
    },
    {
      "inputs": [
        {
          "internalType": "uint256",
          "name": "_amount",
          "type": "uint256"
        }
      ],
      "name": "depositMLPVault",
      "outputs": [],
      "stateMutability": "nonpayable",
      "type": "function"
    },
    {
      "inputs": [
        {
          "internalType": "uint256",
          "name": "_amount",
          "type": "uint256"
        }
      ],
      "name": "depositMMYVault",
      "outputs": [],
      "stateMutability": "nonpayable",
      "type": "function"
    },
    {
      "inputs": [],
      "name": "esMMY_address",
      "outputs": [
        {
          "internalType": "address",
          "name": "",
          "type": "address"
        }
      ],
      "stateMutability": "view",
      "type": "function"
    },
    {
      "inputs": [],
      "name": "getAdapterAmount",
      "outputs": [
        {
          "internalType": "uint256[]",
          "name": "",
          "type": "uint256[]"
        }
      ],
      "stateMutability": "nonpayable",
      "type": "function"
    },
    {
      "inputs": [
        {
          "internalType": "bytes32",
          "name": "role",
          "type": "bytes32"
        }
      ],
      "name": "getRoleAdmin",
      "outputs": [
        {
          "internalType": "bytes32",
          "name": "",
          "type": "bytes32"
        }
      ],
      "stateMutability": "view",
      "type": "function"
    },
    {
      "inputs": [
        {
          "internalType": "bytes32",
          "name": "role",
          "type": "bytes32"
        },
        {
          "internalType": "address",
          "name": "account",
          "type": "address"
        }
      ],
      "name": "grantRole",
      "outputs": [],
      "stateMutability": "nonpayable",
      "type": "function"
    },
    {
      "inputs": [
        {
          "internalType": "bytes32",
          "name": "role",
          "type": "bytes32"
        },
        {
          "internalType": "address",
          "name": "account",
          "type": "address"
        }
      ],
      "name": "hasRole",
      "outputs": [
        {
          "internalType": "bool",
          "name": "",
          "type": "bool"
        }
      ],
      "stateMutability": "view",
      "type": "function"
    },
    {
      "inputs": [
        {
          "internalType": "address",
          "name": "_treasury",
          "type": "address"
        },
        {
          "internalType": "address",
          "name": "_handlerAddress",
          "type": "address"
        },
        {
          "internalType": "address",
          "name": "_staking_token",
          "type": "address"
        },
        {
          "internalType": "address",
          "name": "_multiSigWallet",
          "type": "address"
        },
        {
          "internalType": "bool",
          "name": "_compoundStatus",
          "type": "bool"
        }
      ],
      "name": "initialize",
      "outputs": [],
      "stateMutability": "nonpayable",
      "type": "function"
    },
    {
      "inputs": [],
      "name": "liquidity_handler",
      "outputs": [
        {
          "internalType": "address",
          "name": "",
          "type": "address"
        }
      ],
      "stateMutability": "view",
      "type": "function"
    },
    {
      "inputs": [],
      "name": "manualCompound",
      "outputs": [],
      "stateMutability": "nonpayable",
      "type": "function"
    },
    {
      "inputs": [],
      "name": "proxiableUUID",
      "outputs": [
        {
          "internalType": "bytes32",
          "name": "",
          "type": "bytes32"
        }
      ],
      "stateMutability": "view",
      "type": "function"
    },
    {
      "inputs": [
        {
          "internalType": "address",
          "name": "_token",
          "type": "address"
        },
        {
          "internalType": "address",
          "name": "_to",
          "type": "address"
        },
        {
          "internalType": "uint256",
          "name": "_amount",
          "type": "uint256"
        }
      ],
      "name": "removeTokenByAddress",
      "outputs": [],
      "stateMutability": "nonpayable",
      "type": "function"
    },
    {
      "inputs": [
        {
          "internalType": "bytes32",
          "name": "role",
          "type": "bytes32"
        },
        {
          "internalType": "address",
          "name": "account",
          "type": "address"
        }
      ],
      "name": "renounceRole",
      "outputs": [],
      "stateMutability": "nonpayable",
      "type": "function"
    },
    {
      "inputs": [
        {
          "internalType": "bytes32",
          "name": "role",
          "type": "bytes32"
        },
        {
          "internalType": "address",
          "name": "account",
          "type": "address"
        }
      ],
      "name": "revokeRole",
      "outputs": [],
      "stateMutability": "nonpayable",
      "type": "function"
    },
    {
      "inputs": [],
      "name": "rewardRouter_address",
      "outputs": [
        {
          "internalType": "address",
          "name": "",
          "type": "address"
        }
      ],
      "stateMutability": "view",
      "type": "function"
    },
    {
      "inputs": [
        {
          "internalType": "bool",
          "name": "_status",
          "type": "bool"
        }
      ],
      "name": "setCompoundRewardStatus",
      "outputs": [],
      "stateMutability": "nonpayable",
      "type": "function"
    },
    {
      "inputs": [
        {
          "internalType": "address",
          "name": "_newHandler",
          "type": "address"
        }
      ],
      "name": "setLiquidityHandler",
      "outputs": [],
      "stateMutability": "nonpayable",
      "type": "function"
    },
    {
      "inputs": [
        {
          "internalType": "address",
          "name": "_address",
          "type": "address"
        }
      ],
      "name": "setMLPVesterAddress",
      "outputs": [],
      "stateMutability": "nonpayable",
      "type": "function"
    },
    {
      "inputs": [
        {
          "internalType": "address",
          "name": "_address",
          "type": "address"
        }
      ],
      "name": "setMMYVesterAddress",
      "outputs": [],
      "stateMutability": "nonpayable",
      "type": "function"
    },
    {
      "inputs": [
        {
          "internalType": "address",
          "name": "_newWallet",
          "type": "address"
        }
      ],
      "name": "setNewTreasury",
      "outputs": [],
      "stateMutability": "nonpayable",
      "type": "function"
    },
    {
      "inputs": [
        {
          "internalType": "address",
          "name": "_address",
          "type": "address"
        }
      ],
      "name": "setRewardRouterAddress",
      "outputs": [],
      "stateMutability": "nonpayable",
      "type": "function"
    },
    {
      "inputs": [
        {
          "internalType": "uint64",
          "name": "_newSlippage",
          "type": "uint64"
        }
      ],
      "name": "setSlippage",
      "outputs": [],
      "stateMutability": "nonpayable",
      "type": "function"
    },
    {
      "inputs": [
        {
          "internalType": "address",
          "name": "_address",
          "type": "address"
        }
      ],
      "name": "setesMMYAddress",
      "outputs": [],
      "stateMutability": "nonpayable",
      "type": "function"
    },
    {
      "inputs": [],
      "name": "stacking_token",
      "outputs": [
        {
          "internalType": "address",
          "name": "",
          "type": "address"
        }
      ],
      "stateMutability": "view",
      "type": "function"
    },
    {
      "inputs": [
        {
          "internalType": "uint256",
          "name": "_amount",
          "type": "uint256"
        }
      ],
      "name": "stakeEsMMY",
      "outputs": [],
      "stateMutability": "nonpayable",
      "type": "function"
    },
    {
      "inputs": [
        {
          "internalType": "bytes4",
          "name": "interfaceId",
          "type": "bytes4"
        }
      ],
      "name": "supportsInterface",
      "outputs": [
        {
          "internalType": "bool",
          "name": "",
          "type": "bool"
        }
      ],
      "stateMutability": "view",
      "type": "function"
    },
    {
      "inputs": [
        {
          "internalType": "uint256",
          "name": "_amount",
          "type": "uint256"
        }
      ],
      "name": "transferAdapterRewards",
      "outputs": [],
      "stateMutability": "nonpayable",
      "type": "function"
    },
    {
      "inputs": [
        {
          "internalType": "address",
          "name": "_newAddress",
          "type": "address"
        }
      ],
      "name": "transferMummyFiAccount",
      "outputs": [],
      "stateMutability": "nonpayable",
      "type": "function"
    },
    {
      "inputs": [],
      "name": "treasury",
      "outputs": [
        {
          "internalType": "address",
          "name": "",
          "type": "address"
        }
      ],
      "stateMutability": "view",
      "type": "function"
    },
    {
      "inputs": [
        {
          "internalType": "uint256",
          "name": "_amount",
          "type": "uint256"
        }
      ],
      "name": "unstakeEsMMY",
      "outputs": [],
      "stateMutability": "nonpayable",
      "type": "function"
    },
    {
      "inputs": [],
      "name": "upgradeStatus",
      "outputs": [
        {
          "internalType": "bool",
          "name": "",
          "type": "bool"
        }
      ],
      "stateMutability": "view",
      "type": "function"
    },
    {
      "inputs": [
        {
          "internalType": "address",
          "name": "newImplementation",
          "type": "address"
        }
      ],
      "name": "upgradeTo",
      "outputs": [],
      "stateMutability": "nonpayable",
      "type": "function"
    },
    {
      "inputs": [
        {
          "internalType": "address",
          "name": "newImplementation",
          "type": "address"
        },
        {
          "internalType": "bytes",
          "name": "data",
          "type": "bytes"
        }
      ],
      "name": "upgradeToAndCall",
      "outputs": [],
      "stateMutability": "payable",
      "type": "function"
    },
    {
      "inputs": [
        {
          "internalType": "address",
          "name": "_user",
          "type": "address"
        },
        {
          "internalType": "address",
          "name": "_token",
          "type": "address"
        },
        {
          "internalType": "uint256",
          "name": "_full_amout",
          "type": "uint256"
        },
        {
          "internalType": "uint256",
          "name": "_deducted_amount",
          "type": "uint256"
        },
        {
          "internalType": "uint256",
          "name": "_fees",
          "type": "uint256"
        }
      ],
      "name": "withdraw",
      "outputs": [],
      "stateMutability": "nonpayable",
      "type": "function"
    },
    {
      "inputs": [],
      "name": "withdrawMLPVault",
      "outputs": [],
      "stateMutability": "nonpayable",
      "type": "function"
    },
    {
      "inputs": [],
      "name": "withdrawMMYVault",
      "outputs": [],
      "stateMutability": "nonpayable",
      "type": "function"
    },
    {
      "stateMutability": "payable",
      "type": "receive"
    }
  ],
  "bytecode": "0x60a06040523060805234801561001457600080fd5b50608051612ac561004c60003960008181610aa801528181610ae801528181610f6301528181610fa3015261101b0152612ac56000f3fe60806040526004361061020e5760003560e01c806301d3bd151461021757806301ffc9a714610237578063024a8ec61461026c57806306370ffc146102995780631ddbddd6146102b9578063248a9ca3146102d95780632f2ff15d1461030757806331d99a641461032757806336568abe146103475780633659cfe61461036757806340839f6a1461038757806343619fd7146103a757806347e7ef24146103bc578063488b3e2f146103dc578063494e63d9146103f157806349a73981146104135780634db860a2146104345780634f1ef2861461045657806352d1902d14610469578063535397321461047e5780635e037de61461049e57806361d027b3146104be5780636465f04a146104de57806376234759146104fe57806376ca2b8b1461051e5780637afa9e9c1461053e5780638f9a372d1461056057806391d14854146105805780639d6dba52146105a0578063a1e3379d146105c1578063a217fddf146105e1578063a7347a84146105f6578063af72a4e81461060b578063b88a802f1461062b578063bd54244714610640578063cb284d4714610660578063cc50c39114610680578063d4d543c5146106a0578063d547741f146106ba578063d701f523146106da578063d864ed9a146106fa578063d9c905b81461071a578063e47b93d914610730578063f72c0d8b14610751578063fc5b5fda14610773578063fd800d3e1461079357005b3661021557005b005b34801561022357600080fd5b50610215610232366004612420565b6107b4565b34801561024357600080fd5b5061025761025236600461243b565b61081a565b60405190151581526020015b60405180910390f35b34801561027857600080fd5b5060fe5461028c906001600160a01b031681565b6040516102639190612465565b3480156102a557600080fd5b506102156102b4366004612420565b610851565b3480156102c557600080fd5b506102156102d4366004612420565b6108ae565b3480156102e557600080fd5b506102f96102f4366004612479565b6109be565b604051908152602001610263565b34801561031357600080fd5b50610215610322366004612492565b6109d3565b34801561033357600080fd5b506102156103423660046124cc565b6109f4565b34801561035357600080fd5b50610215610362366004612492565b610a1f565b34801561037357600080fd5b50610215610382366004612420565b610a9d565b34801561039357600080fd5b506102156103a2366004612479565b610b66565b3480156103b357600080fd5b50610215610bd8565b3480156103c857600080fd5b506102156103d73660046124e9565b610c47565b3480156103e857600080fd5b50610215610d02565b3480156103fd57600080fd5b506101035461025790600160a01b900460ff1681565b34801561041f57600080fd5b506101005461028c906001600160a01b031681565b34801561044057600080fd5b50610449610d55565b6040516102639190612513565b61021561046436600461256d565b610f58565b34801561047557600080fd5b506102f961100e565b34801561048a57600080fd5b50610215610499366004612420565b6110bc565b3480156104aa57600080fd5b506102156104b936600461262e565b611119565b3480156104ca57600080fd5b5060ff5461028c906001600160a01b031681565b3480156104ea57600080fd5b506102156104f9366004612657565b611124565b34801561050a57600080fd5b50610215610519366004612693565b61128c565b34801561052a57600080fd5b5060fd5461028c906001600160a01b031681565b34801561054a57600080fd5b506102f96000805160206129e983398151915281565b34801561056c57600080fd5b5061021561057b366004612420565b611378565b34801561058c57600080fd5b5061025761059b366004612492565b6113ce565b3480156105ac57600080fd5b506101035461028c906001600160a01b031681565b3480156105cd57600080fd5b506102156105dc366004612479565b6113f9565b3480156105ed57600080fd5b506102f9600081565b34801561060257600080fd5b5061021561143e565b34801561061757600080fd5b50610215610626366004612479565b6114c7565b34801561063757600080fd5b50610215611506565b34801561064c57600080fd5b5061021561065b366004612420565b61156c565b34801561066c57600080fd5b5061021561067b366004612479565b611618565b34801561068c57600080fd5b5061021561069b366004612420565b611657565b3480156106ac57600080fd5b5060fb546102579060ff1681565b3480156106c657600080fd5b506102156106d5366004612492565b6116b4565b3480156106e657600080fd5b506102156106f53660046124cc565b6116d0565b34801561070657600080fd5b50610215610715366004612479565b6116ef565b34801561072657600080fd5b506102f960fc5481565b34801561073c57600080fd5b506101025461028c906001600160a01b031681565b34801561075d57600080fd5b506102f9600080516020612a2983398151915281565b34801561077f57600080fd5b5061021561078e3660046126e0565b61172e565b34801561079f57600080fd5b506101015461028c906001600160a01b031681565b60006107bf816119c4565b6107d1826001600160a01b03166119ce565b6107f65760405162461bcd60e51b81526004016107ed90612749565b60405180910390fd5b5061010080546001600160a01b0319166001600160a01b0392909216919091179055565b60006001600160e01b03198216637965db0b60e01b148061084b57506301ffc9a760e01b6001600160e01b03198316145b92915050565b600061085c816119c4565b61086e826001600160a01b03166119ce565b61088a5760405162461bcd60e51b81526004016107ed90612749565b5061010180546001600160a01b0319166001600160a01b0392909216919091179055565b60006108b9816119c4565b6108cb826001600160a01b03166119ce565b61092a5760405162461bcd60e51b815260206004820152602a60248201527f4d4c502041646170746572203a2048616e646c65722041646472657373204e6f6044820152691d0818dbdb9d1c9858dd60b21b60648201526084016107ed565b60fd5461094f906000805160206129e9833981519152906001600160a01b03166119dd565b6109676000805160206129e983398151915283611a44565b60fd80546001600160a01b0319166001600160a01b0384161790556040517f58caa9895063fc33d67854b32ed152147ad3a370ebf6f9f9c8b538bc039a87b2906109b2908490612465565b60405180910390a15050565b60009081526065602052604090206001015490565b6109dc826109be565b6109e5816119c4565b6109ef8383611a44565b505050565b60006109ff816119c4565b506101038054911515600160a01b0260ff60a01b19909216919091179055565b6001600160a01b0381163314610a8f5760405162461bcd60e51b815260206004820152602f60248201527f416363657373436f6e74726f6c3a2063616e206f6e6c792072656e6f756e636560448201526e103937b632b9903337b91039b2b63360891b60648201526084016107ed565b610a9982826119dd565b5050565b306001600160a01b037f0000000000000000000000000000000000000000000000000000000000000000161415610ae65760405162461bcd60e51b81526004016107ed9061278b565b7f00000000000000000000000000000000000000000000000000000000000000006001600160a01b0316610b18611aca565b6001600160a01b031614610b3e5760405162461bcd60e51b81526004016107ed906127c5565b610b4781611ae6565b60408051600080825260208201909252610b6391839190611b5d565b50565b6000610b71816119c4565b6101025460405163b6b55f2560e01b8152600481018490526001600160a01b0390911690819063b6b55f25906024015b600060405180830381600087803b158015610bbb57600080fd5b505af1158015610bcf573d6000803e3d6000fd5b50505050505050565b6000610be3816119c4565b6101035460408051633ccfd60b60e01b815290516001600160a01b03909216918291633ccfd60b91600480830192600092919082900301818387803b158015610c2b57600080fd5b505af1158015610c3f573d6000803e3d6000fd5b505050505050565b61010354600160a01b900460ff1615610cce576101005460405163185b800160e11b81526001600160a01b039091169081906330b7000290610c9a906001908190819081908190819081906004016127ff565b600060405180830381600087803b158015610cb457600080fd5b505af1158015610cc8573d6000803e3d6000fd5b50505050505b6000805160206129e9833981519152610ce6816119c4565b8160fc6000828254610cf8919061284d565b9091555050505050565b6000610d0d816119c4565b6101025460408051633ccfd60b60e01b815290516001600160a01b03909216918291633ccfd60b91600480830192600092919082900301818387803b158015610c2b57600080fd5b6101015460408051600480825260a082019092526060926001600160a01b03169160009190602082016080803683370190505090504781600081518110610d9e57610d9e612865565b602090810291909101015260fe546040516370a0823160e01b81526001600160a01b03909116906370a0823190610dd9903090600401612465565b602060405180830381865afa158015610df6573d6000803e3d6000fd5b505050506040513d601f19601f82011682018060405250810190610e1a919061287b565b81600181518110610e2d57610e2d612865565b60209081029190910101526040516370a0823160e01b81526001600160a01b038316906370a0823190610e64903090600401612465565b6020604051808303816000875af1158015610e83573d6000803e3d6000fd5b505050506040513d601f19601f82011682018060405250810190610ea7919061287b565b81600281518110610eba57610eba612865565b6020908102919091010152604051636021726760e01b81526001600160a01b03831690636021726790610ef1903090600401612465565b6020604051808303816000875af1158015610f10573d6000803e3d6000fd5b505050506040513d601f19601f82011682018060405250810190610f34919061287b565b81600381518110610f4757610f47612865565b602090810291909101015292915050565b306001600160a01b037f0000000000000000000000000000000000000000000000000000000000000000161415610fa15760405162461bcd60e51b81526004016107ed9061278b565b7f00000000000000000000000000000000000000000000000000000000000000006001600160a01b0316610fd3611aca565b6001600160a01b031614610ff95760405162461bcd60e51b81526004016107ed906127c5565b61100282611ae6565b610a9982826001611b5d565b6000306001600160a01b037f000000000000000000000000000000000000000000000000000000000000000016146110a95760405162461bcd60e51b815260206004820152603860248201527f555550535570677261646561626c653a206d757374206e6f742062652063616c6044820152771b1959081d1a1c9bdd59da0819195b1959d85d1958d85b1b60421b60648201526084016107ed565b50600080516020612a4983398151915290565b60006110c7816119c4565b6110d9826001600160a01b03166119ce565b6110f55760405162461bcd60e51b81526004016107ed90612749565b5061010380546001600160a01b0319166001600160a01b0392909216919091179055565b6000610a99816119c4565b600061112f816119c4565b60fe546001600160a01b03858116911614156112255760fc5460fe546040516370a0823160e01b8152600092916001600160a01b0316906370a082319061117a903090600401612465565b602060405180830381865afa158015611197573d6000803e3d6000fd5b505050506040513d601f19601f820116820180604052508101906111bb919061287b565b6111c59190612894565b9050808311156112235760405162461bcd60e51b8152602060048201526024808201527f41646170746572203a2043616e6e6f7420776974686472617720757365722066604482015263756e647360e01b60648201526084016107ed565b505b6112396001600160a01b0385168484611cc8565b836001600160a01b0316836001600160a01b03167f84f3859b7a4c4c1b17f558b22446c3394e48c551005072107bbbc4602235d5e78460405161127e91815260200190565b60405180910390a350505050565b61010354600160a01b900460ff1615611313576101005460405163185b800160e11b81526001600160a01b039091169081906330b70002906112df906001908190819081908190819081906004016127ff565b600060405180830381600087803b1580156112f957600080fd5b505af115801561130d573d6000803e3d6000fd5b50505050505b6000805160206129e983398151915261132b816119c4565b61133f6001600160a01b0386168785611cc8565b60ff54611359906001600160a01b03878116911684611cc8565b8360fc600082825461136b9190612894565b9091555050505050505050565b6000611383816119c4565b60ff80546001600160a01b0319166001600160a01b0384161790556040517f9718b5244d3f4d64362bafb32dbe20bedaaca6ba196703cbd27f8256959f2786906109b2908490612465565b60009182526065602090815260408084206001600160a01b0393909316845291905290205460ff1690565b6000611404816119c4565b60ff546040516001600160a01b039091169083156108fc029084906000818181858888f193505050501580156109ef573d6000803e3d6000fd5b61010354600160a01b900460ff16156114c5576101005460405163185b800160e11b81526001600160a01b039091169081906330b7000290611491906001908190819081908190819081906004016127ff565b600060405180830381600087803b1580156114ab57600080fd5b505af11580156114bf573d6000803e3d6000fd5b50505050505b565b60006114d2816119c4565b610100546040516364f6446760e01b8152600481018490526001600160a01b039091169081906364f6446790602401610ba1565b6000611511816119c4565b6101005460405163185b800160e11b81526001600160a01b039091169081906330b700029061155290600190600090829082908190839081906004016127ff565b600060405180830381600087803b158015610c2b57600080fd5b6000611577816119c4565b6101005460405163ef9aacfd60e01b81526001600160a01b0390911690819063ef9aacfd906115aa908690600401612465565b600060405180830381600087803b1580156115c457600080fd5b505af11580156115d8573d6000803e3d6000fd5b505050507f16c1865e5bcabdb14150422ddf499db481c815467d916f54053c66dce7c797318360405161160b9190612465565b60405180910390a1505050565b6000611623816119c4565b61010054604051633be3166560e21b8152600481018490526001600160a01b0390911690819063ef8c599490602401610ba1565b6000611662816119c4565b611674826001600160a01b03166119ce565b6116905760405162461bcd60e51b81526004016107ed90612749565b5061010280546001600160a01b0319166001600160a01b0392909216919091179055565b6116bd826109be565b6116c6816119c4565b6109ef83836119dd565b60006116db816119c4565b5060fb805460ff1916911515919091179055565b60006116fa816119c4565b6101035460405163b6b55f2560e01b8152600481018490526001600160a01b0390911690819063b6b55f2590602401610ba1565b600054610100900460ff161580801561174e5750600054600160ff909116105b8061176f575061175d306119ce565b15801561176f575060005460ff166001145b6117d25760405162461bcd60e51b815260206004820152602e60248201527f496e697469616c697a61626c653a20636f6e747261637420697320616c72656160448201526d191e481a5b9a5d1a585b1a5e995960921b60648201526084016107ed565b6000805460ff1916600117905580156117f5576000805461ff0019166101001790555b6117fd611d1a565b611805611d1a565b611817856001600160a01b03166119ce565b61186e5760405162461bcd60e51b815260206004820152602260248201527f4d4c502041646170746572203a2048616e646c6572204e6f7420636f6e74726160448201526118dd60f21b60648201526084016107ed565b611879600084611a44565b611891600080516020612a2983398151915284611a44565b6118a96000805160206129e983398151915286611a44565b60ff80546001600160a01b038089166001600160a01b03199283161790925560fd805488841690831617905560fe80549287169282169290921790915561010080548216737b9e962dd8aed0db9a1d8a2d7a962ad8b871ce4f1790556101018054821673e41c6c006de9147fc4c84b20cdfbfc679667343f1790556101028054909116732a3e489f713ab6f652af930555b5bb3422711ac11790556101038054831515600160a01b026001600160a81b03199091161773a1a65d3639a1efbfb18c82003330a4b1fb620c5a1790558015610c3f576000805461ff0019169055604051600181527f7f26b83ff96e1f2b6a682f133852f6798a09c465da95921460cefb38474024989060200160405180910390a1505050505050565b610b638133611d85565b6001600160a01b03163b151590565b6119e782826113ce565b15610a995760008281526065602090815260408083206001600160a01b0385168085529252808320805460ff1916905551339285917ff6391f5c32d9c69d2a47ea670b442974b53935d1edc7fd64eb21e047a839171b9190a45050565b611a4e82826113ce565b610a995760008281526065602090815260408083206001600160a01b03851684529091529020805460ff19166001179055611a863390565b6001600160a01b0316816001600160a01b0316837f2f8788117e7eff1d82e926ec794901d17c78024a50270940304540a733656f0d60405160405180910390a45050565b600080516020612a49833981519152546001600160a01b031690565b600080516020612a29833981519152611afe816119c4565b60fb5460ff16611b4f5760405162461bcd60e51b815260206004820152601c60248201527b12185b991b195c8e88155c19dc985919481b9bdd08185b1b1bddd95960221b60448201526064016107ed565b505060fb805460ff19169055565b7f4910fdfa16fed3260ed0e7147f7cc6da11a60208b5b9406d12a635614ffd91435460ff1615611b90576109ef83611dde565b826001600160a01b03166352d1902d6040518163ffffffff1660e01b8152600401602060405180830381865afa925050508015611bea575060408051601f3d908101601f19168201909252611be79181019061287b565b60015b611c4d5760405162461bcd60e51b815260206004820152602e60248201527f45524331393637557067726164653a206e657720696d706c656d656e7461746960448201526d6f6e206973206e6f74205555505360901b60648201526084016107ed565b600080516020612a498339815191528114611cbc5760405162461bcd60e51b815260206004820152602960248201527f45524331393637557067726164653a20756e737570706f727465642070726f786044820152681a58589b195555525160ba1b60648201526084016107ed565b506109ef838383611e78565b604080516001600160a01b038416602482015260448082018490528251808303909101815260649091019091526020810180516001600160e01b031663a9059cbb60e01b1790526109ef908490611ea3565b600054610100900460ff166114c55760405162461bcd60e51b815260206004820152602b60248201527f496e697469616c697a61626c653a20636f6e7472616374206973206e6f74206960448201526a6e697469616c697a696e6760a81b60648201526084016107ed565b611d8f82826113ce565b610a9957611d9c81611f75565b611da7836020611f87565b604051602001611db89291906128d7565b60408051601f198184030181529082905262461bcd60e51b82526107ed91600401612946565b611de7816119ce565b611e495760405162461bcd60e51b815260206004820152602d60248201527f455243313936373a206e657720696d706c656d656e746174696f6e206973206e60448201526c1bdd08184818dbdb9d1c9858dd609a1b60648201526084016107ed565b600080516020612a4983398151915280546001600160a01b0319166001600160a01b0392909216919091179055565b611e8183612129565b600082511180611e8e5750805b156109ef57611e9d8383612169565b50505050565b6000611ef8826040518060400160405280602081526020017f5361666545524332303a206c6f772d6c6576656c2063616c6c206661696c6564815250856001600160a01b031661225b9092919063ffffffff16565b8051909150156109ef5780806020019051810190611f169190612979565b6109ef5760405162461bcd60e51b815260206004820152602a60248201527f5361666545524332303a204552433230206f7065726174696f6e20646964206e6044820152691bdd081cdd58d8d9595960b21b60648201526084016107ed565b606061084b6001600160a01b03831660145b60606000611f96836002612996565b611fa190600261284d565b6001600160401b03811115611fb857611fb8612557565b6040519080825280601f01601f191660200182016040528015611fe2576020820181803683370190505b509050600360fc1b81600081518110611ffd57611ffd612865565b60200101906001600160f81b031916908160001a905350600f60fb1b8160018151811061202c5761202c612865565b60200101906001600160f81b031916908160001a9053506000612050846002612996565b61205b90600161284d565b90505b60018111156120d3576f181899199a1a9b1b9c1cb0b131b232b360811b85600f166010811061208f5761208f612865565b1a60f81b8282815181106120a5576120a5612865565b60200101906001600160f81b031916908160001a90535060049490941c936120cc816129b5565b905061205e565b5083156121225760405162461bcd60e51b815260206004820181905260248201527f537472696e67733a20686578206c656e67746820696e73756666696369656e7460448201526064016107ed565b9392505050565b61213281611dde565b6040516001600160a01b038216907fbc7cd75a20ee27fd9adebab32041f755214dbc6bffa90cc0225b39da2e5c2d3b90600090a250565b6060612174836119ce565b6121cf5760405162461bcd60e51b815260206004820152602660248201527f416464726573733a2064656c65676174652063616c6c20746f206e6f6e2d636f6044820152651b9d1c9858dd60d21b60648201526084016107ed565b600080846001600160a01b0316846040516121ea91906129cc565b600060405180830381855af49150503d8060008114612225576040519150601f19603f3d011682016040523d82523d6000602084013e61222a565b606091505b50915091506122528282604051806060016040528060278152602001612a6960279139612272565b95945050505050565b606061226a848460008561228b565b949350505050565b60608315612281575081612122565b6121228383612366565b6060824710156122ec5760405162461bcd60e51b815260206004820152602660248201527f416464726573733a20696e73756666696369656e742062616c616e636520666f6044820152651c8818d85b1b60d21b60648201526084016107ed565b600080866001600160a01b0316858760405161230891906129cc565b60006040518083038185875af1925050503d8060008114612345576040519150601f19603f3d011682016040523d82523d6000602084013e61234a565b606091505b509150915061235b87838387612390565b979650505050505050565b8151156123765781518083602001fd5b8060405162461bcd60e51b81526004016107ed9190612946565b606083156123fa5782516123f3576123a7856119ce565b6123f35760405162461bcd60e51b815260206004820152601d60248201527f416464726573733a2063616c6c20746f206e6f6e2d636f6e747261637400000060448201526064016107ed565b508161226a565b61226a8383612366565b80356001600160a01b038116811461241b57600080fd5b919050565b60006020828403121561243257600080fd5b61212282612404565b60006020828403121561244d57600080fd5b81356001600160e01b03198116811461212257600080fd5b6001600160a01b0391909116815260200190565b60006020828403121561248b57600080fd5b5035919050565b600080604083850312156124a557600080fd5b823591506124b560208401612404565b90509250929050565b8015158114610b6357600080fd5b6000602082840312156124de57600080fd5b8135612122816124be565b600080604083850312156124fc57600080fd5b61250583612404565b946020939093013593505050565b6020808252825182820181905260009190848201906040850190845b8181101561254b5783518352928401929184019160010161252f565b50909695505050505050565b634e487b7160e01b600052604160045260246000fd5b6000806040838503121561258057600080fd5b61258983612404565b915060208301356001600160401b03808211156125a557600080fd5b818501915085601f8301126125b957600080fd5b8135818111156125cb576125cb612557565b604051601f8201601f19908116603f011681019083821181831017156125f3576125f3612557565b8160405282815288602084870101111561260c57600080fd5b8260208601602083013760006020848301015280955050505050509250929050565b60006020828403121561264057600080fd5b81356001600160401b038116811461212257600080fd5b60008060006060848603121561266c57600080fd5b61267584612404565b925061268360208501612404565b9150604084013590509250925092565b600080600080600060a086880312156126ab57600080fd5b6126b486612404565b94506126c260208701612404565b94979496505050506040830135926060810135926080909101359150565b600080600080600060a086880312156126f857600080fd5b61270186612404565b945061270f60208701612404565b935061271d60408701612404565b925061272b60608701612404565b9150608086013561273b816124be565b809150509295509295909350565b60208082526022908201527f4d4c502041646170746572203a2041646472657373204e6f7420636f6e74726160408201526118dd60f21b606082015260800190565b6020808252602c90820152600080516020612a0983398151915260408201526b19195b1959d85d1958d85b1b60a21b606082015260800190565b6020808252602c90820152600080516020612a0983398151915260408201526b6163746976652070726f787960a01b606082015260800190565b961515875294151560208701529215156040860152901515606085015215156080840152151560a0830152151560c082015260e00190565b634e487b7160e01b600052601160045260246000fd5b6000821982111561286057612860612837565b500190565b634e487b7160e01b600052603260045260246000fd5b60006020828403121561288d57600080fd5b5051919050565b6000828210156128a6576128a6612837565b500390565b60005b838110156128c65781810151838201526020016128ae565b83811115611e9d5750506000910152565b76020b1b1b2b9b9a1b7b73a3937b61d1030b1b1b7bab73a1604d1b8152600083516129098160178501602088016128ab565b7001034b99036b4b9b9b4b733903937b6329607d1b601791840191820152835161293a8160288401602088016128ab565b01602801949350505050565b60208152600082518060208401526129658160408501602087016128ab565b601f01601f19169190910160400192915050565b60006020828403121561298b57600080fd5b8151612122816124be565b60008160001904831182151516156129b0576129b0612837565b500290565b6000816129c4576129c4612837565b506000190190565b600082516129de8184602087016128ab565b919091019291505056fe8ee6ed50dc250dbccf4d86bd88d4956ab55c7de37d1fed5508924b70da11fe8b46756e6374696f6e206d7573742062652063616c6c6564207468726f75676820189ab7a9244df0848122154315af71fe140f3db0fe014031783b0946b8c9d2e3360894a13ba1a3210667c828492db98dca3e2076cc3735a920a3ca505d382bbc416464726573733a206c6f772d6c6576656c2064656c65676174652063616c6c206661696c6564a264697066735822122077f8b63763057a15cda1b30d49df6aad864458ff14f2b2367c1a5085988211dd64736f6c634300080b0033",
  "linkReferences": {},
  "deployedLinkReferences": {}
}