{
  "_format": "hh-sol-artifact-1",
  "contractName": "MlpAdapter",
  "sourceName": "contracts/adapters/MlpAdapter.sol",
  "abi": [
    {
      "anonymous": false,
      "inputs": [
        {
          "indexed": false,
          "internalType": "address",
          "name": "previousAdmin",
          "type": "address"
        },
        {
          "indexed": false,
          "internalType": "address",
          "name": "newAdmin",
          "type": "address"
        }
      ],
      "name": "AdminChanged",
      "type": "event"
    },
    {
      "anonymous": false,
      "inputs": [
        {
          "indexed": true,
          "internalType": "address",
          "name": "beacon",
          "type": "address"
        }
      ],
      "name": "BeaconUpgraded",
      "type": "event"
    },
    {
      "anonymous": false,
      "inputs": [
        {
          "indexed": false,
          "internalType": "uint8",
          "name": "version",
          "type": "uint8"
        }
      ],
      "name": "Initialized",
      "type": "event"
    },
    {
      "anonymous": false,
      "inputs": [
        {
          "indexed": true,
          "internalType": "bytes32",
          "name": "role",
          "type": "bytes32"
        },
        {
          "indexed": true,
          "internalType": "bytes32",
          "name": "previousAdminRole",
          "type": "bytes32"
        },
        {
          "indexed": true,
          "internalType": "bytes32",
          "name": "newAdminRole",
          "type": "bytes32"
        }
      ],
      "name": "RoleAdminChanged",
      "type": "event"
    },
    {
      "anonymous": false,
      "inputs": [
        {
          "indexed": true,
          "internalType": "bytes32",
          "name": "role",
          "type": "bytes32"
        },
        {
          "indexed": true,
          "internalType": "address",
          "name": "account",
          "type": "address"
        },
        {
          "indexed": true,
          "internalType": "address",
          "name": "sender",
          "type": "address"
        }
      ],
      "name": "RoleGranted",
      "type": "event"
    },
    {
      "anonymous": false,
      "inputs": [
        {
          "indexed": true,
          "internalType": "bytes32",
          "name": "role",
          "type": "bytes32"
        },
        {
          "indexed": true,
          "internalType": "address",
          "name": "account",
          "type": "address"
        },
        {
          "indexed": true,
          "internalType": "address",
          "name": "sender",
          "type": "address"
        }
      ],
      "name": "RoleRevoked",
      "type": "event"
    },
    {
      "anonymous": false,
      "inputs": [
        {
          "indexed": true,
          "internalType": "address",
          "name": "implementation",
          "type": "address"
        }
      ],
      "name": "Upgraded",
      "type": "event"
    },
    {
      "inputs": [],
      "name": "DEFAULT_ADMIN_ROLE",
      "outputs": [
        {
          "internalType": "bytes32",
          "name": "",
          "type": "bytes32"
        }
      ],
      "stateMutability": "view",
      "type": "function"
    },
    {
      "inputs": [],
      "name": "HANDLER_ROLE",
      "outputs": [
        {
          "internalType": "bytes32",
          "name": "",
          "type": "bytes32"
        }
      ],
      "stateMutability": "view",
      "type": "function"
    },
    {
      "inputs": [],
      "name": "UPGRADER_ROLE",
      "outputs": [
        {
          "internalType": "bytes32",
          "name": "",
          "type": "bytes32"
        }
      ],
      "stateMutability": "view",
      "type": "function"
    },
    {
      "inputs": [
        {
          "internalType": "bool",
          "name": "_status",
          "type": "bool"
        }
      ],
      "name": "changeUpgradeStatus",
      "outputs": [],
      "stateMutability": "nonpayable",
      "type": "function"
    },
    {
      "inputs": [
        {
          "internalType": "address",
          "name": "_token",
          "type": "address"
        },
        {
          "internalType": "uint256",
          "name": "_amount",
          "type": "uint256"
        }
      ],
      "name": "deposit",
      "outputs": [],
      "stateMutability": "nonpayable",
      "type": "function"
    },
    {
      "inputs": [],
      "name": "getAdapterAmount",
      "outputs": [
        {
          "internalType": "uint256",
          "name": "",
          "type": "uint256"
        }
      ],
      "stateMutability": "view",
      "type": "function"
    },
    {
      "inputs": [],
      "name": "getReward",
      "outputs": [],
      "stateMutability": "nonpayable",
      "type": "function"
    },
    {
      "inputs": [
        {
          "internalType": "bytes32",
          "name": "role",
          "type": "bytes32"
        }
      ],
      "name": "getRoleAdmin",
      "outputs": [
        {
          "internalType": "bytes32",
          "name": "",
          "type": "bytes32"
        }
      ],
      "stateMutability": "view",
      "type": "function"
    },
    {
      "inputs": [
        {
          "internalType": "bytes32",
          "name": "role",
          "type": "bytes32"
        },
        {
          "internalType": "address",
          "name": "account",
          "type": "address"
        }
      ],
      "name": "grantRole",
      "outputs": [],
      "stateMutability": "nonpayable",
      "type": "function"
    },
    {
      "inputs": [
        {
          "internalType": "bytes32",
          "name": "role",
          "type": "bytes32"
        },
        {
          "internalType": "address",
          "name": "account",
          "type": "address"
        }
      ],
      "name": "hasRole",
      "outputs": [
        {
          "internalType": "bool",
          "name": "",
          "type": "bool"
        }
      ],
      "stateMutability": "view",
      "type": "function"
    },
    {
      "inputs": [
        {
          "internalType": "address",
          "name": "_handlerAddress",
          "type": "address"
        },
        {
          "internalType": "address",
          "name": "_mlp_address",
          "type": "address"
        },
        {
          "internalType": "address",
          "name": "_reward_token",
          "type": "address"
        },
        {
          "internalType": "address",
          "name": "_multiSigWallet",
          "type": "address"
        }
      ],
      "name": "initialize",
      "outputs": [],
      "stateMutability": "nonpayable",
      "type": "function"
    },
    {
      "inputs": [],
      "name": "liquidity_handler",
      "outputs": [
        {
          "internalType": "address",
          "name": "",
          "type": "address"
        }
      ],
      "stateMutability": "view",
      "type": "function"
    },
    {
      "inputs": [],
      "name": "mlp_address",
      "outputs": [
        {
          "internalType": "address",
          "name": "",
          "type": "address"
        }
      ],
      "stateMutability": "view",
      "type": "function"
    },
    {
      "inputs": [],
      "name": "proxiableUUID",
      "outputs": [
        {
          "internalType": "bytes32",
          "name": "",
          "type": "bytes32"
        }
      ],
      "stateMutability": "view",
      "type": "function"
    },
    {
      "inputs": [
        {
          "internalType": "address",
          "name": "_address",
          "type": "address"
        },
        {
          "internalType": "address",
          "name": "_to",
          "type": "address"
        },
        {
          "internalType": "uint256",
          "name": "_amount",
          "type": "uint256"
        }
      ],
      "name": "removeTokenByAddress",
      "outputs": [],
      "stateMutability": "nonpayable",
      "type": "function"
    },
    {
      "inputs": [
        {
          "internalType": "bytes32",
          "name": "role",
          "type": "bytes32"
        },
        {
          "internalType": "address",
          "name": "account",
          "type": "address"
        }
      ],
      "name": "renounceRole",
      "outputs": [],
      "stateMutability": "nonpayable",
      "type": "function"
    },
    {
      "inputs": [
        {
          "internalType": "bytes32",
          "name": "role",
          "type": "bytes32"
        },
        {
          "internalType": "address",
          "name": "account",
          "type": "address"
        }
      ],
      "name": "revokeRole",
      "outputs": [],
      "stateMutability": "nonpayable",
      "type": "function"
    },
    {
      "inputs": [],
      "name": "reward_token",
      "outputs": [
        {
          "internalType": "address",
          "name": "",
          "type": "address"
        }
      ],
      "stateMutability": "view",
      "type": "function"
    },
    {
      "inputs": [
        {
          "internalType": "uint64",
          "name": "_newSlippage",
          "type": "uint64"
        }
      ],
      "name": "setSlippage",
      "outputs": [],
      "stateMutability": "nonpayable",
      "type": "function"
    },
    {
      "inputs": [
        {
          "internalType": "address",
          "name": "_newWallet",
          "type": "address"
        }
      ],
      "name": "setWallet",
      "outputs": [],
      "stateMutability": "nonpayable",
      "type": "function"
    },
    {
      "inputs": [
        {
          "internalType": "bytes4",
          "name": "interfaceId",
          "type": "bytes4"
        }
      ],
      "name": "supportsInterface",
      "outputs": [
        {
          "internalType": "bool",
          "name": "",
          "type": "bool"
        }
      ],
      "stateMutability": "view",
      "type": "function"
    },
    {
      "inputs": [],
      "name": "treasury",
      "outputs": [
        {
          "internalType": "address",
          "name": "",
          "type": "address"
        }
      ],
      "stateMutability": "view",
      "type": "function"
    },
    {
      "inputs": [],
      "name": "upgradeStatus",
      "outputs": [
        {
          "internalType": "bool",
          "name": "",
          "type": "bool"
        }
      ],
      "stateMutability": "view",
      "type": "function"
    },
    {
      "inputs": [
        {
          "internalType": "address",
          "name": "newImplementation",
          "type": "address"
        }
      ],
      "name": "upgradeTo",
      "outputs": [],
      "stateMutability": "nonpayable",
      "type": "function"
    },
    {
      "inputs": [
        {
          "internalType": "address",
          "name": "newImplementation",
          "type": "address"
        },
        {
          "internalType": "bytes",
          "name": "data",
          "type": "bytes"
        }
      ],
      "name": "upgradeToAndCall",
      "outputs": [],
      "stateMutability": "payable",
      "type": "function"
    },
    {
      "inputs": [
        {
          "internalType": "address",
          "name": "_user",
          "type": "address"
        },
        {
          "internalType": "address",
          "name": "_token",
          "type": "address"
        },
        {
          "internalType": "uint256",
          "name": "_amount",
          "type": "uint256"
        }
      ],
      "name": "withdraw",
      "outputs": [],
      "stateMutability": "nonpayable",
      "type": "function"
    }
  ],
  "bytecode": "0x60a06040523060805234801561001457600080fd5b50608051611a7c61004c60003960008181610567015281816105a7015281816106c10152818161070101526107790152611a7c6000f3fe6080604052600436106101315760003560e01c806301ffc9a714610136578063248a9ca31461016b5780632638c09e146101995780632f2ff15d146101c657806336568abe146101e85780633659cfe6146102085780633d18b9121461022857806347e7ef24146102375780634db860a2146102575780634f1ef2861461026c57806352d1902d1461027f5780635e037de61461029457806361d027b3146102b45780636465f04a146102d457806376ca2b8b146102f45780637afa9e9c1461031957806391d148541461033b5780639c3ee9801461035b578063a217fddf1461037b578063d4d543c514610390578063d547741f146103aa578063d701f523146103ca578063d9caed12146103ea578063deaa59df1461040a578063f72c0d8b1461042a578063f8c8765e1461044c575b600080fd5b34801561014257600080fd5b506101566101513660046114f2565b61046c565b60405190151581526020015b60405180910390f35b34801561017757600080fd5b5061018b61018636600461151c565b6104a3565b604051908152602001610162565b3480156101a557600080fd5b5060fd546101b9906001600160a01b031681565b6040516101629190611535565b3480156101d257600080fd5b506101e66101e1366004611565565b6104b8565b005b3480156101f457600080fd5b506101e6610203366004611565565b6104d9565b34801561021457600080fd5b506101e6610223366004611591565b61055c565b34801561023457600080fd5b50005b34801561024357600080fd5b506101e66102523660046115ac565b610627565b34801561026357600080fd5b5061018b61063f565b6101e661027a3660046115ec565b6106b6565b34801561028b57600080fd5b5061018b61076c565b3480156102a057600080fd5b506101e66102af3660046116ad565b61081a565b3480156102c057600080fd5b5060fe546101b9906001600160a01b031681565b3480156102e057600080fd5b506101e66102ef3660046116d6565b610825565b34801561030057600080fd5b5060fb546101b99061010090046001600160a01b031681565b34801561032557600080fd5b5061018b6000805160206119a083398151915281565b34801561034757600080fd5b50610156610356366004611565565b61084a565b34801561036757600080fd5b5060fc546101b9906001600160a01b031681565b34801561038757600080fd5b5061018b600081565b34801561039c57600080fd5b5060fb546101569060ff1681565b3480156103b657600080fd5b506101e66103c5366004611565565b610875565b3480156103d657600080fd5b506101e66103e5366004611720565b610891565b3480156103f657600080fd5b506101e66104053660046116d6565b6108b0565b34801561041657600080fd5b506101e6610425366004611591565b6108dc565b34801561043657600080fd5b5061018b6000805160206119e083398151915281565b34801561045857600080fd5b506101e661046736600461173d565b61090a565b60006001600160e01b03198216637965db0b60e01b148061049d57506301ffc9a760e01b6001600160e01b03198316145b92915050565b60009081526065602052604090206001015490565b6104c1826104a3565b6104ca81610ab8565b6104d48383610ac2565b505050565b6001600160a01b038116331461054e5760405162461bcd60e51b815260206004820152602f60248201527f416363657373436f6e74726f6c3a2063616e206f6e6c792072656e6f756e636560448201526e103937b632b9903337b91039b2b63360891b60648201526084015b60405180910390fd5b6105588282610b48565b5050565b306001600160a01b037f00000000000000000000000000000000000000000000000000000000000000001614156105a55760405162461bcd60e51b815260040161054590611791565b7f00000000000000000000000000000000000000000000000000000000000000006001600160a01b03166105d7610baf565b6001600160a01b0316146105fd5760405162461bcd60e51b8152600401610545906117cb565b61060681610bcb565b6040805160008082526020820190925261062291839190610c42565b50565b565b6000805160206119a08339815191526104d481610ab8565b60fc546040516370a0823160e01b81526000916001600160a01b0316906370a0823190610670903090600401611535565b602060405180830381865afa15801561068d573d6000803e3d6000fd5b505050506040513d601f19601f820116820180604052508101906106b19190611805565b905090565b306001600160a01b037f00000000000000000000000000000000000000000000000000000000000000001614156106ff5760405162461bcd60e51b815260040161054590611791565b7f00000000000000000000000000000000000000000000000000000000000000006001600160a01b0316610731610baf565b6001600160a01b0316146107575760405162461bcd60e51b8152600401610545906117cb565b61076082610bcb565b61055882826001610c42565b6000306001600160a01b037f000000000000000000000000000000000000000000000000000000000000000016146108075760405162461bcd60e51b815260206004820152603860248201527f555550535570677261646561626c653a206d757374206e6f742062652063616c6044820152771b1959081d1a1c9bdd59da0819195b1959d85d1958d85b1b60421b6064820152608401610545565b50600080516020611a0083398151915290565b600061055881610ab8565b600061083081610ab8565b6108446001600160a01b0385168484610dad565b50505050565b60009182526065602090815260408084206001600160a01b0393909316845291905290205460ff1690565b61087e826104a3565b61088781610ab8565b6104d48383610b48565b600061089c81610ab8565b5060fb805460ff1916911515919091179055565b6000805160206119a08339815191526108c881610ab8565b6108446001600160a01b0384168584610dad565b60006108e781610ab8565b5060fe80546001600160a01b0319166001600160a01b0392909216919091179055565b600054610100900460ff161580801561092a5750600054600160ff909116105b8061094b575061093930610dff565b15801561094b575060005460ff166001145b6109ae5760405162461bcd60e51b815260206004820152602e60248201527f496e697469616c697a61626c653a20636f6e747261637420697320616c72656160448201526d191e481a5b9a5d1a585b1a5e995960921b6064820152608401610545565b6000805460ff1916600117905580156109d1576000805461ff0019166101001790555b6109d9610e0e565b6109e1610e0e565b6109ec600083610ac2565b610a046000805160206119e083398151915283610ac2565b610a1c6000805160206119a083398151915286610ac2565b60fb80546001600160a01b0380881661010002610100600160a81b03199092169190911790915560fc80548683166001600160a01b03199182161790915560fd8054928616929091169190911790558015610ab1576000805461ff0019169055604051600181527f7f26b83ff96e1f2b6a682f133852f6798a09c465da95921460cefb38474024989060200160405180910390a15b5050505050565b6106228133610e79565b610acc828261084a565b6105585760008281526065602090815260408083206001600160a01b03851684529091529020805460ff19166001179055610b043390565b6001600160a01b0316816001600160a01b0316837f2f8788117e7eff1d82e926ec794901d17c78024a50270940304540a733656f0d60405160405180910390a45050565b610b52828261084a565b156105585760008281526065602090815260408083206001600160a01b0385168085529252808320805460ff1916905551339285917ff6391f5c32d9c69d2a47ea670b442974b53935d1edc7fd64eb21e047a839171b9190a45050565b600080516020611a00833981519152546001600160a01b031690565b6000805160206119e0833981519152610be381610ab8565b60fb5460ff16610c345760405162461bcd60e51b815260206004820152601c60248201527b12185b991b195c8e88155c19dc985919481b9bdd08185b1b1bddd95960221b6044820152606401610545565b505060fb805460ff19169055565b7f4910fdfa16fed3260ed0e7147f7cc6da11a60208b5b9406d12a635614ffd91435460ff1615610c75576104d483610ed2565b826001600160a01b03166352d1902d6040518163ffffffff1660e01b8152600401602060405180830381865afa925050508015610ccf575060408051601f3d908101601f19168201909252610ccc91810190611805565b60015b610d325760405162461bcd60e51b815260206004820152602e60248201527f45524331393637557067726164653a206e657720696d706c656d656e7461746960448201526d6f6e206973206e6f74205555505360901b6064820152608401610545565b600080516020611a008339815191528114610da15760405162461bcd60e51b815260206004820152602960248201527f45524331393637557067726164653a20756e737570706f727465642070726f786044820152681a58589b195555525160ba1b6064820152608401610545565b506104d4838383610f6c565b604080516001600160a01b038416602482015260448082018490528251808303909101815260649091019091526020810180516001600160e01b031663a9059cbb60e01b1790526104d4908490610f91565b6001600160a01b03163b151590565b600054610100900460ff166106255760405162461bcd60e51b815260206004820152602b60248201527f496e697469616c697a61626c653a20636f6e7472616374206973206e6f74206960448201526a6e697469616c697a696e6760a81b6064820152608401610545565b610e83828261084a565b61055857610e9081611063565b610e9b836020611075565b604051602001610eac92919061184a565b60408051601f198184030181529082905262461bcd60e51b8252610545916004016118b9565b610edb81610dff565b610f3d5760405162461bcd60e51b815260206004820152602d60248201527f455243313936373a206e657720696d706c656d656e746174696f6e206973206e60448201526c1bdd08184818dbdb9d1c9858dd609a1b6064820152608401610545565b600080516020611a0083398151915280546001600160a01b0319166001600160a01b0392909216919091179055565b610f7583611217565b600082511180610f825750805b156104d4576108448383611257565b6000610fe6826040518060400160405280602081526020017f5361666545524332303a206c6f772d6c6576656c2063616c6c206661696c6564815250856001600160a01b03166113499092919063ffffffff16565b8051909150156104d4578080602001905181019061100491906118ec565b6104d45760405162461bcd60e51b815260206004820152602a60248201527f5361666545524332303a204552433230206f7065726174696f6e20646964206e6044820152691bdd081cdd58d8d9595960b21b6064820152608401610545565b606061049d6001600160a01b03831660145b6060600061108483600261191f565b61108f90600261193e565b6001600160401b038111156110a6576110a66115d6565b6040519080825280601f01601f1916602001820160405280156110d0576020820181803683370190505b509050600360fc1b816000815181106110eb576110eb611956565b60200101906001600160f81b031916908160001a905350600f60fb1b8160018151811061111a5761111a611956565b60200101906001600160f81b031916908160001a905350600061113e84600261191f565b61114990600161193e565b90505b60018111156111c1576f181899199a1a9b1b9c1cb0b131b232b360811b85600f166010811061117d5761117d611956565b1a60f81b82828151811061119357611193611956565b60200101906001600160f81b031916908160001a90535060049490941c936111ba8161196c565b905061114c565b5083156112105760405162461bcd60e51b815260206004820181905260248201527f537472696e67733a20686578206c656e67746820696e73756666696369656e746044820152606401610545565b9392505050565b61122081610ed2565b6040516001600160a01b038216907fbc7cd75a20ee27fd9adebab32041f755214dbc6bffa90cc0225b39da2e5c2d3b90600090a250565b606061126283610dff565b6112bd5760405162461bcd60e51b815260206004820152602660248201527f416464726573733a2064656c65676174652063616c6c20746f206e6f6e2d636f6044820152651b9d1c9858dd60d21b6064820152608401610545565b600080846001600160a01b0316846040516112d89190611983565b600060405180830381855af49150503d8060008114611313576040519150601f19603f3d011682016040523d82523d6000602084013e611318565b606091505b50915091506113408282604051806060016040528060278152602001611a2060279139611360565b95945050505050565b60606113588484600085611379565b949350505050565b6060831561136f575081611210565b6112108383611454565b6060824710156113da5760405162461bcd60e51b815260206004820152602660248201527f416464726573733a20696e73756666696369656e742062616c616e636520666f6044820152651c8818d85b1b60d21b6064820152608401610545565b600080866001600160a01b031685876040516113f69190611983565b60006040518083038185875af1925050503d8060008114611433576040519150601f19603f3d011682016040523d82523d6000602084013e611438565b606091505b50915091506114498783838761147e565b979650505050505050565b8151156114645781518083602001fd5b8060405162461bcd60e51b815260040161054591906118b9565b606083156114e85782516114e15761149585610dff565b6114e15760405162461bcd60e51b815260206004820152601d60248201527f416464726573733a2063616c6c20746f206e6f6e2d636f6e74726163740000006044820152606401610545565b5081611358565b6113588383611454565b60006020828403121561150457600080fd5b81356001600160e01b03198116811461121057600080fd5b60006020828403121561152e57600080fd5b5035919050565b6001600160a01b0391909116815260200190565b80356001600160a01b038116811461156057600080fd5b919050565b6000806040838503121561157857600080fd5b8235915061158860208401611549565b90509250929050565b6000602082840312156115a357600080fd5b61121082611549565b600080604083850312156115bf57600080fd5b6115c883611549565b946020939093013593505050565b634e487b7160e01b600052604160045260246000fd5b600080604083850312156115ff57600080fd5b61160883611549565b915060208301356001600160401b038082111561162457600080fd5b818501915085601f83011261163857600080fd5b81358181111561164a5761164a6115d6565b604051601f8201601f19908116603f01168101908382118183101715611672576116726115d6565b8160405282815288602084870101111561168b57600080fd5b8260208601602083013760006020848301015280955050505050509250929050565b6000602082840312156116bf57600080fd5b81356001600160401b038116811461121057600080fd5b6000806000606084860312156116eb57600080fd5b6116f484611549565b925061170260208501611549565b9150604084013590509250925092565b801515811461062257600080fd5b60006020828403121561173257600080fd5b813561121081611712565b6000806000806080858703121561175357600080fd5b61175c85611549565b935061176a60208601611549565b925061177860408601611549565b915061178660608601611549565b905092959194509250565b6020808252602c908201526000805160206119c083398151915260408201526b19195b1959d85d1958d85b1b60a21b606082015260800190565b6020808252602c908201526000805160206119c083398151915260408201526b6163746976652070726f787960a01b606082015260800190565b60006020828403121561181757600080fd5b5051919050565b60005b83811015611839578181015183820152602001611821565b838111156108445750506000910152565b76020b1b1b2b9b9a1b7b73a3937b61d1030b1b1b7bab73a1604d1b81526000835161187c81601785016020880161181e565b7001034b99036b4b9b9b4b733903937b6329607d1b60179184019182015283516118ad81602884016020880161181e565b01602801949350505050565b60208152600082518060208401526118d881604085016020870161181e565b601f01601f19169190910160400192915050565b6000602082840312156118fe57600080fd5b815161121081611712565b634e487b7160e01b600052601160045260246000fd5b600081600019048311821515161561193957611939611909565b500290565b6000821982111561195157611951611909565b500190565b634e487b7160e01b600052603260045260246000fd5b60008161197b5761197b611909565b506000190190565b6000825161199581846020870161181e565b919091019291505056fe8ee6ed50dc250dbccf4d86bd88d4956ab55c7de37d1fed5508924b70da11fe8b46756e6374696f6e206d7573742062652063616c6c6564207468726f75676820189ab7a9244df0848122154315af71fe140f3db0fe014031783b0946b8c9d2e3360894a13ba1a3210667c828492db98dca3e2076cc3735a920a3ca505d382bbc416464726573733a206c6f772d6c6576656c2064656c65676174652063616c6c206661696c6564a264697066735822122094295ada9f45fa15801061a2a8bc6ad8c0f58565c33803f7293ac999b403fd1a64736f6c634300080b0033",
  "linkReferences": {},
  "deployedLinkReferences": {}
}