{
  "_format": "hh-sol-artifact-1",
  "contractName": "MlpAdapter",
  "sourceName": "contracts/adapters/MlpAdapter.sol",
  "abi": [
    {
      "anonymous": false,
      "inputs": [
        {
          "indexed": false,
          "internalType": "address",
          "name": "previousAdmin",
          "type": "address"
        },
        {
          "indexed": false,
          "internalType": "address",
          "name": "newAdmin",
          "type": "address"
        }
      ],
      "name": "AdminChanged",
      "type": "event"
    },
    {
      "anonymous": false,
      "inputs": [
        {
          "indexed": true,
          "internalType": "address",
          "name": "beacon",
          "type": "address"
        }
      ],
      "name": "BeaconUpgraded",
      "type": "event"
    },
    {
      "anonymous": false,
      "inputs": [
        {
          "indexed": false,
          "internalType": "uint8",
          "name": "version",
          "type": "uint8"
        }
      ],
      "name": "Initialized",
      "type": "event"
    },
    {
      "anonymous": false,
      "inputs": [
        {
          "indexed": true,
          "internalType": "bytes32",
          "name": "role",
          "type": "bytes32"
        },
        {
          "indexed": true,
          "internalType": "bytes32",
          "name": "previousAdminRole",
          "type": "bytes32"
        },
        {
          "indexed": true,
          "internalType": "bytes32",
          "name": "newAdminRole",
          "type": "bytes32"
        }
      ],
      "name": "RoleAdminChanged",
      "type": "event"
    },
    {
      "anonymous": false,
      "inputs": [
        {
          "indexed": true,
          "internalType": "bytes32",
          "name": "role",
          "type": "bytes32"
        },
        {
          "indexed": true,
          "internalType": "address",
          "name": "account",
          "type": "address"
        },
        {
          "indexed": true,
          "internalType": "address",
          "name": "sender",
          "type": "address"
        }
      ],
      "name": "RoleGranted",
      "type": "event"
    },
    {
      "anonymous": false,
      "inputs": [
        {
          "indexed": true,
          "internalType": "bytes32",
          "name": "role",
          "type": "bytes32"
        },
        {
          "indexed": true,
          "internalType": "address",
          "name": "account",
          "type": "address"
        },
        {
          "indexed": true,
          "internalType": "address",
          "name": "sender",
          "type": "address"
        }
      ],
      "name": "RoleRevoked",
      "type": "event"
    },
    {
      "anonymous": false,
      "inputs": [
        {
          "indexed": true,
          "internalType": "address",
          "name": "implementation",
          "type": "address"
        }
      ],
      "name": "Upgraded",
      "type": "event"
    },
    {
      "anonymous": false,
      "inputs": [
        {
          "indexed": false,
          "internalType": "address",
          "name": "new_handler",
          "type": "address"
        }
      ],
      "name": "newLiquidityHandler",
      "type": "event"
    },
    {
      "anonymous": false,
      "inputs": [
        {
          "indexed": false,
          "internalType": "address",
          "name": "new_treasury",
          "type": "address"
        }
      ],
      "name": "newTreasury",
      "type": "event"
    },
    {
      "anonymous": false,
      "inputs": [
        {
          "indexed": true,
          "internalType": "address",
          "name": "user",
          "type": "address"
        },
        {
          "indexed": true,
          "internalType": "address",
          "name": "token",
          "type": "address"
        },
        {
          "indexed": false,
          "internalType": "uint256",
          "name": "amount",
          "type": "uint256"
        }
      ],
      "name": "removeToken",
      "type": "event"
    },
    {
      "anonymous": false,
      "inputs": [
        {
          "indexed": false,
          "internalType": "address",
          "name": "_newAddress",
          "type": "address"
        }
      ],
      "name": "transferMummyFinanceAccount",
      "type": "event"
    },
    {
      "stateMutability": "payable",
      "type": "fallback"
    },
    {
      "inputs": [],
      "name": "DEFAULT_ADMIN_ROLE",
      "outputs": [
        {
          "internalType": "bytes32",
          "name": "",
          "type": "bytes32"
        }
      ],
      "stateMutability": "view",
      "type": "function"
    },
    {
      "inputs": [],
      "name": "HANDLER_ROLE",
      "outputs": [
        {
          "internalType": "bytes32",
          "name": "",
          "type": "bytes32"
        }
      ],
      "stateMutability": "view",
      "type": "function"
    },
    {
      "inputs": [],
      "name": "MLPVester_address",
      "outputs": [
        {
          "internalType": "address",
          "name": "",
          "type": "address"
        }
      ],
      "stateMutability": "view",
      "type": "function"
    },
    {
      "inputs": [],
      "name": "MMYVester_address",
      "outputs": [
        {
          "internalType": "address",
          "name": "",
          "type": "address"
        }
      ],
      "stateMutability": "view",
      "type": "function"
    },
    {
      "inputs": [],
      "name": "UPGRADER_ROLE",
      "outputs": [
        {
          "internalType": "bytes32",
          "name": "",
          "type": "bytes32"
        }
      ],
      "stateMutability": "view",
      "type": "function"
    },
    {
      "inputs": [
        {
          "internalType": "bool",
          "name": "_status",
          "type": "bool"
        }
      ],
      "name": "changeUpgradeStatus",
      "outputs": [],
      "stateMutability": "nonpayable",
      "type": "function"
    },
    {
      "inputs": [],
      "name": "claimReward",
      "outputs": [],
      "stateMutability": "nonpayable",
      "type": "function"
    },
    {
      "inputs": [],
      "name": "compoundRewardStatus",
      "outputs": [
        {
          "internalType": "bool",
          "name": "",
          "type": "bool"
        }
      ],
      "stateMutability": "view",
      "type": "function"
    },
    {
      "inputs": [
        {
          "internalType": "address",
          "name": "_token",
          "type": "address"
        },
        {
          "internalType": "uint256",
          "name": "_amount",
          "type": "uint256"
        }
      ],
      "name": "deposit",
      "outputs": [],
      "stateMutability": "nonpayable",
      "type": "function"
    },
    {
      "inputs": [
        {
          "internalType": "uint256",
          "name": "_amount",
          "type": "uint256"
        }
      ],
      "name": "depositMLPVault",
      "outputs": [],
      "stateMutability": "nonpayable",
      "type": "function"
    },
    {
      "inputs": [
        {
          "internalType": "uint256",
          "name": "_amount",
          "type": "uint256"
        }
      ],
      "name": "depositMMYVault",
      "outputs": [],
      "stateMutability": "nonpayable",
      "type": "function"
    },
    {
      "inputs": [],
      "name": "esMMY_address",
      "outputs": [
        {
          "internalType": "address",
          "name": "",
          "type": "address"
        }
      ],
      "stateMutability": "view",
      "type": "function"
    },
    {
      "inputs": [],
      "name": "getAdapterAmount",
      "outputs": [
        {
          "internalType": "uint256[]",
          "name": "",
          "type": "uint256[]"
        }
      ],
      "stateMutability": "nonpayable",
      "type": "function"
    },
    {
      "inputs": [
        {
          "internalType": "bytes32",
          "name": "role",
          "type": "bytes32"
        }
      ],
      "name": "getRoleAdmin",
      "outputs": [
        {
          "internalType": "bytes32",
          "name": "",
          "type": "bytes32"
        }
      ],
      "stateMutability": "view",
      "type": "function"
    },
    {
      "inputs": [
        {
          "internalType": "bytes32",
          "name": "role",
          "type": "bytes32"
        },
        {
          "internalType": "address",
          "name": "account",
          "type": "address"
        }
      ],
      "name": "grantRole",
      "outputs": [],
      "stateMutability": "nonpayable",
      "type": "function"
    },
    {
      "inputs": [
        {
          "internalType": "bytes32",
          "name": "role",
          "type": "bytes32"
        },
        {
          "internalType": "address",
          "name": "account",
          "type": "address"
        }
      ],
      "name": "hasRole",
      "outputs": [
        {
          "internalType": "bool",
          "name": "",
          "type": "bool"
        }
      ],
      "stateMutability": "view",
      "type": "function"
    },
    {
      "inputs": [
        {
          "internalType": "address",
          "name": "_treasury",
          "type": "address"
        },
        {
          "internalType": "address",
          "name": "_handlerAddress",
          "type": "address"
        },
        {
          "internalType": "address",
          "name": "_staking_token",
          "type": "address"
        },
        {
          "internalType": "address",
          "name": "_multiSigWallet",
          "type": "address"
        }
      ],
      "name": "initialize",
      "outputs": [],
      "stateMutability": "nonpayable",
      "type": "function"
    },
    {
      "inputs": [],
      "name": "liquidity_handler",
      "outputs": [
        {
          "internalType": "address",
          "name": "",
          "type": "address"
        }
      ],
      "stateMutability": "view",
      "type": "function"
    },
    {
      "inputs": [],
      "name": "manualCompound",
      "outputs": [],
      "stateMutability": "nonpayable",
      "type": "function"
    },
    {
      "inputs": [],
      "name": "proxiableUUID",
      "outputs": [
        {
          "internalType": "bytes32",
          "name": "",
          "type": "bytes32"
        }
      ],
      "stateMutability": "view",
      "type": "function"
    },
    {
      "inputs": [
        {
          "internalType": "address",
          "name": "_address",
          "type": "address"
        },
        {
          "internalType": "address",
          "name": "_to",
          "type": "address"
        },
        {
          "internalType": "uint256",
          "name": "_amount",
          "type": "uint256"
        }
      ],
      "name": "removeTokenByAddress",
      "outputs": [],
      "stateMutability": "nonpayable",
      "type": "function"
    },
    {
      "inputs": [
        {
          "internalType": "bytes32",
          "name": "role",
          "type": "bytes32"
        },
        {
          "internalType": "address",
          "name": "account",
          "type": "address"
        }
      ],
      "name": "renounceRole",
      "outputs": [],
      "stateMutability": "nonpayable",
      "type": "function"
    },
    {
      "inputs": [
        {
          "internalType": "bytes32",
          "name": "role",
          "type": "bytes32"
        },
        {
          "internalType": "address",
          "name": "account",
          "type": "address"
        }
      ],
      "name": "revokeRole",
      "outputs": [],
      "stateMutability": "nonpayable",
      "type": "function"
    },
    {
      "inputs": [],
      "name": "rewardRouter_address",
      "outputs": [
        {
          "internalType": "address",
          "name": "",
          "type": "address"
        }
      ],
      "stateMutability": "view",
      "type": "function"
    },
    {
      "inputs": [
        {
          "internalType": "bool",
          "name": "_status",
          "type": "bool"
        }
      ],
      "name": "setCompoundRewardStatus",
      "outputs": [],
      "stateMutability": "nonpayable",
      "type": "function"
    },
    {
      "inputs": [
        {
          "internalType": "address",
          "name": "_newHandler",
          "type": "address"
        }
      ],
      "name": "setLiquidityHandler",
      "outputs": [],
      "stateMutability": "nonpayable",
      "type": "function"
    },
    {
      "inputs": [
        {
          "internalType": "address",
          "name": "_address",
          "type": "address"
        }
      ],
      "name": "setMLPVesterAddress",
      "outputs": [],
      "stateMutability": "nonpayable",
      "type": "function"
    },
    {
      "inputs": [
        {
          "internalType": "address",
          "name": "_address",
          "type": "address"
        }
      ],
      "name": "setMMYVesterAddress",
      "outputs": [],
      "stateMutability": "nonpayable",
      "type": "function"
    },
    {
      "inputs": [
        {
          "internalType": "address",
          "name": "_newWallet",
          "type": "address"
        }
      ],
      "name": "setNewTreasury",
      "outputs": [],
      "stateMutability": "nonpayable",
      "type": "function"
    },
    {
      "inputs": [
        {
          "internalType": "address",
          "name": "_address",
          "type": "address"
        }
      ],
      "name": "setRewardRouterAddress",
      "outputs": [],
      "stateMutability": "nonpayable",
      "type": "function"
    },
    {
      "inputs": [
        {
          "internalType": "uint64",
          "name": "_newSlippage",
          "type": "uint64"
        }
      ],
      "name": "setSlippage",
      "outputs": [],
      "stateMutability": "nonpayable",
      "type": "function"
    },
    {
      "inputs": [
        {
          "internalType": "address",
          "name": "_address",
          "type": "address"
        }
      ],
      "name": "setesMMYAddress",
      "outputs": [],
      "stateMutability": "nonpayable",
      "type": "function"
    },
    {
      "inputs": [],
      "name": "stacking_token",
      "outputs": [
        {
          "internalType": "address",
          "name": "",
          "type": "address"
        }
      ],
      "stateMutability": "view",
      "type": "function"
    },
    {
      "inputs": [
        {
          "internalType": "uint256",
          "name": "_amount",
          "type": "uint256"
        }
      ],
      "name": "stakeEsMMY",
      "outputs": [],
      "stateMutability": "nonpayable",
      "type": "function"
    },
    {
      "inputs": [
        {
          "internalType": "bytes4",
          "name": "interfaceId",
          "type": "bytes4"
        }
      ],
      "name": "supportsInterface",
      "outputs": [
        {
          "internalType": "bool",
          "name": "",
          "type": "bool"
        }
      ],
      "stateMutability": "view",
      "type": "function"
    },
    {
      "inputs": [
        {
          "internalType": "uint256",
          "name": "_amount",
          "type": "uint256"
        }
      ],
      "name": "transferAdapterFTM",
      "outputs": [],
      "stateMutability": "nonpayable",
      "type": "function"
    },
    {
      "inputs": [
        {
          "internalType": "address",
          "name": "_newAddress",
          "type": "address"
        }
      ],
      "name": "transferMummyFiAccount",
      "outputs": [],
      "stateMutability": "nonpayable",
      "type": "function"
    },
    {
      "inputs": [],
      "name": "treasury",
      "outputs": [
        {
          "internalType": "address",
          "name": "",
          "type": "address"
        }
      ],
      "stateMutability": "view",
      "type": "function"
    },
    {
      "inputs": [
        {
          "internalType": "uint256",
          "name": "_amount",
          "type": "uint256"
        }
      ],
      "name": "unstakeEsMMY",
      "outputs": [],
      "stateMutability": "nonpayable",
      "type": "function"
    },
    {
      "inputs": [],
      "name": "upgradeStatus",
      "outputs": [
        {
          "internalType": "bool",
          "name": "",
          "type": "bool"
        }
      ],
      "stateMutability": "view",
      "type": "function"
    },
    {
      "inputs": [
        {
          "internalType": "address",
          "name": "newImplementation",
          "type": "address"
        }
      ],
      "name": "upgradeTo",
      "outputs": [],
      "stateMutability": "nonpayable",
      "type": "function"
    },
    {
      "inputs": [
        {
          "internalType": "address",
          "name": "newImplementation",
          "type": "address"
        },
        {
          "internalType": "bytes",
          "name": "data",
          "type": "bytes"
        }
      ],
      "name": "upgradeToAndCall",
      "outputs": [],
      "stateMutability": "payable",
      "type": "function"
    },
    {
      "inputs": [
        {
          "internalType": "address",
          "name": "_user",
          "type": "address"
        },
        {
          "internalType": "address",
          "name": "_token",
          "type": "address"
        },
        {
          "internalType": "uint256",
          "name": "_full_amout",
          "type": "uint256"
        },
        {
          "internalType": "uint256",
          "name": "_deducted_amount",
          "type": "uint256"
        },
        {
          "internalType": "uint256",
          "name": "_fees",
          "type": "uint256"
        }
      ],
      "name": "withdraw",
      "outputs": [],
      "stateMutability": "nonpayable",
      "type": "function"
    },
    {
      "inputs": [],
      "name": "withdrawMLPVault",
      "outputs": [],
      "stateMutability": "nonpayable",
      "type": "function"
    },
    {
      "inputs": [],
      "name": "withdrawMMYVault",
      "outputs": [],
      "stateMutability": "nonpayable",
      "type": "function"
    },
    {
      "stateMutability": "payable",
      "type": "receive"
    }
  ],
  "bytecode": "0x60a06040523060805234801561001457600080fd5b5060805161294d61004c60003960008181610a9201528181610ad201528181610f2f01528181610f6f0152610fe7015261294d6000f3fe6080604052600436106102035760003560e01c806301d3bd151461020c57806301ffc9a71461022c578063024a8ec61461026157806306370ffc1461028e5780631ddbddd6146102ae578063248a9ca3146102ce5780632f2ff15d146102fc57806331d99a641461031c57806336568abe1461033c5780633659cfe61461035c57806340839f6a1461037c57806343619fd71461039c57806347e7ef24146103b1578063488b3e2f146103d1578063494e63d9146103e657806349a73981146104085780634db860a2146104285780634f1ef2861461044a57806352d1902d1461045d57806353539732146104725780635874adec146104925780635e037de6146104b257806361d027b3146104d25780636465f04a146104f2578063762347591461051257806376ca2b8b146105325780637afa9e9c146105575780638f9a372d1461057957806391d14854146105995780639d6dba52146105b9578063a217fddf146105da578063a7347a84146105ef578063af72a4e814610604578063b88a802f14610624578063bd54244714610639578063cb284d4714610659578063cc50c39114610679578063d4d543c514610699578063d547741f146106b3578063d701f523146106d3578063d864ed9a146106f3578063e47b93d914610713578063f72c0d8b14610734578063f8c8765e14610756578063fd800d3e1461077657005b3661020a57005b005b34801561021857600080fd5b5061020a6102273660046122d4565b610796565b34801561023857600080fd5b5061024c6102473660046122ef565b6107fb565b60405190151581526020015b60405180910390f35b34801561026d57600080fd5b5060fc54610281906001600160a01b031681565b6040516102589190612319565b34801561029a57600080fd5b5061020a6102a93660046122d4565b610832565b3480156102ba57600080fd5b5061020a6102c93660046122d4565b61088e565b3480156102da57600080fd5b506102ee6102e936600461232d565b6109a8565b604051908152602001610258565b34801561030857600080fd5b5061020a610317366004612346565b6109bd565b34801561032857600080fd5b5061020a610337366004612380565b6109de565b34801561034857600080fd5b5061020a610357366004612346565b610a09565b34801561036857600080fd5b5061020a6103773660046122d4565b610a87565b34801561038857600080fd5b5061020a61039736600461232d565b610b50565b3480156103a857600080fd5b5061020a610bc2565b3480156103bd57600080fd5b5061020a6103cc36600461239d565b610c31565b3480156103dd57600080fd5b5061020a610ccf565b3480156103f257600080fd5b506101015461024c90600160a01b900460ff1681565b34801561041457600080fd5b5060fe54610281906001600160a01b031681565b34801561043457600080fd5b5061043d610d22565b60405161025891906123c7565b61020a610458366004612421565b610f24565b34801561046957600080fd5b506102ee610fda565b34801561047e57600080fd5b5061020a61048d3660046122d4565b611088565b34801561049e57600080fd5b5061020a6104ad36600461232d565b6110e5565b3480156104be57600080fd5b5061020a6104cd3660046124e2565b61112a565b3480156104de57600080fd5b5060fd54610281906001600160a01b031681565b3480156104fe57600080fd5b5061020a61050d36600461250b565b611135565b34801561051e57600080fd5b5061020a61052d366004612547565b6111a7565b34801561053e57600080fd5b5060fb546102819061010090046001600160a01b031681565b34801561056357600080fd5b506102ee60008051602061287183398151915281565b34801561058557600080fd5b5061020a6105943660046122d4565b611273565b3480156105a557600080fd5b5061024c6105b4366004612346565b6112c9565b3480156105c557600080fd5b5061010154610281906001600160a01b031681565b3480156105e657600080fd5b506102ee600081565b3480156105fb57600080fd5b5061020a6112f4565b34801561061057600080fd5b5061020a61061f36600461232d565b61137c565b34801561063057600080fd5b5061020a6113ba565b34801561064557600080fd5b5061020a6106543660046122d4565b61141f565b34801561066557600080fd5b5061020a61067436600461232d565b6114ca565b34801561068557600080fd5b5061020a6106943660046122d4565b611508565b3480156106a557600080fd5b5060fb5461024c9060ff1681565b3480156106bf57600080fd5b5061020a6106ce366004612346565b611565565b3480156106df57600080fd5b5061020a6106ee366004612380565b611581565b3480156106ff57600080fd5b5061020a61070e36600461232d565b6115a0565b34801561071f57600080fd5b5061010054610281906001600160a01b031681565b34801561074057600080fd5b506102ee6000805160206128b183398151915281565b34801561076257600080fd5b5061020a610771366004612594565b6115df565b34801561078257600080fd5b5060ff54610281906001600160a01b031681565b60006107a181611878565b6107b3826001600160a01b0316611882565b6107d85760405162461bcd60e51b81526004016107cf906125e8565b60405180910390fd5b5060fe80546001600160a01b0319166001600160a01b0392909216919091179055565b60006001600160e01b03198216637965db0b60e01b148061082c57506301ffc9a760e01b6001600160e01b03198316145b92915050565b600061083d81611878565b61084f826001600160a01b0316611882565b61086b5760405162461bcd60e51b81526004016107cf906125e8565b5060ff80546001600160a01b0319166001600160a01b0392909216919091179055565b600061089981611878565b6108ab826001600160a01b0316611882565b61090a5760405162461bcd60e51b815260206004820152602a60248201527f4d4c502041646170746572203a2048616e646c65722041646472657373204e6f6044820152691d0818dbdb9d1c9858dd60b21b60648201526084016107cf565b60fb54610934906000805160206128718339815191529061010090046001600160a01b0316611891565b61094c600080516020612871833981519152836118f8565b60fb8054610100600160a81b0319166101006001600160a01b038516021790556040517f58caa9895063fc33d67854b32ed152147ad3a370ebf6f9f9c8b538bc039a87b29061099c908490612319565b60405180910390a15050565b60009081526065602052604090206001015490565b6109c6826109a8565b6109cf81611878565b6109d983836118f8565b505050565b60006109e981611878565b506101018054911515600160a01b0260ff60a01b19909216919091179055565b6001600160a01b0381163314610a795760405162461bcd60e51b815260206004820152602f60248201527f416363657373436f6e74726f6c3a2063616e206f6e6c792072656e6f756e636560448201526e103937b632b9903337b91039b2b63360891b60648201526084016107cf565b610a838282611891565b5050565b306001600160a01b037f0000000000000000000000000000000000000000000000000000000000000000161415610ad05760405162461bcd60e51b81526004016107cf9061262a565b7f00000000000000000000000000000000000000000000000000000000000000006001600160a01b0316610b0261197e565b6001600160a01b031614610b285760405162461bcd60e51b81526004016107cf90612664565b610b318161199a565b60408051600080825260208201909252610b4d91839190611a11565b50565b6000610b5b81611878565b6101005460405163b6b55f2560e01b8152600481018490526001600160a01b0390911690819063b6b55f25906024015b600060405180830381600087803b158015610ba557600080fd5b505af1158015610bb9573d6000803e3d6000fd5b50505050505050565b6000610bcd81611878565b6101015460408051633ccfd60b60e01b815290516001600160a01b03909216918291633ccfd60b91600480830192600092919082900301818387803b158015610c1557600080fd5b505af1158015610c29573d6000803e3d6000fd5b505050505050565b61010154600160a01b900460ff1615610cb75760fe5460405163185b800160e11b81526001600160a01b039091169081906330b7000290610c839060019081908190819081908190819060040161269e565b600060405180830381600087803b158015610c9d57600080fd5b505af1158015610cb1573d6000803e3d6000fd5b50505050505b6000805160206128718339815191526109d981611878565b6000610cda81611878565b6101005460408051633ccfd60b60e01b815290516001600160a01b03909216918291633ccfd60b91600480830192600092919082900301818387803b158015610c1557600080fd5b60ff5460408051600480825260a082019092526060926001600160a01b03169160009190602082016080803683370190505090504781600081518110610d6a57610d6a6126d6565b602090810291909101015260fc546040516370a0823160e01b81526001600160a01b03909116906370a0823190610da5903090600401612319565b602060405180830381865afa158015610dc2573d6000803e3d6000fd5b505050506040513d601f19601f82011682018060405250810190610de691906126ec565b81600181518110610df957610df96126d6565b60209081029190910101526040516370a0823160e01b81526001600160a01b038316906370a0823190610e30903090600401612319565b6020604051808303816000875af1158015610e4f573d6000803e3d6000fd5b505050506040513d601f19601f82011682018060405250810190610e7391906126ec565b81600281518110610e8657610e866126d6565b6020908102919091010152604051636021726760e01b81526001600160a01b03831690636021726790610ebd903090600401612319565b6020604051808303816000875af1158015610edc573d6000803e3d6000fd5b505050506040513d601f19601f82011682018060405250810190610f0091906126ec565b81600381518110610f1357610f136126d6565b602090810291909101015292915050565b306001600160a01b037f0000000000000000000000000000000000000000000000000000000000000000161415610f6d5760405162461bcd60e51b81526004016107cf9061262a565b7f00000000000000000000000000000000000000000000000000000000000000006001600160a01b0316610f9f61197e565b6001600160a01b031614610fc55760405162461bcd60e51b81526004016107cf90612664565b610fce8261199a565b610a8382826001611a11565b6000306001600160a01b037f000000000000000000000000000000000000000000000000000000000000000016146110755760405162461bcd60e51b815260206004820152603860248201527f555550535570677261646561626c653a206d757374206e6f742062652063616c6044820152771b1959081d1a1c9bdd59da0819195b1959d85d1958d85b1b60421b60648201526084016107cf565b506000805160206128d183398151915290565b600061109381611878565b6110a5826001600160a01b0316611882565b6110c15760405162461bcd60e51b81526004016107cf906125e8565b5061010180546001600160a01b0319166001600160a01b0392909216919091179055565b60006110f081611878565b60fd546040516001600160a01b039091169083156108fc029084906000818181858888f193505050501580156109d9573d6000803e3d6000fd5b6000610a8381611878565b600061114081611878565b6111546001600160a01b0385168484611b7c565b836001600160a01b0316836001600160a01b03167f84f3859b7a4c4c1b17f558b22446c3394e48c551005072107bbbc4602235d5e78460405161119991815260200190565b60405180910390a350505050565b61010154600160a01b900460ff161561122d5760fe5460405163185b800160e11b81526001600160a01b039091169081906330b70002906111f99060019081908190819081908190819060040161269e565b600060405180830381600087803b15801561121357600080fd5b505af1158015611227573d6000803e3d6000fd5b50505050505b60008051602061287183398151915261124581611878565b6112596001600160a01b0386168785611b7c565b60fd54610c29906001600160a01b03878116911684611b7c565b600061127e81611878565b60fd80546001600160a01b0319166001600160a01b0384161790556040517f9718b5244d3f4d64362bafb32dbe20bedaaca6ba196703cbd27f8256959f27869061099c908490612319565b60009182526065602090815260408084206001600160a01b0393909316845291905290205460ff1690565b61010154600160a01b900460ff161561137a5760fe5460405163185b800160e11b81526001600160a01b039091169081906330b70002906113469060019081908190819081908190819060040161269e565b600060405180830381600087803b15801561136057600080fd5b505af1158015611374573d6000803e3d6000fd5b50505050505b565b600061138781611878565b60fe546040516364f6446760e01b8152600481018490526001600160a01b039091169081906364f6446790602401610b8b565b60006113c581611878565b60fe5460405163185b800160e11b81526001600160a01b039091169081906330b7000290611405906001906000908290829081908390819060040161269e565b600060405180830381600087803b158015610c1557600080fd5b600061142a81611878565b60fe5460405163ef9aacfd60e01b81526001600160a01b0390911690819063ef9aacfd9061145c908690600401612319565b600060405180830381600087803b15801561147657600080fd5b505af115801561148a573d6000803e3d6000fd5b505050507f16c1865e5bcabdb14150422ddf499db481c815467d916f54053c66dce7c79731836040516114bd9190612319565b60405180910390a1505050565b60006114d581611878565b60fe54604051633be3166560e21b8152600481018490526001600160a01b0390911690819063ef8c599490602401610b8b565b600061151381611878565b611525826001600160a01b0316611882565b6115415760405162461bcd60e51b81526004016107cf906125e8565b5061010080546001600160a01b0319166001600160a01b0392909216919091179055565b61156e826109a8565b61157781611878565b6109d98383611891565b600061158c81611878565b5060fb805460ff1916911515919091179055565b60006115ab81611878565b6101015460405163b6b55f2560e01b8152600481018490526001600160a01b0390911690819063b6b55f2590602401610b8b565b600054610100900460ff16158080156115ff5750600054600160ff909116105b80611620575061160e30611882565b158015611620575060005460ff166001145b6116835760405162461bcd60e51b815260206004820152602e60248201527f496e697469616c697a61626c653a20636f6e747261637420697320616c72656160448201526d191e481a5b9a5d1a585b1a5e995960921b60648201526084016107cf565b6000805460ff1916600117905580156116a6576000805461ff0019166101001790555b6116ae611bce565b6116b6611bce565b6116c8846001600160a01b0316611882565b61171f5760405162461bcd60e51b815260206004820152602260248201527f4d4c502041646170746572203a2048616e646c6572204e6f7420636f6e74726160448201526118dd60f21b60648201526084016107cf565b61172a6000836118f8565b6117426000805160206128b1833981519152836118f8565b61175a600080516020612871833981519152856118f8565b60fd80546001600160a01b038088166001600160a01b03199283161790925560fb8054878416610100908102610100600160a81b03199092169190911790915560fc80549387169383169390931790925560fe80548216737b9e962dd8aed0db9a1d8a2d7a962ad8b871ce4f17905560ff8054821673e41c6c006de9147fc4c84b20cdfbfc679667343f179055815416732a3e489f713ab6f652af930555b5bb3422711ac117905561010180547401a1a65d3639a1efbfb18c82003330a4b1fb620c5a6001600160a81b03199091161790558015611374576000805461ff0019169055604051600181527f7f26b83ff96e1f2b6a682f133852f6798a09c465da95921460cefb38474024989060200160405180910390a15050505050565b610b4d8133611c39565b6001600160a01b03163b151590565b61189b82826112c9565b15610a835760008281526065602090815260408083206001600160a01b0385168085529252808320805460ff1916905551339285917ff6391f5c32d9c69d2a47ea670b442974b53935d1edc7fd64eb21e047a839171b9190a45050565b61190282826112c9565b610a835760008281526065602090815260408083206001600160a01b03851684529091529020805460ff1916600117905561193a3390565b6001600160a01b0316816001600160a01b0316837f2f8788117e7eff1d82e926ec794901d17c78024a50270940304540a733656f0d60405160405180910390a45050565b6000805160206128d1833981519152546001600160a01b031690565b6000805160206128b18339815191526119b281611878565b60fb5460ff16611a035760405162461bcd60e51b815260206004820152601c60248201527b12185b991b195c8e88155c19dc985919481b9bdd08185b1b1bddd95960221b60448201526064016107cf565b505060fb805460ff19169055565b7f4910fdfa16fed3260ed0e7147f7cc6da11a60208b5b9406d12a635614ffd91435460ff1615611a44576109d983611c92565b826001600160a01b03166352d1902d6040518163ffffffff1660e01b8152600401602060405180830381865afa925050508015611a9e575060408051601f3d908101601f19168201909252611a9b918101906126ec565b60015b611b015760405162461bcd60e51b815260206004820152602e60248201527f45524331393637557067726164653a206e657720696d706c656d656e7461746960448201526d6f6e206973206e6f74205555505360901b60648201526084016107cf565b6000805160206128d18339815191528114611b705760405162461bcd60e51b815260206004820152602960248201527f45524331393637557067726164653a20756e737570706f727465642070726f786044820152681a58589b195555525160ba1b60648201526084016107cf565b506109d9838383611d2c565b604080516001600160a01b038416602482015260448082018490528251808303909101815260649091019091526020810180516001600160e01b031663a9059cbb60e01b1790526109d9908490611d57565b600054610100900460ff1661137a5760405162461bcd60e51b815260206004820152602b60248201527f496e697469616c697a61626c653a20636f6e7472616374206973206e6f74206960448201526a6e697469616c697a696e6760a81b60648201526084016107cf565b611c4382826112c9565b610a8357611c5081611e29565b611c5b836020611e3b565b604051602001611c6c929190612731565b60408051601f198184030181529082905262461bcd60e51b82526107cf916004016127a0565b611c9b81611882565b611cfd5760405162461bcd60e51b815260206004820152602d60248201527f455243313936373a206e657720696d706c656d656e746174696f6e206973206e60448201526c1bdd08184818dbdb9d1c9858dd609a1b60648201526084016107cf565b6000805160206128d183398151915280546001600160a01b0319166001600160a01b0392909216919091179055565b611d3583611fdd565b600082511180611d425750805b156109d957611d51838361201d565b50505050565b6000611dac826040518060400160405280602081526020017f5361666545524332303a206c6f772d6c6576656c2063616c6c206661696c6564815250856001600160a01b031661210f9092919063ffffffff16565b8051909150156109d95780806020019051810190611dca91906127d3565b6109d95760405162461bcd60e51b815260206004820152602a60248201527f5361666545524332303a204552433230206f7065726174696f6e20646964206e6044820152691bdd081cdd58d8d9595960b21b60648201526084016107cf565b606061082c6001600160a01b03831660145b60606000611e4a836002612806565b611e55906002612825565b6001600160401b03811115611e6c57611e6c61240b565b6040519080825280601f01601f191660200182016040528015611e96576020820181803683370190505b509050600360fc1b81600081518110611eb157611eb16126d6565b60200101906001600160f81b031916908160001a905350600f60fb1b81600181518110611ee057611ee06126d6565b60200101906001600160f81b031916908160001a9053506000611f04846002612806565b611f0f906001612825565b90505b6001811115611f87576f181899199a1a9b1b9c1cb0b131b232b360811b85600f1660108110611f4357611f436126d6565b1a60f81b828281518110611f5957611f596126d6565b60200101906001600160f81b031916908160001a90535060049490941c93611f808161283d565b9050611f12565b508315611fd65760405162461bcd60e51b815260206004820181905260248201527f537472696e67733a20686578206c656e67746820696e73756666696369656e7460448201526064016107cf565b9392505050565b611fe681611c92565b6040516001600160a01b038216907fbc7cd75a20ee27fd9adebab32041f755214dbc6bffa90cc0225b39da2e5c2d3b90600090a250565b606061202883611882565b6120835760405162461bcd60e51b815260206004820152602660248201527f416464726573733a2064656c65676174652063616c6c20746f206e6f6e2d636f6044820152651b9d1c9858dd60d21b60648201526084016107cf565b600080846001600160a01b03168460405161209e9190612854565b600060405180830381855af49150503d80600081146120d9576040519150601f19603f3d011682016040523d82523d6000602084013e6120de565b606091505b509150915061210682826040518060600160405280602781526020016128f160279139612126565b95945050505050565b606061211e848460008561213f565b949350505050565b60608315612135575081611fd6565b611fd6838361221a565b6060824710156121a05760405162461bcd60e51b815260206004820152602660248201527f416464726573733a20696e73756666696369656e742062616c616e636520666f6044820152651c8818d85b1b60d21b60648201526084016107cf565b600080866001600160a01b031685876040516121bc9190612854565b60006040518083038185875af1925050503d80600081146121f9576040519150601f19603f3d011682016040523d82523d6000602084013e6121fe565b606091505b509150915061220f87838387612244565b979650505050505050565b81511561222a5781518083602001fd5b8060405162461bcd60e51b81526004016107cf91906127a0565b606083156122ae5782516122a75761225b85611882565b6122a75760405162461bcd60e51b815260206004820152601d60248201527f416464726573733a2063616c6c20746f206e6f6e2d636f6e747261637400000060448201526064016107cf565b508161211e565b61211e838361221a565b80356001600160a01b03811681146122cf57600080fd5b919050565b6000602082840312156122e657600080fd5b611fd6826122b8565b60006020828403121561230157600080fd5b81356001600160e01b031981168114611fd657600080fd5b6001600160a01b0391909116815260200190565b60006020828403121561233f57600080fd5b5035919050565b6000806040838503121561235957600080fd5b82359150612369602084016122b8565b90509250929050565b8015158114610b4d57600080fd5b60006020828403121561239257600080fd5b8135611fd681612372565b600080604083850312156123b057600080fd5b6123b9836122b8565b946020939093013593505050565b6020808252825182820181905260009190848201906040850190845b818110156123ff578351835292840192918401916001016123e3565b50909695505050505050565b634e487b7160e01b600052604160045260246000fd5b6000806040838503121561243457600080fd5b61243d836122b8565b915060208301356001600160401b038082111561245957600080fd5b818501915085601f83011261246d57600080fd5b81358181111561247f5761247f61240b565b604051601f8201601f19908116603f011681019083821181831017156124a7576124a761240b565b816040528281528860208487010111156124c057600080fd5b8260208601602083013760006020848301015280955050505050509250929050565b6000602082840312156124f457600080fd5b81356001600160401b0381168114611fd657600080fd5b60008060006060848603121561252057600080fd5b612529846122b8565b9250612537602085016122b8565b9150604084013590509250925092565b600080600080600060a0868803121561255f57600080fd5b612568866122b8565b9450612576602087016122b8565b94979496505050506040830135926060810135926080909101359150565b600080600080608085870312156125aa57600080fd5b6125b3856122b8565b93506125c1602086016122b8565b92506125cf604086016122b8565b91506125dd606086016122b8565b905092959194509250565b60208082526022908201527f4d4c502041646170746572203a2041646472657373204e6f7420636f6e74726160408201526118dd60f21b606082015260800190565b6020808252602c9082015260008051602061289183398151915260408201526b19195b1959d85d1958d85b1b60a21b606082015260800190565b6020808252602c9082015260008051602061289183398151915260408201526b6163746976652070726f787960a01b606082015260800190565b961515875294151560208701529215156040860152901515606085015215156080840152151560a0830152151560c082015260e00190565b634e487b7160e01b600052603260045260246000fd5b6000602082840312156126fe57600080fd5b5051919050565b60005b83811015612720578181015183820152602001612708565b83811115611d515750506000910152565b76020b1b1b2b9b9a1b7b73a3937b61d1030b1b1b7bab73a1604d1b815260008351612763816017850160208801612705565b7001034b99036b4b9b9b4b733903937b6329607d1b6017918401918201528351612794816028840160208801612705565b01602801949350505050565b60208152600082518060208401526127bf816040850160208701612705565b601f01601f19169190910160400192915050565b6000602082840312156127e557600080fd5b8151611fd681612372565b634e487b7160e01b600052601160045260246000fd5b6000816000190483118215151615612820576128206127f0565b500290565b60008219821115612838576128386127f0565b500190565b60008161284c5761284c6127f0565b506000190190565b60008251612866818460208701612705565b919091019291505056fe8ee6ed50dc250dbccf4d86bd88d4956ab55c7de37d1fed5508924b70da11fe8b46756e6374696f6e206d7573742062652063616c6c6564207468726f75676820189ab7a9244df0848122154315af71fe140f3db0fe014031783b0946b8c9d2e3360894a13ba1a3210667c828492db98dca3e2076cc3735a920a3ca505d382bbc416464726573733a206c6f772d6c6576656c2064656c65676174652063616c6c206661696c6564a264697066735822122080cf416e90e7e2a73786d308e825499d5dd44201cb619c636b745e47176d0a3264736f6c634300080b0033",
  "linkReferences": {},
  "deployedLinkReferences": {}
}